{
  "address": "0x5FbDB2315678afecb367f032d93F642f64180aa3",
  "abi": [
    {
      "inputs": [
        {
          "components": [
            {
              "components": [
                {
                  "internalType": "uint256",
                  "name": "X",
                  "type": "uint256"
                },
                {
                  "internalType": "uint256",
                  "name": "Y",
                  "type": "uint256"
                }
              ],
              "internalType": "struct Pairing.G1Point",
              "name": "a",
              "type": "tuple"
            },
            {
              "components": [
                {
                  "internalType": "uint256[2]",
                  "name": "X",
                  "type": "uint256[2]"
                },
                {
                  "internalType": "uint256[2]",
                  "name": "Y",
                  "type": "uint256[2]"
                }
              ],
              "internalType": "struct Pairing.G2Point",
              "name": "b",
              "type": "tuple"
            },
            {
              "components": [
                {
                  "internalType": "uint256",
                  "name": "X",
                  "type": "uint256"
                },
                {
                  "internalType": "uint256",
                  "name": "Y",
                  "type": "uint256"
                }
              ],
              "internalType": "struct Pairing.G1Point",
              "name": "c",
              "type": "tuple"
            }
          ],
          "internalType": "struct Verifier.Proof",
          "name": "proof",
          "type": "tuple"
        },
        {
          "internalType": "uint256[11]",
          "name": "input",
          "type": "uint256[11]"
        }
      ],
      "name": "verifyTx",
      "outputs": [
        {
          "internalType": "bool",
          "name": "r",
          "type": "bool"
        }
      ],
      "stateMutability": "view",
      "type": "function"
    }
  ],
  "transactionHash": "0xd4222d2a25c9e561e84db858277016fee90e63458ba1e0fa334bba6043fd7244",
  "args": [],
  "numDeployments": 1,
  "solcInputHash": "c035ea11f0e12535fce3d2af86460709",
  "bytecode": "0x608060405234801561001057600080fd5b506119a9806100206000396000f3fe608060405234801561001057600080fd5b506004361061002b5760003560e01c8063ff3cb73714610030575b600080fd5b61004a60048036038101906100459190611710565b610060565b604051610057919061176d565b60405180910390f35b600080600b67ffffffffffffffff81111561007e5761007d6113ee565b5b6040519080825280602002602001820160405280156100ac5781602001602082028036833780820191505090505b50905060005b600b811015610105578381600b81106100ce576100cd611788565b5b60200201518282815181106100e6576100e5611788565b5b60200260200101818152505080806100fd906117e6565b9150506100b2565b506000610112828661012e565b1415610122576001915050610128565b60009150505b92915050565b6000807f30644e72e131a029b85045b68181585d2833e84879b9709143e1f593f00000019050600061015e6102c5565b905080608001515160018651610174919061182f565b1461017e57600080fd5b60006040518060400160405280600081526020016000815250905060005b865181101561023757838782815181106101b9576101b8611788565b5b6020026020010151106101cb57600080fd5b6102228261021d85608001516001856101e4919061182f565b815181106101f5576101f4611788565b5b60200260200101518a85815181106102105761020f611788565b5b6020026020010151610b79565b610c20565b9150808061022f906117e6565b91505061019c565b5061026181836080015160008151811061025457610253611788565b5b6020026020010151610c20565b90506102a78560000151866020015161027984610ced565b856040015161028b8a60400151610ced565b876060015161029d8960000151610ced565b8960200151610d92565b6102b757600193505050506102bf565b600093505050505b92915050565b6102cd6112ba565b60405180604001604052807f07c23bc73b5c52bed4b0d16907cf152b49def4925ec5cc3f7c4c669286661f6781526020017f0a9a1b3c8bccc8c70ecea37a3e01c21149f772fdddfbcdedd6f0d067a06192178152508160000181905250604051806040016040528060405180604001604052807f2e99a8a9af78a1c01337643049a0ad4aeddff6bc07e432c0c4fc682381c0ca5381526020017f26f8e41ff250ff3545eabb6e0811f78619e768ff97e9daef046dd5d9779cabf6815250815260200160405180604001604052807f0f03a59f8eeedaa392406cfdaf7289228a7762d466febc6f2d4388c7eef0f2cb81526020017f0d29f65ad42e319db6edfaafea2b6684edc3566b261ca9b213afd738b88f310c8152508152508160200181905250604051806040016040528060405180604001604052807f24234800ae77b6a586667d9365688113f18fa7c13ef619a868ba29d8905bcad981526020017f1e0896c7e30e9eeeffad2581c6621dc8dc173076744857f2ddab62220e609311815250815260200160405180604001604052807f26cbd823e9676d0f0d779e61a0b2248095f89a71317d2b18a6440572cbe7648c81526020017f0c55b523f81691393b703286d4fc598b913c3511b82f32a79033a83a8acd4bb88152508152508160400181905250604051806040016040528060405180604001604052807f21b236f1cc3fab0e8f5c42d68c0f85d968c9e2fe0d84c665931101475eb0fbbd81526020017f1c0139b9fdb9f7b1ddb307be21bd6c7432f93b42064e954b46815a4781268d55815250815260200160405180604001604052807f02fd353de07c105836512f7823457fd8dadc02cd8bd1fa906f89f9197216edbf81526020017f1ccd0deef05647c9bcf873b5bab30209410cc7e7600d36733cf780bd276042f18152508152508160600181905250600c67ffffffffffffffff811115610594576105936113ee565b5b6040519080825280602002602001820160405280156105cd57816020015b6105ba611301565b8152602001906001900390816105b25790505b50816080018190525060405180604001604052807f2e2de2c5bcc9a11cca5089b0bcea69f59cbe0e078b38277de92574239776b20b81526020017f13b00c3fb9a2b68a08724eab56f614e0e558305bb86a1f66dfbaa21e0fe3b94c815250816080015160008151811061064357610642611788565b5b602002602001018190525060405180604001604052807f2f0cbded48648c9b944ebaa5da2638669f96fa84c1e49552eff5f3654defa74181526020017f091b270b7a125bd2fc4ba6f8bd20761b868a58d4a49941f541aa3c973b86819a81525081608001516001815181106106bb576106ba611788565b5b602002602001018190525060405180604001604052807f20bce55eaa3eb64994b2195c8b47bbce11789c3aa578ace79c031479277e261781526020017f1d2ab2bd348e03c202c50f0bddee3f2648e7f38f3bf3e00bbbeeb2f83742ca2a815250816080015160028151811061073357610732611788565b5b602002602001018190525060405180604001604052807f20c129b5c18e7c5cc52c0e31c92df9fa96cacb487cc6c3b595f8b63e8f0ba09481526020017f29507074f5114a23591c925b086ff8ea74e1f260f3584d6db28274de858d429381525081608001516003815181106107ab576107aa611788565b5b602002602001018190525060405180604001604052807f21398be9fd1e9306d2c9c05a1d2ab30e3c9272557420f701a608ebdb7c65872981526020017f1107a136ba5c3b11c8774edc56117ea4f536e136cc12876324a4750047f1a000815250816080015160048151811061082357610822611788565b5b602002602001018190525060405180604001604052807f0e6dee343a7c72dbac29cfea0032a85e21c6b90cab59f851128747afb68716eb81526020017f1ead53dfcca87ce0a3bdd16f4a3b58a852b6cc63009d5308072779e0babbf00d815250816080015160058151811061089b5761089a611788565b5b602002602001018190525060405180604001604052807f22427ac587c15f55d0b02257e1230c72df1f896fbcd994d350ea553203a4eb6181526020017f288264d4f3b58dca09f856b1b41c119d931e5fac0d655634617cfdfe390842d3815250816080015160068151811061091357610912611788565b5b602002602001018190525060405180604001604052807f1c8d099ff21195d5f6bc47a323d8cf1ea39cea93f59e331ebc3fb7e87e619eba81526020017f1f84d0d1e38324e1998595f6dffdb8d4d8b0ce044693c401fd983788798b26cd815250816080015160078151811061098b5761098a611788565b5b602002602001018190525060405180604001604052807f04cce5488ba390bfe9986bcae77f42988113b013747200de047fbdb3487b213b81526020017f219727c467a2c9f833967a05f6d6048b7ac70d711c655f5f61a41e5a867954de8152508160800151600881518110610a0357610a02611788565b5b602002602001018190525060405180604001604052807f133702ff40791a13ead043c47d952455d46a914648543e0237bc7fdd30a244f681526020017f1c6d5a3701c8539567f0b98e3fa170190152f59dd9129d6beeae6e681698d8868152508160800151600981518110610a7b57610a7a611788565b5b602002602001018190525060405180604001604052807f117aead1c1d3e2701dcad3cbae72635ab2e574308ab2a07a113c63f1cf66fba581526020017f2c84d88008d51fa159bf16ece8797771928834a86453f2efae5e1033406705ba8152508160800151600a81518110610af357610af2611788565b5b602002602001018190525060405180604001604052807f11db7df851f96a943efd9ce7a3b842a9d14587c1211ae3a809b0c5233565aa6481526020017f1d05235b4097ed478c3c1b29b3500aad4e31c0f18f10d2a6f116e9c20740c5538152508160800151600b81518110610b6b57610b6a611788565b5b602002602001018190525090565b610b81611301565b610b8961131b565b836000015181600060038110610ba257610ba1611788565b5b602002018181525050836020015181600160038110610bc457610bc3611788565b5b6020020181815250508281600260038110610be257610be1611788565b5b602002018181525050600060608360808460076107d05a03fa90508060008114610c0b57610c0d565bfe5b5080610c1857600080fd5b505092915050565b610c28611301565b610c3061133d565b836000015181600060048110610c4957610c48611788565b5b602002018181525050836020015181600160048110610c6b57610c6a611788565b5b602002018181525050826000015181600260048110610c8d57610c8c611788565b5b602002018181525050826020015181600360048110610caf57610cae611788565b5b602002018181525050600060608360c08460066107d05a03fa90508060008114610cd857610cda565bfe5b5080610ce557600080fd5b505092915050565b610cf5611301565b60007f30644e72e131a029b85045b68181585d97816a916871ca8d3c208c16d87cfd47905060008360000151148015610d32575060008360200151145b15610d56576040518060400160405280600081526020016000815250915050610d8d565b604051806040016040528084600001518152602001828560200151610d7b91906118b4565b83610d8691906118e5565b8152509150505b919050565b600080600467ffffffffffffffff811115610db057610daf6113ee565b5b604051908082528060200260200182016040528015610de957816020015b610dd6611301565b815260200190600190039081610dce5790505b5090506000600467ffffffffffffffff811115610e0957610e086113ee565b5b604051908082528060200260200182016040528015610e4257816020015b610e2f61135f565b815260200190600190039081610e275790505b5090508a82600081518110610e5a57610e59611788565b5b60200260200101819052508882600181518110610e7a57610e79611788565b5b60200260200101819052508682600281518110610e9a57610e99611788565b5b60200260200101819052508482600381518110610eba57610eb9611788565b5b60200260200101819052508981600081518110610eda57610ed9611788565b5b60200260200101819052508781600181518110610efa57610ef9611788565b5b60200260200101819052508581600281518110610f1a57610f19611788565b5b60200260200101819052508381600381518110610f3a57610f39611788565b5b6020026020010181905250610f4f8282610f5f565b9250505098975050505050505050565b60008151835114610f6f57600080fd5b6000835190506000600682610f849190611919565b905060008167ffffffffffffffff811115610fa257610fa16113ee565b5b604051908082528060200260200182016040528015610fd05781602001602082028036833780820191505090505b50905060005b8381101561125557868181518110610ff157610ff0611788565b5b60200260200101516000015182600060068461100d9190611919565b611017919061182f565b8151811061102857611027611788565b5b60200260200101818152505086818151811061104757611046611788565b5b6020026020010151602001518260016006846110639190611919565b61106d919061182f565b8151811061107e5761107d611788565b5b60200260200101818152505085818151811061109d5761109c611788565b5b6020026020010151600001516001600281106110bc576110bb611788565b5b60200201518260026006846110d19190611919565b6110db919061182f565b815181106110ec576110eb611788565b5b60200260200101818152505085818151811061110b5761110a611788565b5b60200260200101516000015160006002811061112a57611129611788565b5b602002015182600360068461113f9190611919565b611149919061182f565b8151811061115a57611159611788565b5b60200260200101818152505085818151811061117957611178611788565b5b60200260200101516020015160016002811061119857611197611788565b5b60200201518260046006846111ad9190611919565b6111b7919061182f565b815181106111c8576111c7611788565b5b6020026020010181815250508581815181106111e7576111e6611788565b5b60200260200101516020015160006002811061120657611205611788565b5b602002015182600560068461121b9190611919565b611225919061182f565b8151811061123657611235611788565b5b602002602001018181525050808061124d906117e6565b915050610fd6565b5061125e611385565b6000602082602086026020860160086107d05a03fa9050806000811461128357611285565bfe5b508061129057600080fd5b6000826000600181106112a6576112a5611788565b5b602002015114159550505050505092915050565b6040518060a001604052806112cd611301565b81526020016112da61135f565b81526020016112e761135f565b81526020016112f461135f565b8152602001606081525090565b604051806040016040528060008152602001600081525090565b6040518060600160405280600390602082028036833780820191505090505090565b6040518060800160405280600490602082028036833780820191505090505090565b60405180604001604052806113726113a7565b815260200161137f6113a7565b81525090565b6040518060200160405280600190602082028036833780820191505090505090565b6040518060400160405280600290602082028036833780820191505090505090565b6000604051905090565b600080fd5b600080fd5b6000601f19601f8301169050919050565b7f4e487b7100000000000000000000000000000000000000000000000000000000600052604160045260246000fd5b611426826113dd565b810181811067ffffffffffffffff82111715611445576114446113ee565b5b80604052505050565b60006114586113c9565b9050611464828261141d565b919050565b6000819050919050565b61147c81611469565b811461148757600080fd5b50565b60008135905061149981611473565b92915050565b6000604082840312156114b5576114b46113d8565b5b6114bf604061144e565b905060006114cf8482850161148a565b60008301525060206114e38482850161148a565b60208301525092915050565b600080fd5b600067ffffffffffffffff82111561150f5761150e6113ee565b5b602082029050919050565b600080fd5b600061153261152d846114f4565b61144e565b9050806020840283018581111561154c5761154b61151a565b5b835b818110156115755780611561888261148a565b84526020840193505060208101905061154e565b5050509392505050565b600082601f830112611594576115936114ef565b5b60026115a184828561151f565b91505092915050565b6000608082840312156115c0576115bf6113d8565b5b6115ca604061144e565b905060006115da8482850161157f565b60008301525060406115ee8482850161157f565b60208301525092915050565b60006101008284031215611611576116106113d8565b5b61161b606061144e565b9050600061162b8482850161149f565b600083015250604061163f848285016115aa565b60208301525060c06116538482850161149f565b60408301525092915050565b600067ffffffffffffffff82111561167a576116796113ee565b5b602082029050919050565b60006116986116938461165f565b61144e565b905080602084028301858111156116b2576116b161151a565b5b835b818110156116db57806116c7888261148a565b8452602084019350506020810190506116b4565b5050509392505050565b600082601f8301126116fa576116f96114ef565b5b600b611707848285611685565b91505092915050565b6000806102608385031215611728576117276113d3565b5b6000611736858286016115fa565b925050610100611748858286016116e5565b9150509250929050565b60008115159050919050565b61176781611752565b82525050565b6000602082019050611782600083018461175e565b92915050565b7f4e487b7100000000000000000000000000000000000000000000000000000000600052603260045260246000fd5b7f4e487b7100000000000000000000000000000000000000000000000000000000600052601160045260246000fd5b60006117f182611469565b91507fffffffffffffffffffffffffffffffffffffffffffffffffffffffffffffffff821415611824576118236117b7565b5b600182019050919050565b600061183a82611469565b915061184583611469565b9250827fffffffffffffffffffffffffffffffffffffffffffffffffffffffffffffffff0382111561187a576118796117b7565b5b828201905092915050565b7f4e487b7100000000000000000000000000000000000000000000000000000000600052601260045260246000fd5b60006118bf82611469565b91506118ca83611469565b9250826118da576118d9611885565b5b828206905092915050565b60006118f082611469565b91506118fb83611469565b92508282101561190e5761190d6117b7565b5b828203905092915050565b600061192482611469565b915061192f83611469565b9250817fffffffffffffffffffffffffffffffffffffffffffffffffffffffffffffffff0483118215151615611968576119676117b7565b5b82820290509291505056fea2646970667358221220c445069ce671a5e88c9bb3a51b40e56ff1a87a4830dbaabd23c8a413fe1a6dfe64736f6c63430008090033",
  "devdoc": {
    "kind": "dev",
    "methods": {},
    "version": 1
  },
  "userdoc": {
    "kind": "user",
    "methods": {},
    "version": 1
  },
  "storageLayout": {
    "storage": [],
    "types": null
  }
}