{
  "_format": "hh-sol-artifact-1",
  "contractName": "PKDR",
  "sourceName": "contracts/PKDR.sol",
  "abi": [
    {
      "inputs": [],
      "stateMutability": "nonpayable",
      "type": "constructor"
    },
    {
      "inputs": [
        {
          "internalType": "address",
          "name": "",
          "type": "address"
        }
      ],
      "name": "MULTISIG_REQUIRED",
      "type": "error"
    },
    {
      "inputs": [
        {
          "internalType": "address",
          "name": "",
          "type": "address"
        }
      ],
      "name": "USER_NOT_VERIFIED",
      "type": "error"
    },
    {
      "anonymous": false,
      "inputs": [
        {
          "indexed": false,
          "internalType": "uint256",
          "name": "fallbackAmount",
          "type": "uint256"
        }
      ],
      "name": "AMOUNT_RECEIVED_THROUGH_FALLBACK",
      "type": "event"
    },
    {
      "anonymous": false,
      "inputs": [
        {
          "indexed": false,
          "internalType": "uint256",
          "name": "receiveAmount",
          "type": "uint256"
        }
      ],
      "name": "AMOUNT_RECEIVED_THROUGH_RECEIVE",
      "type": "event"
    },
    {
      "anonymous": false,
      "inputs": [
        {
          "indexed": false,
          "internalType": "address",
          "name": "previousAdmin",
          "type": "address"
        },
        {
          "indexed": false,
          "internalType": "address",
          "name": "newAdmin",
          "type": "address"
        }
      ],
      "name": "AdminChanged",
      "type": "event"
    },
    {
      "anonymous": false,
      "inputs": [
        {
          "indexed": true,
          "internalType": "address",
          "name": "owner",
          "type": "address"
        },
        {
          "indexed": true,
          "internalType": "address",
          "name": "spender",
          "type": "address"
        },
        {
          "indexed": false,
          "internalType": "uint256",
          "name": "value",
          "type": "uint256"
        }
      ],
      "name": "Approval",
      "type": "event"
    },
    {
      "anonymous": false,
      "inputs": [
        {
          "indexed": true,
          "internalType": "address",
          "name": "beacon",
          "type": "address"
        }
      ],
      "name": "BeaconUpgraded",
      "type": "event"
    },
    {
      "anonymous": false,
      "inputs": [
        {
          "indexed": false,
          "internalType": "uint8",
          "name": "version",
          "type": "uint8"
        }
      ],
      "name": "Initialized",
      "type": "event"
    },
    {
      "anonymous": false,
      "inputs": [
        {
          "indexed": true,
          "internalType": "address",
          "name": "previousOwner",
          "type": "address"
        },
        {
          "indexed": true,
          "internalType": "address",
          "name": "newOwner",
          "type": "address"
        }
      ],
      "name": "OwnershipTransferred",
      "type": "event"
    },
    {
      "anonymous": false,
      "inputs": [
        {
          "indexed": false,
          "internalType": "address",
          "name": "account",
          "type": "address"
        }
      ],
      "name": "Paused",
      "type": "event"
    },
    {
      "anonymous": false,
      "inputs": [
        {
          "indexed": false,
          "internalType": "uint256",
          "name": "id",
          "type": "uint256"
        }
      ],
      "name": "Snapshot",
      "type": "event"
    },
    {
      "anonymous": false,
      "inputs": [
        {
          "indexed": false,
          "internalType": "address",
          "name": "",
          "type": "address"
        }
      ],
      "name": "TRANSFER_REQUIRED_MULTI_SIGNATURE",
      "type": "event"
    },
    {
      "anonymous": false,
      "inputs": [
        {
          "indexed": false,
          "internalType": "address",
          "name": "",
          "type": "address"
        }
      ],
      "name": "TRANSFER_REQUIRED_VERIFICATION_I",
      "type": "event"
    },
    {
      "anonymous": false,
      "inputs": [
        {
          "indexed": true,
          "internalType": "address",
          "name": "from",
          "type": "address"
        },
        {
          "indexed": true,
          "internalType": "address",
          "name": "to",
          "type": "address"
        },
        {
          "indexed": false,
          "internalType": "uint256",
          "name": "value",
          "type": "uint256"
        }
      ],
      "name": "Transfer",
      "type": "event"
    },
    {
      "anonymous": false,
      "inputs": [
        {
          "indexed": false,
          "internalType": "address",
          "name": "account",
          "type": "address"
        }
      ],
      "name": "Unpaused",
      "type": "event"
    },
    {
      "anonymous": false,
      "inputs": [
        {
          "indexed": true,
          "internalType": "address",
          "name": "implementation",
          "type": "address"
        }
      ],
      "name": "Upgraded",
      "type": "event"
    },
    {
      "stateMutability": "payable",
      "type": "fallback"
    },
    {
      "inputs": [],
      "name": "DOMAIN_SEPARATOR",
      "outputs": [
        {
          "internalType": "bytes32",
          "name": "",
          "type": "bytes32"
        }
      ],
      "stateMutability": "view",
      "type": "function"
    },
    {
      "inputs": [
        {
          "internalType": "address",
          "name": "_owner",
          "type": "address"
        },
        {
          "internalType": "address",
          "name": "_spender",
          "type": "address"
        }
      ],
      "name": "allowance",
      "outputs": [
        {
          "internalType": "uint256",
          "name": "",
          "type": "uint256"
        }
      ],
      "stateMutability": "view",
      "type": "function"
    },
    {
      "inputs": [
        {
          "internalType": "address",
          "name": "spender",
          "type": "address"
        },
        {
          "internalType": "uint256",
          "name": "amount",
          "type": "uint256"
        }
      ],
      "name": "approve",
      "outputs": [
        {
          "internalType": "bool",
          "name": "",
          "type": "bool"
        }
      ],
      "stateMutability": "nonpayable",
      "type": "function"
    },
    {
      "inputs": [
        {
          "internalType": "address",
          "name": "account",
          "type": "address"
        }
      ],
      "name": "balanceOf",
      "outputs": [
        {
          "internalType": "uint256",
          "name": "",
          "type": "uint256"
        }
      ],
      "stateMutability": "view",
      "type": "function"
    },
    {
      "inputs": [
        {
          "internalType": "address",
          "name": "account",
          "type": "address"
        },
        {
          "internalType": "uint256",
          "name": "snapshotId",
          "type": "uint256"
        }
      ],
      "name": "balanceOfAt",
      "outputs": [
        {
          "internalType": "uint256",
          "name": "",
          "type": "uint256"
        }
      ],
      "stateMutability": "view",
      "type": "function"
    },
    {
      "inputs": [
        {
          "internalType": "uint256",
          "name": "amount",
          "type": "uint256"
        }
      ],
      "name": "burn",
      "outputs": [],
      "stateMutability": "nonpayable",
      "type": "function"
    },
    {
      "inputs": [
        {
          "internalType": "address",
          "name": "account",
          "type": "address"
        },
        {
          "internalType": "uint256",
          "name": "amount",
          "type": "uint256"
        }
      ],
      "name": "burnFrom",
      "outputs": [],
      "stateMutability": "nonpayable",
      "type": "function"
    },
    {
      "inputs": [],
      "name": "decimals",
      "outputs": [
        {
          "internalType": "uint8",
          "name": "",
          "type": "uint8"
        }
      ],
      "stateMutability": "view",
      "type": "function"
    },
    {
      "inputs": [
        {
          "internalType": "address",
          "name": "spender",
          "type": "address"
        },
        {
          "internalType": "uint256",
          "name": "subtractedValue",
          "type": "uint256"
        }
      ],
      "name": "decreaseAllowance",
      "outputs": [
        {
          "internalType": "bool",
          "name": "",
          "type": "bool"
        }
      ],
      "stateMutability": "nonpayable",
      "type": "function"
    },
    {
      "inputs": [],
      "name": "getContractBalance",
      "outputs": [
        {
          "internalType": "uint256",
          "name": "",
          "type": "uint256"
        }
      ],
      "stateMutability": "view",
      "type": "function"
    },
    {
      "inputs": [],
      "name": "getProfileAddress",
      "outputs": [
        {
          "internalType": "address",
          "name": "",
          "type": "address"
        }
      ],
      "stateMutability": "view",
      "type": "function"
    },
    {
      "inputs": [
        {
          "internalType": "address",
          "name": "spender",
          "type": "address"
        },
        {
          "internalType": "uint256",
          "name": "addedValue",
          "type": "uint256"
        }
      ],
      "name": "increaseAllowance",
      "outputs": [
        {
          "internalType": "bool",
          "name": "",
          "type": "bool"
        }
      ],
      "stateMutability": "nonpayable",
      "type": "function"
    },
    {
      "inputs": [],
      "name": "initialize",
      "outputs": [],
      "stateMutability": "nonpayable",
      "type": "function"
    },
    {
      "inputs": [
        {
          "internalType": "address",
          "name": "to",
          "type": "address"
        },
        {
          "internalType": "uint256",
          "name": "amount",
          "type": "uint256"
        }
      ],
      "name": "mint",
      "outputs": [],
      "stateMutability": "nonpayable",
      "type": "function"
    },
    {
      "inputs": [],
      "name": "name",
      "outputs": [
        {
          "internalType": "string",
          "name": "",
          "type": "string"
        }
      ],
      "stateMutability": "view",
      "type": "function"
    },
    {
      "inputs": [
        {
          "internalType": "address",
          "name": "owner",
          "type": "address"
        }
      ],
      "name": "nonces",
      "outputs": [
        {
          "internalType": "uint256",
          "name": "",
          "type": "uint256"
        }
      ],
      "stateMutability": "view",
      "type": "function"
    },
    {
      "inputs": [],
      "name": "owner",
      "outputs": [
        {
          "internalType": "address",
          "name": "",
          "type": "address"
        }
      ],
      "stateMutability": "view",
      "type": "function"
    },
    {
      "inputs": [],
      "name": "pause",
      "outputs": [],
      "stateMutability": "nonpayable",
      "type": "function"
    },
    {
      "inputs": [],
      "name": "paused",
      "outputs": [
        {
          "internalType": "bool",
          "name": "",
          "type": "bool"
        }
      ],
      "stateMutability": "view",
      "type": "function"
    },
    {
      "inputs": [
        {
          "internalType": "address",
          "name": "owner",
          "type": "address"
        },
        {
          "internalType": "address",
          "name": "spender",
          "type": "address"
        },
        {
          "internalType": "uint256",
          "name": "value",
          "type": "uint256"
        },
        {
          "internalType": "uint256",
          "name": "deadline",
          "type": "uint256"
        },
        {
          "internalType": "uint8",
          "name": "v",
          "type": "uint8"
        },
        {
          "internalType": "bytes32",
          "name": "r",
          "type": "bytes32"
        },
        {
          "internalType": "bytes32",
          "name": "s",
          "type": "bytes32"
        }
      ],
      "name": "permit",
      "outputs": [],
      "stateMutability": "nonpayable",
      "type": "function"
    },
    {
      "inputs": [],
      "name": "proxiableUUID",
      "outputs": [
        {
          "internalType": "bytes32",
          "name": "",
          "type": "bytes32"
        }
      ],
      "stateMutability": "view",
      "type": "function"
    },
    {
      "inputs": [],
      "name": "renounceOwnership",
      "outputs": [],
      "stateMutability": "nonpayable",
      "type": "function"
    },
    {
      "inputs": [
        {
          "internalType": "address payable",
          "name": "_profiles",
          "type": "address"
        }
      ],
      "name": "setProfileAddress",
      "outputs": [],
      "stateMutability": "nonpayable",
      "type": "function"
    },
    {
      "inputs": [],
      "name": "symbol",
      "outputs": [
        {
          "internalType": "string",
          "name": "",
          "type": "string"
        }
      ],
      "stateMutability": "view",
      "type": "function"
    },
    {
      "inputs": [],
      "name": "totalSupply",
      "outputs": [
        {
          "internalType": "uint256",
          "name": "",
          "type": "uint256"
        }
      ],
      "stateMutability": "view",
      "type": "function"
    },
    {
      "inputs": [
        {
          "internalType": "uint256",
          "name": "snapshotId",
          "type": "uint256"
        }
      ],
      "name": "totalSupplyAt",
      "outputs": [
        {
          "internalType": "uint256",
          "name": "",
          "type": "uint256"
        }
      ],
      "stateMutability": "view",
      "type": "function"
    },
    {
      "inputs": [
        {
          "internalType": "address",
          "name": "to",
          "type": "address"
        },
        {
          "internalType": "uint256",
          "name": "amount",
          "type": "uint256"
        }
      ],
      "name": "transfer",
      "outputs": [
        {
          "internalType": "bool",
          "name": "",
          "type": "bool"
        }
      ],
      "stateMutability": "nonpayable",
      "type": "function"
    },
    {
      "inputs": [
        {
          "internalType": "address",
          "name": "from",
          "type": "address"
        },
        {
          "internalType": "address",
          "name": "to",
          "type": "address"
        },
        {
          "internalType": "uint256",
          "name": "amount",
          "type": "uint256"
        }
      ],
      "name": "transferFrom",
      "outputs": [
        {
          "internalType": "bool",
          "name": "",
          "type": "bool"
        }
      ],
      "stateMutability": "nonpayable",
      "type": "function"
    },
    {
      "inputs": [
        {
          "internalType": "address",
          "name": "newOwner",
          "type": "address"
        }
      ],
      "name": "transferOwnership",
      "outputs": [],
      "stateMutability": "nonpayable",
      "type": "function"
    },
    {
      "inputs": [],
      "name": "unpause",
      "outputs": [],
      "stateMutability": "nonpayable",
      "type": "function"
    },
    {
      "inputs": [
        {
          "internalType": "address",
          "name": "newImplementation",
          "type": "address"
        }
      ],
      "name": "upgradeTo",
      "outputs": [],
      "stateMutability": "nonpayable",
      "type": "function"
    },
    {
      "inputs": [
        {
          "internalType": "address",
          "name": "newImplementation",
          "type": "address"
        },
        {
          "internalType": "bytes",
          "name": "data",
          "type": "bytes"
        }
      ],
      "name": "upgradeToAndCall",
      "outputs": [],
      "stateMutability": "payable",
      "type": "function"
    },
    {
      "stateMutability": "payable",
      "type": "receive"
    }
  ],
  "bytecode": "0x60e06040523073ffffffffffffffffffffffffffffffffffffffff1660809073ffffffffffffffffffffffffffffffffffffffff168152506040516020016200004890620001d7565b6040516020818303038152906040528051906020012060a09081525060405160200162000075906200023e565b6040516020818303038152906040528051906020012060c0908152503480156200009e57600080fd5b50620000af620000b560201b60201c565b62000339565b600060019054906101000a900460ff161562000108576040517f08c379a0000000000000000000000000000000000000000000000000000000008152600401620000ff90620002dc565b60405180910390fd5b60ff801660008054906101000a900460ff1660ff1610156200017a5760ff6000806101000a81548160ff021916908360ff1602179055507f7f26b83ff96e1f2b6a682f133852f6798a09c465da95921460cefb384740249860ff6040516200017191906200031c565b60405180910390a15b565b600081905092915050565b7f415050524f564544000000000000000000000000000000000000000000000000600082015250565b6000620001bf6008836200017c565b9150620001cc8262000187565b600882019050919050565b6000620001e482620001b0565b9150819050919050565b7f4e554c4c00000000000000000000000000000000000000000000000000000000600082015250565b6000620002266004836200017c565b91506200023382620001ee565b600482019050919050565b60006200024b8262000217565b9150819050919050565b600082825260208201905092915050565b7f496e697469616c697a61626c653a20636f6e747261637420697320696e69746960008201527f616c697a696e6700000000000000000000000000000000000000000000000000602082015250565b6000620002c460278362000255565b9150620002d18262000266565b604082019050919050565b60006020820190508181036000830152620002f781620002b5565b9050919050565b600060ff82169050919050565b6200031681620002fe565b82525050565b60006020820190506200033360008301846200030b565b92915050565b60805160a05160c0516156ce62000393600039600081816109b10152610a1f01526000818161147f01526114e9015260008181610b1001528181610b9f01528181610d9101528181610e200152610ed001526156ce6000f3fe6080604052600436106101e75760003560e01c80635c975abb116101025780638da5cb5b11610095578063a9059cbb11610064578063a9059cbb14610739578063d505accf14610776578063dd62ed3e1461079f578063f2fde38b146107dc57610225565b80638da5cb5b1461066957806395d89b4114610694578063981b24d0146106bf578063a457c2d7146106fc57610225565b806379cc6790116100d157806379cc6790146105d55780637ecebe00146105fe5780638129fc1c1461063b5780638456cb591461065257610225565b80635c975abb1461052b5780636f9fb98a1461055657806370a0823114610581578063715018a6146105be57610225565b8063395093511161017a5780634ee2cd7e116101495780634ee2cd7e1461047e5780634f1ef286146104bb57806352d1902d146104d757806359e784601461050257610225565b806339509351146103d85780633f4ba83a1461041557806340c10f191461042c57806342966c681461045557610225565b8063313ce567116101b6578063313ce5671461032e578063345a903f146103595780633644e515146103845780633659cfe6146103af57610225565b806306fdde031461025e578063095ea7b31461028957806318160ddd146102c657806323b872dd146102f157610225565b36610225577f42100f075a78c1dac886a43652b5c7c76cca3718758e13e7b726063cd20fe02c3460405161021b9190613730565b60405180910390a1005b7f6cb8a67804b99a2876f9d2f903120d1607df4c6bb33315433f4f5b9284ba1588346040516102549190613730565b60405180910390a1005b34801561026a57600080fd5b50610273610805565b60405161028091906137e4565b60405180910390f35b34801561029557600080fd5b506102b060048036038101906102ab91906138a4565b610897565b6040516102bd91906138ff565b60405180910390f35b3480156102d257600080fd5b506102db610900565b6040516102e89190613730565b60405180910390f35b3480156102fd57600080fd5b506103186004803603810190610313919061391a565b61090a565b60405161032591906138ff565b60405180910390f35b34801561033a57600080fd5b50610343610ac3565b6040516103509190613989565b60405180910390f35b34801561036557600080fd5b5061036e610acc565b60405161037b91906139b3565b60405180910390f35b34801561039057600080fd5b50610399610aff565b6040516103a691906139e7565b60405180910390f35b3480156103bb57600080fd5b506103d660048036038101906103d19190613a02565b610b0e565b005b3480156103e457600080fd5b506103ff60048036038101906103fa91906138a4565b610c97565b60405161040c91906138ff565b60405180910390f35b34801561042157600080fd5b5061042a610cbd565b005b34801561043857600080fd5b50610453600480360381019061044e91906138a4565b610ccf565b005b34801561046157600080fd5b5061047c60048036038101906104779190613a2f565b610d0b565b005b34801561048a57600080fd5b506104a560048036038101906104a091906138a4565b610d1f565b6040516104b29190613730565b60405180910390f35b6104d560048036038101906104d09190613b91565b610d8f565b005b3480156104e357600080fd5b506104ec610ecc565b6040516104f991906139e7565b60405180910390f35b34801561050e57600080fd5b5061052960048036038101906105249190613c2b565b610f85565b005b34801561053757600080fd5b50610540610fd2565b60405161054d91906138ff565b60405180910390f35b34801561056257600080fd5b5061056b610fe9565b6040516105789190613730565b60405180910390f35b34801561058d57600080fd5b506105a860048036038101906105a39190613a02565b610ff9565b6040516105b59190613730565b60405180910390f35b3480156105ca57600080fd5b506105d3611042565b005b3480156105e157600080fd5b506105fc60048036038101906105f791906138a4565b611056565b005b34801561060a57600080fd5b5061062560048036038101906106209190613a02565b61106c565b6040516106329190613730565b60405180910390f35b34801561064757600080fd5b506106506110bd565b005b34801561065e57600080fd5b506106676112cd565b005b34801561067557600080fd5b5061067e6112df565b60405161068b91906139b3565b60405180910390f35b3480156106a057600080fd5b506106a96112ee565b6040516106b691906137e4565b60405180910390f35b3480156106cb57600080fd5b506106e660048036038101906106e19190613a2f565b611380565b6040516106f39190613730565b60405180910390f35b34801561070857600080fd5b50610723600480360381019061071e91906138a4565b6113b1565b60405161073091906138ff565b60405180910390f35b34801561074557600080fd5b50610760600480360381019061075b91906138a4565b6113db565b60405161076d91906138ff565b60405180910390f35b34801561078257600080fd5b5061079d60048036038101906107989190613cb0565b611584565b005b3480156107ab57600080fd5b506107c660048036038101906107c19190613d52565b6116c6565b6040516107d39190613730565b60405180910390f35b3480156107e857600080fd5b5061080360048036038101906107fe9190613a02565b6116e2565b005b60606036805461081490613dc1565b80601f016020809104026020016040519081016040528092919081815260200182805461084090613dc1565b801561088d5780601f106108625761010080835404028352916020019161088d565b820191906000526020600020905b81548152906001019060200180831161087057829003601f168201915b5050505050905090565b60006108a1611766565b6108a96112df565b92507fffffffffffffffffffffffffffffffffffffffffffffffffffffffffffffffff91506108f8837fffffffffffffffffffffffffffffffffffffffffffffffffffffffffffffffff6117b0565b905092915050565b6000603554905090565b6000610914611766565b61091c6117d3565b8361092681611851565b610965576040517f08c379a000000000000000000000000000000000000000000000000000000000815260040161095c90613e3f565b60405180910390fd5b8361096f81611851565b6109ae576040517f08c379a00000000000000000000000000000000000000000000000000000000081526004016109a590613e3f565b60405180910390fd5b857f00000000000000000000000000000000000000000000000000000000000000006109d98261190b565b1415610a1c57806040517f80b9ec45000000000000000000000000000000000000000000000000000000008152600401610a1391906139b3565b60405180910390fd5b857f0000000000000000000000000000000000000000000000000000000000000000610a478261190b565b1415610a8a57806040517f80b9ec45000000000000000000000000000000000000000000000000000000008152600401610a8191906139b3565b60405180910390fd5b610ab68888610a97610ac3565b60ff16600a8a610aa79190613fc1565b610ab1919061400c565b6119c0565b9450505050509392505050565b60006012905090565b6000610ad66117d3565b6101f860009054906101000a900473ffffffffffffffffffffffffffffffffffffffff16905090565b6000610b096119ef565b905090565b7f000000000000000000000000000000000000000000000000000000000000000073ffffffffffffffffffffffffffffffffffffffff163073ffffffffffffffffffffffffffffffffffffffff161415610b9d576040517f08c379a0000000000000000000000000000000000000000000000000000000008152600401610b94906140d8565b60405180910390fd5b7f000000000000000000000000000000000000000000000000000000000000000073ffffffffffffffffffffffffffffffffffffffff16610bdc611a2f565b73ffffffffffffffffffffffffffffffffffffffff1614610c32576040517f08c379a0000000000000000000000000000000000000000000000000000000008152600401610c299061416a565b60405180910390fd5b610c3b81611a86565b610c9481600067ffffffffffffffff811115610c5a57610c59613a66565b5b6040519080825280601f01601f191660200182016040528015610c8c5781602001600182028036833780820191505090505b506000611a91565b50565b6000610ca1611766565b610ca96112df565b9250610cb58383611c0e565b905092915050565b610cc56117d3565b610ccd611c45565b565b610cd7611766565b610cdf6117d3565b610d0782610ceb610ac3565b600a610cf79190613fc1565b83610d02919061400c565b611ca8565b5050565b610d136117d3565b610d1c81611e00565b50565b6000806000610d6c84609760008873ffffffffffffffffffffffffffffffffffffffff1673ffffffffffffffffffffffffffffffffffffffff168152602001908152602001600020611e14565b9150915081610d8357610d7e85610ff9565b610d85565b805b9250505092915050565b7f000000000000000000000000000000000000000000000000000000000000000073ffffffffffffffffffffffffffffffffffffffff163073ffffffffffffffffffffffffffffffffffffffff161415610e1e576040517f08c379a0000000000000000000000000000000000000000000000000000000008152600401610e15906140d8565b60405180910390fd5b7f000000000000000000000000000000000000000000000000000000000000000073ffffffffffffffffffffffffffffffffffffffff16610e5d611a2f565b73ffffffffffffffffffffffffffffffffffffffff1614610eb3576040517f08c379a0000000000000000000000000000000000000000000000000000000008152600401610eaa9061416a565b60405180910390fd5b610ebc82611a86565b610ec882826001611a91565b5050565b60007f000000000000000000000000000000000000000000000000000000000000000073ffffffffffffffffffffffffffffffffffffffff163073ffffffffffffffffffffffffffffffffffffffff1614610f5c576040517f08c379a0000000000000000000000000000000000000000000000000000000008152600401610f53906141fc565b60405180910390fd5b7f360894a13ba1a3210667c828492db98dca3e2076cc3735a920a3ca505d382bbc60001b905090565b610f8d6117d3565b806101f860006101000a81548173ffffffffffffffffffffffffffffffffffffffff021916908373ffffffffffffffffffffffffffffffffffffffff16021790555050565b600060fb60009054906101000a900460ff16905090565b6000610ff36117d3565b47905090565b6000603360008373ffffffffffffffffffffffffffffffffffffffff1673ffffffffffffffffffffffffffffffffffffffff168152602001908152602001600020549050919050565b61104a6117d3565b6110546000611f0a565b565b61105e6117d3565b6110688282611fd0565b5050565b60006110b661016160008473ffffffffffffffffffffffffffffffffffffffff1673ffffffffffffffffffffffffffffffffffffffff168152602001908152602001600020611ff0565b9050919050565b60008060019054906101000a900460ff161590508080156110ee5750600160008054906101000a900460ff1660ff16105b8061111b57506110fd30611ffe565b15801561111a5750600160008054906101000a900460ff1660ff16145b5b61115a576040517f08c379a00000000000000000000000000000000000000000000000000000000081526004016111519061428e565b60405180910390fd5b60016000806101000a81548160ff021916908360ff1602179055508015611197576001600060016101000a81548160ff0219169083151502179055505b61120b6040518060400160405280600481526020017f504b4452000000000000000000000000000000000000000000000000000000008152506040518060400160405280600481526020017f504b445200000000000000000000000000000000000000000000000000000000815250612021565b61121361207e565b61121b6120cf565b611223612120565b61122b612179565b6112696040518060400160405280600481526020017f504b4452000000000000000000000000000000000000000000000000000000008152506121d2565b611271612263565b80156112ca5760008060016101000a81548160ff0219169083151502179055507f7f26b83ff96e1f2b6a682f133852f6798a09c465da95921460cefb384740249860016040516112c191906142f3565b60405180910390a15b50565b6112d56117d3565b6112dd6122b4565b565b60006112e9612317565b905090565b6060603780546112fd90613dc1565b80601f016020809104026020016040519081016040528092919081815260200182805461132990613dc1565b80156113765780601f1061134b57610100808354040283529160200191611376565b820191906000526020600020905b81548152906001019060200180831161135957829003601f168201915b5050505050905090565b6000806000611390846098611e14565b91509150816113a6576113a1610900565b6113a8565b805b92505050919050565b60006113bb611766565b6113c36112df565b9250600091506113d38383612341565b905092915050565b60006113e5611766565b6113ed6117d3565b6113f633611851565b611435576040517f08c379a000000000000000000000000000000000000000000000000000000000815260040161142c90614380565b60405180910390fd5b61143e83611851565b61147d576040517f08c379a000000000000000000000000000000000000000000000000000000000815260040161147490614412565b60405180910390fd5b7f00000000000000000000000000000000000000000000000000000000000000006114a73361190b565b146114e7576040517f08c379a00000000000000000000000000000000000000000000000000000000081526004016114de906144a4565b60405180910390fd5b7f00000000000000000000000000000000000000000000000000000000000000006115118461190b565b14611551576040517f08c379a000000000000000000000000000000000000000000000000000000000815260040161154890614536565b60405180910390fd5b61157c8361155d610ac3565b60ff16600a8561156d9190613fc1565b611577919061400c565b6123b8565b905092915050565b834211156115c7576040517f08c379a00000000000000000000000000000000000000000000000000000000081526004016115be906145a2565b60405180910390fd5b60007f6e71edae12b1b97f4d1f60370fef10105fa2faae0126114a169c64845d6126c98888886115f68c6123db565b8960405160200161160c969594939291906145c2565b604051602081830303815290604052805190602001209050600061162f8261243a565b9050600061163f82878787612454565b90508973ffffffffffffffffffffffffffffffffffffffff168173ffffffffffffffffffffffffffffffffffffffff16146116af576040517f08c379a00000000000000000000000000000000000000000000000000000000081526004016116a69061466f565b60405180910390fd5b6116ba8a8a8a61247f565b50505050505050505050565b60006116d06117d3565b6116da838361264a565b905092915050565b6116ea6117d3565b600073ffffffffffffffffffffffffffffffffffffffff168173ffffffffffffffffffffffffffffffffffffffff16141561175a576040517f08c379a000000000000000000000000000000000000000000000000000000000815260040161175190614701565b60405180910390fd5b61176381611f0a565b50565b61176e610fd2565b156117ae576040517f08c379a00000000000000000000000000000000000000000000000000000000081526004016117a59061476d565b60405180910390fd5b565b6000806117bb6126d1565b90506117c881858561247f565b600191505092915050565b6117db6126d1565b73ffffffffffffffffffffffffffffffffffffffff166117f96112df565b73ffffffffffffffffffffffffffffffffffffffff161461184f576040517f08c379a0000000000000000000000000000000000000000000000000000000008152600401611846906147d9565b60405180910390fd5b565b6000806101f860009054906101000a900473ffffffffffffffffffffffffffffffffffffffff1673ffffffffffffffffffffffffffffffffffffffff1663d117fc99846040518263ffffffff1660e01b81526004016118b091906139b3565b60206040518083038186803b1580156118c857600080fd5b505afa1580156118dc573d6000803e3d6000fd5b505050506040513d601f19601f820116820180604052508101906119009190614825565b905080915050919050565b60006101f860009054906101000a900473ffffffffffffffffffffffffffffffffffffffff1673ffffffffffffffffffffffffffffffffffffffff16631e9f3d5e836040518263ffffffff1660e01b815260040161196991906139b3565b60206040518083038186803b15801561198157600080fd5b505afa158015611995573d6000803e3d6000fd5b505050506040513d601f19601f820116820180604052508101906119b99190614867565b9050919050565b6000806119cb6126d1565b90506119d88582856126d9565b6119e3858585612765565b60019150509392505050565b6000611a2a7f8b73c3c69bb8fe3d512ecc4cf759cc79239f7b179b0ffacaa9a75d522b39400f611a1d6129e0565b611a256129eb565b6129f6565b905090565b6000611a5d7f360894a13ba1a3210667c828492db98dca3e2076cc3735a920a3ca505d382bbc60001b612a30565b60000160009054906101000a900473ffffffffffffffffffffffffffffffffffffffff16905090565b611a8e6117d3565b50565b611abd7f4910fdfa16fed3260ed0e7147f7cc6da11a60208b5b9406d12a635614ffd914360001b612a3a565b60000160009054906101000a900460ff1615611ae157611adc83612a44565b611c09565b8273ffffffffffffffffffffffffffffffffffffffff166352d1902d6040518163ffffffff1660e01b815260040160206040518083038186803b158015611b2757600080fd5b505afa925050508015611b5857506040513d601f19601f82011682018060405250810190611b559190614867565b60015b611b97576040517f08c379a0000000000000000000000000000000000000000000000000000000008152600401611b8e90614906565b60405180910390fd5b7f360894a13ba1a3210667c828492db98dca3e2076cc3735a920a3ca505d382bbc60001b8114611bfc576040517f08c379a0000000000000000000000000000000000000000000000000000000008152600401611bf390614998565b60405180910390fd5b50611c08838383612afd565b5b505050565b600080611c196126d1565b9050611c3a818585611c2b85896116c6565b611c3591906149b8565b61247f565b600191505092915050565b611c4d612b29565b600060fb60006101000a81548160ff0219169083151502179055507f5db9ee0a495bf2e6ff9c91a7834c1ba4fdd244a5e8aa4e537bd38aeae4b073aa611c916126d1565b604051611c9e91906139b3565b60405180910390a1565b600073ffffffffffffffffffffffffffffffffffffffff168273ffffffffffffffffffffffffffffffffffffffff161415611d18576040517f08c379a0000000000000000000000000000000000000000000000000000000008152600401611d0f90614a5a565b60405180910390fd5b611d2460008383612b72565b8060356000828254611d3691906149b8565b9250508190555080603360008473ffffffffffffffffffffffffffffffffffffffff1673ffffffffffffffffffffffffffffffffffffffff168152602001908152602001600020600082825401925050819055508173ffffffffffffffffffffffffffffffffffffffff16600073ffffffffffffffffffffffffffffffffffffffff167fddf252ad1be2c89b69c2b068fc378daa952ba7f163c4a11628f55a4df523b3ef83604051611de89190613730565b60405180910390a3611dfc60008383612b8a565b5050565b611e11611e0b6126d1565b82612b8f565b50565b60008060008411611e5a576040517f08c379a0000000000000000000000000000000000000000000000000000000008152600401611e5190614ac6565b60405180910390fd5b611e62612d5f565b841115611ea4576040517f08c379a0000000000000000000000000000000000000000000000000000000008152600401611e9b90614b32565b60405180910390fd5b6000611ebc8585600001612d7090919063ffffffff16565b90508360000180549050811415611eda576000809250925050611f03565b6001846001018281548110611ef257611ef1614b52565b5b906000526020600020015492509250505b9250929050565b600060c960009054906101000a900473ffffffffffffffffffffffffffffffffffffffff1690508160c960006101000a81548173ffffffffffffffffffffffffffffffffffffffff021916908373ffffffffffffffffffffffffffffffffffffffff1602179055508173ffffffffffffffffffffffffffffffffffffffff168173ffffffffffffffffffffffffffffffffffffffff167f8be0079c531659141344cd1fd0a4f28419497f9722a3daafe3b4186f6b6457e060405160405180910390a35050565b611fe282611fdc6126d1565b836126d9565b611fec8282612b8f565b5050565b600081600001549050919050565b6000808273ffffffffffffffffffffffffffffffffffffffff163b119050919050565b600060019054906101000a900460ff16612070576040517f08c379a000000000000000000000000000000000000000000000000000000000815260040161206790614bf3565b60405180910390fd5b61207a8282612e2a565b5050565b600060019054906101000a900460ff166120cd576040517f08c379a00000000000000000000000000000000000000000000000000000000081526004016120c490614bf3565b60405180910390fd5b565b600060019054906101000a900460ff1661211e576040517f08c379a000000000000000000000000000000000000000000000000000000000815260040161211590614bf3565b60405180910390fd5b565b600060019054906101000a900460ff1661216f576040517f08c379a000000000000000000000000000000000000000000000000000000000815260040161216690614bf3565b60405180910390fd5b612177612eab565b565b600060019054906101000a900460ff166121c8576040517f08c379a00000000000000000000000000000000000000000000000000000000081526004016121bf90614bf3565b60405180910390fd5b6121d0612f0c565b565b600060019054906101000a900460ff16612221576040517f08c379a000000000000000000000000000000000000000000000000000000000815260040161221890614bf3565b60405180910390fd5b612260816040518060400160405280600181526020017f3100000000000000000000000000000000000000000000000000000000000000815250612f78565b50565b600060019054906101000a900460ff166122b2576040517f08c379a00000000000000000000000000000000000000000000000000000000081526004016122a990614bf3565b60405180910390fd5b565b6122bc611766565b600160fb60006101000a81548160ff0219169083151502179055507f62e78cea01bee320cd4e420270b5ea74000d11b0c9f74754ebdbfc544b05a2586123006126d1565b60405161230d91906139b3565b60405180910390a1565b600060c960009054906101000a900473ffffffffffffffffffffffffffffffffffffffff16905090565b60008061234c6126d1565b9050600061235a82866116c6565b90508381101561239f576040517f08c379a000000000000000000000000000000000000000000000000000000000815260040161239690614c85565b60405180910390fd5b6123ac828686840361247f565b60019250505092915050565b6000806123c36126d1565b90506123d0818585612765565b600191505092915050565b60008061016160008473ffffffffffffffffffffffffffffffffffffffff1673ffffffffffffffffffffffffffffffffffffffff168152602001908152602001600020905061242981611ff0565b915061243481612ff5565b50919050565b600061244d6124476119ef565b8361300b565b9050919050565b60008060006124658787878761303e565b9150915061247281613121565b8192505050949350505050565b600073ffffffffffffffffffffffffffffffffffffffff168373ffffffffffffffffffffffffffffffffffffffff1614156124ef576040517f08c379a00000000000000000000000000000000000000000000000000000000081526004016124e690614d17565b60405180910390fd5b600073ffffffffffffffffffffffffffffffffffffffff168273ffffffffffffffffffffffffffffffffffffffff16141561255f576040517f08c379a000000000000000000000000000000000000000000000000000000000815260040161255690614da9565b60405180910390fd5b80603460008573ffffffffffffffffffffffffffffffffffffffff1673ffffffffffffffffffffffffffffffffffffffff16815260200190815260200160002060008473ffffffffffffffffffffffffffffffffffffffff1673ffffffffffffffffffffffffffffffffffffffff168152602001908152602001600020819055508173ffffffffffffffffffffffffffffffffffffffff168373ffffffffffffffffffffffffffffffffffffffff167f8c5be1e5ebec7d5bd14f71427d1e84f3dd0314c0f7b2291e5b200ac8c7c3b9258360405161263d9190613730565b60405180910390a3505050565b6000603460008473ffffffffffffffffffffffffffffffffffffffff1673ffffffffffffffffffffffffffffffffffffffff16815260200190815260200160002060008373ffffffffffffffffffffffffffffffffffffffff1673ffffffffffffffffffffffffffffffffffffffff16815260200190815260200160002054905092915050565b600033905090565b60006126e584846116c6565b90507fffffffffffffffffffffffffffffffffffffffffffffffffffffffffffffffff811461275f5781811015612751576040517f08c379a000000000000000000000000000000000000000000000000000000000815260040161274890614e15565b60405180910390fd5b61275e848484840361247f565b5b50505050565b600073ffffffffffffffffffffffffffffffffffffffff168373ffffffffffffffffffffffffffffffffffffffff1614156127d5576040517f08c379a00000000000000000000000000000000000000000000000000000000081526004016127cc90614ea7565b60405180910390fd5b600073ffffffffffffffffffffffffffffffffffffffff168273ffffffffffffffffffffffffffffffffffffffff161415612845576040517f08c379a000000000000000000000000000000000000000000000000000000000815260040161283c90614f39565b60405180910390fd5b612850838383612b72565b6000603360008573ffffffffffffffffffffffffffffffffffffffff1673ffffffffffffffffffffffffffffffffffffffff168152602001908152602001600020549050818110156128d7576040517f08c379a00000000000000000000000000000000000000000000000000000000081526004016128ce90614fcb565b60405180910390fd5b818103603360008673ffffffffffffffffffffffffffffffffffffffff1673ffffffffffffffffffffffffffffffffffffffff1681526020019081526020016000208190555081603360008573ffffffffffffffffffffffffffffffffffffffff1673ffffffffffffffffffffffffffffffffffffffff168152602001908152602001600020600082825401925050819055508273ffffffffffffffffffffffffffffffffffffffff168473ffffffffffffffffffffffffffffffffffffffff167fddf252ad1be2c89b69c2b068fc378daa952ba7f163c4a11628f55a4df523b3ef846040516129c79190613730565b60405180910390a36129da848484612b8a565b50505050565b600061012d54905090565b600061012e54905090565b60008383834630604051602001612a11959493929190614feb565b6040516020818303038152906040528051906020012090509392505050565b6000819050919050565b6000819050919050565b612a4d81611ffe565b612a8c576040517f08c379a0000000000000000000000000000000000000000000000000000000008152600401612a83906150b0565b60405180910390fd5b80612ab97f360894a13ba1a3210667c828492db98dca3e2076cc3735a920a3ca505d382bbc60001b612a30565b60000160006101000a81548173ffffffffffffffffffffffffffffffffffffffff021916908373ffffffffffffffffffffffffffffffffffffffff16021790555050565b612b068361328f565b600082511180612b135750805b15612b2457612b2283836132de565b505b505050565b612b31610fd2565b612b70576040517f08c379a0000000000000000000000000000000000000000000000000000000008152600401612b679061511c565b60405180910390fd5b565b612b7a611766565b612b858383836133c2565b505050565b505050565b600073ffffffffffffffffffffffffffffffffffffffff168273ffffffffffffffffffffffffffffffffffffffff161415612bff576040517f08c379a0000000000000000000000000000000000000000000000000000000008152600401612bf6906151ae565b60405180910390fd5b612c0b82600083612b72565b6000603360008473ffffffffffffffffffffffffffffffffffffffff1673ffffffffffffffffffffffffffffffffffffffff16815260200190815260200160002054905081811015612c92576040517f08c379a0000000000000000000000000000000000000000000000000000000008152600401612c8990615240565b60405180910390fd5b818103603360008573ffffffffffffffffffffffffffffffffffffffff1673ffffffffffffffffffffffffffffffffffffffff1681526020019081526020016000208190555081603560008282540392505081905550600073ffffffffffffffffffffffffffffffffffffffff168373ffffffffffffffffffffffffffffffffffffffff167fddf252ad1be2c89b69c2b068fc378daa952ba7f163c4a11628f55a4df523b3ef84604051612d469190613730565b60405180910390a3612d5a83600084612b8a565b505050565b6000612d6b609a611ff0565b905090565b60008083805490501415612d875760009050612e24565b600080848054905090505b80821015612ddb576000612da6838361347c565b905084612db387836134a2565b600001541115612dc557809150612dd5565b600181612dd291906149b8565b92505b50612d92565b600082118015612e03575083612dfd86600185612df89190615260565b6134a2565b60000154145b15612e1e57600182612e159190615260565b92505050612e24565b81925050505b92915050565b600060019054906101000a900460ff16612e79576040517f08c379a0000000000000000000000000000000000000000000000000000000008152600401612e7090614bf3565b60405180910390fd5b8160369080519060200190612e8f929190613674565b508060379080519060200190612ea6929190613674565b505050565b600060019054906101000a900460ff16612efa576040517f08c379a0000000000000000000000000000000000000000000000000000000008152600401612ef190614bf3565b60405180910390fd5b612f0a612f056126d1565b611f0a565b565b600060019054906101000a900460ff16612f5b576040517f08c379a0000000000000000000000000000000000000000000000000000000008152600401612f5290614bf3565b60405180910390fd5b600060fb60006101000a81548160ff021916908315150217905550565b600060019054906101000a900460ff16612fc7576040517f08c379a0000000000000000000000000000000000000000000000000000000008152600401612fbe90614bf3565b60405180910390fd5b6000828051906020012090506000828051906020012090508161012d819055508061012e8190555050505050565b6001816000016000828254019250508190555050565b6000828260405160200161302092919061530c565b60405160208183030381529060405280519060200120905092915050565b6000807f7fffffffffffffffffffffffffffffff5d576e7357a4501ddfe92f46681b20a08360001c1115613079576000600391509150613118565b60006001878787876040516000815260200160405260405161309e9493929190615343565b6020604051602081039080840390855afa1580156130c0573d6000803e3d6000fd5b505050602060405103519050600073ffffffffffffffffffffffffffffffffffffffff168173ffffffffffffffffffffffffffffffffffffffff16141561310f57600060019250925050613118565b80600092509250505b94509492505050565b6000600481111561313557613134615388565b5b81600481111561314857613147615388565b5b14156131535761328c565b6001600481111561316757613166615388565b5b81600481111561317a57613179615388565b5b14156131bb576040517f08c379a00000000000000000000000000000000000000000000000000000000081526004016131b290615403565b60405180910390fd5b600260048111156131cf576131ce615388565b5b8160048111156131e2576131e1615388565b5b1415613223576040517f08c379a000000000000000000000000000000000000000000000000000000000815260040161321a9061546f565b60405180910390fd5b6003600481111561323757613236615388565b5b81600481111561324a57613249615388565b5b141561328b576040517f08c379a000000000000000000000000000000000000000000000000000000000815260040161328290615501565b60405180910390fd5b5b50565b61329881612a44565b8073ffffffffffffffffffffffffffffffffffffffff167fbc7cd75a20ee27fd9adebab32041f755214dbc6bffa90cc0225b39da2e5c2d3b60405160405180910390a250565b60606132e983611ffe565b613328576040517f08c379a000000000000000000000000000000000000000000000000000000000815260040161331f90615593565b60405180910390fd5b6000808473ffffffffffffffffffffffffffffffffffffffff168460405161335091906155fa565b600060405180830381855af49150503d806000811461338b576040519150601f19603f3d011682016040523d82523d6000602084013e613390565b606091505b50915091506133b88282604051806060016040528060278152602001615672602791396134c4565b9250505092915050565b6133cd8383836134e6565b600073ffffffffffffffffffffffffffffffffffffffff168373ffffffffffffffffffffffffffffffffffffffff1614156134185761340b826134eb565b61341361353e565b613477565b600073ffffffffffffffffffffffffffffffffffffffff168273ffffffffffffffffffffffffffffffffffffffff16141561346357613456836134eb565b61345e61353e565b613476565b61346c836134eb565b613475826134eb565b5b5b505050565b6000600282841861348d9190615640565b82841661349a91906149b8565b905092915050565b600080836000528260206000200190506134bb81613552565b91505092915050565b606083156134d4578290506134df565b6134de838361355c565b5b9392505050565b505050565b61353b609760008373ffffffffffffffffffffffffffffffffffffffff1673ffffffffffffffffffffffffffffffffffffffff16815260200190815260200160002061353683610ff9565b6135ac565b50565b613550609861354b610900565b6135ac565b565b6000819050919050565b60008251111561356f5781518083602001fd5b806040517f08c379a00000000000000000000000000000000000000000000000000000000081526004016135a391906137e4565b60405180910390fd5b60006135b6612d5f565b9050806135c584600001613627565b10156136225782600001819080600181540180825580915050600190039060005260206000200160009091909190915055826001018290806001815401808255809150506001900390600052602060002001600090919091909150555b505050565b6000808280549050141561363e576000905061366f565b81600183805490506136509190615260565b8154811061366157613660614b52565b5b906000526020600020015490505b919050565b82805461368090613dc1565b90600052602060002090601f0160209004810192826136a257600085556136e9565b82601f106136bb57805160ff19168380011785556136e9565b828001600101855582156136e9579182015b828111156136e85782518255916020019190600101906136cd565b5b5090506136f691906136fa565b5090565b5b808211156137135760008160009055506001016136fb565b5090565b6000819050919050565b61372a81613717565b82525050565b60006020820190506137456000830184613721565b92915050565b600081519050919050565b600082825260208201905092915050565b60005b8381101561378557808201518184015260208101905061376a565b83811115613794576000848401525b50505050565b6000601f19601f8301169050919050565b60006137b68261374b565b6137c08185613756565b93506137d0818560208601613767565b6137d98161379a565b840191505092915050565b600060208201905081810360008301526137fe81846137ab565b905092915050565b6000604051905090565b600080fd5b600080fd5b600073ffffffffffffffffffffffffffffffffffffffff82169050919050565b60006138458261381a565b9050919050565b6138558161383a565b811461386057600080fd5b50565b6000813590506138728161384c565b92915050565b61388181613717565b811461388c57600080fd5b50565b60008135905061389e81613878565b92915050565b600080604083850312156138bb576138ba613810565b5b60006138c985828601613863565b92505060206138da8582860161388f565b9150509250929050565b60008115159050919050565b6138f9816138e4565b82525050565b600060208201905061391460008301846138f0565b92915050565b60008060006060848603121561393357613932613810565b5b600061394186828701613863565b935050602061395286828701613863565b92505060406139638682870161388f565b9150509250925092565b600060ff82169050919050565b6139838161396d565b82525050565b600060208201905061399e600083018461397a565b92915050565b6139ad8161383a565b82525050565b60006020820190506139c860008301846139a4565b92915050565b6000819050919050565b6139e1816139ce565b82525050565b60006020820190506139fc60008301846139d8565b92915050565b600060208284031215613a1857613a17613810565b5b6000613a2684828501613863565b91505092915050565b600060208284031215613a4557613a44613810565b5b6000613a538482850161388f565b91505092915050565b600080fd5b600080fd5b7f4e487b7100000000000000000000000000000000000000000000000000000000600052604160045260246000fd5b613a9e8261379a565b810181811067ffffffffffffffff82111715613abd57613abc613a66565b5b80604052505050565b6000613ad0613806565b9050613adc8282613a95565b919050565b600067ffffffffffffffff821115613afc57613afb613a66565b5b613b058261379a565b9050602081019050919050565b82818337600083830152505050565b6000613b34613b2f84613ae1565b613ac6565b905082815260208101848484011115613b5057613b4f613a61565b5b613b5b848285613b12565b509392505050565b600082601f830112613b7857613b77613a5c565b5b8135613b88848260208601613b21565b91505092915050565b60008060408385031215613ba857613ba7613810565b5b6000613bb685828601613863565b925050602083013567ffffffffffffffff811115613bd757613bd6613815565b5b613be385828601613b63565b9150509250929050565b6000613bf88261381a565b9050919050565b613c0881613bed565b8114613c1357600080fd5b50565b600081359050613c2581613bff565b92915050565b600060208284031215613c4157613c40613810565b5b6000613c4f84828501613c16565b91505092915050565b613c618161396d565b8114613c6c57600080fd5b50565b600081359050613c7e81613c58565b92915050565b613c8d816139ce565b8114613c9857600080fd5b50565b600081359050613caa81613c84565b92915050565b600080600080600080600060e0888a031215613ccf57613cce613810565b5b6000613cdd8a828b01613863565b9750506020613cee8a828b01613863565b9650506040613cff8a828b0161388f565b9550506060613d108a828b0161388f565b9450506080613d218a828b01613c6f565b93505060a0613d328a828b01613c9b565b92505060c0613d438a828b01613c9b565b91505092959891949750929550565b60008060408385031215613d6957613d68613810565b5b6000613d7785828601613863565b9250506020613d8885828601613863565b9150509250929050565b7f4e487b7100000000000000000000000000000000000000000000000000000000600052602260045260246000fd5b60006002820490506001821680613dd957607f821691505b60208210811415613ded57613dec613d92565b5b50919050565b7f555345525f4e4f545f5645524946494544000000000000000000000000000000600082015250565b6000613e29601183613756565b9150613e3482613df3565b602082019050919050565b60006020820190508181036000830152613e5881613e1c565b9050919050565b7f4e487b7100000000000000000000000000000000000000000000000000000000600052601160045260246000fd5b60008160011c9050919050565b6000808291508390505b6001851115613ee557808604811115613ec157613ec0613e5f565b5b6001851615613ed05780820291505b8081029050613ede85613e8e565b9450613ea5565b94509492505050565b600082613efe5760019050613fba565b81613f0c5760009050613fba565b8160018114613f225760028114613f2c57613f5b565b6001915050613fba565b60ff841115613f3e57613f3d613e5f565b5b8360020a915084821115613f5557613f54613e5f565b5b50613fba565b5060208310610133831016604e8410600b8410161715613f905782820a905083811115613f8b57613f8a613e5f565b5b613fba565b613f9d8484846001613e9b565b92509050818404811115613fb457613fb3613e5f565b5b81810290505b9392505050565b6000613fcc82613717565b9150613fd78361396d565b92506140047fffffffffffffffffffffffffffffffffffffffffffffffffffffffffffffffff8484613eee565b905092915050565b600061401782613717565b915061402283613717565b9250817fffffffffffffffffffffffffffffffffffffffffffffffffffffffffffffffff048311821515161561405b5761405a613e5f565b5b828202905092915050565b7f46756e6374696f6e206d7573742062652063616c6c6564207468726f7567682060008201527f64656c656761746563616c6c0000000000000000000000000000000000000000602082015250565b60006140c2602c83613756565b91506140cd82614066565b604082019050919050565b600060208201905081810360008301526140f1816140b5565b9050919050565b7f46756e6374696f6e206d7573742062652063616c6c6564207468726f7567682060008201527f6163746976652070726f78790000000000000000000000000000000000000000602082015250565b6000614154602c83613756565b915061415f826140f8565b604082019050919050565b6000602082019050818103600083015261418381614147565b9050919050565b7f555550535570677261646561626c653a206d757374206e6f742062652063616c60008201527f6c6564207468726f7567682064656c656761746563616c6c0000000000000000602082015250565b60006141e6603883613756565b91506141f18261418a565b604082019050919050565b60006020820190508181036000830152614215816141d9565b9050919050565b7f496e697469616c697a61626c653a20636f6e747261637420697320616c72656160008201527f647920696e697469616c697a6564000000000000000000000000000000000000602082015250565b6000614278602e83613756565b91506142838261421c565b604082019050919050565b600060208201905081810360008301526142a78161426b565b9050919050565b6000819050919050565b6000819050919050565b60006142dd6142d86142d3846142ae565b6142b8565b61396d565b9050919050565b6142ed816142c2565b82525050565b600060208201905061430860008301846142e4565b92915050565b7f66726f6d3a205452414e534645525f52455155495245445f564552494649434160008201527f54494f4e5f490000000000000000000000000000000000000000000000000000602082015250565b600061436a602683613756565b91506143758261430e565b604082019050919050565b600060208201905081810360008301526143998161435d565b9050919050565b7f746f203a205452414e534645525f52455155495245445f56455249464943415460008201527f494f4e5f49000000000000000000000000000000000000000000000000000000602082015250565b60006143fc602583613756565b9150614407826143a0565b604082019050919050565b6000602082019050818103600083015261442b816143ef565b9050919050565b7f66726f6d3a205452414e534645525f52455155495245445f4d554c54495f534960008201527f474e415455524500000000000000000000000000000000000000000000000000602082015250565b600061448e602783613756565b915061449982614432565b604082019050919050565b600060208201905081810360008301526144bd81614481565b9050919050565b7f746f3a205452414e534645525f52455155495245445f4d554c54495f5349474e60008201527f4154555245000000000000000000000000000000000000000000000000000000602082015250565b6000614520602583613756565b915061452b826144c4565b604082019050919050565b6000602082019050818103600083015261454f81614513565b9050919050565b7f45524332305065726d69743a206578706972656420646561646c696e65000000600082015250565b600061458c601d83613756565b915061459782614556565b602082019050919050565b600060208201905081810360008301526145bb8161457f565b9050919050565b600060c0820190506145d760008301896139d8565b6145e460208301886139a4565b6145f160408301876139a4565b6145fe6060830186613721565b61460b6080830185613721565b61461860a0830184613721565b979650505050505050565b7f45524332305065726d69743a20696e76616c6964207369676e61747572650000600082015250565b6000614659601e83613756565b915061466482614623565b602082019050919050565b600060208201905081810360008301526146888161464c565b9050919050565b7f4f776e61626c653a206e6577206f776e657220697320746865207a65726f206160008201527f6464726573730000000000000000000000000000000000000000000000000000602082015250565b60006146eb602683613756565b91506146f68261468f565b604082019050919050565b6000602082019050818103600083015261471a816146de565b9050919050565b7f5061757361626c653a2070617573656400000000000000000000000000000000600082015250565b6000614757601083613756565b915061476282614721565b602082019050919050565b600060208201905081810360008301526147868161474a565b9050919050565b7f4f776e61626c653a2063616c6c6572206973206e6f7420746865206f776e6572600082015250565b60006147c3602083613756565b91506147ce8261478d565b602082019050919050565b600060208201905081810360008301526147f2816147b6565b9050919050565b614802816138e4565b811461480d57600080fd5b50565b60008151905061481f816147f9565b92915050565b60006020828403121561483b5761483a613810565b5b600061484984828501614810565b91505092915050565b60008151905061486181613c84565b92915050565b60006020828403121561487d5761487c613810565b5b600061488b84828501614852565b91505092915050565b7f45524331393637557067726164653a206e657720696d706c656d656e7461746960008201527f6f6e206973206e6f742055555053000000000000000000000000000000000000602082015250565b60006148f0602e83613756565b91506148fb82614894565b604082019050919050565b6000602082019050818103600083015261491f816148e3565b9050919050565b7f45524331393637557067726164653a20756e737570706f727465642070726f7860008201527f6961626c65555549440000000000000000000000000000000000000000000000602082015250565b6000614982602983613756565b915061498d82614926565b604082019050919050565b600060208201905081810360008301526149b181614975565b9050919050565b60006149c382613717565b91506149ce83613717565b9250827fffffffffffffffffffffffffffffffffffffffffffffffffffffffffffffffff03821115614a0357614a02613e5f565b5b828201905092915050565b7f45524332303a206d696e7420746f20746865207a65726f206164647265737300600082015250565b6000614a44601f83613756565b9150614a4f82614a0e565b602082019050919050565b60006020820190508181036000830152614a7381614a37565b9050919050565b7f4552433230536e617073686f743a206964206973203000000000000000000000600082015250565b6000614ab0601683613756565b9150614abb82614a7a565b602082019050919050565b60006020820190508181036000830152614adf81614aa3565b9050919050565b7f4552433230536e617073686f743a206e6f6e6578697374656e74206964000000600082015250565b6000614b1c601d83613756565b9150614b2782614ae6565b602082019050919050565b60006020820190508181036000830152614b4b81614b0f565b9050919050565b7f4e487b7100000000000000000000000000000000000000000000000000000000600052603260045260246000fd5b7f496e697469616c697a61626c653a20636f6e7472616374206973206e6f74206960008201527f6e697469616c697a696e67000000000000000000000000000000000000000000602082015250565b6000614bdd602b83613756565b9150614be882614b81565b604082019050919050565b60006020820190508181036000830152614c0c81614bd0565b9050919050565b7f45524332303a2064656372656173656420616c6c6f77616e63652062656c6f7760008201527f207a65726f000000000000000000000000000000000000000000000000000000602082015250565b6000614c6f602583613756565b9150614c7a82614c13565b604082019050919050565b60006020820190508181036000830152614c9e81614c62565b9050919050565b7f45524332303a20617070726f76652066726f6d20746865207a65726f2061646460008201527f7265737300000000000000000000000000000000000000000000000000000000602082015250565b6000614d01602483613756565b9150614d0c82614ca5565b604082019050919050565b60006020820190508181036000830152614d3081614cf4565b9050919050565b7f45524332303a20617070726f766520746f20746865207a65726f20616464726560008201527f7373000000000000000000000000000000000000000000000000000000000000602082015250565b6000614d93602283613756565b9150614d9e82614d37565b604082019050919050565b60006020820190508181036000830152614dc281614d86565b9050919050565b7f45524332303a20696e73756666696369656e7420616c6c6f77616e6365000000600082015250565b6000614dff601d83613756565b9150614e0a82614dc9565b602082019050919050565b60006020820190508181036000830152614e2e81614df2565b9050919050565b7f45524332303a207472616e736665722066726f6d20746865207a65726f20616460008201527f6472657373000000000000000000000000000000000000000000000000000000602082015250565b6000614e91602583613756565b9150614e9c82614e35565b604082019050919050565b60006020820190508181036000830152614ec081614e84565b9050919050565b7f45524332303a207472616e7366657220746f20746865207a65726f206164647260008201527f6573730000000000000000000000000000000000000000000000000000000000602082015250565b6000614f23602383613756565b9150614f2e82614ec7565b604082019050919050565b60006020820190508181036000830152614f5281614f16565b9050919050565b7f45524332303a207472616e7366657220616d6f756e742065786365656473206260008201527f616c616e63650000000000000000000000000000000000000000000000000000602082015250565b6000614fb5602683613756565b9150614fc082614f59565b604082019050919050565b60006020820190508181036000830152614fe481614fa8565b9050919050565b600060a08201905061500060008301886139d8565b61500d60208301876139d8565b61501a60408301866139d8565b6150276060830185613721565b61503460808301846139a4565b9695505050505050565b7f455243313936373a206e657720696d706c656d656e746174696f6e206973206e60008201527f6f74206120636f6e747261637400000000000000000000000000000000000000602082015250565b600061509a602d83613756565b91506150a58261503e565b604082019050919050565b600060208201905081810360008301526150c98161508d565b9050919050565b7f5061757361626c653a206e6f7420706175736564000000000000000000000000600082015250565b6000615106601483613756565b9150615111826150d0565b602082019050919050565b60006020820190508181036000830152615135816150f9565b9050919050565b7f45524332303a206275726e2066726f6d20746865207a65726f2061646472657360008201527f7300000000000000000000000000000000000000000000000000000000000000602082015250565b6000615198602183613756565b91506151a38261513c565b604082019050919050565b600060208201905081810360008301526151c78161518b565b9050919050565b7f45524332303a206275726e20616d6f756e7420657863656564732062616c616e60008201527f6365000000000000000000000000000000000000000000000000000000000000602082015250565b600061522a602283613756565b9150615235826151ce565b604082019050919050565b600060208201905081810360008301526152598161521d565b9050919050565b600061526b82613717565b915061527683613717565b92508282101561528957615288613e5f565b5b828203905092915050565b600081905092915050565b7f1901000000000000000000000000000000000000000000000000000000000000600082015250565b60006152d5600283615294565b91506152e08261529f565b600282019050919050565b6000819050919050565b615306615301826139ce565b6152eb565b82525050565b6000615317826152c8565b915061532382856152f5565b60208201915061533382846152f5565b6020820191508190509392505050565b600060808201905061535860008301876139d8565b615365602083018661397a565b61537260408301856139d8565b61537f60608301846139d8565b95945050505050565b7f4e487b7100000000000000000000000000000000000000000000000000000000600052602160045260246000fd5b7f45434453413a20696e76616c6964207369676e61747572650000000000000000600082015250565b60006153ed601883613756565b91506153f8826153b7565b602082019050919050565b6000602082019050818103600083015261541c816153e0565b9050919050565b7f45434453413a20696e76616c6964207369676e6174757265206c656e67746800600082015250565b6000615459601f83613756565b915061546482615423565b602082019050919050565b600060208201905081810360008301526154888161544c565b9050919050565b7f45434453413a20696e76616c6964207369676e6174757265202773272076616c60008201527f7565000000000000000000000000000000000000000000000000000000000000602082015250565b60006154eb602283613756565b91506154f68261548f565b604082019050919050565b6000602082019050818103600083015261551a816154de565b9050919050565b7f416464726573733a2064656c65676174652063616c6c20746f206e6f6e2d636f60008201527f6e74726163740000000000000000000000000000000000000000000000000000602082015250565b600061557d602683613756565b915061558882615521565b604082019050919050565b600060208201905081810360008301526155ac81615570565b9050919050565b600081519050919050565b600081905092915050565b60006155d4826155b3565b6155de81856155be565b93506155ee818560208601613767565b80840191505092915050565b600061560682846155c9565b915081905092915050565b7f4e487b7100000000000000000000000000000000000000000000000000000000600052601260045260246000fd5b600061564b82613717565b915061565683613717565b92508261566657615665615611565b5b82820490509291505056fe416464726573733a206c6f772d6c6576656c2064656c65676174652063616c6c206661696c6564a2646970667358221220bcd9f7a198ea98bcad84e8da8c152b0c514bdbe9ce35d07d8f907698264e13d564736f6c63430008090033",
  "linkReferences": {},
  "deployedLinkReferences": {}
}