{"contracts/PKDR.sol":{"PKDR":{"abi":[{"inputs":[],"stateMutability":"nonpayable","type":"constructor"},{"inputs":[{"internalType":"address","name":"","type":"address"}],"name":"MULTISIG_REQUIRED","type":"error"},{"inputs":[{"internalType":"address","name":"","type":"address"}],"name":"USER_NOT_VERIFIED","type":"error"},{"anonymous":false,"inputs":[{"indexed":false,"internalType":"uint256","name":"fallbackAmount","type":"uint256"}],"name":"AMOUNT_RECEIVED_THROUGH_FALLBACK","type":"event"},{"anonymous":false,"inputs":[{"indexed":false,"internalType":"uint256","name":"receiveAmount","type":"uint256"}],"name":"AMOUNT_RECEIVED_THROUGH_RECEIVE","type":"event"},{"anonymous":false,"inputs":[{"indexed":false,"internalType":"address","name":"previousAdmin","type":"address"},{"indexed":false,"internalType":"address","name":"newAdmin","type":"address"}],"name":"AdminChanged","type":"event"},{"anonymous":false,"inputs":[{"indexed":true,"internalType":"address","name":"owner","type":"address"},{"indexed":true,"internalType":"address","name":"spender","type":"address"},{"indexed":false,"internalType":"uint256","name":"value","type":"uint256"}],"name":"Approval","type":"event"},{"anonymous":false,"inputs":[{"indexed":true,"internalType":"address","name":"beacon","type":"address"}],"name":"BeaconUpgraded","type":"event"},{"anonymous":false,"inputs":[{"indexed":false,"internalType":"uint8","name":"version","type":"uint8"}],"name":"Initialized","type":"event"},{"anonymous":false,"inputs":[{"indexed":true,"internalType":"address","name":"previousOwner","type":"address"},{"indexed":true,"internalType":"address","name":"newOwner","type":"address"}],"name":"OwnershipTransferred","type":"event"},{"anonymous":false,"inputs":[{"indexed":false,"internalType":"address","name":"account","type":"address"}],"name":"Paused","type":"event"},{"anonymous":false,"inputs":[{"indexed":false,"internalType":"uint256","name":"id","type":"uint256"}],"name":"Snapshot","type":"event"},{"anonymous":false,"inputs":[{"indexed":false,"internalType":"address","name":"","type":"address"}],"name":"TRANSFER_REQUIRED_MULTI_SIGNATURE","type":"event"},{"anonymous":false,"inputs":[{"indexed":false,"internalType":"address","name":"","type":"address"}],"name":"TRANSFER_REQUIRED_VERIFICATION_I","type":"event"},{"anonymous":false,"inputs":[{"indexed":true,"internalType":"address","name":"from","type":"address"},{"indexed":true,"internalType":"address","name":"to","type":"address"},{"indexed":false,"internalType":"uint256","name":"value","type":"uint256"}],"name":"Transfer","type":"event"},{"anonymous":false,"inputs":[{"indexed":false,"internalType":"address","name":"account","type":"address"}],"name":"Unpaused","type":"event"},{"anonymous":false,"inputs":[{"indexed":true,"internalType":"address","name":"implementation","type":"address"}],"name":"Upgraded","type":"event"},{"stateMutability":"payable","type":"fallback"},{"inputs":[],"name":"DOMAIN_SEPARATOR","outputs":[{"internalType":"bytes32","name":"","type":"bytes32"}],"stateMutability":"view","type":"function"},{"inputs":[{"internalType":"address","name":"_owner","type":"address"},{"internalType":"address","name":"_spender","type":"address"}],"name":"allowance","outputs":[{"internalType":"uint256","name":"","type":"uint256"}],"stateMutability":"view","type":"function"},{"inputs":[{"internalType":"address","name":"spender","type":"address"},{"internalType":"uint256","name":"amount","type":"uint256"}],"name":"approve","outputs":[{"internalType":"bool","name":"","type":"bool"}],"stateMutability":"nonpayable","type":"function"},{"inputs":[{"internalType":"address","name":"account","type":"address"}],"name":"balanceOf","outputs":[{"internalType":"uint256","name":"","type":"uint256"}],"stateMutability":"view","type":"function"},{"inputs":[{"internalType":"address","name":"account","type":"address"},{"internalType":"uint256","name":"snapshotId","type":"uint256"}],"name":"balanceOfAt","outputs":[{"internalType":"uint256","name":"","type":"uint256"}],"stateMutability":"view","type":"function"},{"inputs":[{"internalType":"uint256","name":"amount","type":"uint256"}],"name":"burn","outputs":[],"stateMutability":"nonpayable","type":"function"},{"inputs":[{"internalType":"address","name":"account","type":"address"},{"internalType":"uint256","name":"amount","type":"uint256"}],"name":"burnFrom","outputs":[],"stateMutability":"nonpayable","type":"function"},{"inputs":[],"name":"decimals","outputs":[{"internalType":"uint8","name":"","type":"uint8"}],"stateMutability":"view","type":"function"},{"inputs":[{"internalType":"address","name":"spender","type":"address"},{"internalType":"uint256","name":"subtractedValue","type":"uint256"}],"name":"decreaseAllowance","outputs":[{"internalType":"bool","name":"","type":"bool"}],"stateMutability":"nonpayable","type":"function"},{"inputs":[],"name":"getContractBalance","outputs":[{"internalType":"uint256","name":"","type":"uint256"}],"stateMutability":"view","type":"function"},{"inputs":[],"name":"getProfileAddress","outputs":[{"internalType":"address","name":"","type":"address"}],"stateMutability":"view","type":"function"},{"inputs":[{"internalType":"address","name":"spender","type":"address"},{"internalType":"uint256","name":"addedValue","type":"uint256"}],"name":"increaseAllowance","outputs":[{"internalType":"bool","name":"","type":"bool"}],"stateMutability":"nonpayable","type":"function"},{"inputs":[],"name":"initialize","outputs":[],"stateMutability":"nonpayable","type":"function"},{"inputs":[{"internalType":"address","name":"to","type":"address"},{"internalType":"uint256","name":"amount","type":"uint256"}],"name":"mint","outputs":[],"stateMutability":"nonpayable","type":"function"},{"inputs":[],"name":"name","outputs":[{"internalType":"string","name":"","type":"string"}],"stateMutability":"view","type":"function"},{"inputs":[{"internalType":"address","name":"owner","type":"address"}],"name":"nonces","outputs":[{"internalType":"uint256","name":"","type":"uint256"}],"stateMutability":"view","type":"function"},{"inputs":[],"name":"owner","outputs":[{"internalType":"address","name":"","type":"address"}],"stateMutability":"view","type":"function"},{"inputs":[],"name":"pause","outputs":[],"stateMutability":"nonpayable","type":"function"},{"inputs":[],"name":"paused","outputs":[{"internalType":"bool","name":"","type":"bool"}],"stateMutability":"view","type":"function"},{"inputs":[{"internalType":"address","name":"owner","type":"address"},{"internalType":"address","name":"spender","type":"address"},{"internalType":"uint256","name":"value","type":"uint256"},{"internalType":"uint256","name":"deadline","type":"uint256"},{"internalType":"uint8","name":"v","type":"uint8"},{"internalType":"bytes32","name":"r","type":"bytes32"},{"internalType":"bytes32","name":"s","type":"bytes32"}],"name":"permit","outputs":[],"stateMutability":"nonpayable","type":"function"},{"inputs":[],"name":"proxiableUUID","outputs":[{"internalType":"bytes32","name":"","type":"bytes32"}],"stateMutability":"view","type":"function"},{"inputs":[],"name":"renounceOwnership","outputs":[],"stateMutability":"nonpayable","type":"function"},{"inputs":[{"internalType":"address payable","name":"_profiles","type":"address"}],"name":"setProfileAddress","outputs":[],"stateMutability":"nonpayable","type":"function"},{"inputs":[],"name":"symbol","outputs":[{"internalType":"string","name":"","type":"string"}],"stateMutability":"view","type":"function"},{"inputs":[],"name":"totalSupply","outputs":[{"internalType":"uint256","name":"","type":"uint256"}],"stateMutability":"view","type":"function"},{"inputs":[{"internalType":"uint256","name":"snapshotId","type":"uint256"}],"name":"totalSupplyAt","outputs":[{"internalType":"uint256","name":"","type":"uint256"}],"stateMutability":"view","type":"function"},{"inputs":[{"internalType":"address","name":"to","type":"address"},{"internalType":"uint256","name":"amount","type":"uint256"}],"name":"transfer","outputs":[{"internalType":"bool","name":"","type":"bool"}],"stateMutability":"nonpayable","type":"function"},{"inputs":[{"internalType":"address","name":"from","type":"address"},{"internalType":"address","name":"to","type":"address"},{"internalType":"uint256","name":"amount","type":"uint256"}],"name":"transferFrom","outputs":[{"internalType":"bool","name":"","type":"bool"}],"stateMutability":"nonpayable","type":"function"},{"inputs":[{"internalType":"address","name":"newOwner","type":"address"}],"name":"transferOwnership","outputs":[],"stateMutability":"nonpayable","type":"function"},{"inputs":[],"name":"unpause","outputs":[],"stateMutability":"nonpayable","type":"function"},{"inputs":[{"internalType":"address","name":"newImplementation","type":"address"}],"name":"upgradeTo","outputs":[],"stateMutability":"nonpayable","type":"function"},{"inputs":[{"internalType":"address","name":"newImplementation","type":"address"},{"internalType":"bytes","name":"data","type":"bytes"}],"name":"upgradeToAndCall","outputs":[],"stateMutability":"payable","type":"function"},{"stateMutability":"payable","type":"receive"}],"devdoc":{"custom:security-contact":"zohaib10092001@gmail.com","kind":"dev","methods":{"DOMAIN_SEPARATOR()":{"details":"See {IERC20Permit-DOMAIN_SEPARATOR}."},"approve(address,uint256)":{"details":"See {IERC20-approve}. NOTE: If `amount` is the maximum `uint256`, the allowance is not updated on `transferFrom`. This is semantically equivalent to an infinite approval. Requirements: - `spender` cannot be the zero address."},"balanceOf(address)":{"details":"See {IERC20-balanceOf}."},"balanceOfAt(address,uint256)":{"details":"Retrieves the balance of `account` at the time `snapshotId` was created."},"burn(uint256)":{"details":"Destroys `amount` tokens from the caller. See {ERC20-_burn}."},"burnFrom(address,uint256)":{"details":"Destroys `amount` tokens from `account`, deducting from the caller's allowance. See {ERC20-_burn} and {ERC20-allowance}. Requirements: - the caller must have allowance for ``accounts``'s tokens of at least `amount`."},"constructor":{"custom:oz-upgrades-unsafe-allow":"constructor"},"decimals()":{"details":"Returns the number of decimals used to get its user representation. For example, if `decimals` equals `2`, a balance of `505` tokens should be displayed to a user as `5.05` (`505 / 10 ** 2`). Tokens usually opt for a value of 18, imitating the relationship between Ether and Wei. This is the value {ERC20} uses, unless this function is overridden; NOTE: This information is only used for _display_ purposes: it in no way affects any of the arithmetic of the contract, including {IERC20-balanceOf} and {IERC20-transfer}."},"decreaseAllowance(address,uint256)":{"details":"Atomically decreases the allowance granted to `spender` by the caller. This is an alternative to {approve} that can be used as a mitigation for problems described in {IERC20-approve}. Emits an {Approval} event indicating the updated allowance. Requirements: - `spender` cannot be the zero address. - `spender` must have allowance for the caller of at least `subtractedValue`."},"increaseAllowance(address,uint256)":{"details":"Atomically increases the allowance granted to `spender` by the caller. This is an alternative to {approve} that can be used as a mitigation for problems described in {IERC20-approve}. Emits an {Approval} event indicating the updated allowance. Requirements: - `spender` cannot be the zero address."},"name()":{"details":"Returns the name of the token."},"nonces(address)":{"details":"See {IERC20Permit-nonces}."},"owner()":{"details":"Returns the address of the current owner."},"paused()":{"details":"Returns true if the contract is paused, and false otherwise."},"permit(address,address,uint256,uint256,uint8,bytes32,bytes32)":{"details":"See {IERC20Permit-permit}."},"proxiableUUID()":{"details":"Implementation of the ERC1822 {proxiableUUID} function. This returns the storage slot used by the implementation. It is used to validate the implementation's compatibility when performing an upgrade. IMPORTANT: A proxy pointing at a proxiable contract should not be considered proxiable itself, because this risks bricking a proxy that upgrades to it, by delegating to itself until out of gas. Thus it is critical that this function revert if invoked through a proxy. This is guaranteed by the `notDelegated` modifier."},"renounceOwnership()":{"details":"Leaves the contract without owner. It will not be possible to call `onlyOwner` functions anymore. Can only be called by the current owner. NOTE: Renouncing ownership will leave the contract without an owner, thereby removing any functionality that is only available to the owner."},"symbol()":{"details":"Returns the symbol of the token, usually a shorter version of the name."},"totalSupply()":{"details":"See {IERC20-totalSupply}."},"totalSupplyAt(uint256)":{"details":"Retrieves the total supply at the time `snapshotId` was created."},"transfer(address,uint256)":{"details":"See {IERC20-transfer}. Requirements: - `to` cannot be the zero address. - the caller must have a balance of at least `amount`."},"transferFrom(address,address,uint256)":{"details":"See {IERC20-transferFrom}. Emits an {Approval} event indicating the updated allowance. This is not required by the EIP. See the note at the beginning of {ERC20}. NOTE: Does not update the allowance if the current allowance is the maximum `uint256`. Requirements: - `from` and `to` cannot be the zero address. - `from` must have a balance of at least `amount`. - the caller must have allowance for ``from``'s tokens of at least `amount`."},"transferOwnership(address)":{"details":"Transfers ownership of the contract to a new account (`newOwner`). Can only be called by the current owner."},"upgradeTo(address)":{"details":"Upgrade the implementation of the proxy to `newImplementation`. Calls {_authorizeUpgrade}. Emits an {Upgraded} event."},"upgradeToAndCall(address,bytes)":{"details":"Upgrade the implementation of the proxy to `newImplementation`, and subsequently execute the function call encoded in `data`. Calls {_authorizeUpgrade}. Emits an {Upgraded} event."}},"version":1},"evm":{"bytecode":{"linkReferences":{},"object":"60e06040523073ffffffffffffffffffffffffffffffffffffffff1660809073ffffffffffffffffffffffffffffffffffffffff168152506040516020016200004890620001d7565b6040516020818303038152906040528051906020012060a09081525060405160200162000075906200023e565b6040516020818303038152906040528051906020012060c0908152503480156200009e57600080fd5b50620000af620000b560201b60201c565b62000339565b600060019054906101000a900460ff161562000108576040517f08c379a0000000000000000000000000000000000000000000000000000000008152600401620000ff90620002dc565b60405180910390fd5b60ff801660008054906101000a900460ff1660ff1610156200017a5760ff6000806101000a81548160ff021916908360ff1602179055507f7f26b83ff96e1f2b6a682f133852f6798a09c465da95921460cefb384740249860ff6040516200017191906200031c565b60405180910390a15b565b600081905092915050565b7f415050524f564544000000000000000000000000000000000000000000000000600082015250565b6000620001bf6008836200017c565b9150620001cc8262000187565b600882019050919050565b6000620001e482620001b0565b9150819050919050565b7f4e554c4c00000000000000000000000000000000000000000000000000000000600082015250565b6000620002266004836200017c565b91506200023382620001ee565b600482019050919050565b60006200024b8262000217565b9150819050919050565b600082825260208201905092915050565b7f496e697469616c697a61626c653a20636f6e747261637420697320696e69746960008201527f616c697a696e6700000000000000000000000000000000000000000000000000602082015250565b6000620002c460278362000255565b9150620002d18262000266565b604082019050919050565b60006020820190508181036000830152620002f781620002b5565b9050919050565b600060ff82169050919050565b6200031681620002fe565b82525050565b60006020820190506200033360008301846200030b565b92915050565b60805160a05160c0516156ce62000393600039600081816109b10152610a1f01526000818161147f01526114e9015260008181610b1001528181610b9f01528181610d9101528181610e200152610ed001526156ce6000f3fe6080604052600436106101e75760003560e01c80635c975abb116101025780638da5cb5b11610095578063a9059cbb11610064578063a9059cbb14610739578063d505accf14610776578063dd62ed3e1461079f578063f2fde38b146107dc57610225565b80638da5cb5b1461066957806395d89b4114610694578063981b24d0146106bf578063a457c2d7146106fc57610225565b806379cc6790116100d157806379cc6790146105d55780637ecebe00146105fe5780638129fc1c1461063b5780638456cb591461065257610225565b80635c975abb1461052b5780636f9fb98a1461055657806370a0823114610581578063715018a6146105be57610225565b8063395093511161017a5780634ee2cd7e116101495780634ee2cd7e1461047e5780634f1ef286146104bb57806352d1902d146104d757806359e784601461050257610225565b806339509351146103d85780633f4ba83a1461041557806340c10f191461042c57806342966c681461045557610225565b8063313ce567116101b6578063313ce5671461032e578063345a903f146103595780633644e515146103845780633659cfe6146103af57610225565b806306fdde031461025e578063095ea7b31461028957806318160ddd146102c657806323b872dd146102f157610225565b36610225577f42100f075a78c1dac886a43652b5c7c76cca3718758e13e7b726063cd20fe02c3460405161021b9190613730565b60405180910390a1005b7f6cb8a67804b99a2876f9d2f903120d1607df4c6bb33315433f4f5b9284ba1588346040516102549190613730565b60405180910390a1005b34801561026a57600080fd5b50610273610805565b60405161028091906137e4565b60405180910390f35b34801561029557600080fd5b506102b060048036038101906102ab91906138a4565b610897565b6040516102bd91906138ff565b60405180910390f35b3480156102d257600080fd5b506102db610900565b6040516102e89190613730565b60405180910390f35b3480156102fd57600080fd5b506103186004803603810190610313919061391a565b61090a565b60405161032591906138ff565b60405180910390f35b34801561033a57600080fd5b50610343610ac3565b6040516103509190613989565b60405180910390f35b34801561036557600080fd5b5061036e610acc565b60405161037b91906139b3565b60405180910390f35b34801561039057600080fd5b50610399610aff565b6040516103a691906139e7565b60405180910390f35b3480156103bb57600080fd5b506103d660048036038101906103d19190613a02565b610b0e565b005b3480156103e457600080fd5b506103ff60048036038101906103fa91906138a4565b610c97565b60405161040c91906138ff565b60405180910390f35b34801561042157600080fd5b5061042a610cbd565b005b34801561043857600080fd5b50610453600480360381019061044e91906138a4565b610ccf565b005b34801561046157600080fd5b5061047c60048036038101906104779190613a2f565b610d0b565b005b34801561048a57600080fd5b506104a560048036038101906104a091906138a4565b610d1f565b6040516104b29190613730565b60405180910390f35b6104d560048036038101906104d09190613b91565b610d8f565b005b3480156104e357600080fd5b506104ec610ecc565b6040516104f991906139e7565b60405180910390f35b34801561050e57600080fd5b5061052960048036038101906105249190613c2b565b610f85565b005b34801561053757600080fd5b50610540610fd2565b60405161054d91906138ff565b60405180910390f35b34801561056257600080fd5b5061056b610fe9565b6040516105789190613730565b60405180910390f35b34801561058d57600080fd5b506105a860048036038101906105a39190613a02565b610ff9565b6040516105b59190613730565b60405180910390f35b3480156105ca57600080fd5b506105d3611042565b005b3480156105e157600080fd5b506105fc60048036038101906105f791906138a4565b611056565b005b34801561060a57600080fd5b5061062560048036038101906106209190613a02565b61106c565b6040516106329190613730565b60405180910390f35b34801561064757600080fd5b506106506110bd565b005b34801561065e57600080fd5b506106676112cd565b005b34801561067557600080fd5b5061067e6112df565b60405161068b91906139b3565b60405180910390f35b3480156106a057600080fd5b506106a96112ee565b6040516106b691906137e4565b60405180910390f35b3480156106cb57600080fd5b506106e660048036038101906106e19190613a2f565b611380565b6040516106f39190613730565b60405180910390f35b34801561070857600080fd5b50610723600480360381019061071e91906138a4565b6113b1565b60405161073091906138ff565b60405180910390f35b34801561074557600080fd5b50610760600480360381019061075b91906138a4565b6113db565b60405161076d91906138ff565b60405180910390f35b34801561078257600080fd5b5061079d60048036038101906107989190613cb0565b611584565b005b3480156107ab57600080fd5b506107c660048036038101906107c19190613d52565b6116c6565b6040516107d39190613730565b60405180910390f35b3480156107e857600080fd5b5061080360048036038101906107fe9190613a02565b6116e2565b005b60606036805461081490613dc1565b80601f016020809104026020016040519081016040528092919081815260200182805461084090613dc1565b801561088d5780601f106108625761010080835404028352916020019161088d565b820191906000526020600020905b81548152906001019060200180831161087057829003601f168201915b5050505050905090565b60006108a1611766565b6108a96112df565b92507fffffffffffffffffffffffffffffffffffffffffffffffffffffffffffffffff91506108f8837fffffffffffffffffffffffffffffffffffffffffffffffffffffffffffffffff6117b0565b905092915050565b6000603554905090565b6000610914611766565b61091c6117d3565b8361092681611851565b610965576040517f08c379a000000000000000000000000000000000000000000000000000000000815260040161095c90613e3f565b60405180910390fd5b8361096f81611851565b6109ae576040517f08c379a00000000000000000000000000000000000000000000000000000000081526004016109a590613e3f565b60405180910390fd5b857f00000000000000000000000000000000000000000000000000000000000000006109d98261190b565b1415610a1c57806040517f80b9ec45000000000000000000000000000000000000000000000000000000008152600401610a1391906139b3565b60405180910390fd5b857f0000000000000000000000000000000000000000000000000000000000000000610a478261190b565b1415610a8a57806040517f80b9ec45000000000000000000000000000000000000000000000000000000008152600401610a8191906139b3565b60405180910390fd5b610ab68888610a97610ac3565b60ff16600a8a610aa79190613fc1565b610ab1919061400c565b6119c0565b9450505050509392505050565b60006012905090565b6000610ad66117d3565b6101f860009054906101000a900473ffffffffffffffffffffffffffffffffffffffff16905090565b6000610b096119ef565b905090565b7f000000000000000000000000000000000000000000000000000000000000000073ffffffffffffffffffffffffffffffffffffffff163073ffffffffffffffffffffffffffffffffffffffff161415610b9d576040517f08c379a0000000000000000000000000000000000000000000000000000000008152600401610b94906140d8565b60405180910390fd5b7f000000000000000000000000000000000000000000000000000000000000000073ffffffffffffffffffffffffffffffffffffffff16610bdc611a2f565b73ffffffffffffffffffffffffffffffffffffffff1614610c32576040517f08c379a0000000000000000000000000000000000000000000000000000000008152600401610c299061416a565b60405180910390fd5b610c3b81611a86565b610c9481600067ffffffffffffffff811115610c5a57610c59613a66565b5b6040519080825280601f01601f191660200182016040528015610c8c5781602001600182028036833780820191505090505b506000611a91565b50565b6000610ca1611766565b610ca96112df565b9250610cb58383611c0e565b905092915050565b610cc56117d3565b610ccd611c45565b565b610cd7611766565b610cdf6117d3565b610d0782610ceb610ac3565b600a610cf79190613fc1565b83610d02919061400c565b611ca8565b5050565b610d136117d3565b610d1c81611e00565b50565b6000806000610d6c84609760008873ffffffffffffffffffffffffffffffffffffffff1673ffffffffffffffffffffffffffffffffffffffff168152602001908152602001600020611e14565b9150915081610d8357610d7e85610ff9565b610d85565b805b9250505092915050565b7f000000000000000000000000000000000000000000000000000000000000000073ffffffffffffffffffffffffffffffffffffffff163073ffffffffffffffffffffffffffffffffffffffff161415610e1e576040517f08c379a0000000000000000000000000000000000000000000000000000000008152600401610e15906140d8565b60405180910390fd5b7f000000000000000000000000000000000000000000000000000000000000000073ffffffffffffffffffffffffffffffffffffffff16610e5d611a2f565b73ffffffffffffffffffffffffffffffffffffffff1614610eb3576040517f08c379a0000000000000000000000000000000000000000000000000000000008152600401610eaa9061416a565b60405180910390fd5b610ebc82611a86565b610ec882826001611a91565b5050565b60007f000000000000000000000000000000000000000000000000000000000000000073ffffffffffffffffffffffffffffffffffffffff163073ffffffffffffffffffffffffffffffffffffffff1614610f5c576040517f08c379a0000000000000000000000000000000000000000000000000000000008152600401610f53906141fc565b60405180910390fd5b7f360894a13ba1a3210667c828492db98dca3e2076cc3735a920a3ca505d382bbc60001b905090565b610f8d6117d3565b806101f860006101000a81548173ffffffffffffffffffffffffffffffffffffffff021916908373ffffffffffffffffffffffffffffffffffffffff16021790555050565b600060fb60009054906101000a900460ff16905090565b6000610ff36117d3565b47905090565b6000603360008373ffffffffffffffffffffffffffffffffffffffff1673ffffffffffffffffffffffffffffffffffffffff168152602001908152602001600020549050919050565b61104a6117d3565b6110546000611f0a565b565b61105e6117d3565b6110688282611fd0565b5050565b60006110b661016160008473ffffffffffffffffffffffffffffffffffffffff1673ffffffffffffffffffffffffffffffffffffffff168152602001908152602001600020611ff0565b9050919050565b60008060019054906101000a900460ff161590508080156110ee5750600160008054906101000a900460ff1660ff16105b8061111b57506110fd30611ffe565b15801561111a5750600160008054906101000a900460ff1660ff16145b5b61115a576040517f08c379a00000000000000000000000000000000000000000000000000000000081526004016111519061428e565b60405180910390fd5b60016000806101000a81548160ff021916908360ff1602179055508015611197576001600060016101000a81548160ff0219169083151502179055505b61120b6040518060400160405280600481526020017f504b4452000000000000000000000000000000000000000000000000000000008152506040518060400160405280600481526020017f504b445200000000000000000000000000000000000000000000000000000000815250612021565b61121361207e565b61121b6120cf565b611223612120565b61122b612179565b6112696040518060400160405280600481526020017f504b4452000000000000000000000000000000000000000000000000000000008152506121d2565b611271612263565b80156112ca5760008060016101000a81548160ff0219169083151502179055507f7f26b83ff96e1f2b6a682f133852f6798a09c465da95921460cefb384740249860016040516112c191906142f3565b60405180910390a15b50565b6112d56117d3565b6112dd6122b4565b565b60006112e9612317565b905090565b6060603780546112fd90613dc1565b80601f016020809104026020016040519081016040528092919081815260200182805461132990613dc1565b80156113765780601f1061134b57610100808354040283529160200191611376565b820191906000526020600020905b81548152906001019060200180831161135957829003601f168201915b5050505050905090565b6000806000611390846098611e14565b91509150816113a6576113a1610900565b6113a8565b805b92505050919050565b60006113bb611766565b6113c36112df565b9250600091506113d38383612341565b905092915050565b60006113e5611766565b6113ed6117d3565b6113f633611851565b611435576040517f08c379a000000000000000000000000000000000000000000000000000000000815260040161142c90614380565b60405180910390fd5b61143e83611851565b61147d576040517f08c379a000000000000000000000000000000000000000000000000000000000815260040161147490614412565b60405180910390fd5b7f00000000000000000000000000000000000000000000000000000000000000006114a73361190b565b146114e7576040517f08c379a00000000000000000000000000000000000000000000000000000000081526004016114de906144a4565b60405180910390fd5b7f00000000000000000000000000000000000000000000000000000000000000006115118461190b565b14611551576040517f08c379a000000000000000000000000000000000000000000000000000000000815260040161154890614536565b60405180910390fd5b61157c8361155d610ac3565b60ff16600a8561156d9190613fc1565b611577919061400c565b6123b8565b905092915050565b834211156115c7576040517f08c379a00000000000000000000000000000000000000000000000000000000081526004016115be906145a2565b60405180910390fd5b60007f6e71edae12b1b97f4d1f60370fef10105fa2faae0126114a169c64845d6126c98888886115f68c6123db565b8960405160200161160c969594939291906145c2565b604051602081830303815290604052805190602001209050600061162f8261243a565b9050600061163f82878787612454565b90508973ffffffffffffffffffffffffffffffffffffffff168173ffffffffffffffffffffffffffffffffffffffff16146116af576040517f08c379a00000000000000000000000000000000000000000000000000000000081526004016116a69061466f565b60405180910390fd5b6116ba8a8a8a61247f565b50505050505050505050565b60006116d06117d3565b6116da838361264a565b905092915050565b6116ea6117d3565b600073ffffffffffffffffffffffffffffffffffffffff168173ffffffffffffffffffffffffffffffffffffffff16141561175a576040517f08c379a000000000000000000000000000000000000000000000000000000000815260040161175190614701565b60405180910390fd5b61176381611f0a565b50565b61176e610fd2565b156117ae576040517f08c379a00000000000000000000000000000000000000000000000000000000081526004016117a59061476d565b60405180910390fd5b565b6000806117bb6126d1565b90506117c881858561247f565b600191505092915050565b6117db6126d1565b73ffffffffffffffffffffffffffffffffffffffff166117f96112df565b73ffffffffffffffffffffffffffffffffffffffff161461184f576040517f08c379a0000000000000000000000000000000000000000000000000000000008152600401611846906147d9565b60405180910390fd5b565b6000806101f860009054906101000a900473ffffffffffffffffffffffffffffffffffffffff1673ffffffffffffffffffffffffffffffffffffffff1663d117fc99846040518263ffffffff1660e01b81526004016118b091906139b3565b60206040518083038186803b1580156118c857600080fd5b505afa1580156118dc573d6000803e3d6000fd5b505050506040513d601f19601f820116820180604052508101906119009190614825565b905080915050919050565b60006101f860009054906101000a900473ffffffffffffffffffffffffffffffffffffffff1673ffffffffffffffffffffffffffffffffffffffff16631e9f3d5e836040518263ffffffff1660e01b815260040161196991906139b3565b60206040518083038186803b15801561198157600080fd5b505afa158015611995573d6000803e3d6000fd5b505050506040513d601f19601f820116820180604052508101906119b99190614867565b9050919050565b6000806119cb6126d1565b90506119d88582856126d9565b6119e3858585612765565b60019150509392505050565b6000611a2a7f8b73c3c69bb8fe3d512ecc4cf759cc79239f7b179b0ffacaa9a75d522b39400f611a1d6129e0565b611a256129eb565b6129f6565b905090565b6000611a5d7f360894a13ba1a3210667c828492db98dca3e2076cc3735a920a3ca505d382bbc60001b612a30565b60000160009054906101000a900473ffffffffffffffffffffffffffffffffffffffff16905090565b611a8e6117d3565b50565b611abd7f4910fdfa16fed3260ed0e7147f7cc6da11a60208b5b9406d12a635614ffd914360001b612a3a565b60000160009054906101000a900460ff1615611ae157611adc83612a44565b611c09565b8273ffffffffffffffffffffffffffffffffffffffff166352d1902d6040518163ffffffff1660e01b815260040160206040518083038186803b158015611b2757600080fd5b505afa925050508015611b5857506040513d601f19601f82011682018060405250810190611b559190614867565b60015b611b97576040517f08c379a0000000000000000000000000000000000000000000000000000000008152600401611b8e90614906565b60405180910390fd5b7f360894a13ba1a3210667c828492db98dca3e2076cc3735a920a3ca505d382bbc60001b8114611bfc576040517f08c379a0000000000000000000000000000000000000000000000000000000008152600401611bf390614998565b60405180910390fd5b50611c08838383612afd565b5b505050565b600080611c196126d1565b9050611c3a818585611c2b85896116c6565b611c3591906149b8565b61247f565b600191505092915050565b611c4d612b29565b600060fb60006101000a81548160ff0219169083151502179055507f5db9ee0a495bf2e6ff9c91a7834c1ba4fdd244a5e8aa4e537bd38aeae4b073aa611c916126d1565b604051611c9e91906139b3565b60405180910390a1565b600073ffffffffffffffffffffffffffffffffffffffff168273ffffffffffffffffffffffffffffffffffffffff161415611d18576040517f08c379a0000000000000000000000000000000000000000000000000000000008152600401611d0f90614a5a565b60405180910390fd5b611d2460008383612b72565b8060356000828254611d3691906149b8565b9250508190555080603360008473ffffffffffffffffffffffffffffffffffffffff1673ffffffffffffffffffffffffffffffffffffffff168152602001908152602001600020600082825401925050819055508173ffffffffffffffffffffffffffffffffffffffff16600073ffffffffffffffffffffffffffffffffffffffff167fddf252ad1be2c89b69c2b068fc378daa952ba7f163c4a11628f55a4df523b3ef83604051611de89190613730565b60405180910390a3611dfc60008383612b8a565b5050565b611e11611e0b6126d1565b82612b8f565b50565b60008060008411611e5a576040517f08c379a0000000000000000000000000000000000000000000000000000000008152600401611e5190614ac6565b60405180910390fd5b611e62612d5f565b841115611ea4576040517f08c379a0000000000000000000000000000000000000000000000000000000008152600401611e9b90614b32565b60405180910390fd5b6000611ebc8585600001612d7090919063ffffffff16565b90508360000180549050811415611eda576000809250925050611f03565b6001846001018281548110611ef257611ef1614b52565b5b906000526020600020015492509250505b9250929050565b600060c960009054906101000a900473ffffffffffffffffffffffffffffffffffffffff1690508160c960006101000a81548173ffffffffffffffffffffffffffffffffffffffff021916908373ffffffffffffffffffffffffffffffffffffffff1602179055508173ffffffffffffffffffffffffffffffffffffffff168173ffffffffffffffffffffffffffffffffffffffff167f8be0079c531659141344cd1fd0a4f28419497f9722a3daafe3b4186f6b6457e060405160405180910390a35050565b611fe282611fdc6126d1565b836126d9565b611fec8282612b8f565b5050565b600081600001549050919050565b6000808273ffffffffffffffffffffffffffffffffffffffff163b119050919050565b600060019054906101000a900460ff16612070576040517f08c379a000000000000000000000000000000000000000000000000000000000815260040161206790614bf3565b60405180910390fd5b61207a8282612e2a565b5050565b600060019054906101000a900460ff166120cd576040517f08c379a00000000000000000000000000000000000000000000000000000000081526004016120c490614bf3565b60405180910390fd5b565b600060019054906101000a900460ff1661211e576040517f08c379a000000000000000000000000000000000000000000000000000000000815260040161211590614bf3565b60405180910390fd5b565b600060019054906101000a900460ff1661216f576040517f08c379a000000000000000000000000000000000000000000000000000000000815260040161216690614bf3565b60405180910390fd5b612177612eab565b565b600060019054906101000a900460ff166121c8576040517f08c379a00000000000000000000000000000000000000000000000000000000081526004016121bf90614bf3565b60405180910390fd5b6121d0612f0c565b565b600060019054906101000a900460ff16612221576040517f08c379a000000000000000000000000000000000000000000000000000000000815260040161221890614bf3565b60405180910390fd5b612260816040518060400160405280600181526020017f3100000000000000000000000000000000000000000000000000000000000000815250612f78565b50565b600060019054906101000a900460ff166122b2576040517f08c379a00000000000000000000000000000000000000000000000000000000081526004016122a990614bf3565b60405180910390fd5b565b6122bc611766565b600160fb60006101000a81548160ff0219169083151502179055507f62e78cea01bee320cd4e420270b5ea74000d11b0c9f74754ebdbfc544b05a2586123006126d1565b60405161230d91906139b3565b60405180910390a1565b600060c960009054906101000a900473ffffffffffffffffffffffffffffffffffffffff16905090565b60008061234c6126d1565b9050600061235a82866116c6565b90508381101561239f576040517f08c379a000000000000000000000000000000000000000000000000000000000815260040161239690614c85565b60405180910390fd5b6123ac828686840361247f565b60019250505092915050565b6000806123c36126d1565b90506123d0818585612765565b600191505092915050565b60008061016160008473ffffffffffffffffffffffffffffffffffffffff1673ffffffffffffffffffffffffffffffffffffffff168152602001908152602001600020905061242981611ff0565b915061243481612ff5565b50919050565b600061244d6124476119ef565b8361300b565b9050919050565b60008060006124658787878761303e565b9150915061247281613121565b8192505050949350505050565b600073ffffffffffffffffffffffffffffffffffffffff168373ffffffffffffffffffffffffffffffffffffffff1614156124ef576040517f08c379a00000000000000000000000000000000000000000000000000000000081526004016124e690614d17565b60405180910390fd5b600073ffffffffffffffffffffffffffffffffffffffff168273ffffffffffffffffffffffffffffffffffffffff16141561255f576040517f08c379a000000000000000000000000000000000000000000000000000000000815260040161255690614da9565b60405180910390fd5b80603460008573ffffffffffffffffffffffffffffffffffffffff1673ffffffffffffffffffffffffffffffffffffffff16815260200190815260200160002060008473ffffffffffffffffffffffffffffffffffffffff1673ffffffffffffffffffffffffffffffffffffffff168152602001908152602001600020819055508173ffffffffffffffffffffffffffffffffffffffff168373ffffffffffffffffffffffffffffffffffffffff167f8c5be1e5ebec7d5bd14f71427d1e84f3dd0314c0f7b2291e5b200ac8c7c3b9258360405161263d9190613730565b60405180910390a3505050565b6000603460008473ffffffffffffffffffffffffffffffffffffffff1673ffffffffffffffffffffffffffffffffffffffff16815260200190815260200160002060008373ffffffffffffffffffffffffffffffffffffffff1673ffffffffffffffffffffffffffffffffffffffff16815260200190815260200160002054905092915050565b600033905090565b60006126e584846116c6565b90507fffffffffffffffffffffffffffffffffffffffffffffffffffffffffffffffff811461275f5781811015612751576040517f08c379a000000000000000000000000000000000000000000000000000000000815260040161274890614e15565b60405180910390fd5b61275e848484840361247f565b5b50505050565b600073ffffffffffffffffffffffffffffffffffffffff168373ffffffffffffffffffffffffffffffffffffffff1614156127d5576040517f08c379a00000000000000000000000000000000000000000000000000000000081526004016127cc90614ea7565b60405180910390fd5b600073ffffffffffffffffffffffffffffffffffffffff168273ffffffffffffffffffffffffffffffffffffffff161415612845576040517f08c379a000000000000000000000000000000000000000000000000000000000815260040161283c90614f39565b60405180910390fd5b612850838383612b72565b6000603360008573ffffffffffffffffffffffffffffffffffffffff1673ffffffffffffffffffffffffffffffffffffffff168152602001908152602001600020549050818110156128d7576040517f08c379a00000000000000000000000000000000000000000000000000000000081526004016128ce90614fcb565b60405180910390fd5b818103603360008673ffffffffffffffffffffffffffffffffffffffff1673ffffffffffffffffffffffffffffffffffffffff1681526020019081526020016000208190555081603360008573ffffffffffffffffffffffffffffffffffffffff1673ffffffffffffffffffffffffffffffffffffffff168152602001908152602001600020600082825401925050819055508273ffffffffffffffffffffffffffffffffffffffff168473ffffffffffffffffffffffffffffffffffffffff167fddf252ad1be2c89b69c2b068fc378daa952ba7f163c4a11628f55a4df523b3ef846040516129c79190613730565b60405180910390a36129da848484612b8a565b50505050565b600061012d54905090565b600061012e54905090565b60008383834630604051602001612a11959493929190614feb565b6040516020818303038152906040528051906020012090509392505050565b6000819050919050565b6000819050919050565b612a4d81611ffe565b612a8c576040517f08c379a0000000000000000000000000000000000000000000000000000000008152600401612a83906150b0565b60405180910390fd5b80612ab97f360894a13ba1a3210667c828492db98dca3e2076cc3735a920a3ca505d382bbc60001b612a30565b60000160006101000a81548173ffffffffffffffffffffffffffffffffffffffff021916908373ffffffffffffffffffffffffffffffffffffffff16021790555050565b612b068361328f565b600082511180612b135750805b15612b2457612b2283836132de565b505b505050565b612b31610fd2565b612b70576040517f08c379a0000000000000000000000000000000000000000000000000000000008152600401612b679061511c565b60405180910390fd5b565b612b7a611766565b612b858383836133c2565b505050565b505050565b600073ffffffffffffffffffffffffffffffffffffffff168273ffffffffffffffffffffffffffffffffffffffff161415612bff576040517f08c379a0000000000000000000000000000000000000000000000000000000008152600401612bf6906151ae565b60405180910390fd5b612c0b82600083612b72565b6000603360008473ffffffffffffffffffffffffffffffffffffffff1673ffffffffffffffffffffffffffffffffffffffff16815260200190815260200160002054905081811015612c92576040517f08c379a0000000000000000000000000000000000000000000000000000000008152600401612c8990615240565b60405180910390fd5b818103603360008573ffffffffffffffffffffffffffffffffffffffff1673ffffffffffffffffffffffffffffffffffffffff1681526020019081526020016000208190555081603560008282540392505081905550600073ffffffffffffffffffffffffffffffffffffffff168373ffffffffffffffffffffffffffffffffffffffff167fddf252ad1be2c89b69c2b068fc378daa952ba7f163c4a11628f55a4df523b3ef84604051612d469190613730565b60405180910390a3612d5a83600084612b8a565b505050565b6000612d6b609a611ff0565b905090565b60008083805490501415612d875760009050612e24565b600080848054905090505b80821015612ddb576000612da6838361347c565b905084612db387836134a2565b600001541115612dc557809150612dd5565b600181612dd291906149b8565b92505b50612d92565b600082118015612e03575083612dfd86600185612df89190615260565b6134a2565b60000154145b15612e1e57600182612e159190615260565b92505050612e24565b81925050505b92915050565b600060019054906101000a900460ff16612e79576040517f08c379a0000000000000000000000000000000000000000000000000000000008152600401612e7090614bf3565b60405180910390fd5b8160369080519060200190612e8f929190613674565b508060379080519060200190612ea6929190613674565b505050565b600060019054906101000a900460ff16612efa576040517f08c379a0000000000000000000000000000000000000000000000000000000008152600401612ef190614bf3565b60405180910390fd5b612f0a612f056126d1565b611f0a565b565b600060019054906101000a900460ff16612f5b576040517f08c379a0000000000000000000000000000000000000000000000000000000008152600401612f5290614bf3565b60405180910390fd5b600060fb60006101000a81548160ff021916908315150217905550565b600060019054906101000a900460ff16612fc7576040517f08c379a0000000000000000000000000000000000000000000000000000000008152600401612fbe90614bf3565b60405180910390fd5b6000828051906020012090506000828051906020012090508161012d819055508061012e8190555050505050565b6001816000016000828254019250508190555050565b6000828260405160200161302092919061530c565b60405160208183030381529060405280519060200120905092915050565b6000807f7fffffffffffffffffffffffffffffff5d576e7357a4501ddfe92f46681b20a08360001c1115613079576000600391509150613118565b60006001878787876040516000815260200160405260405161309e9493929190615343565b6020604051602081039080840390855afa1580156130c0573d6000803e3d6000fd5b505050602060405103519050600073ffffffffffffffffffffffffffffffffffffffff168173ffffffffffffffffffffffffffffffffffffffff16141561310f57600060019250925050613118565b80600092509250505b94509492505050565b6000600481111561313557613134615388565b5b81600481111561314857613147615388565b5b14156131535761328c565b6001600481111561316757613166615388565b5b81600481111561317a57613179615388565b5b14156131bb576040517f08c379a00000000000000000000000000000000000000000000000000000000081526004016131b290615403565b60405180910390fd5b600260048111156131cf576131ce615388565b5b8160048111156131e2576131e1615388565b5b1415613223576040517f08c379a000000000000000000000000000000000000000000000000000000000815260040161321a9061546f565b60405180910390fd5b6003600481111561323757613236615388565b5b81600481111561324a57613249615388565b5b141561328b576040517f08c379a000000000000000000000000000000000000000000000000000000000815260040161328290615501565b60405180910390fd5b5b50565b61329881612a44565b8073ffffffffffffffffffffffffffffffffffffffff167fbc7cd75a20ee27fd9adebab32041f755214dbc6bffa90cc0225b39da2e5c2d3b60405160405180910390a250565b60606132e983611ffe565b613328576040517f08c379a000000000000000000000000000000000000000000000000000000000815260040161331f90615593565b60405180910390fd5b6000808473ffffffffffffffffffffffffffffffffffffffff168460405161335091906155fa565b600060405180830381855af49150503d806000811461338b576040519150601f19603f3d011682016040523d82523d6000602084013e613390565b606091505b50915091506133b88282604051806060016040528060278152602001615672602791396134c4565b9250505092915050565b6133cd8383836134e6565b600073ffffffffffffffffffffffffffffffffffffffff168373ffffffffffffffffffffffffffffffffffffffff1614156134185761340b826134eb565b61341361353e565b613477565b600073ffffffffffffffffffffffffffffffffffffffff168273ffffffffffffffffffffffffffffffffffffffff16141561346357613456836134eb565b61345e61353e565b613476565b61346c836134eb565b613475826134eb565b5b5b505050565b6000600282841861348d9190615640565b82841661349a91906149b8565b905092915050565b600080836000528260206000200190506134bb81613552565b91505092915050565b606083156134d4578290506134df565b6134de838361355c565b5b9392505050565b505050565b61353b609760008373ffffffffffffffffffffffffffffffffffffffff1673ffffffffffffffffffffffffffffffffffffffff16815260200190815260200160002061353683610ff9565b6135ac565b50565b613550609861354b610900565b6135ac565b565b6000819050919050565b60008251111561356f5781518083602001fd5b806040517f08c379a00000000000000000000000000000000000000000000000000000000081526004016135a391906137e4565b60405180910390fd5b60006135b6612d5f565b9050806135c584600001613627565b10156136225782600001819080600181540180825580915050600190039060005260206000200160009091909190915055826001018290806001815401808255809150506001900390600052602060002001600090919091909150555b505050565b6000808280549050141561363e576000905061366f565b81600183805490506136509190615260565b8154811061366157613660614b52565b5b906000526020600020015490505b919050565b82805461368090613dc1565b90600052602060002090601f0160209004810192826136a257600085556136e9565b82601f106136bb57805160ff19168380011785556136e9565b828001600101855582156136e9579182015b828111156136e85782518255916020019190600101906136cd565b5b5090506136f691906136fa565b5090565b5b808211156137135760008160009055506001016136fb565b5090565b6000819050919050565b61372a81613717565b82525050565b60006020820190506137456000830184613721565b92915050565b600081519050919050565b600082825260208201905092915050565b60005b8381101561378557808201518184015260208101905061376a565b83811115613794576000848401525b50505050565b6000601f19601f8301169050919050565b60006137b68261374b565b6137c08185613756565b93506137d0818560208601613767565b6137d98161379a565b840191505092915050565b600060208201905081810360008301526137fe81846137ab565b905092915050565b6000604051905090565b600080fd5b600080fd5b600073ffffffffffffffffffffffffffffffffffffffff82169050919050565b60006138458261381a565b9050919050565b6138558161383a565b811461386057600080fd5b50565b6000813590506138728161384c565b92915050565b61388181613717565b811461388c57600080fd5b50565b60008135905061389e81613878565b92915050565b600080604083850312156138bb576138ba613810565b5b60006138c985828601613863565b92505060206138da8582860161388f565b9150509250929050565b60008115159050919050565b6138f9816138e4565b82525050565b600060208201905061391460008301846138f0565b92915050565b60008060006060848603121561393357613932613810565b5b600061394186828701613863565b935050602061395286828701613863565b92505060406139638682870161388f565b9150509250925092565b600060ff82169050919050565b6139838161396d565b82525050565b600060208201905061399e600083018461397a565b92915050565b6139ad8161383a565b82525050565b60006020820190506139c860008301846139a4565b92915050565b6000819050919050565b6139e1816139ce565b82525050565b60006020820190506139fc60008301846139d8565b92915050565b600060208284031215613a1857613a17613810565b5b6000613a2684828501613863565b91505092915050565b600060208284031215613a4557613a44613810565b5b6000613a538482850161388f565b91505092915050565b600080fd5b600080fd5b7f4e487b7100000000000000000000000000000000000000000000000000000000600052604160045260246000fd5b613a9e8261379a565b810181811067ffffffffffffffff82111715613abd57613abc613a66565b5b80604052505050565b6000613ad0613806565b9050613adc8282613a95565b919050565b600067ffffffffffffffff821115613afc57613afb613a66565b5b613b058261379a565b9050602081019050919050565b82818337600083830152505050565b6000613b34613b2f84613ae1565b613ac6565b905082815260208101848484011115613b5057613b4f613a61565b5b613b5b848285613b12565b509392505050565b600082601f830112613b7857613b77613a5c565b5b8135613b88848260208601613b21565b91505092915050565b60008060408385031215613ba857613ba7613810565b5b6000613bb685828601613863565b925050602083013567ffffffffffffffff811115613bd757613bd6613815565b5b613be385828601613b63565b9150509250929050565b6000613bf88261381a565b9050919050565b613c0881613bed565b8114613c1357600080fd5b50565b600081359050613c2581613bff565b92915050565b600060208284031215613c4157613c40613810565b5b6000613c4f84828501613c16565b91505092915050565b613c618161396d565b8114613c6c57600080fd5b50565b600081359050613c7e81613c58565b92915050565b613c8d816139ce565b8114613c9857600080fd5b50565b600081359050613caa81613c84565b92915050565b600080600080600080600060e0888a031215613ccf57613cce613810565b5b6000613cdd8a828b01613863565b9750506020613cee8a828b01613863565b9650506040613cff8a828b0161388f565b9550506060613d108a828b0161388f565b9450506080613d218a828b01613c6f565b93505060a0613d328a828b01613c9b565b92505060c0613d438a828b01613c9b565b91505092959891949750929550565b60008060408385031215613d6957613d68613810565b5b6000613d7785828601613863565b9250506020613d8885828601613863565b9150509250929050565b7f4e487b7100000000000000000000000000000000000000000000000000000000600052602260045260246000fd5b60006002820490506001821680613dd957607f821691505b60208210811415613ded57613dec613d92565b5b50919050565b7f555345525f4e4f545f5645524946494544000000000000000000000000000000600082015250565b6000613e29601183613756565b9150613e3482613df3565b602082019050919050565b60006020820190508181036000830152613e5881613e1c565b9050919050565b7f4e487b7100000000000000000000000000000000000000000000000000000000600052601160045260246000fd5b60008160011c9050919050565b6000808291508390505b6001851115613ee557808604811115613ec157613ec0613e5f565b5b6001851615613ed05780820291505b8081029050613ede85613e8e565b9450613ea5565b94509492505050565b600082613efe5760019050613fba565b81613f0c5760009050613fba565b8160018114613f225760028114613f2c57613f5b565b6001915050613fba565b60ff841115613f3e57613f3d613e5f565b5b8360020a915084821115613f5557613f54613e5f565b5b50613fba565b5060208310610133831016604e8410600b8410161715613f905782820a905083811115613f8b57613f8a613e5f565b5b613fba565b613f9d8484846001613e9b565b92509050818404811115613fb457613fb3613e5f565b5b81810290505b9392505050565b6000613fcc82613717565b9150613fd78361396d565b92506140047fffffffffffffffffffffffffffffffffffffffffffffffffffffffffffffffff8484613eee565b905092915050565b600061401782613717565b915061402283613717565b9250817fffffffffffffffffffffffffffffffffffffffffffffffffffffffffffffffff048311821515161561405b5761405a613e5f565b5b828202905092915050565b7f46756e6374696f6e206d7573742062652063616c6c6564207468726f7567682060008201527f64656c656761746563616c6c0000000000000000000000000000000000000000602082015250565b60006140c2602c83613756565b91506140cd82614066565b604082019050919050565b600060208201905081810360008301526140f1816140b5565b9050919050565b7f46756e6374696f6e206d7573742062652063616c6c6564207468726f7567682060008201527f6163746976652070726f78790000000000000000000000000000000000000000602082015250565b6000614154602c83613756565b915061415f826140f8565b604082019050919050565b6000602082019050818103600083015261418381614147565b9050919050565b7f555550535570677261646561626c653a206d757374206e6f742062652063616c60008201527f6c6564207468726f7567682064656c656761746563616c6c0000000000000000602082015250565b60006141e6603883613756565b91506141f18261418a565b604082019050919050565b60006020820190508181036000830152614215816141d9565b9050919050565b7f496e697469616c697a61626c653a20636f6e747261637420697320616c72656160008201527f647920696e697469616c697a6564000000000000000000000000000000000000602082015250565b6000614278602e83613756565b91506142838261421c565b604082019050919050565b600060208201905081810360008301526142a78161426b565b9050919050565b6000819050919050565b6000819050919050565b60006142dd6142d86142d3846142ae565b6142b8565b61396d565b9050919050565b6142ed816142c2565b82525050565b600060208201905061430860008301846142e4565b92915050565b7f66726f6d3a205452414e534645525f52455155495245445f564552494649434160008201527f54494f4e5f490000000000000000000000000000000000000000000000000000602082015250565b600061436a602683613756565b91506143758261430e565b604082019050919050565b600060208201905081810360008301526143998161435d565b9050919050565b7f746f203a205452414e534645525f52455155495245445f56455249464943415460008201527f494f4e5f49000000000000000000000000000000000000000000000000000000602082015250565b60006143fc602583613756565b9150614407826143a0565b604082019050919050565b6000602082019050818103600083015261442b816143ef565b9050919050565b7f66726f6d3a205452414e534645525f52455155495245445f4d554c54495f534960008201527f474e415455524500000000000000000000000000000000000000000000000000602082015250565b600061448e602783613756565b915061449982614432565b604082019050919050565b600060208201905081810360008301526144bd81614481565b9050919050565b7f746f3a205452414e534645525f52455155495245445f4d554c54495f5349474e60008201527f4154555245000000000000000000000000000000000000000000000000000000602082015250565b6000614520602583613756565b915061452b826144c4565b604082019050919050565b6000602082019050818103600083015261454f81614513565b9050919050565b7f45524332305065726d69743a206578706972656420646561646c696e65000000600082015250565b600061458c601d83613756565b915061459782614556565b602082019050919050565b600060208201905081810360008301526145bb8161457f565b9050919050565b600060c0820190506145d760008301896139d8565b6145e460208301886139a4565b6145f160408301876139a4565b6145fe6060830186613721565b61460b6080830185613721565b61461860a0830184613721565b979650505050505050565b7f45524332305065726d69743a20696e76616c6964207369676e61747572650000600082015250565b6000614659601e83613756565b915061466482614623565b602082019050919050565b600060208201905081810360008301526146888161464c565b9050919050565b7f4f776e61626c653a206e6577206f776e657220697320746865207a65726f206160008201527f6464726573730000000000000000000000000000000000000000000000000000602082015250565b60006146eb602683613756565b91506146f68261468f565b604082019050919050565b6000602082019050818103600083015261471a816146de565b9050919050565b7f5061757361626c653a2070617573656400000000000000000000000000000000600082015250565b6000614757601083613756565b915061476282614721565b602082019050919050565b600060208201905081810360008301526147868161474a565b9050919050565b7f4f776e61626c653a2063616c6c6572206973206e6f7420746865206f776e6572600082015250565b60006147c3602083613756565b91506147ce8261478d565b602082019050919050565b600060208201905081810360008301526147f2816147b6565b9050919050565b614802816138e4565b811461480d57600080fd5b50565b60008151905061481f816147f9565b92915050565b60006020828403121561483b5761483a613810565b5b600061484984828501614810565b91505092915050565b60008151905061486181613c84565b92915050565b60006020828403121561487d5761487c613810565b5b600061488b84828501614852565b91505092915050565b7f45524331393637557067726164653a206e657720696d706c656d656e7461746960008201527f6f6e206973206e6f742055555053000000000000000000000000000000000000602082015250565b60006148f0602e83613756565b91506148fb82614894565b604082019050919050565b6000602082019050818103600083015261491f816148e3565b9050919050565b7f45524331393637557067726164653a20756e737570706f727465642070726f7860008201527f6961626c65555549440000000000000000000000000000000000000000000000602082015250565b6000614982602983613756565b915061498d82614926565b604082019050919050565b600060208201905081810360008301526149b181614975565b9050919050565b60006149c382613717565b91506149ce83613717565b9250827fffffffffffffffffffffffffffffffffffffffffffffffffffffffffffffffff03821115614a0357614a02613e5f565b5b828201905092915050565b7f45524332303a206d696e7420746f20746865207a65726f206164647265737300600082015250565b6000614a44601f83613756565b9150614a4f82614a0e565b602082019050919050565b60006020820190508181036000830152614a7381614a37565b9050919050565b7f4552433230536e617073686f743a206964206973203000000000000000000000600082015250565b6000614ab0601683613756565b9150614abb82614a7a565b602082019050919050565b60006020820190508181036000830152614adf81614aa3565b9050919050565b7f4552433230536e617073686f743a206e6f6e6578697374656e74206964000000600082015250565b6000614b1c601d83613756565b9150614b2782614ae6565b602082019050919050565b60006020820190508181036000830152614b4b81614b0f565b9050919050565b7f4e487b7100000000000000000000000000000000000000000000000000000000600052603260045260246000fd5b7f496e697469616c697a61626c653a20636f6e7472616374206973206e6f74206960008201527f6e697469616c697a696e67000000000000000000000000000000000000000000602082015250565b6000614bdd602b83613756565b9150614be882614b81565b604082019050919050565b60006020820190508181036000830152614c0c81614bd0565b9050919050565b7f45524332303a2064656372656173656420616c6c6f77616e63652062656c6f7760008201527f207a65726f000000000000000000000000000000000000000000000000000000602082015250565b6000614c6f602583613756565b9150614c7a82614c13565b604082019050919050565b60006020820190508181036000830152614c9e81614c62565b9050919050565b7f45524332303a20617070726f76652066726f6d20746865207a65726f2061646460008201527f7265737300000000000000000000000000000000000000000000000000000000602082015250565b6000614d01602483613756565b9150614d0c82614ca5565b604082019050919050565b60006020820190508181036000830152614d3081614cf4565b9050919050565b7f45524332303a20617070726f766520746f20746865207a65726f20616464726560008201527f7373000000000000000000000000000000000000000000000000000000000000602082015250565b6000614d93602283613756565b9150614d9e82614d37565b604082019050919050565b60006020820190508181036000830152614dc281614d86565b9050919050565b7f45524332303a20696e73756666696369656e7420616c6c6f77616e6365000000600082015250565b6000614dff601d83613756565b9150614e0a82614dc9565b602082019050919050565b60006020820190508181036000830152614e2e81614df2565b9050919050565b7f45524332303a207472616e736665722066726f6d20746865207a65726f20616460008201527f6472657373000000000000000000000000000000000000000000000000000000602082015250565b6000614e91602583613756565b9150614e9c82614e35565b604082019050919050565b60006020820190508181036000830152614ec081614e84565b9050919050565b7f45524332303a207472616e7366657220746f20746865207a65726f206164647260008201527f6573730000000000000000000000000000000000000000000000000000000000602082015250565b6000614f23602383613756565b9150614f2e82614ec7565b604082019050919050565b60006020820190508181036000830152614f5281614f16565b9050919050565b7f45524332303a207472616e7366657220616d6f756e742065786365656473206260008201527f616c616e63650000000000000000000000000000000000000000000000000000602082015250565b6000614fb5602683613756565b9150614fc082614f59565b604082019050919050565b60006020820190508181036000830152614fe481614fa8565b9050919050565b600060a08201905061500060008301886139d8565b61500d60208301876139d8565b61501a60408301866139d8565b6150276060830185613721565b61503460808301846139a4565b9695505050505050565b7f455243313936373a206e657720696d706c656d656e746174696f6e206973206e60008201527f6f74206120636f6e747261637400000000000000000000000000000000000000602082015250565b600061509a602d83613756565b91506150a58261503e565b604082019050919050565b600060208201905081810360008301526150c98161508d565b9050919050565b7f5061757361626c653a206e6f7420706175736564000000000000000000000000600082015250565b6000615106601483613756565b9150615111826150d0565b602082019050919050565b60006020820190508181036000830152615135816150f9565b9050919050565b7f45524332303a206275726e2066726f6d20746865207a65726f2061646472657360008201527f7300000000000000000000000000000000000000000000000000000000000000602082015250565b6000615198602183613756565b91506151a38261513c565b604082019050919050565b600060208201905081810360008301526151c78161518b565b9050919050565b7f45524332303a206275726e20616d6f756e7420657863656564732062616c616e60008201527f6365000000000000000000000000000000000000000000000000000000000000602082015250565b600061522a602283613756565b9150615235826151ce565b604082019050919050565b600060208201905081810360008301526152598161521d565b9050919050565b600061526b82613717565b915061527683613717565b92508282101561528957615288613e5f565b5b828203905092915050565b600081905092915050565b7f1901000000000000000000000000000000000000000000000000000000000000600082015250565b60006152d5600283615294565b91506152e08261529f565b600282019050919050565b6000819050919050565b615306615301826139ce565b6152eb565b82525050565b6000615317826152c8565b915061532382856152f5565b60208201915061533382846152f5565b6020820191508190509392505050565b600060808201905061535860008301876139d8565b615365602083018661397a565b61537260408301856139d8565b61537f60608301846139d8565b95945050505050565b7f4e487b7100000000000000000000000000000000000000000000000000000000600052602160045260246000fd5b7f45434453413a20696e76616c6964207369676e61747572650000000000000000600082015250565b60006153ed601883613756565b91506153f8826153b7565b602082019050919050565b6000602082019050818103600083015261541c816153e0565b9050919050565b7f45434453413a20696e76616c6964207369676e6174757265206c656e67746800600082015250565b6000615459601f83613756565b915061546482615423565b602082019050919050565b600060208201905081810360008301526154888161544c565b9050919050565b7f45434453413a20696e76616c6964207369676e6174757265202773272076616c60008201527f7565000000000000000000000000000000000000000000000000000000000000602082015250565b60006154eb602283613756565b91506154f68261548f565b604082019050919050565b6000602082019050818103600083015261551a816154de565b9050919050565b7f416464726573733a2064656c65676174652063616c6c20746f206e6f6e2d636f60008201527f6e74726163740000000000000000000000000000000000000000000000000000602082015250565b600061557d602683613756565b915061558882615521565b604082019050919050565b600060208201905081810360008301526155ac81615570565b9050919050565b600081519050919050565b600081905092915050565b60006155d4826155b3565b6155de81856155be565b93506155ee818560208601613767565b80840191505092915050565b600061560682846155c9565b915081905092915050565b7f4e487b7100000000000000000000000000000000000000000000000000000000600052601260045260246000fd5b600061564b82613717565b915061565683613717565b92508261566657615665615611565b5b82820490509291505056fe416464726573733a206c6f772d6c6576656c2064656c65676174652063616c6c206661696c6564a26469706673582212206c08e300b8f8775ef4066cea57f13a3c3dfea61c559f8102ced032a62a979f0964736f6c63430008090033","opcodes":"PUSH1 0xE0 PUSH1 0x40 MSTORE ADDRESS PUSH20 0xFFFFFFFFFFFFFFFFFFFFFFFFFFFFFFFFFFFFFFFF AND PUSH1 0x80 SWAP1 PUSH20 0xFFFFFFFFFFFFFFFFFFFFFFFFFFFFFFFFFFFFFFFF AND DUP2 MSTORE POP PUSH1 0x40 MLOAD PUSH1 0x20 ADD PUSH3 0x48 SWAP1 PUSH3 0x1D7 JUMP JUMPDEST PUSH1 0x40 MLOAD PUSH1 0x20 DUP2 DUP4 SUB SUB DUP2 MSTORE SWAP1 PUSH1 0x40 MSTORE DUP1 MLOAD SWAP1 PUSH1 0x20 ADD KECCAK256 PUSH1 0xA0 SWAP1 DUP2 MSTORE POP PUSH1 0x40 MLOAD PUSH1 0x20 ADD PUSH3 0x75 SWAP1 PUSH3 0x23E JUMP JUMPDEST PUSH1 0x40 MLOAD PUSH1 0x20 DUP2 DUP4 SUB SUB DUP2 MSTORE SWAP1 PUSH1 0x40 MSTORE DUP1 MLOAD SWAP1 PUSH1 0x20 ADD KECCAK256 PUSH1 0xC0 SWAP1 DUP2 MSTORE POP CALLVALUE DUP1 ISZERO PUSH3 0x9E JUMPI PUSH1 0x0 DUP1 REVERT JUMPDEST POP PUSH3 0xAF PUSH3 0xB5 PUSH1 0x20 SHL PUSH1 0x20 SHR JUMP JUMPDEST PUSH3 0x339 JUMP JUMPDEST PUSH1 0x0 PUSH1 0x1 SWAP1 SLOAD SWAP1 PUSH2 0x100 EXP SWAP1 DIV PUSH1 0xFF AND ISZERO PUSH3 0x108 JUMPI PUSH1 0x40 MLOAD PUSH32 0x8C379A000000000000000000000000000000000000000000000000000000000 DUP2 MSTORE PUSH1 0x4 ADD PUSH3 0xFF SWAP1 PUSH3 0x2DC JUMP JUMPDEST PUSH1 0x40 MLOAD DUP1 SWAP2 SUB SWAP1 REVERT JUMPDEST PUSH1 0xFF DUP1 AND PUSH1 0x0 DUP1 SLOAD SWAP1 PUSH2 0x100 EXP SWAP1 DIV PUSH1 0xFF AND PUSH1 0xFF AND LT ISZERO PUSH3 0x17A JUMPI PUSH1 0xFF PUSH1 0x0 DUP1 PUSH2 0x100 EXP DUP2 SLOAD DUP2 PUSH1 0xFF MUL NOT AND SWAP1 DUP4 PUSH1 0xFF AND MUL OR SWAP1 SSTORE POP PUSH32 0x7F26B83FF96E1F2B6A682F133852F6798A09C465DA95921460CEFB3847402498 PUSH1 0xFF PUSH1 0x40 MLOAD PUSH3 0x171 SWAP2 SWAP1 PUSH3 0x31C JUMP JUMPDEST PUSH1 0x40 MLOAD DUP1 SWAP2 SUB SWAP1 LOG1 JUMPDEST JUMP JUMPDEST PUSH1 0x0 DUP2 SWAP1 POP SWAP3 SWAP2 POP POP JUMP JUMPDEST PUSH32 0x415050524F564544000000000000000000000000000000000000000000000000 PUSH1 0x0 DUP3 ADD MSTORE POP JUMP JUMPDEST PUSH1 0x0 PUSH3 0x1BF PUSH1 0x8 DUP4 PUSH3 0x17C JUMP JUMPDEST SWAP2 POP PUSH3 0x1CC DUP3 PUSH3 0x187 JUMP JUMPDEST PUSH1 0x8 DUP3 ADD SWAP1 POP SWAP2 SWAP1 POP JUMP JUMPDEST PUSH1 0x0 PUSH3 0x1E4 DUP3 PUSH3 0x1B0 JUMP JUMPDEST SWAP2 POP DUP2 SWAP1 POP SWAP2 SWAP1 POP JUMP JUMPDEST PUSH32 0x4E554C4C00000000000000000000000000000000000000000000000000000000 PUSH1 0x0 DUP3 ADD MSTORE POP JUMP JUMPDEST PUSH1 0x0 PUSH3 0x226 PUSH1 0x4 DUP4 PUSH3 0x17C JUMP JUMPDEST SWAP2 POP PUSH3 0x233 DUP3 PUSH3 0x1EE JUMP JUMPDEST PUSH1 0x4 DUP3 ADD SWAP1 POP SWAP2 SWAP1 POP JUMP JUMPDEST PUSH1 0x0 PUSH3 0x24B DUP3 PUSH3 0x217 JUMP JUMPDEST SWAP2 POP DUP2 SWAP1 POP SWAP2 SWAP1 POP JUMP JUMPDEST PUSH1 0x0 DUP3 DUP3 MSTORE PUSH1 0x20 DUP3 ADD SWAP1 POP SWAP3 SWAP2 POP POP JUMP JUMPDEST PUSH32 0x496E697469616C697A61626C653A20636F6E747261637420697320696E697469 PUSH1 0x0 DUP3 ADD MSTORE PUSH32 0x616C697A696E6700000000000000000000000000000000000000000000000000 PUSH1 0x20 DUP3 ADD MSTORE POP JUMP JUMPDEST PUSH1 0x0 PUSH3 0x2C4 PUSH1 0x27 DUP4 PUSH3 0x255 JUMP JUMPDEST SWAP2 POP PUSH3 0x2D1 DUP3 PUSH3 0x266 JUMP JUMPDEST PUSH1 0x40 DUP3 ADD SWAP1 POP SWAP2 SWAP1 POP JUMP JUMPDEST PUSH1 0x0 PUSH1 0x20 DUP3 ADD SWAP1 POP DUP2 DUP2 SUB PUSH1 0x0 DUP4 ADD MSTORE PUSH3 0x2F7 DUP2 PUSH3 0x2B5 JUMP JUMPDEST SWAP1 POP SWAP2 SWAP1 POP JUMP JUMPDEST PUSH1 0x0 PUSH1 0xFF DUP3 AND SWAP1 POP SWAP2 SWAP1 POP JUMP JUMPDEST PUSH3 0x316 DUP2 PUSH3 0x2FE JUMP JUMPDEST DUP3 MSTORE POP POP JUMP JUMPDEST PUSH1 0x0 PUSH1 0x20 DUP3 ADD SWAP1 POP PUSH3 0x333 PUSH1 0x0 DUP4 ADD DUP5 PUSH3 0x30B JUMP JUMPDEST SWAP3 SWAP2 POP POP JUMP JUMPDEST PUSH1 0x80 MLOAD PUSH1 0xA0 MLOAD PUSH1 0xC0 MLOAD PUSH2 0x56CE PUSH3 0x393 PUSH1 0x0 CODECOPY PUSH1 0x0 DUP2 DUP2 PUSH2 0x9B1 ADD MSTORE PUSH2 0xA1F ADD MSTORE PUSH1 0x0 DUP2 DUP2 PUSH2 0x147F ADD MSTORE PUSH2 0x14E9 ADD MSTORE PUSH1 0x0 DUP2 DUP2 PUSH2 0xB10 ADD MSTORE DUP2 DUP2 PUSH2 0xB9F ADD MSTORE DUP2 DUP2 PUSH2 0xD91 ADD MSTORE DUP2 DUP2 PUSH2 0xE20 ADD MSTORE PUSH2 0xED0 ADD MSTORE PUSH2 0x56CE PUSH1 0x0 RETURN INVALID PUSH1 0x80 PUSH1 0x40 MSTORE PUSH1 0x4 CALLDATASIZE LT PUSH2 0x1E7 JUMPI PUSH1 0x0 CALLDATALOAD PUSH1 0xE0 SHR DUP1 PUSH4 0x5C975ABB GT PUSH2 0x102 JUMPI DUP1 PUSH4 0x8DA5CB5B GT PUSH2 0x95 JUMPI DUP1 PUSH4 0xA9059CBB GT PUSH2 0x64 JUMPI DUP1 PUSH4 0xA9059CBB EQ PUSH2 0x739 JUMPI DUP1 PUSH4 0xD505ACCF EQ PUSH2 0x776 JUMPI DUP1 PUSH4 0xDD62ED3E EQ PUSH2 0x79F JUMPI DUP1 PUSH4 0xF2FDE38B EQ PUSH2 0x7DC JUMPI PUSH2 0x225 JUMP JUMPDEST DUP1 PUSH4 0x8DA5CB5B EQ PUSH2 0x669 JUMPI DUP1 PUSH4 0x95D89B41 EQ PUSH2 0x694 JUMPI DUP1 PUSH4 0x981B24D0 EQ PUSH2 0x6BF JUMPI DUP1 PUSH4 0xA457C2D7 EQ PUSH2 0x6FC JUMPI PUSH2 0x225 JUMP JUMPDEST DUP1 PUSH4 0x79CC6790 GT PUSH2 0xD1 JUMPI DUP1 PUSH4 0x79CC6790 EQ PUSH2 0x5D5 JUMPI DUP1 PUSH4 0x7ECEBE00 EQ PUSH2 0x5FE JUMPI DUP1 PUSH4 0x8129FC1C EQ PUSH2 0x63B JUMPI DUP1 PUSH4 0x8456CB59 EQ PUSH2 0x652 JUMPI PUSH2 0x225 JUMP JUMPDEST DUP1 PUSH4 0x5C975ABB EQ PUSH2 0x52B JUMPI DUP1 PUSH4 0x6F9FB98A EQ PUSH2 0x556 JUMPI DUP1 PUSH4 0x70A08231 EQ PUSH2 0x581 JUMPI DUP1 PUSH4 0x715018A6 EQ PUSH2 0x5BE JUMPI PUSH2 0x225 JUMP JUMPDEST DUP1 PUSH4 0x39509351 GT PUSH2 0x17A JUMPI DUP1 PUSH4 0x4EE2CD7E GT PUSH2 0x149 JUMPI DUP1 PUSH4 0x4EE2CD7E EQ PUSH2 0x47E JUMPI DUP1 PUSH4 0x4F1EF286 EQ PUSH2 0x4BB JUMPI DUP1 PUSH4 0x52D1902D EQ PUSH2 0x4D7 JUMPI DUP1 PUSH4 0x59E78460 EQ PUSH2 0x502 JUMPI PUSH2 0x225 JUMP JUMPDEST DUP1 PUSH4 0x39509351 EQ PUSH2 0x3D8 JUMPI DUP1 PUSH4 0x3F4BA83A EQ PUSH2 0x415 JUMPI DUP1 PUSH4 0x40C10F19 EQ PUSH2 0x42C JUMPI DUP1 PUSH4 0x42966C68 EQ PUSH2 0x455 JUMPI PUSH2 0x225 JUMP JUMPDEST DUP1 PUSH4 0x313CE567 GT PUSH2 0x1B6 JUMPI DUP1 PUSH4 0x313CE567 EQ PUSH2 0x32E JUMPI DUP1 PUSH4 0x345A903F EQ PUSH2 0x359 JUMPI DUP1 PUSH4 0x3644E515 EQ PUSH2 0x384 JUMPI DUP1 PUSH4 0x3659CFE6 EQ PUSH2 0x3AF JUMPI PUSH2 0x225 JUMP JUMPDEST DUP1 PUSH4 0x6FDDE03 EQ PUSH2 0x25E JUMPI DUP1 PUSH4 0x95EA7B3 EQ PUSH2 0x289 JUMPI DUP1 PUSH4 0x18160DDD EQ PUSH2 0x2C6 JUMPI DUP1 PUSH4 0x23B872DD EQ PUSH2 0x2F1 JUMPI PUSH2 0x225 JUMP JUMPDEST CALLDATASIZE PUSH2 0x225 JUMPI PUSH32 0x42100F075A78C1DAC886A43652B5C7C76CCA3718758E13E7B726063CD20FE02C CALLVALUE PUSH1 0x40 MLOAD PUSH2 0x21B SWAP2 SWAP1 PUSH2 0x3730 JUMP JUMPDEST PUSH1 0x40 MLOAD DUP1 SWAP2 SUB SWAP1 LOG1 STOP JUMPDEST PUSH32 0x6CB8A67804B99A2876F9D2F903120D1607DF4C6BB33315433F4F5B9284BA1588 CALLVALUE PUSH1 0x40 MLOAD PUSH2 0x254 SWAP2 SWAP1 PUSH2 0x3730 JUMP JUMPDEST PUSH1 0x40 MLOAD DUP1 SWAP2 SUB SWAP1 LOG1 STOP JUMPDEST CALLVALUE DUP1 ISZERO PUSH2 0x26A JUMPI PUSH1 0x0 DUP1 REVERT JUMPDEST POP PUSH2 0x273 PUSH2 0x805 JUMP JUMPDEST PUSH1 0x40 MLOAD PUSH2 0x280 SWAP2 SWAP1 PUSH2 0x37E4 JUMP JUMPDEST PUSH1 0x40 MLOAD DUP1 SWAP2 SUB SWAP1 RETURN JUMPDEST CALLVALUE DUP1 ISZERO PUSH2 0x295 JUMPI PUSH1 0x0 DUP1 REVERT JUMPDEST POP PUSH2 0x2B0 PUSH1 0x4 DUP1 CALLDATASIZE SUB DUP2 ADD SWAP1 PUSH2 0x2AB SWAP2 SWAP1 PUSH2 0x38A4 JUMP JUMPDEST PUSH2 0x897 JUMP JUMPDEST PUSH1 0x40 MLOAD PUSH2 0x2BD SWAP2 SWAP1 PUSH2 0x38FF JUMP JUMPDEST PUSH1 0x40 MLOAD DUP1 SWAP2 SUB SWAP1 RETURN JUMPDEST CALLVALUE DUP1 ISZERO PUSH2 0x2D2 JUMPI PUSH1 0x0 DUP1 REVERT JUMPDEST POP PUSH2 0x2DB PUSH2 0x900 JUMP JUMPDEST PUSH1 0x40 MLOAD PUSH2 0x2E8 SWAP2 SWAP1 PUSH2 0x3730 JUMP JUMPDEST PUSH1 0x40 MLOAD DUP1 SWAP2 SUB SWAP1 RETURN JUMPDEST CALLVALUE DUP1 ISZERO PUSH2 0x2FD JUMPI PUSH1 0x0 DUP1 REVERT JUMPDEST POP PUSH2 0x318 PUSH1 0x4 DUP1 CALLDATASIZE SUB DUP2 ADD SWAP1 PUSH2 0x313 SWAP2 SWAP1 PUSH2 0x391A JUMP JUMPDEST PUSH2 0x90A JUMP JUMPDEST PUSH1 0x40 MLOAD PUSH2 0x325 SWAP2 SWAP1 PUSH2 0x38FF JUMP JUMPDEST PUSH1 0x40 MLOAD DUP1 SWAP2 SUB SWAP1 RETURN JUMPDEST CALLVALUE DUP1 ISZERO PUSH2 0x33A JUMPI PUSH1 0x0 DUP1 REVERT JUMPDEST POP PUSH2 0x343 PUSH2 0xAC3 JUMP JUMPDEST PUSH1 0x40 MLOAD PUSH2 0x350 SWAP2 SWAP1 PUSH2 0x3989 JUMP JUMPDEST PUSH1 0x40 MLOAD DUP1 SWAP2 SUB SWAP1 RETURN JUMPDEST CALLVALUE DUP1 ISZERO PUSH2 0x365 JUMPI PUSH1 0x0 DUP1 REVERT JUMPDEST POP PUSH2 0x36E PUSH2 0xACC JUMP JUMPDEST PUSH1 0x40 MLOAD PUSH2 0x37B SWAP2 SWAP1 PUSH2 0x39B3 JUMP JUMPDEST PUSH1 0x40 MLOAD DUP1 SWAP2 SUB SWAP1 RETURN JUMPDEST CALLVALUE DUP1 ISZERO PUSH2 0x390 JUMPI PUSH1 0x0 DUP1 REVERT JUMPDEST POP PUSH2 0x399 PUSH2 0xAFF JUMP JUMPDEST PUSH1 0x40 MLOAD PUSH2 0x3A6 SWAP2 SWAP1 PUSH2 0x39E7 JUMP JUMPDEST PUSH1 0x40 MLOAD DUP1 SWAP2 SUB SWAP1 RETURN JUMPDEST CALLVALUE DUP1 ISZERO PUSH2 0x3BB JUMPI PUSH1 0x0 DUP1 REVERT JUMPDEST POP PUSH2 0x3D6 PUSH1 0x4 DUP1 CALLDATASIZE SUB DUP2 ADD SWAP1 PUSH2 0x3D1 SWAP2 SWAP1 PUSH2 0x3A02 JUMP JUMPDEST PUSH2 0xB0E JUMP JUMPDEST STOP JUMPDEST CALLVALUE DUP1 ISZERO PUSH2 0x3E4 JUMPI PUSH1 0x0 DUP1 REVERT JUMPDEST POP PUSH2 0x3FF PUSH1 0x4 DUP1 CALLDATASIZE SUB DUP2 ADD SWAP1 PUSH2 0x3FA SWAP2 SWAP1 PUSH2 0x38A4 JUMP JUMPDEST PUSH2 0xC97 JUMP JUMPDEST PUSH1 0x40 MLOAD PUSH2 0x40C SWAP2 SWAP1 PUSH2 0x38FF JUMP JUMPDEST PUSH1 0x40 MLOAD DUP1 SWAP2 SUB SWAP1 RETURN JUMPDEST CALLVALUE DUP1 ISZERO PUSH2 0x421 JUMPI PUSH1 0x0 DUP1 REVERT JUMPDEST POP PUSH2 0x42A PUSH2 0xCBD JUMP JUMPDEST STOP JUMPDEST CALLVALUE DUP1 ISZERO PUSH2 0x438 JUMPI PUSH1 0x0 DUP1 REVERT JUMPDEST POP PUSH2 0x453 PUSH1 0x4 DUP1 CALLDATASIZE SUB DUP2 ADD SWAP1 PUSH2 0x44E SWAP2 SWAP1 PUSH2 0x38A4 JUMP JUMPDEST PUSH2 0xCCF JUMP JUMPDEST STOP JUMPDEST CALLVALUE DUP1 ISZERO PUSH2 0x461 JUMPI PUSH1 0x0 DUP1 REVERT JUMPDEST POP PUSH2 0x47C PUSH1 0x4 DUP1 CALLDATASIZE SUB DUP2 ADD SWAP1 PUSH2 0x477 SWAP2 SWAP1 PUSH2 0x3A2F JUMP JUMPDEST PUSH2 0xD0B JUMP JUMPDEST STOP JUMPDEST CALLVALUE DUP1 ISZERO PUSH2 0x48A JUMPI PUSH1 0x0 DUP1 REVERT JUMPDEST POP PUSH2 0x4A5 PUSH1 0x4 DUP1 CALLDATASIZE SUB DUP2 ADD SWAP1 PUSH2 0x4A0 SWAP2 SWAP1 PUSH2 0x38A4 JUMP JUMPDEST PUSH2 0xD1F JUMP JUMPDEST PUSH1 0x40 MLOAD PUSH2 0x4B2 SWAP2 SWAP1 PUSH2 0x3730 JUMP JUMPDEST PUSH1 0x40 MLOAD DUP1 SWAP2 SUB SWAP1 RETURN JUMPDEST PUSH2 0x4D5 PUSH1 0x4 DUP1 CALLDATASIZE SUB DUP2 ADD SWAP1 PUSH2 0x4D0 SWAP2 SWAP1 PUSH2 0x3B91 JUMP JUMPDEST PUSH2 0xD8F JUMP JUMPDEST STOP JUMPDEST CALLVALUE DUP1 ISZERO PUSH2 0x4E3 JUMPI PUSH1 0x0 DUP1 REVERT JUMPDEST POP PUSH2 0x4EC PUSH2 0xECC JUMP JUMPDEST PUSH1 0x40 MLOAD PUSH2 0x4F9 SWAP2 SWAP1 PUSH2 0x39E7 JUMP JUMPDEST PUSH1 0x40 MLOAD DUP1 SWAP2 SUB SWAP1 RETURN JUMPDEST CALLVALUE DUP1 ISZERO PUSH2 0x50E JUMPI PUSH1 0x0 DUP1 REVERT JUMPDEST POP PUSH2 0x529 PUSH1 0x4 DUP1 CALLDATASIZE SUB DUP2 ADD SWAP1 PUSH2 0x524 SWAP2 SWAP1 PUSH2 0x3C2B JUMP JUMPDEST PUSH2 0xF85 JUMP JUMPDEST STOP JUMPDEST CALLVALUE DUP1 ISZERO PUSH2 0x537 JUMPI PUSH1 0x0 DUP1 REVERT JUMPDEST POP PUSH2 0x540 PUSH2 0xFD2 JUMP JUMPDEST PUSH1 0x40 MLOAD PUSH2 0x54D SWAP2 SWAP1 PUSH2 0x38FF JUMP JUMPDEST PUSH1 0x40 MLOAD DUP1 SWAP2 SUB SWAP1 RETURN JUMPDEST CALLVALUE DUP1 ISZERO PUSH2 0x562 JUMPI PUSH1 0x0 DUP1 REVERT JUMPDEST POP PUSH2 0x56B PUSH2 0xFE9 JUMP JUMPDEST PUSH1 0x40 MLOAD PUSH2 0x578 SWAP2 SWAP1 PUSH2 0x3730 JUMP JUMPDEST PUSH1 0x40 MLOAD DUP1 SWAP2 SUB SWAP1 RETURN JUMPDEST CALLVALUE DUP1 ISZERO PUSH2 0x58D JUMPI PUSH1 0x0 DUP1 REVERT JUMPDEST POP PUSH2 0x5A8 PUSH1 0x4 DUP1 CALLDATASIZE SUB DUP2 ADD SWAP1 PUSH2 0x5A3 SWAP2 SWAP1 PUSH2 0x3A02 JUMP JUMPDEST PUSH2 0xFF9 JUMP JUMPDEST PUSH1 0x40 MLOAD PUSH2 0x5B5 SWAP2 SWAP1 PUSH2 0x3730 JUMP JUMPDEST PUSH1 0x40 MLOAD DUP1 SWAP2 SUB SWAP1 RETURN JUMPDEST CALLVALUE DUP1 ISZERO PUSH2 0x5CA JUMPI PUSH1 0x0 DUP1 REVERT JUMPDEST POP PUSH2 0x5D3 PUSH2 0x1042 JUMP JUMPDEST STOP JUMPDEST CALLVALUE DUP1 ISZERO PUSH2 0x5E1 JUMPI PUSH1 0x0 DUP1 REVERT JUMPDEST POP PUSH2 0x5FC PUSH1 0x4 DUP1 CALLDATASIZE SUB DUP2 ADD SWAP1 PUSH2 0x5F7 SWAP2 SWAP1 PUSH2 0x38A4 JUMP JUMPDEST PUSH2 0x1056 JUMP JUMPDEST STOP JUMPDEST CALLVALUE DUP1 ISZERO PUSH2 0x60A JUMPI PUSH1 0x0 DUP1 REVERT JUMPDEST POP PUSH2 0x625 PUSH1 0x4 DUP1 CALLDATASIZE SUB DUP2 ADD SWAP1 PUSH2 0x620 SWAP2 SWAP1 PUSH2 0x3A02 JUMP JUMPDEST PUSH2 0x106C JUMP JUMPDEST PUSH1 0x40 MLOAD PUSH2 0x632 SWAP2 SWAP1 PUSH2 0x3730 JUMP JUMPDEST PUSH1 0x40 MLOAD DUP1 SWAP2 SUB SWAP1 RETURN JUMPDEST CALLVALUE DUP1 ISZERO PUSH2 0x647 JUMPI PUSH1 0x0 DUP1 REVERT JUMPDEST POP PUSH2 0x650 PUSH2 0x10BD JUMP JUMPDEST STOP JUMPDEST CALLVALUE DUP1 ISZERO PUSH2 0x65E JUMPI PUSH1 0x0 DUP1 REVERT JUMPDEST POP PUSH2 0x667 PUSH2 0x12CD JUMP JUMPDEST STOP JUMPDEST CALLVALUE DUP1 ISZERO PUSH2 0x675 JUMPI PUSH1 0x0 DUP1 REVERT JUMPDEST POP PUSH2 0x67E PUSH2 0x12DF JUMP JUMPDEST PUSH1 0x40 MLOAD PUSH2 0x68B SWAP2 SWAP1 PUSH2 0x39B3 JUMP JUMPDEST PUSH1 0x40 MLOAD DUP1 SWAP2 SUB SWAP1 RETURN JUMPDEST CALLVALUE DUP1 ISZERO PUSH2 0x6A0 JUMPI PUSH1 0x0 DUP1 REVERT JUMPDEST POP PUSH2 0x6A9 PUSH2 0x12EE JUMP JUMPDEST PUSH1 0x40 MLOAD PUSH2 0x6B6 SWAP2 SWAP1 PUSH2 0x37E4 JUMP JUMPDEST PUSH1 0x40 MLOAD DUP1 SWAP2 SUB SWAP1 RETURN JUMPDEST CALLVALUE DUP1 ISZERO PUSH2 0x6CB JUMPI PUSH1 0x0 DUP1 REVERT JUMPDEST POP PUSH2 0x6E6 PUSH1 0x4 DUP1 CALLDATASIZE SUB DUP2 ADD SWAP1 PUSH2 0x6E1 SWAP2 SWAP1 PUSH2 0x3A2F JUMP JUMPDEST PUSH2 0x1380 JUMP JUMPDEST PUSH1 0x40 MLOAD PUSH2 0x6F3 SWAP2 SWAP1 PUSH2 0x3730 JUMP JUMPDEST PUSH1 0x40 MLOAD DUP1 SWAP2 SUB SWAP1 RETURN JUMPDEST CALLVALUE DUP1 ISZERO PUSH2 0x708 JUMPI PUSH1 0x0 DUP1 REVERT JUMPDEST POP PUSH2 0x723 PUSH1 0x4 DUP1 CALLDATASIZE SUB DUP2 ADD SWAP1 PUSH2 0x71E SWAP2 SWAP1 PUSH2 0x38A4 JUMP JUMPDEST PUSH2 0x13B1 JUMP JUMPDEST PUSH1 0x40 MLOAD PUSH2 0x730 SWAP2 SWAP1 PUSH2 0x38FF JUMP JUMPDEST PUSH1 0x40 MLOAD DUP1 SWAP2 SUB SWAP1 RETURN JUMPDEST CALLVALUE DUP1 ISZERO PUSH2 0x745 JUMPI PUSH1 0x0 DUP1 REVERT JUMPDEST POP PUSH2 0x760 PUSH1 0x4 DUP1 CALLDATASIZE SUB DUP2 ADD SWAP1 PUSH2 0x75B SWAP2 SWAP1 PUSH2 0x38A4 JUMP JUMPDEST PUSH2 0x13DB JUMP JUMPDEST PUSH1 0x40 MLOAD PUSH2 0x76D SWAP2 SWAP1 PUSH2 0x38FF JUMP JUMPDEST PUSH1 0x40 MLOAD DUP1 SWAP2 SUB SWAP1 RETURN JUMPDEST CALLVALUE DUP1 ISZERO PUSH2 0x782 JUMPI PUSH1 0x0 DUP1 REVERT JUMPDEST POP PUSH2 0x79D PUSH1 0x4 DUP1 CALLDATASIZE SUB DUP2 ADD SWAP1 PUSH2 0x798 SWAP2 SWAP1 PUSH2 0x3CB0 JUMP JUMPDEST PUSH2 0x1584 JUMP JUMPDEST STOP JUMPDEST CALLVALUE DUP1 ISZERO PUSH2 0x7AB JUMPI PUSH1 0x0 DUP1 REVERT JUMPDEST POP PUSH2 0x7C6 PUSH1 0x4 DUP1 CALLDATASIZE SUB DUP2 ADD SWAP1 PUSH2 0x7C1 SWAP2 SWAP1 PUSH2 0x3D52 JUMP JUMPDEST PUSH2 0x16C6 JUMP JUMPDEST PUSH1 0x40 MLOAD PUSH2 0x7D3 SWAP2 SWAP1 PUSH2 0x3730 JUMP JUMPDEST PUSH1 0x40 MLOAD DUP1 SWAP2 SUB SWAP1 RETURN JUMPDEST CALLVALUE DUP1 ISZERO PUSH2 0x7E8 JUMPI PUSH1 0x0 DUP1 REVERT JUMPDEST POP PUSH2 0x803 PUSH1 0x4 DUP1 CALLDATASIZE SUB DUP2 ADD SWAP1 PUSH2 0x7FE SWAP2 SWAP1 PUSH2 0x3A02 JUMP JUMPDEST PUSH2 0x16E2 JUMP JUMPDEST STOP JUMPDEST PUSH1 0x60 PUSH1 0x36 DUP1 SLOAD PUSH2 0x814 SWAP1 PUSH2 0x3DC1 JUMP JUMPDEST DUP1 PUSH1 0x1F ADD PUSH1 0x20 DUP1 SWAP2 DIV MUL PUSH1 0x20 ADD PUSH1 0x40 MLOAD SWAP1 DUP2 ADD PUSH1 0x40 MSTORE DUP1 SWAP3 SWAP2 SWAP1 DUP2 DUP2 MSTORE PUSH1 0x20 ADD DUP3 DUP1 SLOAD PUSH2 0x840 SWAP1 PUSH2 0x3DC1 JUMP JUMPDEST DUP1 ISZERO PUSH2 0x88D JUMPI DUP1 PUSH1 0x1F LT PUSH2 0x862 JUMPI PUSH2 0x100 DUP1 DUP4 SLOAD DIV MUL DUP4 MSTORE SWAP2 PUSH1 0x20 ADD SWAP2 PUSH2 0x88D JUMP JUMPDEST DUP3 ADD SWAP2 SWAP1 PUSH1 0x0 MSTORE PUSH1 0x20 PUSH1 0x0 KECCAK256 SWAP1 JUMPDEST DUP2 SLOAD DUP2 MSTORE SWAP1 PUSH1 0x1 ADD SWAP1 PUSH1 0x20 ADD DUP1 DUP4 GT PUSH2 0x870 JUMPI DUP3 SWAP1 SUB PUSH1 0x1F AND DUP3 ADD SWAP2 JUMPDEST POP POP POP POP POP SWAP1 POP SWAP1 JUMP JUMPDEST PUSH1 0x0 PUSH2 0x8A1 PUSH2 0x1766 JUMP JUMPDEST PUSH2 0x8A9 PUSH2 0x12DF JUMP JUMPDEST SWAP3 POP PUSH32 0xFFFFFFFFFFFFFFFFFFFFFFFFFFFFFFFFFFFFFFFFFFFFFFFFFFFFFFFFFFFFFFFF SWAP2 POP PUSH2 0x8F8 DUP4 PUSH32 0xFFFFFFFFFFFFFFFFFFFFFFFFFFFFFFFFFFFFFFFFFFFFFFFFFFFFFFFFFFFFFFFF PUSH2 0x17B0 JUMP JUMPDEST SWAP1 POP SWAP3 SWAP2 POP POP JUMP JUMPDEST PUSH1 0x0 PUSH1 0x35 SLOAD SWAP1 POP SWAP1 JUMP JUMPDEST PUSH1 0x0 PUSH2 0x914 PUSH2 0x1766 JUMP JUMPDEST PUSH2 0x91C PUSH2 0x17D3 JUMP JUMPDEST DUP4 PUSH2 0x926 DUP2 PUSH2 0x1851 JUMP JUMPDEST PUSH2 0x965 JUMPI PUSH1 0x40 MLOAD PUSH32 0x8C379A000000000000000000000000000000000000000000000000000000000 DUP2 MSTORE PUSH1 0x4 ADD PUSH2 0x95C SWAP1 PUSH2 0x3E3F JUMP JUMPDEST PUSH1 0x40 MLOAD DUP1 SWAP2 SUB SWAP1 REVERT JUMPDEST DUP4 PUSH2 0x96F DUP2 PUSH2 0x1851 JUMP JUMPDEST PUSH2 0x9AE JUMPI PUSH1 0x40 MLOAD PUSH32 0x8C379A000000000000000000000000000000000000000000000000000000000 DUP2 MSTORE PUSH1 0x4 ADD PUSH2 0x9A5 SWAP1 PUSH2 0x3E3F JUMP JUMPDEST PUSH1 0x40 MLOAD DUP1 SWAP2 SUB SWAP1 REVERT JUMPDEST DUP6 PUSH32 0x0 PUSH2 0x9D9 DUP3 PUSH2 0x190B JUMP JUMPDEST EQ ISZERO PUSH2 0xA1C JUMPI DUP1 PUSH1 0x40 MLOAD PUSH32 0x80B9EC4500000000000000000000000000000000000000000000000000000000 DUP2 MSTORE PUSH1 0x4 ADD PUSH2 0xA13 SWAP2 SWAP1 PUSH2 0x39B3 JUMP JUMPDEST PUSH1 0x40 MLOAD DUP1 SWAP2 SUB SWAP1 REVERT JUMPDEST DUP6 PUSH32 0x0 PUSH2 0xA47 DUP3 PUSH2 0x190B JUMP JUMPDEST EQ ISZERO PUSH2 0xA8A JUMPI DUP1 PUSH1 0x40 MLOAD PUSH32 0x80B9EC4500000000000000000000000000000000000000000000000000000000 DUP2 MSTORE PUSH1 0x4 ADD PUSH2 0xA81 SWAP2 SWAP1 PUSH2 0x39B3 JUMP JUMPDEST PUSH1 0x40 MLOAD DUP1 SWAP2 SUB SWAP1 REVERT JUMPDEST PUSH2 0xAB6 DUP9 DUP9 PUSH2 0xA97 PUSH2 0xAC3 JUMP JUMPDEST PUSH1 0xFF AND PUSH1 0xA DUP11 PUSH2 0xAA7 SWAP2 SWAP1 PUSH2 0x3FC1 JUMP JUMPDEST PUSH2 0xAB1 SWAP2 SWAP1 PUSH2 0x400C JUMP JUMPDEST PUSH2 0x19C0 JUMP JUMPDEST SWAP5 POP POP POP POP POP SWAP4 SWAP3 POP POP POP JUMP JUMPDEST PUSH1 0x0 PUSH1 0x12 SWAP1 POP SWAP1 JUMP JUMPDEST PUSH1 0x0 PUSH2 0xAD6 PUSH2 0x17D3 JUMP JUMPDEST PUSH2 0x1F8 PUSH1 0x0 SWAP1 SLOAD SWAP1 PUSH2 0x100 EXP SWAP1 DIV PUSH20 0xFFFFFFFFFFFFFFFFFFFFFFFFFFFFFFFFFFFFFFFF AND SWAP1 POP SWAP1 JUMP JUMPDEST PUSH1 0x0 PUSH2 0xB09 PUSH2 0x19EF JUMP JUMPDEST SWAP1 POP SWAP1 JUMP JUMPDEST PUSH32 0x0 PUSH20 0xFFFFFFFFFFFFFFFFFFFFFFFFFFFFFFFFFFFFFFFF AND ADDRESS PUSH20 0xFFFFFFFFFFFFFFFFFFFFFFFFFFFFFFFFFFFFFFFF AND EQ ISZERO PUSH2 0xB9D JUMPI PUSH1 0x40 MLOAD PUSH32 0x8C379A000000000000000000000000000000000000000000000000000000000 DUP2 MSTORE PUSH1 0x4 ADD PUSH2 0xB94 SWAP1 PUSH2 0x40D8 JUMP JUMPDEST PUSH1 0x40 MLOAD DUP1 SWAP2 SUB SWAP1 REVERT JUMPDEST PUSH32 0x0 PUSH20 0xFFFFFFFFFFFFFFFFFFFFFFFFFFFFFFFFFFFFFFFF AND PUSH2 0xBDC PUSH2 0x1A2F JUMP JUMPDEST PUSH20 0xFFFFFFFFFFFFFFFFFFFFFFFFFFFFFFFFFFFFFFFF AND EQ PUSH2 0xC32 JUMPI PUSH1 0x40 MLOAD PUSH32 0x8C379A000000000000000000000000000000000000000000000000000000000 DUP2 MSTORE PUSH1 0x4 ADD PUSH2 0xC29 SWAP1 PUSH2 0x416A JUMP JUMPDEST PUSH1 0x40 MLOAD DUP1 SWAP2 SUB SWAP1 REVERT JUMPDEST PUSH2 0xC3B DUP2 PUSH2 0x1A86 JUMP JUMPDEST PUSH2 0xC94 DUP2 PUSH1 0x0 PUSH8 0xFFFFFFFFFFFFFFFF DUP2 GT ISZERO PUSH2 0xC5A JUMPI PUSH2 0xC59 PUSH2 0x3A66 JUMP JUMPDEST JUMPDEST PUSH1 0x40 MLOAD SWAP1 DUP1 DUP3 MSTORE DUP1 PUSH1 0x1F ADD PUSH1 0x1F NOT AND PUSH1 0x20 ADD DUP3 ADD PUSH1 0x40 MSTORE DUP1 ISZERO PUSH2 0xC8C JUMPI DUP2 PUSH1 0x20 ADD PUSH1 0x1 DUP3 MUL DUP1 CALLDATASIZE DUP4 CALLDATACOPY DUP1 DUP3 ADD SWAP2 POP POP SWAP1 POP JUMPDEST POP PUSH1 0x0 PUSH2 0x1A91 JUMP JUMPDEST POP JUMP JUMPDEST PUSH1 0x0 PUSH2 0xCA1 PUSH2 0x1766 JUMP JUMPDEST PUSH2 0xCA9 PUSH2 0x12DF JUMP JUMPDEST SWAP3 POP PUSH2 0xCB5 DUP4 DUP4 PUSH2 0x1C0E JUMP JUMPDEST SWAP1 POP SWAP3 SWAP2 POP POP JUMP JUMPDEST PUSH2 0xCC5 PUSH2 0x17D3 JUMP JUMPDEST PUSH2 0xCCD PUSH2 0x1C45 JUMP JUMPDEST JUMP JUMPDEST PUSH2 0xCD7 PUSH2 0x1766 JUMP JUMPDEST PUSH2 0xCDF PUSH2 0x17D3 JUMP JUMPDEST PUSH2 0xD07 DUP3 PUSH2 0xCEB PUSH2 0xAC3 JUMP JUMPDEST PUSH1 0xA PUSH2 0xCF7 SWAP2 SWAP1 PUSH2 0x3FC1 JUMP JUMPDEST DUP4 PUSH2 0xD02 SWAP2 SWAP1 PUSH2 0x400C JUMP JUMPDEST PUSH2 0x1CA8 JUMP JUMPDEST POP POP JUMP JUMPDEST PUSH2 0xD13 PUSH2 0x17D3 JUMP JUMPDEST PUSH2 0xD1C DUP2 PUSH2 0x1E00 JUMP JUMPDEST POP JUMP JUMPDEST PUSH1 0x0 DUP1 PUSH1 0x0 PUSH2 0xD6C DUP5 PUSH1 0x97 PUSH1 0x0 DUP9 PUSH20 0xFFFFFFFFFFFFFFFFFFFFFFFFFFFFFFFFFFFFFFFF AND PUSH20 0xFFFFFFFFFFFFFFFFFFFFFFFFFFFFFFFFFFFFFFFF AND DUP2 MSTORE PUSH1 0x20 ADD SWAP1 DUP2 MSTORE PUSH1 0x20 ADD PUSH1 0x0 KECCAK256 PUSH2 0x1E14 JUMP JUMPDEST SWAP2 POP SWAP2 POP DUP2 PUSH2 0xD83 JUMPI PUSH2 0xD7E DUP6 PUSH2 0xFF9 JUMP JUMPDEST PUSH2 0xD85 JUMP JUMPDEST DUP1 JUMPDEST SWAP3 POP POP POP SWAP3 SWAP2 POP POP JUMP JUMPDEST PUSH32 0x0 PUSH20 0xFFFFFFFFFFFFFFFFFFFFFFFFFFFFFFFFFFFFFFFF AND ADDRESS PUSH20 0xFFFFFFFFFFFFFFFFFFFFFFFFFFFFFFFFFFFFFFFF AND EQ ISZERO PUSH2 0xE1E JUMPI PUSH1 0x40 MLOAD PUSH32 0x8C379A000000000000000000000000000000000000000000000000000000000 DUP2 MSTORE PUSH1 0x4 ADD PUSH2 0xE15 SWAP1 PUSH2 0x40D8 JUMP JUMPDEST PUSH1 0x40 MLOAD DUP1 SWAP2 SUB SWAP1 REVERT JUMPDEST PUSH32 0x0 PUSH20 0xFFFFFFFFFFFFFFFFFFFFFFFFFFFFFFFFFFFFFFFF AND PUSH2 0xE5D PUSH2 0x1A2F JUMP JUMPDEST PUSH20 0xFFFFFFFFFFFFFFFFFFFFFFFFFFFFFFFFFFFFFFFF AND EQ PUSH2 0xEB3 JUMPI PUSH1 0x40 MLOAD PUSH32 0x8C379A000000000000000000000000000000000000000000000000000000000 DUP2 MSTORE PUSH1 0x4 ADD PUSH2 0xEAA SWAP1 PUSH2 0x416A JUMP JUMPDEST PUSH1 0x40 MLOAD DUP1 SWAP2 SUB SWAP1 REVERT JUMPDEST PUSH2 0xEBC DUP3 PUSH2 0x1A86 JUMP JUMPDEST PUSH2 0xEC8 DUP3 DUP3 PUSH1 0x1 PUSH2 0x1A91 JUMP JUMPDEST POP POP JUMP JUMPDEST PUSH1 0x0 PUSH32 0x0 PUSH20 0xFFFFFFFFFFFFFFFFFFFFFFFFFFFFFFFFFFFFFFFF AND ADDRESS PUSH20 0xFFFFFFFFFFFFFFFFFFFFFFFFFFFFFFFFFFFFFFFF AND EQ PUSH2 0xF5C JUMPI PUSH1 0x40 MLOAD PUSH32 0x8C379A000000000000000000000000000000000000000000000000000000000 DUP2 MSTORE PUSH1 0x4 ADD PUSH2 0xF53 SWAP1 PUSH2 0x41FC JUMP JUMPDEST PUSH1 0x40 MLOAD DUP1 SWAP2 SUB SWAP1 REVERT JUMPDEST PUSH32 0x360894A13BA1A3210667C828492DB98DCA3E2076CC3735A920A3CA505D382BBC PUSH1 0x0 SHL SWAP1 POP SWAP1 JUMP JUMPDEST PUSH2 0xF8D PUSH2 0x17D3 JUMP JUMPDEST DUP1 PUSH2 0x1F8 PUSH1 0x0 PUSH2 0x100 EXP DUP2 SLOAD DUP2 PUSH20 0xFFFFFFFFFFFFFFFFFFFFFFFFFFFFFFFFFFFFFFFF MUL NOT AND SWAP1 DUP4 PUSH20 0xFFFFFFFFFFFFFFFFFFFFFFFFFFFFFFFFFFFFFFFF AND MUL OR SWAP1 SSTORE POP POP JUMP JUMPDEST PUSH1 0x0 PUSH1 0xFB PUSH1 0x0 SWAP1 SLOAD SWAP1 PUSH2 0x100 EXP SWAP1 DIV PUSH1 0xFF AND SWAP1 POP SWAP1 JUMP JUMPDEST PUSH1 0x0 PUSH2 0xFF3 PUSH2 0x17D3 JUMP JUMPDEST SELFBALANCE SWAP1 POP SWAP1 JUMP JUMPDEST PUSH1 0x0 PUSH1 0x33 PUSH1 0x0 DUP4 PUSH20 0xFFFFFFFFFFFFFFFFFFFFFFFFFFFFFFFFFFFFFFFF AND PUSH20 0xFFFFFFFFFFFFFFFFFFFFFFFFFFFFFFFFFFFFFFFF AND DUP2 MSTORE PUSH1 0x20 ADD SWAP1 DUP2 MSTORE PUSH1 0x20 ADD PUSH1 0x0 KECCAK256 SLOAD SWAP1 POP SWAP2 SWAP1 POP JUMP JUMPDEST PUSH2 0x104A PUSH2 0x17D3 JUMP JUMPDEST PUSH2 0x1054 PUSH1 0x0 PUSH2 0x1F0A JUMP JUMPDEST JUMP JUMPDEST PUSH2 0x105E PUSH2 0x17D3 JUMP JUMPDEST PUSH2 0x1068 DUP3 DUP3 PUSH2 0x1FD0 JUMP JUMPDEST POP POP JUMP JUMPDEST PUSH1 0x0 PUSH2 0x10B6 PUSH2 0x161 PUSH1 0x0 DUP5 PUSH20 0xFFFFFFFFFFFFFFFFFFFFFFFFFFFFFFFFFFFFFFFF AND PUSH20 0xFFFFFFFFFFFFFFFFFFFFFFFFFFFFFFFFFFFFFFFF AND DUP2 MSTORE PUSH1 0x20 ADD SWAP1 DUP2 MSTORE PUSH1 0x20 ADD PUSH1 0x0 KECCAK256 PUSH2 0x1FF0 JUMP JUMPDEST SWAP1 POP SWAP2 SWAP1 POP JUMP JUMPDEST PUSH1 0x0 DUP1 PUSH1 0x1 SWAP1 SLOAD SWAP1 PUSH2 0x100 EXP SWAP1 DIV PUSH1 0xFF AND ISZERO SWAP1 POP DUP1 DUP1 ISZERO PUSH2 0x10EE JUMPI POP PUSH1 0x1 PUSH1 0x0 DUP1 SLOAD SWAP1 PUSH2 0x100 EXP SWAP1 DIV PUSH1 0xFF AND PUSH1 0xFF AND LT JUMPDEST DUP1 PUSH2 0x111B JUMPI POP PUSH2 0x10FD ADDRESS PUSH2 0x1FFE JUMP JUMPDEST ISZERO DUP1 ISZERO PUSH2 0x111A JUMPI POP PUSH1 0x1 PUSH1 0x0 DUP1 SLOAD SWAP1 PUSH2 0x100 EXP SWAP1 DIV PUSH1 0xFF AND PUSH1 0xFF AND EQ JUMPDEST JUMPDEST PUSH2 0x115A JUMPI PUSH1 0x40 MLOAD PUSH32 0x8C379A000000000000000000000000000000000000000000000000000000000 DUP2 MSTORE PUSH1 0x4 ADD PUSH2 0x1151 SWAP1 PUSH2 0x428E JUMP JUMPDEST PUSH1 0x40 MLOAD DUP1 SWAP2 SUB SWAP1 REVERT JUMPDEST PUSH1 0x1 PUSH1 0x0 DUP1 PUSH2 0x100 EXP DUP2 SLOAD DUP2 PUSH1 0xFF MUL NOT AND SWAP1 DUP4 PUSH1 0xFF AND MUL OR SWAP1 SSTORE POP DUP1 ISZERO PUSH2 0x1197 JUMPI PUSH1 0x1 PUSH1 0x0 PUSH1 0x1 PUSH2 0x100 EXP DUP2 SLOAD DUP2 PUSH1 0xFF MUL NOT AND SWAP1 DUP4 ISZERO ISZERO MUL OR SWAP1 SSTORE POP JUMPDEST PUSH2 0x120B PUSH1 0x40 MLOAD DUP1 PUSH1 0x40 ADD PUSH1 0x40 MSTORE DUP1 PUSH1 0x4 DUP2 MSTORE PUSH1 0x20 ADD PUSH32 0x504B445200000000000000000000000000000000000000000000000000000000 DUP2 MSTORE POP PUSH1 0x40 MLOAD DUP1 PUSH1 0x40 ADD PUSH1 0x40 MSTORE DUP1 PUSH1 0x4 DUP2 MSTORE PUSH1 0x20 ADD PUSH32 0x504B445200000000000000000000000000000000000000000000000000000000 DUP2 MSTORE POP PUSH2 0x2021 JUMP JUMPDEST PUSH2 0x1213 PUSH2 0x207E JUMP JUMPDEST PUSH2 0x121B PUSH2 0x20CF JUMP JUMPDEST PUSH2 0x1223 PUSH2 0x2120 JUMP JUMPDEST PUSH2 0x122B PUSH2 0x2179 JUMP JUMPDEST PUSH2 0x1269 PUSH1 0x40 MLOAD DUP1 PUSH1 0x40 ADD PUSH1 0x40 MSTORE DUP1 PUSH1 0x4 DUP2 MSTORE PUSH1 0x20 ADD PUSH32 0x504B445200000000000000000000000000000000000000000000000000000000 DUP2 MSTORE POP PUSH2 0x21D2 JUMP JUMPDEST PUSH2 0x1271 PUSH2 0x2263 JUMP JUMPDEST DUP1 ISZERO PUSH2 0x12CA JUMPI PUSH1 0x0 DUP1 PUSH1 0x1 PUSH2 0x100 EXP DUP2 SLOAD DUP2 PUSH1 0xFF MUL NOT AND SWAP1 DUP4 ISZERO ISZERO MUL OR SWAP1 SSTORE POP PUSH32 0x7F26B83FF96E1F2B6A682F133852F6798A09C465DA95921460CEFB3847402498 PUSH1 0x1 PUSH1 0x40 MLOAD PUSH2 0x12C1 SWAP2 SWAP1 PUSH2 0x42F3 JUMP JUMPDEST PUSH1 0x40 MLOAD DUP1 SWAP2 SUB SWAP1 LOG1 JUMPDEST POP JUMP JUMPDEST PUSH2 0x12D5 PUSH2 0x17D3 JUMP JUMPDEST PUSH2 0x12DD PUSH2 0x22B4 JUMP JUMPDEST JUMP JUMPDEST PUSH1 0x0 PUSH2 0x12E9 PUSH2 0x2317 JUMP JUMPDEST SWAP1 POP SWAP1 JUMP JUMPDEST PUSH1 0x60 PUSH1 0x37 DUP1 SLOAD PUSH2 0x12FD SWAP1 PUSH2 0x3DC1 JUMP JUMPDEST DUP1 PUSH1 0x1F ADD PUSH1 0x20 DUP1 SWAP2 DIV MUL PUSH1 0x20 ADD PUSH1 0x40 MLOAD SWAP1 DUP2 ADD PUSH1 0x40 MSTORE DUP1 SWAP3 SWAP2 SWAP1 DUP2 DUP2 MSTORE PUSH1 0x20 ADD DUP3 DUP1 SLOAD PUSH2 0x1329 SWAP1 PUSH2 0x3DC1 JUMP JUMPDEST DUP1 ISZERO PUSH2 0x1376 JUMPI DUP1 PUSH1 0x1F LT PUSH2 0x134B JUMPI PUSH2 0x100 DUP1 DUP4 SLOAD DIV MUL DUP4 MSTORE SWAP2 PUSH1 0x20 ADD SWAP2 PUSH2 0x1376 JUMP JUMPDEST DUP3 ADD SWAP2 SWAP1 PUSH1 0x0 MSTORE PUSH1 0x20 PUSH1 0x0 KECCAK256 SWAP1 JUMPDEST DUP2 SLOAD DUP2 MSTORE SWAP1 PUSH1 0x1 ADD SWAP1 PUSH1 0x20 ADD DUP1 DUP4 GT PUSH2 0x1359 JUMPI DUP3 SWAP1 SUB PUSH1 0x1F AND DUP3 ADD SWAP2 JUMPDEST POP POP POP POP POP SWAP1 POP SWAP1 JUMP JUMPDEST PUSH1 0x0 DUP1 PUSH1 0x0 PUSH2 0x1390 DUP5 PUSH1 0x98 PUSH2 0x1E14 JUMP JUMPDEST SWAP2 POP SWAP2 POP DUP2 PUSH2 0x13A6 JUMPI PUSH2 0x13A1 PUSH2 0x900 JUMP JUMPDEST PUSH2 0x13A8 JUMP JUMPDEST DUP1 JUMPDEST SWAP3 POP POP POP SWAP2 SWAP1 POP JUMP JUMPDEST PUSH1 0x0 PUSH2 0x13BB PUSH2 0x1766 JUMP JUMPDEST PUSH2 0x13C3 PUSH2 0x12DF JUMP JUMPDEST SWAP3 POP PUSH1 0x0 SWAP2 POP PUSH2 0x13D3 DUP4 DUP4 PUSH2 0x2341 JUMP JUMPDEST SWAP1 POP SWAP3 SWAP2 POP POP JUMP JUMPDEST PUSH1 0x0 PUSH2 0x13E5 PUSH2 0x1766 JUMP JUMPDEST PUSH2 0x13ED PUSH2 0x17D3 JUMP JUMPDEST PUSH2 0x13F6 CALLER PUSH2 0x1851 JUMP JUMPDEST PUSH2 0x1435 JUMPI PUSH1 0x40 MLOAD PUSH32 0x8C379A000000000000000000000000000000000000000000000000000000000 DUP2 MSTORE PUSH1 0x4 ADD PUSH2 0x142C SWAP1 PUSH2 0x4380 JUMP JUMPDEST PUSH1 0x40 MLOAD DUP1 SWAP2 SUB SWAP1 REVERT JUMPDEST PUSH2 0x143E DUP4 PUSH2 0x1851 JUMP JUMPDEST PUSH2 0x147D JUMPI PUSH1 0x40 MLOAD PUSH32 0x8C379A000000000000000000000000000000000000000000000000000000000 DUP2 MSTORE PUSH1 0x4 ADD PUSH2 0x1474 SWAP1 PUSH2 0x4412 JUMP JUMPDEST PUSH1 0x40 MLOAD DUP1 SWAP2 SUB SWAP1 REVERT JUMPDEST PUSH32 0x0 PUSH2 0x14A7 CALLER PUSH2 0x190B JUMP JUMPDEST EQ PUSH2 0x14E7 JUMPI PUSH1 0x40 MLOAD PUSH32 0x8C379A000000000000000000000000000000000000000000000000000000000 DUP2 MSTORE PUSH1 0x4 ADD PUSH2 0x14DE SWAP1 PUSH2 0x44A4 JUMP JUMPDEST PUSH1 0x40 MLOAD DUP1 SWAP2 SUB SWAP1 REVERT JUMPDEST PUSH32 0x0 PUSH2 0x1511 DUP5 PUSH2 0x190B JUMP JUMPDEST EQ PUSH2 0x1551 JUMPI PUSH1 0x40 MLOAD PUSH32 0x8C379A000000000000000000000000000000000000000000000000000000000 DUP2 MSTORE PUSH1 0x4 ADD PUSH2 0x1548 SWAP1 PUSH2 0x4536 JUMP JUMPDEST PUSH1 0x40 MLOAD DUP1 SWAP2 SUB SWAP1 REVERT JUMPDEST PUSH2 0x157C DUP4 PUSH2 0x155D PUSH2 0xAC3 JUMP JUMPDEST PUSH1 0xFF AND PUSH1 0xA DUP6 PUSH2 0x156D SWAP2 SWAP1 PUSH2 0x3FC1 JUMP JUMPDEST PUSH2 0x1577 SWAP2 SWAP1 PUSH2 0x400C JUMP JUMPDEST PUSH2 0x23B8 JUMP JUMPDEST SWAP1 POP SWAP3 SWAP2 POP POP JUMP JUMPDEST DUP4 TIMESTAMP GT ISZERO PUSH2 0x15C7 JUMPI PUSH1 0x40 MLOAD PUSH32 0x8C379A000000000000000000000000000000000000000000000000000000000 DUP2 MSTORE PUSH1 0x4 ADD PUSH2 0x15BE SWAP1 PUSH2 0x45A2 JUMP JUMPDEST PUSH1 0x40 MLOAD DUP1 SWAP2 SUB SWAP1 REVERT JUMPDEST PUSH1 0x0 PUSH32 0x6E71EDAE12B1B97F4D1F60370FEF10105FA2FAAE0126114A169C64845D6126C9 DUP9 DUP9 DUP9 PUSH2 0x15F6 DUP13 PUSH2 0x23DB JUMP JUMPDEST DUP10 PUSH1 0x40 MLOAD PUSH1 0x20 ADD PUSH2 0x160C SWAP7 SWAP6 SWAP5 SWAP4 SWAP3 SWAP2 SWAP1 PUSH2 0x45C2 JUMP JUMPDEST PUSH1 0x40 MLOAD PUSH1 0x20 DUP2 DUP4 SUB SUB DUP2 MSTORE SWAP1 PUSH1 0x40 MSTORE DUP1 MLOAD SWAP1 PUSH1 0x20 ADD KECCAK256 SWAP1 POP PUSH1 0x0 PUSH2 0x162F DUP3 PUSH2 0x243A JUMP JUMPDEST SWAP1 POP PUSH1 0x0 PUSH2 0x163F DUP3 DUP8 DUP8 DUP8 PUSH2 0x2454 JUMP JUMPDEST SWAP1 POP DUP10 PUSH20 0xFFFFFFFFFFFFFFFFFFFFFFFFFFFFFFFFFFFFFFFF AND DUP2 PUSH20 0xFFFFFFFFFFFFFFFFFFFFFFFFFFFFFFFFFFFFFFFF AND EQ PUSH2 0x16AF JUMPI PUSH1 0x40 MLOAD PUSH32 0x8C379A000000000000000000000000000000000000000000000000000000000 DUP2 MSTORE PUSH1 0x4 ADD PUSH2 0x16A6 SWAP1 PUSH2 0x466F JUMP JUMPDEST PUSH1 0x40 MLOAD DUP1 SWAP2 SUB SWAP1 REVERT JUMPDEST PUSH2 0x16BA DUP11 DUP11 DUP11 PUSH2 0x247F JUMP JUMPDEST POP POP POP POP POP POP POP POP POP POP JUMP JUMPDEST PUSH1 0x0 PUSH2 0x16D0 PUSH2 0x17D3 JUMP JUMPDEST PUSH2 0x16DA DUP4 DUP4 PUSH2 0x264A JUMP JUMPDEST SWAP1 POP SWAP3 SWAP2 POP POP JUMP JUMPDEST PUSH2 0x16EA PUSH2 0x17D3 JUMP JUMPDEST PUSH1 0x0 PUSH20 0xFFFFFFFFFFFFFFFFFFFFFFFFFFFFFFFFFFFFFFFF AND DUP2 PUSH20 0xFFFFFFFFFFFFFFFFFFFFFFFFFFFFFFFFFFFFFFFF AND EQ ISZERO PUSH2 0x175A JUMPI PUSH1 0x40 MLOAD PUSH32 0x8C379A000000000000000000000000000000000000000000000000000000000 DUP2 MSTORE PUSH1 0x4 ADD PUSH2 0x1751 SWAP1 PUSH2 0x4701 JUMP JUMPDEST PUSH1 0x40 MLOAD DUP1 SWAP2 SUB SWAP1 REVERT JUMPDEST PUSH2 0x1763 DUP2 PUSH2 0x1F0A JUMP JUMPDEST POP JUMP JUMPDEST PUSH2 0x176E PUSH2 0xFD2 JUMP JUMPDEST ISZERO PUSH2 0x17AE JUMPI PUSH1 0x40 MLOAD PUSH32 0x8C379A000000000000000000000000000000000000000000000000000000000 DUP2 MSTORE PUSH1 0x4 ADD PUSH2 0x17A5 SWAP1 PUSH2 0x476D JUMP JUMPDEST PUSH1 0x40 MLOAD DUP1 SWAP2 SUB SWAP1 REVERT JUMPDEST JUMP JUMPDEST PUSH1 0x0 DUP1 PUSH2 0x17BB PUSH2 0x26D1 JUMP JUMPDEST SWAP1 POP PUSH2 0x17C8 DUP2 DUP6 DUP6 PUSH2 0x247F JUMP JUMPDEST PUSH1 0x1 SWAP2 POP POP SWAP3 SWAP2 POP POP JUMP JUMPDEST PUSH2 0x17DB PUSH2 0x26D1 JUMP JUMPDEST PUSH20 0xFFFFFFFFFFFFFFFFFFFFFFFFFFFFFFFFFFFFFFFF AND PUSH2 0x17F9 PUSH2 0x12DF JUMP JUMPDEST PUSH20 0xFFFFFFFFFFFFFFFFFFFFFFFFFFFFFFFFFFFFFFFF AND EQ PUSH2 0x184F JUMPI PUSH1 0x40 MLOAD PUSH32 0x8C379A000000000000000000000000000000000000000000000000000000000 DUP2 MSTORE PUSH1 0x4 ADD PUSH2 0x1846 SWAP1 PUSH2 0x47D9 JUMP JUMPDEST PUSH1 0x40 MLOAD DUP1 SWAP2 SUB SWAP1 REVERT JUMPDEST JUMP JUMPDEST PUSH1 0x0 DUP1 PUSH2 0x1F8 PUSH1 0x0 SWAP1 SLOAD SWAP1 PUSH2 0x100 EXP SWAP1 DIV PUSH20 0xFFFFFFFFFFFFFFFFFFFFFFFFFFFFFFFFFFFFFFFF AND PUSH20 0xFFFFFFFFFFFFFFFFFFFFFFFFFFFFFFFFFFFFFFFF AND PUSH4 0xD117FC99 DUP5 PUSH1 0x40 MLOAD DUP3 PUSH4 0xFFFFFFFF AND PUSH1 0xE0 SHL DUP2 MSTORE PUSH1 0x4 ADD PUSH2 0x18B0 SWAP2 SWAP1 PUSH2 0x39B3 JUMP JUMPDEST PUSH1 0x20 PUSH1 0x40 MLOAD DUP1 DUP4 SUB DUP2 DUP7 DUP1 EXTCODESIZE ISZERO DUP1 ISZERO PUSH2 0x18C8 JUMPI PUSH1 0x0 DUP1 REVERT JUMPDEST POP GAS STATICCALL ISZERO DUP1 ISZERO PUSH2 0x18DC JUMPI RETURNDATASIZE PUSH1 0x0 DUP1 RETURNDATACOPY RETURNDATASIZE PUSH1 0x0 REVERT JUMPDEST POP POP POP POP PUSH1 0x40 MLOAD RETURNDATASIZE PUSH1 0x1F NOT PUSH1 0x1F DUP3 ADD AND DUP3 ADD DUP1 PUSH1 0x40 MSTORE POP DUP2 ADD SWAP1 PUSH2 0x1900 SWAP2 SWAP1 PUSH2 0x4825 JUMP JUMPDEST SWAP1 POP DUP1 SWAP2 POP POP SWAP2 SWAP1 POP JUMP JUMPDEST PUSH1 0x0 PUSH2 0x1F8 PUSH1 0x0 SWAP1 SLOAD SWAP1 PUSH2 0x100 EXP SWAP1 DIV PUSH20 0xFFFFFFFFFFFFFFFFFFFFFFFFFFFFFFFFFFFFFFFF AND PUSH20 0xFFFFFFFFFFFFFFFFFFFFFFFFFFFFFFFFFFFFFFFF AND PUSH4 0x1E9F3D5E DUP4 PUSH1 0x40 MLOAD DUP3 PUSH4 0xFFFFFFFF AND PUSH1 0xE0 SHL DUP2 MSTORE PUSH1 0x4 ADD PUSH2 0x1969 SWAP2 SWAP1 PUSH2 0x39B3 JUMP JUMPDEST PUSH1 0x20 PUSH1 0x40 MLOAD DUP1 DUP4 SUB DUP2 DUP7 DUP1 EXTCODESIZE ISZERO DUP1 ISZERO PUSH2 0x1981 JUMPI PUSH1 0x0 DUP1 REVERT JUMPDEST POP GAS STATICCALL ISZERO DUP1 ISZERO PUSH2 0x1995 JUMPI RETURNDATASIZE PUSH1 0x0 DUP1 RETURNDATACOPY RETURNDATASIZE PUSH1 0x0 REVERT JUMPDEST POP POP POP POP PUSH1 0x40 MLOAD RETURNDATASIZE PUSH1 0x1F NOT PUSH1 0x1F DUP3 ADD AND DUP3 ADD DUP1 PUSH1 0x40 MSTORE POP DUP2 ADD SWAP1 PUSH2 0x19B9 SWAP2 SWAP1 PUSH2 0x4867 JUMP JUMPDEST SWAP1 POP SWAP2 SWAP1 POP JUMP JUMPDEST PUSH1 0x0 DUP1 PUSH2 0x19CB PUSH2 0x26D1 JUMP JUMPDEST SWAP1 POP PUSH2 0x19D8 DUP6 DUP3 DUP6 PUSH2 0x26D9 JUMP JUMPDEST PUSH2 0x19E3 DUP6 DUP6 DUP6 PUSH2 0x2765 JUMP JUMPDEST PUSH1 0x1 SWAP2 POP POP SWAP4 SWAP3 POP POP POP JUMP JUMPDEST PUSH1 0x0 PUSH2 0x1A2A PUSH32 0x8B73C3C69BB8FE3D512ECC4CF759CC79239F7B179B0FFACAA9A75D522B39400F PUSH2 0x1A1D PUSH2 0x29E0 JUMP JUMPDEST PUSH2 0x1A25 PUSH2 0x29EB JUMP JUMPDEST PUSH2 0x29F6 JUMP JUMPDEST SWAP1 POP SWAP1 JUMP JUMPDEST PUSH1 0x0 PUSH2 0x1A5D PUSH32 0x360894A13BA1A3210667C828492DB98DCA3E2076CC3735A920A3CA505D382BBC PUSH1 0x0 SHL PUSH2 0x2A30 JUMP JUMPDEST PUSH1 0x0 ADD PUSH1 0x0 SWAP1 SLOAD SWAP1 PUSH2 0x100 EXP SWAP1 DIV PUSH20 0xFFFFFFFFFFFFFFFFFFFFFFFFFFFFFFFFFFFFFFFF AND SWAP1 POP SWAP1 JUMP JUMPDEST PUSH2 0x1A8E PUSH2 0x17D3 JUMP JUMPDEST POP JUMP JUMPDEST PUSH2 0x1ABD PUSH32 0x4910FDFA16FED3260ED0E7147F7CC6DA11A60208B5B9406D12A635614FFD9143 PUSH1 0x0 SHL PUSH2 0x2A3A JUMP JUMPDEST PUSH1 0x0 ADD PUSH1 0x0 SWAP1 SLOAD SWAP1 PUSH2 0x100 EXP SWAP1 DIV PUSH1 0xFF AND ISZERO PUSH2 0x1AE1 JUMPI PUSH2 0x1ADC DUP4 PUSH2 0x2A44 JUMP JUMPDEST PUSH2 0x1C09 JUMP JUMPDEST DUP3 PUSH20 0xFFFFFFFFFFFFFFFFFFFFFFFFFFFFFFFFFFFFFFFF AND PUSH4 0x52D1902D PUSH1 0x40 MLOAD DUP2 PUSH4 0xFFFFFFFF AND PUSH1 0xE0 SHL DUP2 MSTORE PUSH1 0x4 ADD PUSH1 0x20 PUSH1 0x40 MLOAD DUP1 DUP4 SUB DUP2 DUP7 DUP1 EXTCODESIZE ISZERO DUP1 ISZERO PUSH2 0x1B27 JUMPI PUSH1 0x0 DUP1 REVERT JUMPDEST POP GAS STATICCALL SWAP3 POP POP POP DUP1 ISZERO PUSH2 0x1B58 JUMPI POP PUSH1 0x40 MLOAD RETURNDATASIZE PUSH1 0x1F NOT PUSH1 0x1F DUP3 ADD AND DUP3 ADD DUP1 PUSH1 0x40 MSTORE POP DUP2 ADD SWAP1 PUSH2 0x1B55 SWAP2 SWAP1 PUSH2 0x4867 JUMP JUMPDEST PUSH1 0x1 JUMPDEST PUSH2 0x1B97 JUMPI PUSH1 0x40 MLOAD PUSH32 0x8C379A000000000000000000000000000000000000000000000000000000000 DUP2 MSTORE PUSH1 0x4 ADD PUSH2 0x1B8E SWAP1 PUSH2 0x4906 JUMP JUMPDEST PUSH1 0x40 MLOAD DUP1 SWAP2 SUB SWAP1 REVERT JUMPDEST PUSH32 0x360894A13BA1A3210667C828492DB98DCA3E2076CC3735A920A3CA505D382BBC PUSH1 0x0 SHL DUP2 EQ PUSH2 0x1BFC JUMPI PUSH1 0x40 MLOAD PUSH32 0x8C379A000000000000000000000000000000000000000000000000000000000 DUP2 MSTORE PUSH1 0x4 ADD PUSH2 0x1BF3 SWAP1 PUSH2 0x4998 JUMP JUMPDEST PUSH1 0x40 MLOAD DUP1 SWAP2 SUB SWAP1 REVERT JUMPDEST POP PUSH2 0x1C08 DUP4 DUP4 DUP4 PUSH2 0x2AFD JUMP JUMPDEST JUMPDEST POP POP POP JUMP JUMPDEST PUSH1 0x0 DUP1 PUSH2 0x1C19 PUSH2 0x26D1 JUMP JUMPDEST SWAP1 POP PUSH2 0x1C3A DUP2 DUP6 DUP6 PUSH2 0x1C2B DUP6 DUP10 PUSH2 0x16C6 JUMP JUMPDEST PUSH2 0x1C35 SWAP2 SWAP1 PUSH2 0x49B8 JUMP JUMPDEST PUSH2 0x247F JUMP JUMPDEST PUSH1 0x1 SWAP2 POP POP SWAP3 SWAP2 POP POP JUMP JUMPDEST PUSH2 0x1C4D PUSH2 0x2B29 JUMP JUMPDEST PUSH1 0x0 PUSH1 0xFB PUSH1 0x0 PUSH2 0x100 EXP DUP2 SLOAD DUP2 PUSH1 0xFF MUL NOT AND SWAP1 DUP4 ISZERO ISZERO MUL OR SWAP1 SSTORE POP PUSH32 0x5DB9EE0A495BF2E6FF9C91A7834C1BA4FDD244A5E8AA4E537BD38AEAE4B073AA PUSH2 0x1C91 PUSH2 0x26D1 JUMP JUMPDEST PUSH1 0x40 MLOAD PUSH2 0x1C9E SWAP2 SWAP1 PUSH2 0x39B3 JUMP JUMPDEST PUSH1 0x40 MLOAD DUP1 SWAP2 SUB SWAP1 LOG1 JUMP JUMPDEST PUSH1 0x0 PUSH20 0xFFFFFFFFFFFFFFFFFFFFFFFFFFFFFFFFFFFFFFFF AND DUP3 PUSH20 0xFFFFFFFFFFFFFFFFFFFFFFFFFFFFFFFFFFFFFFFF AND EQ ISZERO PUSH2 0x1D18 JUMPI PUSH1 0x40 MLOAD PUSH32 0x8C379A000000000000000000000000000000000000000000000000000000000 DUP2 MSTORE PUSH1 0x4 ADD PUSH2 0x1D0F SWAP1 PUSH2 0x4A5A JUMP JUMPDEST PUSH1 0x40 MLOAD DUP1 SWAP2 SUB SWAP1 REVERT JUMPDEST PUSH2 0x1D24 PUSH1 0x0 DUP4 DUP4 PUSH2 0x2B72 JUMP JUMPDEST DUP1 PUSH1 0x35 PUSH1 0x0 DUP3 DUP3 SLOAD PUSH2 0x1D36 SWAP2 SWAP1 PUSH2 0x49B8 JUMP JUMPDEST SWAP3 POP POP DUP2 SWAP1 SSTORE POP DUP1 PUSH1 0x33 PUSH1 0x0 DUP5 PUSH20 0xFFFFFFFFFFFFFFFFFFFFFFFFFFFFFFFFFFFFFFFF AND PUSH20 0xFFFFFFFFFFFFFFFFFFFFFFFFFFFFFFFFFFFFFFFF AND DUP2 MSTORE PUSH1 0x20 ADD SWAP1 DUP2 MSTORE PUSH1 0x20 ADD PUSH1 0x0 KECCAK256 PUSH1 0x0 DUP3 DUP3 SLOAD ADD SWAP3 POP POP DUP2 SWAP1 SSTORE POP DUP2 PUSH20 0xFFFFFFFFFFFFFFFFFFFFFFFFFFFFFFFFFFFFFFFF AND PUSH1 0x0 PUSH20 0xFFFFFFFFFFFFFFFFFFFFFFFFFFFFFFFFFFFFFFFF AND PUSH32 0xDDF252AD1BE2C89B69C2B068FC378DAA952BA7F163C4A11628F55A4DF523B3EF DUP4 PUSH1 0x40 MLOAD PUSH2 0x1DE8 SWAP2 SWAP1 PUSH2 0x3730 JUMP JUMPDEST PUSH1 0x40 MLOAD DUP1 SWAP2 SUB SWAP1 LOG3 PUSH2 0x1DFC PUSH1 0x0 DUP4 DUP4 PUSH2 0x2B8A JUMP JUMPDEST POP POP JUMP JUMPDEST PUSH2 0x1E11 PUSH2 0x1E0B PUSH2 0x26D1 JUMP JUMPDEST DUP3 PUSH2 0x2B8F JUMP JUMPDEST POP JUMP JUMPDEST PUSH1 0x0 DUP1 PUSH1 0x0 DUP5 GT PUSH2 0x1E5A JUMPI PUSH1 0x40 MLOAD PUSH32 0x8C379A000000000000000000000000000000000000000000000000000000000 DUP2 MSTORE PUSH1 0x4 ADD PUSH2 0x1E51 SWAP1 PUSH2 0x4AC6 JUMP JUMPDEST PUSH1 0x40 MLOAD DUP1 SWAP2 SUB SWAP1 REVERT JUMPDEST PUSH2 0x1E62 PUSH2 0x2D5F JUMP JUMPDEST DUP5 GT ISZERO PUSH2 0x1EA4 JUMPI PUSH1 0x40 MLOAD PUSH32 0x8C379A000000000000000000000000000000000000000000000000000000000 DUP2 MSTORE PUSH1 0x4 ADD PUSH2 0x1E9B SWAP1 PUSH2 0x4B32 JUMP JUMPDEST PUSH1 0x40 MLOAD DUP1 SWAP2 SUB SWAP1 REVERT JUMPDEST PUSH1 0x0 PUSH2 0x1EBC DUP6 DUP6 PUSH1 0x0 ADD PUSH2 0x2D70 SWAP1 SWAP2 SWAP1 PUSH4 0xFFFFFFFF AND JUMP JUMPDEST SWAP1 POP DUP4 PUSH1 0x0 ADD DUP1 SLOAD SWAP1 POP DUP2 EQ ISZERO PUSH2 0x1EDA JUMPI PUSH1 0x0 DUP1 SWAP3 POP SWAP3 POP POP PUSH2 0x1F03 JUMP JUMPDEST PUSH1 0x1 DUP5 PUSH1 0x1 ADD DUP3 DUP2 SLOAD DUP2 LT PUSH2 0x1EF2 JUMPI PUSH2 0x1EF1 PUSH2 0x4B52 JUMP JUMPDEST JUMPDEST SWAP1 PUSH1 0x0 MSTORE PUSH1 0x20 PUSH1 0x0 KECCAK256 ADD SLOAD SWAP3 POP SWAP3 POP POP JUMPDEST SWAP3 POP SWAP3 SWAP1 POP JUMP JUMPDEST PUSH1 0x0 PUSH1 0xC9 PUSH1 0x0 SWAP1 SLOAD SWAP1 PUSH2 0x100 EXP SWAP1 DIV PUSH20 0xFFFFFFFFFFFFFFFFFFFFFFFFFFFFFFFFFFFFFFFF AND SWAP1 POP DUP2 PUSH1 0xC9 PUSH1 0x0 PUSH2 0x100 EXP DUP2 SLOAD DUP2 PUSH20 0xFFFFFFFFFFFFFFFFFFFFFFFFFFFFFFFFFFFFFFFF MUL NOT AND SWAP1 DUP4 PUSH20 0xFFFFFFFFFFFFFFFFFFFFFFFFFFFFFFFFFFFFFFFF AND MUL OR SWAP1 SSTORE POP DUP2 PUSH20 0xFFFFFFFFFFFFFFFFFFFFFFFFFFFFFFFFFFFFFFFF AND DUP2 PUSH20 0xFFFFFFFFFFFFFFFFFFFFFFFFFFFFFFFFFFFFFFFF AND PUSH32 0x8BE0079C531659141344CD1FD0A4F28419497F9722A3DAAFE3B4186F6B6457E0 PUSH1 0x40 MLOAD PUSH1 0x40 MLOAD DUP1 SWAP2 SUB SWAP1 LOG3 POP POP JUMP JUMPDEST PUSH2 0x1FE2 DUP3 PUSH2 0x1FDC PUSH2 0x26D1 JUMP JUMPDEST DUP4 PUSH2 0x26D9 JUMP JUMPDEST PUSH2 0x1FEC DUP3 DUP3 PUSH2 0x2B8F JUMP JUMPDEST POP POP JUMP JUMPDEST PUSH1 0x0 DUP2 PUSH1 0x0 ADD SLOAD SWAP1 POP SWAP2 SWAP1 POP JUMP JUMPDEST PUSH1 0x0 DUP1 DUP3 PUSH20 0xFFFFFFFFFFFFFFFFFFFFFFFFFFFFFFFFFFFFFFFF AND EXTCODESIZE GT SWAP1 POP SWAP2 SWAP1 POP JUMP JUMPDEST PUSH1 0x0 PUSH1 0x1 SWAP1 SLOAD SWAP1 PUSH2 0x100 EXP SWAP1 DIV PUSH1 0xFF AND PUSH2 0x2070 JUMPI PUSH1 0x40 MLOAD PUSH32 0x8C379A000000000000000000000000000000000000000000000000000000000 DUP2 MSTORE PUSH1 0x4 ADD PUSH2 0x2067 SWAP1 PUSH2 0x4BF3 JUMP JUMPDEST PUSH1 0x40 MLOAD DUP1 SWAP2 SUB SWAP1 REVERT JUMPDEST PUSH2 0x207A DUP3 DUP3 PUSH2 0x2E2A JUMP JUMPDEST POP POP JUMP JUMPDEST PUSH1 0x0 PUSH1 0x1 SWAP1 SLOAD SWAP1 PUSH2 0x100 EXP SWAP1 DIV PUSH1 0xFF AND PUSH2 0x20CD JUMPI PUSH1 0x40 MLOAD PUSH32 0x8C379A000000000000000000000000000000000000000000000000000000000 DUP2 MSTORE PUSH1 0x4 ADD PUSH2 0x20C4 SWAP1 PUSH2 0x4BF3 JUMP JUMPDEST PUSH1 0x40 MLOAD DUP1 SWAP2 SUB SWAP1 REVERT JUMPDEST JUMP JUMPDEST PUSH1 0x0 PUSH1 0x1 SWAP1 SLOAD SWAP1 PUSH2 0x100 EXP SWAP1 DIV PUSH1 0xFF AND PUSH2 0x211E JUMPI PUSH1 0x40 MLOAD PUSH32 0x8C379A000000000000000000000000000000000000000000000000000000000 DUP2 MSTORE PUSH1 0x4 ADD PUSH2 0x2115 SWAP1 PUSH2 0x4BF3 JUMP JUMPDEST PUSH1 0x40 MLOAD DUP1 SWAP2 SUB SWAP1 REVERT JUMPDEST JUMP JUMPDEST PUSH1 0x0 PUSH1 0x1 SWAP1 SLOAD SWAP1 PUSH2 0x100 EXP SWAP1 DIV PUSH1 0xFF AND PUSH2 0x216F JUMPI PUSH1 0x40 MLOAD PUSH32 0x8C379A000000000000000000000000000000000000000000000000000000000 DUP2 MSTORE PUSH1 0x4 ADD PUSH2 0x2166 SWAP1 PUSH2 0x4BF3 JUMP JUMPDEST PUSH1 0x40 MLOAD DUP1 SWAP2 SUB SWAP1 REVERT JUMPDEST PUSH2 0x2177 PUSH2 0x2EAB JUMP JUMPDEST JUMP JUMPDEST PUSH1 0x0 PUSH1 0x1 SWAP1 SLOAD SWAP1 PUSH2 0x100 EXP SWAP1 DIV PUSH1 0xFF AND PUSH2 0x21C8 JUMPI PUSH1 0x40 MLOAD PUSH32 0x8C379A000000000000000000000000000000000000000000000000000000000 DUP2 MSTORE PUSH1 0x4 ADD PUSH2 0x21BF SWAP1 PUSH2 0x4BF3 JUMP JUMPDEST PUSH1 0x40 MLOAD DUP1 SWAP2 SUB SWAP1 REVERT JUMPDEST PUSH2 0x21D0 PUSH2 0x2F0C JUMP JUMPDEST JUMP JUMPDEST PUSH1 0x0 PUSH1 0x1 SWAP1 SLOAD SWAP1 PUSH2 0x100 EXP SWAP1 DIV PUSH1 0xFF AND PUSH2 0x2221 JUMPI PUSH1 0x40 MLOAD PUSH32 0x8C379A000000000000000000000000000000000000000000000000000000000 DUP2 MSTORE PUSH1 0x4 ADD PUSH2 0x2218 SWAP1 PUSH2 0x4BF3 JUMP JUMPDEST PUSH1 0x40 MLOAD DUP1 SWAP2 SUB SWAP1 REVERT JUMPDEST PUSH2 0x2260 DUP2 PUSH1 0x40 MLOAD DUP1 PUSH1 0x40 ADD PUSH1 0x40 MSTORE DUP1 PUSH1 0x1 DUP2 MSTORE PUSH1 0x20 ADD PUSH32 0x3100000000000000000000000000000000000000000000000000000000000000 DUP2 MSTORE POP PUSH2 0x2F78 JUMP JUMPDEST POP JUMP JUMPDEST PUSH1 0x0 PUSH1 0x1 SWAP1 SLOAD SWAP1 PUSH2 0x100 EXP SWAP1 DIV PUSH1 0xFF AND PUSH2 0x22B2 JUMPI PUSH1 0x40 MLOAD PUSH32 0x8C379A000000000000000000000000000000000000000000000000000000000 DUP2 MSTORE PUSH1 0x4 ADD PUSH2 0x22A9 SWAP1 PUSH2 0x4BF3 JUMP JUMPDEST PUSH1 0x40 MLOAD DUP1 SWAP2 SUB SWAP1 REVERT JUMPDEST JUMP JUMPDEST PUSH2 0x22BC PUSH2 0x1766 JUMP JUMPDEST PUSH1 0x1 PUSH1 0xFB PUSH1 0x0 PUSH2 0x100 EXP DUP2 SLOAD DUP2 PUSH1 0xFF MUL NOT AND SWAP1 DUP4 ISZERO ISZERO MUL OR SWAP1 SSTORE POP PUSH32 0x62E78CEA01BEE320CD4E420270B5EA74000D11B0C9F74754EBDBFC544B05A258 PUSH2 0x2300 PUSH2 0x26D1 JUMP JUMPDEST PUSH1 0x40 MLOAD PUSH2 0x230D SWAP2 SWAP1 PUSH2 0x39B3 JUMP JUMPDEST PUSH1 0x40 MLOAD DUP1 SWAP2 SUB SWAP1 LOG1 JUMP JUMPDEST PUSH1 0x0 PUSH1 0xC9 PUSH1 0x0 SWAP1 SLOAD SWAP1 PUSH2 0x100 EXP SWAP1 DIV PUSH20 0xFFFFFFFFFFFFFFFFFFFFFFFFFFFFFFFFFFFFFFFF AND SWAP1 POP SWAP1 JUMP JUMPDEST PUSH1 0x0 DUP1 PUSH2 0x234C PUSH2 0x26D1 JUMP JUMPDEST SWAP1 POP PUSH1 0x0 PUSH2 0x235A DUP3 DUP7 PUSH2 0x16C6 JUMP JUMPDEST SWAP1 POP DUP4 DUP2 LT ISZERO PUSH2 0x239F JUMPI PUSH1 0x40 MLOAD PUSH32 0x8C379A000000000000000000000000000000000000000000000000000000000 DUP2 MSTORE PUSH1 0x4 ADD PUSH2 0x2396 SWAP1 PUSH2 0x4C85 JUMP JUMPDEST PUSH1 0x40 MLOAD DUP1 SWAP2 SUB SWAP1 REVERT JUMPDEST PUSH2 0x23AC DUP3 DUP7 DUP7 DUP5 SUB PUSH2 0x247F JUMP JUMPDEST PUSH1 0x1 SWAP3 POP POP POP SWAP3 SWAP2 POP POP JUMP JUMPDEST PUSH1 0x0 DUP1 PUSH2 0x23C3 PUSH2 0x26D1 JUMP JUMPDEST SWAP1 POP PUSH2 0x23D0 DUP2 DUP6 DUP6 PUSH2 0x2765 JUMP JUMPDEST PUSH1 0x1 SWAP2 POP POP SWAP3 SWAP2 POP POP JUMP JUMPDEST PUSH1 0x0 DUP1 PUSH2 0x161 PUSH1 0x0 DUP5 PUSH20 0xFFFFFFFFFFFFFFFFFFFFFFFFFFFFFFFFFFFFFFFF AND PUSH20 0xFFFFFFFFFFFFFFFFFFFFFFFFFFFFFFFFFFFFFFFF AND DUP2 MSTORE PUSH1 0x20 ADD SWAP1 DUP2 MSTORE PUSH1 0x20 ADD PUSH1 0x0 KECCAK256 SWAP1 POP PUSH2 0x2429 DUP2 PUSH2 0x1FF0 JUMP JUMPDEST SWAP2 POP PUSH2 0x2434 DUP2 PUSH2 0x2FF5 JUMP JUMPDEST POP SWAP2 SWAP1 POP JUMP JUMPDEST PUSH1 0x0 PUSH2 0x244D PUSH2 0x2447 PUSH2 0x19EF JUMP JUMPDEST DUP4 PUSH2 0x300B JUMP JUMPDEST SWAP1 POP SWAP2 SWAP1 POP JUMP JUMPDEST PUSH1 0x0 DUP1 PUSH1 0x0 PUSH2 0x2465 DUP8 DUP8 DUP8 DUP8 PUSH2 0x303E JUMP JUMPDEST SWAP2 POP SWAP2 POP PUSH2 0x2472 DUP2 PUSH2 0x3121 JUMP JUMPDEST DUP2 SWAP3 POP POP POP SWAP5 SWAP4 POP POP POP POP JUMP JUMPDEST PUSH1 0x0 PUSH20 0xFFFFFFFFFFFFFFFFFFFFFFFFFFFFFFFFFFFFFFFF AND DUP4 PUSH20 0xFFFFFFFFFFFFFFFFFFFFFFFFFFFFFFFFFFFFFFFF AND EQ ISZERO PUSH2 0x24EF JUMPI PUSH1 0x40 MLOAD PUSH32 0x8C379A000000000000000000000000000000000000000000000000000000000 DUP2 MSTORE PUSH1 0x4 ADD PUSH2 0x24E6 SWAP1 PUSH2 0x4D17 JUMP JUMPDEST PUSH1 0x40 MLOAD DUP1 SWAP2 SUB SWAP1 REVERT JUMPDEST PUSH1 0x0 PUSH20 0xFFFFFFFFFFFFFFFFFFFFFFFFFFFFFFFFFFFFFFFF AND DUP3 PUSH20 0xFFFFFFFFFFFFFFFFFFFFFFFFFFFFFFFFFFFFFFFF AND EQ ISZERO PUSH2 0x255F JUMPI PUSH1 0x40 MLOAD PUSH32 0x8C379A000000000000000000000000000000000000000000000000000000000 DUP2 MSTORE PUSH1 0x4 ADD PUSH2 0x2556 SWAP1 PUSH2 0x4DA9 JUMP JUMPDEST PUSH1 0x40 MLOAD DUP1 SWAP2 SUB SWAP1 REVERT JUMPDEST DUP1 PUSH1 0x34 PUSH1 0x0 DUP6 PUSH20 0xFFFFFFFFFFFFFFFFFFFFFFFFFFFFFFFFFFFFFFFF AND PUSH20 0xFFFFFFFFFFFFFFFFFFFFFFFFFFFFFFFFFFFFFFFF AND DUP2 MSTORE PUSH1 0x20 ADD SWAP1 DUP2 MSTORE PUSH1 0x20 ADD PUSH1 0x0 KECCAK256 PUSH1 0x0 DUP5 PUSH20 0xFFFFFFFFFFFFFFFFFFFFFFFFFFFFFFFFFFFFFFFF AND PUSH20 0xFFFFFFFFFFFFFFFFFFFFFFFFFFFFFFFFFFFFFFFF AND DUP2 MSTORE PUSH1 0x20 ADD SWAP1 DUP2 MSTORE PUSH1 0x20 ADD PUSH1 0x0 KECCAK256 DUP2 SWAP1 SSTORE POP DUP2 PUSH20 0xFFFFFFFFFFFFFFFFFFFFFFFFFFFFFFFFFFFFFFFF AND DUP4 PUSH20 0xFFFFFFFFFFFFFFFFFFFFFFFFFFFFFFFFFFFFFFFF AND PUSH32 0x8C5BE1E5EBEC7D5BD14F71427D1E84F3DD0314C0F7B2291E5B200AC8C7C3B925 DUP4 PUSH1 0x40 MLOAD PUSH2 0x263D SWAP2 SWAP1 PUSH2 0x3730 JUMP JUMPDEST PUSH1 0x40 MLOAD DUP1 SWAP2 SUB SWAP1 LOG3 POP POP POP JUMP JUMPDEST PUSH1 0x0 PUSH1 0x34 PUSH1 0x0 DUP5 PUSH20 0xFFFFFFFFFFFFFFFFFFFFFFFFFFFFFFFFFFFFFFFF AND PUSH20 0xFFFFFFFFFFFFFFFFFFFFFFFFFFFFFFFFFFFFFFFF AND DUP2 MSTORE PUSH1 0x20 ADD SWAP1 DUP2 MSTORE PUSH1 0x20 ADD PUSH1 0x0 KECCAK256 PUSH1 0x0 DUP4 PUSH20 0xFFFFFFFFFFFFFFFFFFFFFFFFFFFFFFFFFFFFFFFF AND PUSH20 0xFFFFFFFFFFFFFFFFFFFFFFFFFFFFFFFFFFFFFFFF AND DUP2 MSTORE PUSH1 0x20 ADD SWAP1 DUP2 MSTORE PUSH1 0x20 ADD PUSH1 0x0 KECCAK256 SLOAD SWAP1 POP SWAP3 SWAP2 POP POP JUMP JUMPDEST PUSH1 0x0 CALLER SWAP1 POP SWAP1 JUMP JUMPDEST PUSH1 0x0 PUSH2 0x26E5 DUP5 DUP5 PUSH2 0x16C6 JUMP JUMPDEST SWAP1 POP PUSH32 0xFFFFFFFFFFFFFFFFFFFFFFFFFFFFFFFFFFFFFFFFFFFFFFFFFFFFFFFFFFFFFFFF DUP2 EQ PUSH2 0x275F JUMPI DUP2 DUP2 LT ISZERO PUSH2 0x2751 JUMPI PUSH1 0x40 MLOAD PUSH32 0x8C379A000000000000000000000000000000000000000000000000000000000 DUP2 MSTORE PUSH1 0x4 ADD PUSH2 0x2748 SWAP1 PUSH2 0x4E15 JUMP JUMPDEST PUSH1 0x40 MLOAD DUP1 SWAP2 SUB SWAP1 REVERT JUMPDEST PUSH2 0x275E DUP5 DUP5 DUP5 DUP5 SUB PUSH2 0x247F JUMP JUMPDEST JUMPDEST POP POP POP POP JUMP JUMPDEST PUSH1 0x0 PUSH20 0xFFFFFFFFFFFFFFFFFFFFFFFFFFFFFFFFFFFFFFFF AND DUP4 PUSH20 0xFFFFFFFFFFFFFFFFFFFFFFFFFFFFFFFFFFFFFFFF AND EQ ISZERO PUSH2 0x27D5 JUMPI PUSH1 0x40 MLOAD PUSH32 0x8C379A000000000000000000000000000000000000000000000000000000000 DUP2 MSTORE PUSH1 0x4 ADD PUSH2 0x27CC SWAP1 PUSH2 0x4EA7 JUMP JUMPDEST PUSH1 0x40 MLOAD DUP1 SWAP2 SUB SWAP1 REVERT JUMPDEST PUSH1 0x0 PUSH20 0xFFFFFFFFFFFFFFFFFFFFFFFFFFFFFFFFFFFFFFFF AND DUP3 PUSH20 0xFFFFFFFFFFFFFFFFFFFFFFFFFFFFFFFFFFFFFFFF AND EQ ISZERO PUSH2 0x2845 JUMPI PUSH1 0x40 MLOAD PUSH32 0x8C379A000000000000000000000000000000000000000000000000000000000 DUP2 MSTORE PUSH1 0x4 ADD PUSH2 0x283C SWAP1 PUSH2 0x4F39 JUMP JUMPDEST PUSH1 0x40 MLOAD DUP1 SWAP2 SUB SWAP1 REVERT JUMPDEST PUSH2 0x2850 DUP4 DUP4 DUP4 PUSH2 0x2B72 JUMP JUMPDEST PUSH1 0x0 PUSH1 0x33 PUSH1 0x0 DUP6 PUSH20 0xFFFFFFFFFFFFFFFFFFFFFFFFFFFFFFFFFFFFFFFF AND PUSH20 0xFFFFFFFFFFFFFFFFFFFFFFFFFFFFFFFFFFFFFFFF AND DUP2 MSTORE PUSH1 0x20 ADD SWAP1 DUP2 MSTORE PUSH1 0x20 ADD PUSH1 0x0 KECCAK256 SLOAD SWAP1 POP DUP2 DUP2 LT ISZERO PUSH2 0x28D7 JUMPI PUSH1 0x40 MLOAD PUSH32 0x8C379A000000000000000000000000000000000000000000000000000000000 DUP2 MSTORE PUSH1 0x4 ADD PUSH2 0x28CE SWAP1 PUSH2 0x4FCB JUMP JUMPDEST PUSH1 0x40 MLOAD DUP1 SWAP2 SUB SWAP1 REVERT JUMPDEST DUP2 DUP2 SUB PUSH1 0x33 PUSH1 0x0 DUP7 PUSH20 0xFFFFFFFFFFFFFFFFFFFFFFFFFFFFFFFFFFFFFFFF AND PUSH20 0xFFFFFFFFFFFFFFFFFFFFFFFFFFFFFFFFFFFFFFFF AND DUP2 MSTORE PUSH1 0x20 ADD SWAP1 DUP2 MSTORE PUSH1 0x20 ADD PUSH1 0x0 KECCAK256 DUP2 SWAP1 SSTORE POP DUP2 PUSH1 0x33 PUSH1 0x0 DUP6 PUSH20 0xFFFFFFFFFFFFFFFFFFFFFFFFFFFFFFFFFFFFFFFF AND PUSH20 0xFFFFFFFFFFFFFFFFFFFFFFFFFFFFFFFFFFFFFFFF AND DUP2 MSTORE PUSH1 0x20 ADD SWAP1 DUP2 MSTORE PUSH1 0x20 ADD PUSH1 0x0 KECCAK256 PUSH1 0x0 DUP3 DUP3 SLOAD ADD SWAP3 POP POP DUP2 SWAP1 SSTORE POP DUP3 PUSH20 0xFFFFFFFFFFFFFFFFFFFFFFFFFFFFFFFFFFFFFFFF AND DUP5 PUSH20 0xFFFFFFFFFFFFFFFFFFFFFFFFFFFFFFFFFFFFFFFF AND PUSH32 0xDDF252AD1BE2C89B69C2B068FC378DAA952BA7F163C4A11628F55A4DF523B3EF DUP5 PUSH1 0x40 MLOAD PUSH2 0x29C7 SWAP2 SWAP1 PUSH2 0x3730 JUMP JUMPDEST PUSH1 0x40 MLOAD DUP1 SWAP2 SUB SWAP1 LOG3 PUSH2 0x29DA DUP5 DUP5 DUP5 PUSH2 0x2B8A JUMP JUMPDEST POP POP POP POP JUMP JUMPDEST PUSH1 0x0 PUSH2 0x12D SLOAD SWAP1 POP SWAP1 JUMP JUMPDEST PUSH1 0x0 PUSH2 0x12E SLOAD SWAP1 POP SWAP1 JUMP JUMPDEST PUSH1 0x0 DUP4 DUP4 DUP4 CHAINID ADDRESS PUSH1 0x40 MLOAD PUSH1 0x20 ADD PUSH2 0x2A11 SWAP6 SWAP5 SWAP4 SWAP3 SWAP2 SWAP1 PUSH2 0x4FEB JUMP JUMPDEST PUSH1 0x40 MLOAD PUSH1 0x20 DUP2 DUP4 SUB SUB DUP2 MSTORE SWAP1 PUSH1 0x40 MSTORE DUP1 MLOAD SWAP1 PUSH1 0x20 ADD KECCAK256 SWAP1 POP SWAP4 SWAP3 POP POP POP JUMP JUMPDEST PUSH1 0x0 DUP2 SWAP1 POP SWAP2 SWAP1 POP JUMP JUMPDEST PUSH1 0x0 DUP2 SWAP1 POP SWAP2 SWAP1 POP JUMP JUMPDEST PUSH2 0x2A4D DUP2 PUSH2 0x1FFE JUMP JUMPDEST PUSH2 0x2A8C JUMPI PUSH1 0x40 MLOAD PUSH32 0x8C379A000000000000000000000000000000000000000000000000000000000 DUP2 MSTORE PUSH1 0x4 ADD PUSH2 0x2A83 SWAP1 PUSH2 0x50B0 JUMP JUMPDEST PUSH1 0x40 MLOAD DUP1 SWAP2 SUB SWAP1 REVERT JUMPDEST DUP1 PUSH2 0x2AB9 PUSH32 0x360894A13BA1A3210667C828492DB98DCA3E2076CC3735A920A3CA505D382BBC PUSH1 0x0 SHL PUSH2 0x2A30 JUMP JUMPDEST PUSH1 0x0 ADD PUSH1 0x0 PUSH2 0x100 EXP DUP2 SLOAD DUP2 PUSH20 0xFFFFFFFFFFFFFFFFFFFFFFFFFFFFFFFFFFFFFFFF MUL NOT AND SWAP1 DUP4 PUSH20 0xFFFFFFFFFFFFFFFFFFFFFFFFFFFFFFFFFFFFFFFF AND MUL OR SWAP1 SSTORE POP POP JUMP JUMPDEST PUSH2 0x2B06 DUP4 PUSH2 0x328F JUMP JUMPDEST PUSH1 0x0 DUP3 MLOAD GT DUP1 PUSH2 0x2B13 JUMPI POP DUP1 JUMPDEST ISZERO PUSH2 0x2B24 JUMPI PUSH2 0x2B22 DUP4 DUP4 PUSH2 0x32DE JUMP JUMPDEST POP JUMPDEST POP POP POP JUMP JUMPDEST PUSH2 0x2B31 PUSH2 0xFD2 JUMP JUMPDEST PUSH2 0x2B70 JUMPI PUSH1 0x40 MLOAD PUSH32 0x8C379A000000000000000000000000000000000000000000000000000000000 DUP2 MSTORE PUSH1 0x4 ADD PUSH2 0x2B67 SWAP1 PUSH2 0x511C JUMP JUMPDEST PUSH1 0x40 MLOAD DUP1 SWAP2 SUB SWAP1 REVERT JUMPDEST JUMP JUMPDEST PUSH2 0x2B7A PUSH2 0x1766 JUMP JUMPDEST PUSH2 0x2B85 DUP4 DUP4 DUP4 PUSH2 0x33C2 JUMP JUMPDEST POP POP POP JUMP JUMPDEST POP POP POP JUMP JUMPDEST PUSH1 0x0 PUSH20 0xFFFFFFFFFFFFFFFFFFFFFFFFFFFFFFFFFFFFFFFF AND DUP3 PUSH20 0xFFFFFFFFFFFFFFFFFFFFFFFFFFFFFFFFFFFFFFFF AND EQ ISZERO PUSH2 0x2BFF JUMPI PUSH1 0x40 MLOAD PUSH32 0x8C379A000000000000000000000000000000000000000000000000000000000 DUP2 MSTORE PUSH1 0x4 ADD PUSH2 0x2BF6 SWAP1 PUSH2 0x51AE JUMP JUMPDEST PUSH1 0x40 MLOAD DUP1 SWAP2 SUB SWAP1 REVERT JUMPDEST PUSH2 0x2C0B DUP3 PUSH1 0x0 DUP4 PUSH2 0x2B72 JUMP JUMPDEST PUSH1 0x0 PUSH1 0x33 PUSH1 0x0 DUP5 PUSH20 0xFFFFFFFFFFFFFFFFFFFFFFFFFFFFFFFFFFFFFFFF AND PUSH20 0xFFFFFFFFFFFFFFFFFFFFFFFFFFFFFFFFFFFFFFFF AND DUP2 MSTORE PUSH1 0x20 ADD SWAP1 DUP2 MSTORE PUSH1 0x20 ADD PUSH1 0x0 KECCAK256 SLOAD SWAP1 POP DUP2 DUP2 LT ISZERO PUSH2 0x2C92 JUMPI PUSH1 0x40 MLOAD PUSH32 0x8C379A000000000000000000000000000000000000000000000000000000000 DUP2 MSTORE PUSH1 0x4 ADD PUSH2 0x2C89 SWAP1 PUSH2 0x5240 JUMP JUMPDEST PUSH1 0x40 MLOAD DUP1 SWAP2 SUB SWAP1 REVERT JUMPDEST DUP2 DUP2 SUB PUSH1 0x33 PUSH1 0x0 DUP6 PUSH20 0xFFFFFFFFFFFFFFFFFFFFFFFFFFFFFFFFFFFFFFFF AND PUSH20 0xFFFFFFFFFFFFFFFFFFFFFFFFFFFFFFFFFFFFFFFF AND DUP2 MSTORE PUSH1 0x20 ADD SWAP1 DUP2 MSTORE PUSH1 0x20 ADD PUSH1 0x0 KECCAK256 DUP2 SWAP1 SSTORE POP DUP2 PUSH1 0x35 PUSH1 0x0 DUP3 DUP3 SLOAD SUB SWAP3 POP POP DUP2 SWAP1 SSTORE POP PUSH1 0x0 PUSH20 0xFFFFFFFFFFFFFFFFFFFFFFFFFFFFFFFFFFFFFFFF AND DUP4 PUSH20 0xFFFFFFFFFFFFFFFFFFFFFFFFFFFFFFFFFFFFFFFF AND PUSH32 0xDDF252AD1BE2C89B69C2B068FC378DAA952BA7F163C4A11628F55A4DF523B3EF DUP5 PUSH1 0x40 MLOAD PUSH2 0x2D46 SWAP2 SWAP1 PUSH2 0x3730 JUMP JUMPDEST PUSH1 0x40 MLOAD DUP1 SWAP2 SUB SWAP1 LOG3 PUSH2 0x2D5A DUP4 PUSH1 0x0 DUP5 PUSH2 0x2B8A JUMP JUMPDEST POP POP POP JUMP JUMPDEST PUSH1 0x0 PUSH2 0x2D6B PUSH1 0x9A PUSH2 0x1FF0 JUMP JUMPDEST SWAP1 POP SWAP1 JUMP JUMPDEST PUSH1 0x0 DUP1 DUP4 DUP1 SLOAD SWAP1 POP EQ ISZERO PUSH2 0x2D87 JUMPI PUSH1 0x0 SWAP1 POP PUSH2 0x2E24 JUMP JUMPDEST PUSH1 0x0 DUP1 DUP5 DUP1 SLOAD SWAP1 POP SWAP1 POP JUMPDEST DUP1 DUP3 LT ISZERO PUSH2 0x2DDB JUMPI PUSH1 0x0 PUSH2 0x2DA6 DUP4 DUP4 PUSH2 0x347C JUMP JUMPDEST SWAP1 POP DUP5 PUSH2 0x2DB3 DUP8 DUP4 PUSH2 0x34A2 JUMP JUMPDEST PUSH1 0x0 ADD SLOAD GT ISZERO PUSH2 0x2DC5 JUMPI DUP1 SWAP2 POP PUSH2 0x2DD5 JUMP JUMPDEST PUSH1 0x1 DUP2 PUSH2 0x2DD2 SWAP2 SWAP1 PUSH2 0x49B8 JUMP JUMPDEST SWAP3 POP JUMPDEST POP PUSH2 0x2D92 JUMP JUMPDEST PUSH1 0x0 DUP3 GT DUP1 ISZERO PUSH2 0x2E03 JUMPI POP DUP4 PUSH2 0x2DFD DUP7 PUSH1 0x1 DUP6 PUSH2 0x2DF8 SWAP2 SWAP1 PUSH2 0x5260 JUMP JUMPDEST PUSH2 0x34A2 JUMP JUMPDEST PUSH1 0x0 ADD SLOAD EQ JUMPDEST ISZERO PUSH2 0x2E1E JUMPI PUSH1 0x1 DUP3 PUSH2 0x2E15 SWAP2 SWAP1 PUSH2 0x5260 JUMP JUMPDEST SWAP3 POP POP POP PUSH2 0x2E24 JUMP JUMPDEST DUP2 SWAP3 POP POP POP JUMPDEST SWAP3 SWAP2 POP POP JUMP JUMPDEST PUSH1 0x0 PUSH1 0x1 SWAP1 SLOAD SWAP1 PUSH2 0x100 EXP SWAP1 DIV PUSH1 0xFF AND PUSH2 0x2E79 JUMPI PUSH1 0x40 MLOAD PUSH32 0x8C379A000000000000000000000000000000000000000000000000000000000 DUP2 MSTORE PUSH1 0x4 ADD PUSH2 0x2E70 SWAP1 PUSH2 0x4BF3 JUMP JUMPDEST PUSH1 0x40 MLOAD DUP1 SWAP2 SUB SWAP1 REVERT JUMPDEST DUP2 PUSH1 0x36 SWAP1 DUP1 MLOAD SWAP1 PUSH1 0x20 ADD SWAP1 PUSH2 0x2E8F SWAP3 SWAP2 SWAP1 PUSH2 0x3674 JUMP JUMPDEST POP DUP1 PUSH1 0x37 SWAP1 DUP1 MLOAD SWAP1 PUSH1 0x20 ADD SWAP1 PUSH2 0x2EA6 SWAP3 SWAP2 SWAP1 PUSH2 0x3674 JUMP JUMPDEST POP POP POP JUMP JUMPDEST PUSH1 0x0 PUSH1 0x1 SWAP1 SLOAD SWAP1 PUSH2 0x100 EXP SWAP1 DIV PUSH1 0xFF AND PUSH2 0x2EFA JUMPI PUSH1 0x40 MLOAD PUSH32 0x8C379A000000000000000000000000000000000000000000000000000000000 DUP2 MSTORE PUSH1 0x4 ADD PUSH2 0x2EF1 SWAP1 PUSH2 0x4BF3 JUMP JUMPDEST PUSH1 0x40 MLOAD DUP1 SWAP2 SUB SWAP1 REVERT JUMPDEST PUSH2 0x2F0A PUSH2 0x2F05 PUSH2 0x26D1 JUMP JUMPDEST PUSH2 0x1F0A JUMP JUMPDEST JUMP JUMPDEST PUSH1 0x0 PUSH1 0x1 SWAP1 SLOAD SWAP1 PUSH2 0x100 EXP SWAP1 DIV PUSH1 0xFF AND PUSH2 0x2F5B JUMPI PUSH1 0x40 MLOAD PUSH32 0x8C379A000000000000000000000000000000000000000000000000000000000 DUP2 MSTORE PUSH1 0x4 ADD PUSH2 0x2F52 SWAP1 PUSH2 0x4BF3 JUMP JUMPDEST PUSH1 0x40 MLOAD DUP1 SWAP2 SUB SWAP1 REVERT JUMPDEST PUSH1 0x0 PUSH1 0xFB PUSH1 0x0 PUSH2 0x100 EXP DUP2 SLOAD DUP2 PUSH1 0xFF MUL NOT AND SWAP1 DUP4 ISZERO ISZERO MUL OR SWAP1 SSTORE POP JUMP JUMPDEST PUSH1 0x0 PUSH1 0x1 SWAP1 SLOAD SWAP1 PUSH2 0x100 EXP SWAP1 DIV PUSH1 0xFF AND PUSH2 0x2FC7 JUMPI PUSH1 0x40 MLOAD PUSH32 0x8C379A000000000000000000000000000000000000000000000000000000000 DUP2 MSTORE PUSH1 0x4 ADD PUSH2 0x2FBE SWAP1 PUSH2 0x4BF3 JUMP JUMPDEST PUSH1 0x40 MLOAD DUP1 SWAP2 SUB SWAP1 REVERT JUMPDEST PUSH1 0x0 DUP3 DUP1 MLOAD SWAP1 PUSH1 0x20 ADD KECCAK256 SWAP1 POP PUSH1 0x0 DUP3 DUP1 MLOAD SWAP1 PUSH1 0x20 ADD KECCAK256 SWAP1 POP DUP2 PUSH2 0x12D DUP2 SWAP1 SSTORE POP DUP1 PUSH2 0x12E DUP2 SWAP1 SSTORE POP POP POP POP POP JUMP JUMPDEST PUSH1 0x1 DUP2 PUSH1 0x0 ADD PUSH1 0x0 DUP3 DUP3 SLOAD ADD SWAP3 POP POP DUP2 SWAP1 SSTORE POP POP JUMP JUMPDEST PUSH1 0x0 DUP3 DUP3 PUSH1 0x40 MLOAD PUSH1 0x20 ADD PUSH2 0x3020 SWAP3 SWAP2 SWAP1 PUSH2 0x530C JUMP JUMPDEST PUSH1 0x40 MLOAD PUSH1 0x20 DUP2 DUP4 SUB SUB DUP2 MSTORE SWAP1 PUSH1 0x40 MSTORE DUP1 MLOAD SWAP1 PUSH1 0x20 ADD KECCAK256 SWAP1 POP SWAP3 SWAP2 POP POP JUMP JUMPDEST PUSH1 0x0 DUP1 PUSH32 0x7FFFFFFFFFFFFFFFFFFFFFFFFFFFFFFF5D576E7357A4501DDFE92F46681B20A0 DUP4 PUSH1 0x0 SHR GT ISZERO PUSH2 0x3079 JUMPI PUSH1 0x0 PUSH1 0x3 SWAP2 POP SWAP2 POP PUSH2 0x3118 JUMP JUMPDEST PUSH1 0x0 PUSH1 0x1 DUP8 DUP8 DUP8 DUP8 PUSH1 0x40 MLOAD PUSH1 0x0 DUP2 MSTORE PUSH1 0x20 ADD PUSH1 0x40 MSTORE PUSH1 0x40 MLOAD PUSH2 0x309E SWAP5 SWAP4 SWAP3 SWAP2 SWAP1 PUSH2 0x5343 JUMP JUMPDEST PUSH1 0x20 PUSH1 0x40 MLOAD PUSH1 0x20 DUP2 SUB SWAP1 DUP1 DUP5 SUB SWAP1 DUP6 GAS STATICCALL ISZERO DUP1 ISZERO PUSH2 0x30C0 JUMPI RETURNDATASIZE PUSH1 0x0 DUP1 RETURNDATACOPY RETURNDATASIZE PUSH1 0x0 REVERT JUMPDEST POP POP POP PUSH1 0x20 PUSH1 0x40 MLOAD SUB MLOAD SWAP1 POP PUSH1 0x0 PUSH20 0xFFFFFFFFFFFFFFFFFFFFFFFFFFFFFFFFFFFFFFFF AND DUP2 PUSH20 0xFFFFFFFFFFFFFFFFFFFFFFFFFFFFFFFFFFFFFFFF AND EQ ISZERO PUSH2 0x310F JUMPI PUSH1 0x0 PUSH1 0x1 SWAP3 POP SWAP3 POP POP PUSH2 0x3118 JUMP JUMPDEST DUP1 PUSH1 0x0 SWAP3 POP SWAP3 POP POP JUMPDEST SWAP5 POP SWAP5 SWAP3 POP POP POP JUMP JUMPDEST PUSH1 0x0 PUSH1 0x4 DUP2 GT ISZERO PUSH2 0x3135 JUMPI PUSH2 0x3134 PUSH2 0x5388 JUMP JUMPDEST JUMPDEST DUP2 PUSH1 0x4 DUP2 GT ISZERO PUSH2 0x3148 JUMPI PUSH2 0x3147 PUSH2 0x5388 JUMP JUMPDEST JUMPDEST EQ ISZERO PUSH2 0x3153 JUMPI PUSH2 0x328C JUMP JUMPDEST PUSH1 0x1 PUSH1 0x4 DUP2 GT ISZERO PUSH2 0x3167 JUMPI PUSH2 0x3166 PUSH2 0x5388 JUMP JUMPDEST JUMPDEST DUP2 PUSH1 0x4 DUP2 GT ISZERO PUSH2 0x317A JUMPI PUSH2 0x3179 PUSH2 0x5388 JUMP JUMPDEST JUMPDEST EQ ISZERO PUSH2 0x31BB JUMPI PUSH1 0x40 MLOAD PUSH32 0x8C379A000000000000000000000000000000000000000000000000000000000 DUP2 MSTORE PUSH1 0x4 ADD PUSH2 0x31B2 SWAP1 PUSH2 0x5403 JUMP JUMPDEST PUSH1 0x40 MLOAD DUP1 SWAP2 SUB SWAP1 REVERT JUMPDEST PUSH1 0x2 PUSH1 0x4 DUP2 GT ISZERO PUSH2 0x31CF JUMPI PUSH2 0x31CE PUSH2 0x5388 JUMP JUMPDEST JUMPDEST DUP2 PUSH1 0x4 DUP2 GT ISZERO PUSH2 0x31E2 JUMPI PUSH2 0x31E1 PUSH2 0x5388 JUMP JUMPDEST JUMPDEST EQ ISZERO PUSH2 0x3223 JUMPI PUSH1 0x40 MLOAD PUSH32 0x8C379A000000000000000000000000000000000000000000000000000000000 DUP2 MSTORE PUSH1 0x4 ADD PUSH2 0x321A SWAP1 PUSH2 0x546F JUMP JUMPDEST PUSH1 0x40 MLOAD DUP1 SWAP2 SUB SWAP1 REVERT JUMPDEST PUSH1 0x3 PUSH1 0x4 DUP2 GT ISZERO PUSH2 0x3237 JUMPI PUSH2 0x3236 PUSH2 0x5388 JUMP JUMPDEST JUMPDEST DUP2 PUSH1 0x4 DUP2 GT ISZERO PUSH2 0x324A JUMPI PUSH2 0x3249 PUSH2 0x5388 JUMP JUMPDEST JUMPDEST EQ ISZERO PUSH2 0x328B JUMPI PUSH1 0x40 MLOAD PUSH32 0x8C379A000000000000000000000000000000000000000000000000000000000 DUP2 MSTORE PUSH1 0x4 ADD PUSH2 0x3282 SWAP1 PUSH2 0x5501 JUMP JUMPDEST PUSH1 0x40 MLOAD DUP1 SWAP2 SUB SWAP1 REVERT JUMPDEST JUMPDEST POP JUMP JUMPDEST PUSH2 0x3298 DUP2 PUSH2 0x2A44 JUMP JUMPDEST DUP1 PUSH20 0xFFFFFFFFFFFFFFFFFFFFFFFFFFFFFFFFFFFFFFFF AND PUSH32 0xBC7CD75A20EE27FD9ADEBAB32041F755214DBC6BFFA90CC0225B39DA2E5C2D3B PUSH1 0x40 MLOAD PUSH1 0x40 MLOAD DUP1 SWAP2 SUB SWAP1 LOG2 POP JUMP JUMPDEST PUSH1 0x60 PUSH2 0x32E9 DUP4 PUSH2 0x1FFE JUMP JUMPDEST PUSH2 0x3328 JUMPI PUSH1 0x40 MLOAD PUSH32 0x8C379A000000000000000000000000000000000000000000000000000000000 DUP2 MSTORE PUSH1 0x4 ADD PUSH2 0x331F SWAP1 PUSH2 0x5593 JUMP JUMPDEST PUSH1 0x40 MLOAD DUP1 SWAP2 SUB SWAP1 REVERT JUMPDEST PUSH1 0x0 DUP1 DUP5 PUSH20 0xFFFFFFFFFFFFFFFFFFFFFFFFFFFFFFFFFFFFFFFF AND DUP5 PUSH1 0x40 MLOAD PUSH2 0x3350 SWAP2 SWAP1 PUSH2 0x55FA JUMP JUMPDEST PUSH1 0x0 PUSH1 0x40 MLOAD DUP1 DUP4 SUB DUP2 DUP6 GAS DELEGATECALL SWAP2 POP POP RETURNDATASIZE DUP1 PUSH1 0x0 DUP2 EQ PUSH2 0x338B JUMPI PUSH1 0x40 MLOAD SWAP2 POP PUSH1 0x1F NOT PUSH1 0x3F RETURNDATASIZE ADD AND DUP3 ADD PUSH1 0x40 MSTORE RETURNDATASIZE DUP3 MSTORE RETURNDATASIZE PUSH1 0x0 PUSH1 0x20 DUP5 ADD RETURNDATACOPY PUSH2 0x3390 JUMP JUMPDEST PUSH1 0x60 SWAP2 POP JUMPDEST POP SWAP2 POP SWAP2 POP PUSH2 0x33B8 DUP3 DUP3 PUSH1 0x40 MLOAD DUP1 PUSH1 0x60 ADD PUSH1 0x40 MSTORE DUP1 PUSH1 0x27 DUP2 MSTORE PUSH1 0x20 ADD PUSH2 0x5672 PUSH1 0x27 SWAP2 CODECOPY PUSH2 0x34C4 JUMP JUMPDEST SWAP3 POP POP POP SWAP3 SWAP2 POP POP JUMP JUMPDEST PUSH2 0x33CD DUP4 DUP4 DUP4 PUSH2 0x34E6 JUMP JUMPDEST PUSH1 0x0 PUSH20 0xFFFFFFFFFFFFFFFFFFFFFFFFFFFFFFFFFFFFFFFF AND DUP4 PUSH20 0xFFFFFFFFFFFFFFFFFFFFFFFFFFFFFFFFFFFFFFFF AND EQ ISZERO PUSH2 0x3418 JUMPI PUSH2 0x340B DUP3 PUSH2 0x34EB JUMP JUMPDEST PUSH2 0x3413 PUSH2 0x353E JUMP JUMPDEST PUSH2 0x3477 JUMP JUMPDEST PUSH1 0x0 PUSH20 0xFFFFFFFFFFFFFFFFFFFFFFFFFFFFFFFFFFFFFFFF AND DUP3 PUSH20 0xFFFFFFFFFFFFFFFFFFFFFFFFFFFFFFFFFFFFFFFF AND EQ ISZERO PUSH2 0x3463 JUMPI PUSH2 0x3456 DUP4 PUSH2 0x34EB JUMP JUMPDEST PUSH2 0x345E PUSH2 0x353E JUMP JUMPDEST PUSH2 0x3476 JUMP JUMPDEST PUSH2 0x346C DUP4 PUSH2 0x34EB JUMP JUMPDEST PUSH2 0x3475 DUP3 PUSH2 0x34EB JUMP JUMPDEST JUMPDEST JUMPDEST POP POP POP JUMP JUMPDEST PUSH1 0x0 PUSH1 0x2 DUP3 DUP5 XOR PUSH2 0x348D SWAP2 SWAP1 PUSH2 0x5640 JUMP JUMPDEST DUP3 DUP5 AND PUSH2 0x349A SWAP2 SWAP1 PUSH2 0x49B8 JUMP JUMPDEST SWAP1 POP SWAP3 SWAP2 POP POP JUMP JUMPDEST PUSH1 0x0 DUP1 DUP4 PUSH1 0x0 MSTORE DUP3 PUSH1 0x20 PUSH1 0x0 KECCAK256 ADD SWAP1 POP PUSH2 0x34BB DUP2 PUSH2 0x3552 JUMP JUMPDEST SWAP2 POP POP SWAP3 SWAP2 POP POP JUMP JUMPDEST PUSH1 0x60 DUP4 ISZERO PUSH2 0x34D4 JUMPI DUP3 SWAP1 POP PUSH2 0x34DF JUMP JUMPDEST PUSH2 0x34DE DUP4 DUP4 PUSH2 0x355C JUMP JUMPDEST JUMPDEST SWAP4 SWAP3 POP POP POP JUMP JUMPDEST POP POP POP JUMP JUMPDEST PUSH2 0x353B PUSH1 0x97 PUSH1 0x0 DUP4 PUSH20 0xFFFFFFFFFFFFFFFFFFFFFFFFFFFFFFFFFFFFFFFF AND PUSH20 0xFFFFFFFFFFFFFFFFFFFFFFFFFFFFFFFFFFFFFFFF AND DUP2 MSTORE PUSH1 0x20 ADD SWAP1 DUP2 MSTORE PUSH1 0x20 ADD PUSH1 0x0 KECCAK256 PUSH2 0x3536 DUP4 PUSH2 0xFF9 JUMP JUMPDEST PUSH2 0x35AC JUMP JUMPDEST POP JUMP JUMPDEST PUSH2 0x3550 PUSH1 0x98 PUSH2 0x354B PUSH2 0x900 JUMP JUMPDEST PUSH2 0x35AC JUMP JUMPDEST JUMP JUMPDEST PUSH1 0x0 DUP2 SWAP1 POP SWAP2 SWAP1 POP JUMP JUMPDEST PUSH1 0x0 DUP3 MLOAD GT ISZERO PUSH2 0x356F JUMPI DUP2 MLOAD DUP1 DUP4 PUSH1 0x20 ADD REVERT JUMPDEST DUP1 PUSH1 0x40 MLOAD PUSH32 0x8C379A000000000000000000000000000000000000000000000000000000000 DUP2 MSTORE PUSH1 0x4 ADD PUSH2 0x35A3 SWAP2 SWAP1 PUSH2 0x37E4 JUMP JUMPDEST PUSH1 0x40 MLOAD DUP1 SWAP2 SUB SWAP1 REVERT JUMPDEST PUSH1 0x0 PUSH2 0x35B6 PUSH2 0x2D5F JUMP JUMPDEST SWAP1 POP DUP1 PUSH2 0x35C5 DUP5 PUSH1 0x0 ADD PUSH2 0x3627 JUMP JUMPDEST LT ISZERO PUSH2 0x3622 JUMPI DUP3 PUSH1 0x0 ADD DUP2 SWAP1 DUP1 PUSH1 0x1 DUP2 SLOAD ADD DUP1 DUP3 SSTORE DUP1 SWAP2 POP POP PUSH1 0x1 SWAP1 SUB SWAP1 PUSH1 0x0 MSTORE PUSH1 0x20 PUSH1 0x0 KECCAK256 ADD PUSH1 0x0 SWAP1 SWAP2 SWAP1 SWAP2 SWAP1 SWAP2 POP SSTORE DUP3 PUSH1 0x1 ADD DUP3 SWAP1 DUP1 PUSH1 0x1 DUP2 SLOAD ADD DUP1 DUP3 SSTORE DUP1 SWAP2 POP POP PUSH1 0x1 SWAP1 SUB SWAP1 PUSH1 0x0 MSTORE PUSH1 0x20 PUSH1 0x0 KECCAK256 ADD PUSH1 0x0 SWAP1 SWAP2 SWAP1 SWAP2 SWAP1 SWAP2 POP SSTORE JUMPDEST POP POP POP JUMP JUMPDEST PUSH1 0x0 DUP1 DUP3 DUP1 SLOAD SWAP1 POP EQ ISZERO PUSH2 0x363E JUMPI PUSH1 0x0 SWAP1 POP PUSH2 0x366F JUMP JUMPDEST DUP2 PUSH1 0x1 DUP4 DUP1 SLOAD SWAP1 POP PUSH2 0x3650 SWAP2 SWAP1 PUSH2 0x5260 JUMP JUMPDEST DUP2 SLOAD DUP2 LT PUSH2 0x3661 JUMPI PUSH2 0x3660 PUSH2 0x4B52 JUMP JUMPDEST JUMPDEST SWAP1 PUSH1 0x0 MSTORE PUSH1 0x20 PUSH1 0x0 KECCAK256 ADD SLOAD SWAP1 POP JUMPDEST SWAP2 SWAP1 POP JUMP JUMPDEST DUP3 DUP1 SLOAD PUSH2 0x3680 SWAP1 PUSH2 0x3DC1 JUMP JUMPDEST SWAP1 PUSH1 0x0 MSTORE PUSH1 0x20 PUSH1 0x0 KECCAK256 SWAP1 PUSH1 0x1F ADD PUSH1 0x20 SWAP1 DIV DUP2 ADD SWAP3 DUP3 PUSH2 0x36A2 JUMPI PUSH1 0x0 DUP6 SSTORE PUSH2 0x36E9 JUMP JUMPDEST DUP3 PUSH1 0x1F LT PUSH2 0x36BB JUMPI DUP1 MLOAD PUSH1 0xFF NOT AND DUP4 DUP1 ADD OR DUP6 SSTORE PUSH2 0x36E9 JUMP JUMPDEST DUP3 DUP1 ADD PUSH1 0x1 ADD DUP6 SSTORE DUP3 ISZERO PUSH2 0x36E9 JUMPI SWAP2 DUP3 ADD JUMPDEST DUP3 DUP2 GT ISZERO PUSH2 0x36E8 JUMPI DUP3 MLOAD DUP3 SSTORE SWAP2 PUSH1 0x20 ADD SWAP2 SWAP1 PUSH1 0x1 ADD SWAP1 PUSH2 0x36CD JUMP JUMPDEST JUMPDEST POP SWAP1 POP PUSH2 0x36F6 SWAP2 SWAP1 PUSH2 0x36FA JUMP JUMPDEST POP SWAP1 JUMP JUMPDEST JUMPDEST DUP1 DUP3 GT ISZERO PUSH2 0x3713 JUMPI PUSH1 0x0 DUP2 PUSH1 0x0 SWAP1 SSTORE POP PUSH1 0x1 ADD PUSH2 0x36FB JUMP JUMPDEST POP SWAP1 JUMP JUMPDEST PUSH1 0x0 DUP2 SWAP1 POP SWAP2 SWAP1 POP JUMP JUMPDEST PUSH2 0x372A DUP2 PUSH2 0x3717 JUMP JUMPDEST DUP3 MSTORE POP POP JUMP JUMPDEST PUSH1 0x0 PUSH1 0x20 DUP3 ADD SWAP1 POP PUSH2 0x3745 PUSH1 0x0 DUP4 ADD DUP5 PUSH2 0x3721 JUMP JUMPDEST SWAP3 SWAP2 POP POP JUMP JUMPDEST PUSH1 0x0 DUP2 MLOAD SWAP1 POP SWAP2 SWAP1 POP JUMP JUMPDEST PUSH1 0x0 DUP3 DUP3 MSTORE PUSH1 0x20 DUP3 ADD SWAP1 POP SWAP3 SWAP2 POP POP JUMP JUMPDEST PUSH1 0x0 JUMPDEST DUP4 DUP2 LT ISZERO PUSH2 0x3785 JUMPI DUP1 DUP3 ADD MLOAD DUP2 DUP5 ADD MSTORE PUSH1 0x20 DUP2 ADD SWAP1 POP PUSH2 0x376A JUMP JUMPDEST DUP4 DUP2 GT ISZERO PUSH2 0x3794 JUMPI PUSH1 0x0 DUP5 DUP5 ADD MSTORE JUMPDEST POP POP POP POP JUMP JUMPDEST PUSH1 0x0 PUSH1 0x1F NOT PUSH1 0x1F DUP4 ADD AND SWAP1 POP SWAP2 SWAP1 POP JUMP JUMPDEST PUSH1 0x0 PUSH2 0x37B6 DUP3 PUSH2 0x374B JUMP JUMPDEST PUSH2 0x37C0 DUP2 DUP6 PUSH2 0x3756 JUMP JUMPDEST SWAP4 POP PUSH2 0x37D0 DUP2 DUP6 PUSH1 0x20 DUP7 ADD PUSH2 0x3767 JUMP JUMPDEST PUSH2 0x37D9 DUP2 PUSH2 0x379A JUMP JUMPDEST DUP5 ADD SWAP2 POP POP SWAP3 SWAP2 POP POP JUMP JUMPDEST PUSH1 0x0 PUSH1 0x20 DUP3 ADD SWAP1 POP DUP2 DUP2 SUB PUSH1 0x0 DUP4 ADD MSTORE PUSH2 0x37FE DUP2 DUP5 PUSH2 0x37AB JUMP JUMPDEST SWAP1 POP SWAP3 SWAP2 POP POP JUMP JUMPDEST PUSH1 0x0 PUSH1 0x40 MLOAD SWAP1 POP SWAP1 JUMP JUMPDEST PUSH1 0x0 DUP1 REVERT JUMPDEST PUSH1 0x0 DUP1 REVERT JUMPDEST PUSH1 0x0 PUSH20 0xFFFFFFFFFFFFFFFFFFFFFFFFFFFFFFFFFFFFFFFF DUP3 AND SWAP1 POP SWAP2 SWAP1 POP JUMP JUMPDEST PUSH1 0x0 PUSH2 0x3845 DUP3 PUSH2 0x381A JUMP JUMPDEST SWAP1 POP SWAP2 SWAP1 POP JUMP JUMPDEST PUSH2 0x3855 DUP2 PUSH2 0x383A JUMP JUMPDEST DUP2 EQ PUSH2 0x3860 JUMPI PUSH1 0x0 DUP1 REVERT JUMPDEST POP JUMP JUMPDEST PUSH1 0x0 DUP2 CALLDATALOAD SWAP1 POP PUSH2 0x3872 DUP2 PUSH2 0x384C JUMP JUMPDEST SWAP3 SWAP2 POP POP JUMP JUMPDEST PUSH2 0x3881 DUP2 PUSH2 0x3717 JUMP JUMPDEST DUP2 EQ PUSH2 0x388C JUMPI PUSH1 0x0 DUP1 REVERT JUMPDEST POP JUMP JUMPDEST PUSH1 0x0 DUP2 CALLDATALOAD SWAP1 POP PUSH2 0x389E DUP2 PUSH2 0x3878 JUMP JUMPDEST SWAP3 SWAP2 POP POP JUMP JUMPDEST PUSH1 0x0 DUP1 PUSH1 0x40 DUP4 DUP6 SUB SLT ISZERO PUSH2 0x38BB JUMPI PUSH2 0x38BA PUSH2 0x3810 JUMP JUMPDEST JUMPDEST PUSH1 0x0 PUSH2 0x38C9 DUP6 DUP3 DUP7 ADD PUSH2 0x3863 JUMP JUMPDEST SWAP3 POP POP PUSH1 0x20 PUSH2 0x38DA DUP6 DUP3 DUP7 ADD PUSH2 0x388F JUMP JUMPDEST SWAP2 POP POP SWAP3 POP SWAP3 SWAP1 POP JUMP JUMPDEST PUSH1 0x0 DUP2 ISZERO ISZERO SWAP1 POP SWAP2 SWAP1 POP JUMP JUMPDEST PUSH2 0x38F9 DUP2 PUSH2 0x38E4 JUMP JUMPDEST DUP3 MSTORE POP POP JUMP JUMPDEST PUSH1 0x0 PUSH1 0x20 DUP3 ADD SWAP1 POP PUSH2 0x3914 PUSH1 0x0 DUP4 ADD DUP5 PUSH2 0x38F0 JUMP JUMPDEST SWAP3 SWAP2 POP POP JUMP JUMPDEST PUSH1 0x0 DUP1 PUSH1 0x0 PUSH1 0x60 DUP5 DUP7 SUB SLT ISZERO PUSH2 0x3933 JUMPI PUSH2 0x3932 PUSH2 0x3810 JUMP JUMPDEST JUMPDEST PUSH1 0x0 PUSH2 0x3941 DUP7 DUP3 DUP8 ADD PUSH2 0x3863 JUMP JUMPDEST SWAP4 POP POP PUSH1 0x20 PUSH2 0x3952 DUP7 DUP3 DUP8 ADD PUSH2 0x3863 JUMP JUMPDEST SWAP3 POP POP PUSH1 0x40 PUSH2 0x3963 DUP7 DUP3 DUP8 ADD PUSH2 0x388F JUMP JUMPDEST SWAP2 POP POP SWAP3 POP SWAP3 POP SWAP3 JUMP JUMPDEST PUSH1 0x0 PUSH1 0xFF DUP3 AND SWAP1 POP SWAP2 SWAP1 POP JUMP JUMPDEST PUSH2 0x3983 DUP2 PUSH2 0x396D JUMP JUMPDEST DUP3 MSTORE POP POP JUMP JUMPDEST PUSH1 0x0 PUSH1 0x20 DUP3 ADD SWAP1 POP PUSH2 0x399E PUSH1 0x0 DUP4 ADD DUP5 PUSH2 0x397A JUMP JUMPDEST SWAP3 SWAP2 POP POP JUMP JUMPDEST PUSH2 0x39AD DUP2 PUSH2 0x383A JUMP JUMPDEST DUP3 MSTORE POP POP JUMP JUMPDEST PUSH1 0x0 PUSH1 0x20 DUP3 ADD SWAP1 POP PUSH2 0x39C8 PUSH1 0x0 DUP4 ADD DUP5 PUSH2 0x39A4 JUMP JUMPDEST SWAP3 SWAP2 POP POP JUMP JUMPDEST PUSH1 0x0 DUP2 SWAP1 POP SWAP2 SWAP1 POP JUMP JUMPDEST PUSH2 0x39E1 DUP2 PUSH2 0x39CE JUMP JUMPDEST DUP3 MSTORE POP POP JUMP JUMPDEST PUSH1 0x0 PUSH1 0x20 DUP3 ADD SWAP1 POP PUSH2 0x39FC PUSH1 0x0 DUP4 ADD DUP5 PUSH2 0x39D8 JUMP JUMPDEST SWAP3 SWAP2 POP POP JUMP JUMPDEST PUSH1 0x0 PUSH1 0x20 DUP3 DUP5 SUB SLT ISZERO PUSH2 0x3A18 JUMPI PUSH2 0x3A17 PUSH2 0x3810 JUMP JUMPDEST JUMPDEST PUSH1 0x0 PUSH2 0x3A26 DUP5 DUP3 DUP6 ADD PUSH2 0x3863 JUMP JUMPDEST SWAP2 POP POP SWAP3 SWAP2 POP POP JUMP JUMPDEST PUSH1 0x0 PUSH1 0x20 DUP3 DUP5 SUB SLT ISZERO PUSH2 0x3A45 JUMPI PUSH2 0x3A44 PUSH2 0x3810 JUMP JUMPDEST JUMPDEST PUSH1 0x0 PUSH2 0x3A53 DUP5 DUP3 DUP6 ADD PUSH2 0x388F JUMP JUMPDEST SWAP2 POP POP SWAP3 SWAP2 POP POP JUMP JUMPDEST PUSH1 0x0 DUP1 REVERT JUMPDEST PUSH1 0x0 DUP1 REVERT JUMPDEST PUSH32 0x4E487B7100000000000000000000000000000000000000000000000000000000 PUSH1 0x0 MSTORE PUSH1 0x41 PUSH1 0x4 MSTORE PUSH1 0x24 PUSH1 0x0 REVERT JUMPDEST PUSH2 0x3A9E DUP3 PUSH2 0x379A JUMP JUMPDEST DUP2 ADD DUP2 DUP2 LT PUSH8 0xFFFFFFFFFFFFFFFF DUP3 GT OR ISZERO PUSH2 0x3ABD JUMPI PUSH2 0x3ABC PUSH2 0x3A66 JUMP JUMPDEST JUMPDEST DUP1 PUSH1 0x40 MSTORE POP POP POP JUMP JUMPDEST PUSH1 0x0 PUSH2 0x3AD0 PUSH2 0x3806 JUMP JUMPDEST SWAP1 POP PUSH2 0x3ADC DUP3 DUP3 PUSH2 0x3A95 JUMP JUMPDEST SWAP2 SWAP1 POP JUMP JUMPDEST PUSH1 0x0 PUSH8 0xFFFFFFFFFFFFFFFF DUP3 GT ISZERO PUSH2 0x3AFC JUMPI PUSH2 0x3AFB PUSH2 0x3A66 JUMP JUMPDEST JUMPDEST PUSH2 0x3B05 DUP3 PUSH2 0x379A JUMP JUMPDEST SWAP1 POP PUSH1 0x20 DUP2 ADD SWAP1 POP SWAP2 SWAP1 POP JUMP JUMPDEST DUP3 DUP2 DUP4 CALLDATACOPY PUSH1 0x0 DUP4 DUP4 ADD MSTORE POP POP POP JUMP JUMPDEST PUSH1 0x0 PUSH2 0x3B34 PUSH2 0x3B2F DUP5 PUSH2 0x3AE1 JUMP JUMPDEST PUSH2 0x3AC6 JUMP JUMPDEST SWAP1 POP DUP3 DUP2 MSTORE PUSH1 0x20 DUP2 ADD DUP5 DUP5 DUP5 ADD GT ISZERO PUSH2 0x3B50 JUMPI PUSH2 0x3B4F PUSH2 0x3A61 JUMP JUMPDEST JUMPDEST PUSH2 0x3B5B DUP5 DUP3 DUP6 PUSH2 0x3B12 JUMP JUMPDEST POP SWAP4 SWAP3 POP POP POP JUMP JUMPDEST PUSH1 0x0 DUP3 PUSH1 0x1F DUP4 ADD SLT PUSH2 0x3B78 JUMPI PUSH2 0x3B77 PUSH2 0x3A5C JUMP JUMPDEST JUMPDEST DUP2 CALLDATALOAD PUSH2 0x3B88 DUP5 DUP3 PUSH1 0x20 DUP7 ADD PUSH2 0x3B21 JUMP JUMPDEST SWAP2 POP POP SWAP3 SWAP2 POP POP JUMP JUMPDEST PUSH1 0x0 DUP1 PUSH1 0x40 DUP4 DUP6 SUB SLT ISZERO PUSH2 0x3BA8 JUMPI PUSH2 0x3BA7 PUSH2 0x3810 JUMP JUMPDEST JUMPDEST PUSH1 0x0 PUSH2 0x3BB6 DUP6 DUP3 DUP7 ADD PUSH2 0x3863 JUMP JUMPDEST SWAP3 POP POP PUSH1 0x20 DUP4 ADD CALLDATALOAD PUSH8 0xFFFFFFFFFFFFFFFF DUP2 GT ISZERO PUSH2 0x3BD7 JUMPI PUSH2 0x3BD6 PUSH2 0x3815 JUMP JUMPDEST JUMPDEST PUSH2 0x3BE3 DUP6 DUP3 DUP7 ADD PUSH2 0x3B63 JUMP JUMPDEST SWAP2 POP POP SWAP3 POP SWAP3 SWAP1 POP JUMP JUMPDEST PUSH1 0x0 PUSH2 0x3BF8 DUP3 PUSH2 0x381A JUMP JUMPDEST SWAP1 POP SWAP2 SWAP1 POP JUMP JUMPDEST PUSH2 0x3C08 DUP2 PUSH2 0x3BED JUMP JUMPDEST DUP2 EQ PUSH2 0x3C13 JUMPI PUSH1 0x0 DUP1 REVERT JUMPDEST POP JUMP JUMPDEST PUSH1 0x0 DUP2 CALLDATALOAD SWAP1 POP PUSH2 0x3C25 DUP2 PUSH2 0x3BFF JUMP JUMPDEST SWAP3 SWAP2 POP POP JUMP JUMPDEST PUSH1 0x0 PUSH1 0x20 DUP3 DUP5 SUB SLT ISZERO PUSH2 0x3C41 JUMPI PUSH2 0x3C40 PUSH2 0x3810 JUMP JUMPDEST JUMPDEST PUSH1 0x0 PUSH2 0x3C4F DUP5 DUP3 DUP6 ADD PUSH2 0x3C16 JUMP JUMPDEST SWAP2 POP POP SWAP3 SWAP2 POP POP JUMP JUMPDEST PUSH2 0x3C61 DUP2 PUSH2 0x396D JUMP JUMPDEST DUP2 EQ PUSH2 0x3C6C JUMPI PUSH1 0x0 DUP1 REVERT JUMPDEST POP JUMP JUMPDEST PUSH1 0x0 DUP2 CALLDATALOAD SWAP1 POP PUSH2 0x3C7E DUP2 PUSH2 0x3C58 JUMP JUMPDEST SWAP3 SWAP2 POP POP JUMP JUMPDEST PUSH2 0x3C8D DUP2 PUSH2 0x39CE JUMP JUMPDEST DUP2 EQ PUSH2 0x3C98 JUMPI PUSH1 0x0 DUP1 REVERT JUMPDEST POP JUMP JUMPDEST PUSH1 0x0 DUP2 CALLDATALOAD SWAP1 POP PUSH2 0x3CAA DUP2 PUSH2 0x3C84 JUMP JUMPDEST SWAP3 SWAP2 POP POP JUMP JUMPDEST PUSH1 0x0 DUP1 PUSH1 0x0 DUP1 PUSH1 0x0 DUP1 PUSH1 0x0 PUSH1 0xE0 DUP9 DUP11 SUB SLT ISZERO PUSH2 0x3CCF JUMPI PUSH2 0x3CCE PUSH2 0x3810 JUMP JUMPDEST JUMPDEST PUSH1 0x0 PUSH2 0x3CDD DUP11 DUP3 DUP12 ADD PUSH2 0x3863 JUMP JUMPDEST SWAP8 POP POP PUSH1 0x20 PUSH2 0x3CEE DUP11 DUP3 DUP12 ADD PUSH2 0x3863 JUMP JUMPDEST SWAP7 POP POP PUSH1 0x40 PUSH2 0x3CFF DUP11 DUP3 DUP12 ADD PUSH2 0x388F JUMP JUMPDEST SWAP6 POP POP PUSH1 0x60 PUSH2 0x3D10 DUP11 DUP3 DUP12 ADD PUSH2 0x388F JUMP JUMPDEST SWAP5 POP POP PUSH1 0x80 PUSH2 0x3D21 DUP11 DUP3 DUP12 ADD PUSH2 0x3C6F JUMP JUMPDEST SWAP4 POP POP PUSH1 0xA0 PUSH2 0x3D32 DUP11 DUP3 DUP12 ADD PUSH2 0x3C9B JUMP JUMPDEST SWAP3 POP POP PUSH1 0xC0 PUSH2 0x3D43 DUP11 DUP3 DUP12 ADD PUSH2 0x3C9B JUMP JUMPDEST SWAP2 POP POP SWAP3 SWAP6 SWAP9 SWAP2 SWAP5 SWAP8 POP SWAP3 SWAP6 POP JUMP JUMPDEST PUSH1 0x0 DUP1 PUSH1 0x40 DUP4 DUP6 SUB SLT ISZERO PUSH2 0x3D69 JUMPI PUSH2 0x3D68 PUSH2 0x3810 JUMP JUMPDEST JUMPDEST PUSH1 0x0 PUSH2 0x3D77 DUP6 DUP3 DUP7 ADD PUSH2 0x3863 JUMP JUMPDEST SWAP3 POP POP PUSH1 0x20 PUSH2 0x3D88 DUP6 DUP3 DUP7 ADD PUSH2 0x3863 JUMP JUMPDEST SWAP2 POP POP SWAP3 POP SWAP3 SWAP1 POP JUMP JUMPDEST PUSH32 0x4E487B7100000000000000000000000000000000000000000000000000000000 PUSH1 0x0 MSTORE PUSH1 0x22 PUSH1 0x4 MSTORE PUSH1 0x24 PUSH1 0x0 REVERT JUMPDEST PUSH1 0x0 PUSH1 0x2 DUP3 DIV SWAP1 POP PUSH1 0x1 DUP3 AND DUP1 PUSH2 0x3DD9 JUMPI PUSH1 0x7F DUP3 AND SWAP2 POP JUMPDEST PUSH1 0x20 DUP3 LT DUP2 EQ ISZERO PUSH2 0x3DED JUMPI PUSH2 0x3DEC PUSH2 0x3D92 JUMP JUMPDEST JUMPDEST POP SWAP2 SWAP1 POP JUMP JUMPDEST PUSH32 0x555345525F4E4F545F5645524946494544000000000000000000000000000000 PUSH1 0x0 DUP3 ADD MSTORE POP JUMP JUMPDEST PUSH1 0x0 PUSH2 0x3E29 PUSH1 0x11 DUP4 PUSH2 0x3756 JUMP JUMPDEST SWAP2 POP PUSH2 0x3E34 DUP3 PUSH2 0x3DF3 JUMP JUMPDEST PUSH1 0x20 DUP3 ADD SWAP1 POP SWAP2 SWAP1 POP JUMP JUMPDEST PUSH1 0x0 PUSH1 0x20 DUP3 ADD SWAP1 POP DUP2 DUP2 SUB PUSH1 0x0 DUP4 ADD MSTORE PUSH2 0x3E58 DUP2 PUSH2 0x3E1C JUMP JUMPDEST SWAP1 POP SWAP2 SWAP1 POP JUMP JUMPDEST PUSH32 0x4E487B7100000000000000000000000000000000000000000000000000000000 PUSH1 0x0 MSTORE PUSH1 0x11 PUSH1 0x4 MSTORE PUSH1 0x24 PUSH1 0x0 REVERT JUMPDEST PUSH1 0x0 DUP2 PUSH1 0x1 SHR SWAP1 POP SWAP2 SWAP1 POP JUMP JUMPDEST PUSH1 0x0 DUP1 DUP3 SWAP2 POP DUP4 SWAP1 POP JUMPDEST PUSH1 0x1 DUP6 GT ISZERO PUSH2 0x3EE5 JUMPI DUP1 DUP7 DIV DUP2 GT ISZERO PUSH2 0x3EC1 JUMPI PUSH2 0x3EC0 PUSH2 0x3E5F JUMP JUMPDEST JUMPDEST PUSH1 0x1 DUP6 AND ISZERO PUSH2 0x3ED0 JUMPI DUP1 DUP3 MUL SWAP2 POP JUMPDEST DUP1 DUP2 MUL SWAP1 POP PUSH2 0x3EDE DUP6 PUSH2 0x3E8E JUMP JUMPDEST SWAP5 POP PUSH2 0x3EA5 JUMP JUMPDEST SWAP5 POP SWAP5 SWAP3 POP POP POP JUMP JUMPDEST PUSH1 0x0 DUP3 PUSH2 0x3EFE JUMPI PUSH1 0x1 SWAP1 POP PUSH2 0x3FBA JUMP JUMPDEST DUP2 PUSH2 0x3F0C JUMPI PUSH1 0x0 SWAP1 POP PUSH2 0x3FBA JUMP JUMPDEST DUP2 PUSH1 0x1 DUP2 EQ PUSH2 0x3F22 JUMPI PUSH1 0x2 DUP2 EQ PUSH2 0x3F2C JUMPI PUSH2 0x3F5B JUMP JUMPDEST PUSH1 0x1 SWAP2 POP POP PUSH2 0x3FBA JUMP JUMPDEST PUSH1 0xFF DUP5 GT ISZERO PUSH2 0x3F3E JUMPI PUSH2 0x3F3D PUSH2 0x3E5F JUMP JUMPDEST JUMPDEST DUP4 PUSH1 0x2 EXP SWAP2 POP DUP5 DUP3 GT ISZERO PUSH2 0x3F55 JUMPI PUSH2 0x3F54 PUSH2 0x3E5F JUMP JUMPDEST JUMPDEST POP PUSH2 0x3FBA JUMP JUMPDEST POP PUSH1 0x20 DUP4 LT PUSH2 0x133 DUP4 LT AND PUSH1 0x4E DUP5 LT PUSH1 0xB DUP5 LT AND OR ISZERO PUSH2 0x3F90 JUMPI DUP3 DUP3 EXP SWAP1 POP DUP4 DUP2 GT ISZERO PUSH2 0x3F8B JUMPI PUSH2 0x3F8A PUSH2 0x3E5F JUMP JUMPDEST JUMPDEST PUSH2 0x3FBA JUMP JUMPDEST PUSH2 0x3F9D DUP5 DUP5 DUP5 PUSH1 0x1 PUSH2 0x3E9B JUMP JUMPDEST SWAP3 POP SWAP1 POP DUP2 DUP5 DIV DUP2 GT ISZERO PUSH2 0x3FB4 JUMPI PUSH2 0x3FB3 PUSH2 0x3E5F JUMP JUMPDEST JUMPDEST DUP2 DUP2 MUL SWAP1 POP JUMPDEST SWAP4 SWAP3 POP POP POP JUMP JUMPDEST PUSH1 0x0 PUSH2 0x3FCC DUP3 PUSH2 0x3717 JUMP JUMPDEST SWAP2 POP PUSH2 0x3FD7 DUP4 PUSH2 0x396D JUMP JUMPDEST SWAP3 POP PUSH2 0x4004 PUSH32 0xFFFFFFFFFFFFFFFFFFFFFFFFFFFFFFFFFFFFFFFFFFFFFFFFFFFFFFFFFFFFFFFF DUP5 DUP5 PUSH2 0x3EEE JUMP JUMPDEST SWAP1 POP SWAP3 SWAP2 POP POP JUMP JUMPDEST PUSH1 0x0 PUSH2 0x4017 DUP3 PUSH2 0x3717 JUMP JUMPDEST SWAP2 POP PUSH2 0x4022 DUP4 PUSH2 0x3717 JUMP JUMPDEST SWAP3 POP DUP2 PUSH32 0xFFFFFFFFFFFFFFFFFFFFFFFFFFFFFFFFFFFFFFFFFFFFFFFFFFFFFFFFFFFFFFFF DIV DUP4 GT DUP3 ISZERO ISZERO AND ISZERO PUSH2 0x405B JUMPI PUSH2 0x405A PUSH2 0x3E5F JUMP JUMPDEST JUMPDEST DUP3 DUP3 MUL SWAP1 POP SWAP3 SWAP2 POP POP JUMP JUMPDEST PUSH32 0x46756E6374696F6E206D7573742062652063616C6C6564207468726F75676820 PUSH1 0x0 DUP3 ADD MSTORE PUSH32 0x64656C656761746563616C6C0000000000000000000000000000000000000000 PUSH1 0x20 DUP3 ADD MSTORE POP JUMP JUMPDEST PUSH1 0x0 PUSH2 0x40C2 PUSH1 0x2C DUP4 PUSH2 0x3756 JUMP JUMPDEST SWAP2 POP PUSH2 0x40CD DUP3 PUSH2 0x4066 JUMP JUMPDEST PUSH1 0x40 DUP3 ADD SWAP1 POP SWAP2 SWAP1 POP JUMP JUMPDEST PUSH1 0x0 PUSH1 0x20 DUP3 ADD SWAP1 POP DUP2 DUP2 SUB PUSH1 0x0 DUP4 ADD MSTORE PUSH2 0x40F1 DUP2 PUSH2 0x40B5 JUMP JUMPDEST SWAP1 POP SWAP2 SWAP1 POP JUMP JUMPDEST PUSH32 0x46756E6374696F6E206D7573742062652063616C6C6564207468726F75676820 PUSH1 0x0 DUP3 ADD MSTORE PUSH32 0x6163746976652070726F78790000000000000000000000000000000000000000 PUSH1 0x20 DUP3 ADD MSTORE POP JUMP JUMPDEST PUSH1 0x0 PUSH2 0x4154 PUSH1 0x2C DUP4 PUSH2 0x3756 JUMP JUMPDEST SWAP2 POP PUSH2 0x415F DUP3 PUSH2 0x40F8 JUMP JUMPDEST PUSH1 0x40 DUP3 ADD SWAP1 POP SWAP2 SWAP1 POP JUMP JUMPDEST PUSH1 0x0 PUSH1 0x20 DUP3 ADD SWAP1 POP DUP2 DUP2 SUB PUSH1 0x0 DUP4 ADD MSTORE PUSH2 0x4183 DUP2 PUSH2 0x4147 JUMP JUMPDEST SWAP1 POP SWAP2 SWAP1 POP JUMP JUMPDEST PUSH32 0x555550535570677261646561626C653A206D757374206E6F742062652063616C PUSH1 0x0 DUP3 ADD MSTORE PUSH32 0x6C6564207468726F7567682064656C656761746563616C6C0000000000000000 PUSH1 0x20 DUP3 ADD MSTORE POP JUMP JUMPDEST PUSH1 0x0 PUSH2 0x41E6 PUSH1 0x38 DUP4 PUSH2 0x3756 JUMP JUMPDEST SWAP2 POP PUSH2 0x41F1 DUP3 PUSH2 0x418A JUMP JUMPDEST PUSH1 0x40 DUP3 ADD SWAP1 POP SWAP2 SWAP1 POP JUMP JUMPDEST PUSH1 0x0 PUSH1 0x20 DUP3 ADD SWAP1 POP DUP2 DUP2 SUB PUSH1 0x0 DUP4 ADD MSTORE PUSH2 0x4215 DUP2 PUSH2 0x41D9 JUMP JUMPDEST SWAP1 POP SWAP2 SWAP1 POP JUMP JUMPDEST PUSH32 0x496E697469616C697A61626C653A20636F6E747261637420697320616C726561 PUSH1 0x0 DUP3 ADD MSTORE PUSH32 0x647920696E697469616C697A6564000000000000000000000000000000000000 PUSH1 0x20 DUP3 ADD MSTORE POP JUMP JUMPDEST PUSH1 0x0 PUSH2 0x4278 PUSH1 0x2E DUP4 PUSH2 0x3756 JUMP JUMPDEST SWAP2 POP PUSH2 0x4283 DUP3 PUSH2 0x421C JUMP JUMPDEST PUSH1 0x40 DUP3 ADD SWAP1 POP SWAP2 SWAP1 POP JUMP JUMPDEST PUSH1 0x0 PUSH1 0x20 DUP3 ADD SWAP1 POP DUP2 DUP2 SUB PUSH1 0x0 DUP4 ADD MSTORE PUSH2 0x42A7 DUP2 PUSH2 0x426B JUMP JUMPDEST SWAP1 POP SWAP2 SWAP1 POP JUMP JUMPDEST PUSH1 0x0 DUP2 SWAP1 POP SWAP2 SWAP1 POP JUMP JUMPDEST PUSH1 0x0 DUP2 SWAP1 POP SWAP2 SWAP1 POP JUMP JUMPDEST PUSH1 0x0 PUSH2 0x42DD PUSH2 0x42D8 PUSH2 0x42D3 DUP5 PUSH2 0x42AE JUMP JUMPDEST PUSH2 0x42B8 JUMP JUMPDEST PUSH2 0x396D JUMP JUMPDEST SWAP1 POP SWAP2 SWAP1 POP JUMP JUMPDEST PUSH2 0x42ED DUP2 PUSH2 0x42C2 JUMP JUMPDEST DUP3 MSTORE POP POP JUMP JUMPDEST PUSH1 0x0 PUSH1 0x20 DUP3 ADD SWAP1 POP PUSH2 0x4308 PUSH1 0x0 DUP4 ADD DUP5 PUSH2 0x42E4 JUMP JUMPDEST SWAP3 SWAP2 POP POP JUMP JUMPDEST PUSH32 0x66726F6D3A205452414E534645525F52455155495245445F5645524946494341 PUSH1 0x0 DUP3 ADD MSTORE PUSH32 0x54494F4E5F490000000000000000000000000000000000000000000000000000 PUSH1 0x20 DUP3 ADD MSTORE POP JUMP JUMPDEST PUSH1 0x0 PUSH2 0x436A PUSH1 0x26 DUP4 PUSH2 0x3756 JUMP JUMPDEST SWAP2 POP PUSH2 0x4375 DUP3 PUSH2 0x430E JUMP JUMPDEST PUSH1 0x40 DUP3 ADD SWAP1 POP SWAP2 SWAP1 POP JUMP JUMPDEST PUSH1 0x0 PUSH1 0x20 DUP3 ADD SWAP1 POP DUP2 DUP2 SUB PUSH1 0x0 DUP4 ADD MSTORE PUSH2 0x4399 DUP2 PUSH2 0x435D JUMP JUMPDEST SWAP1 POP SWAP2 SWAP1 POP JUMP JUMPDEST PUSH32 0x746F203A205452414E534645525F52455155495245445F564552494649434154 PUSH1 0x0 DUP3 ADD MSTORE PUSH32 0x494F4E5F49000000000000000000000000000000000000000000000000000000 PUSH1 0x20 DUP3 ADD MSTORE POP JUMP JUMPDEST PUSH1 0x0 PUSH2 0x43FC PUSH1 0x25 DUP4 PUSH2 0x3756 JUMP JUMPDEST SWAP2 POP PUSH2 0x4407 DUP3 PUSH2 0x43A0 JUMP JUMPDEST PUSH1 0x40 DUP3 ADD SWAP1 POP SWAP2 SWAP1 POP JUMP JUMPDEST PUSH1 0x0 PUSH1 0x20 DUP3 ADD SWAP1 POP DUP2 DUP2 SUB PUSH1 0x0 DUP4 ADD MSTORE PUSH2 0x442B DUP2 PUSH2 0x43EF JUMP JUMPDEST SWAP1 POP SWAP2 SWAP1 POP JUMP JUMPDEST PUSH32 0x66726F6D3A205452414E534645525F52455155495245445F4D554C54495F5349 PUSH1 0x0 DUP3 ADD MSTORE PUSH32 0x474E415455524500000000000000000000000000000000000000000000000000 PUSH1 0x20 DUP3 ADD MSTORE POP JUMP JUMPDEST PUSH1 0x0 PUSH2 0x448E PUSH1 0x27 DUP4 PUSH2 0x3756 JUMP JUMPDEST SWAP2 POP PUSH2 0x4499 DUP3 PUSH2 0x4432 JUMP JUMPDEST PUSH1 0x40 DUP3 ADD SWAP1 POP SWAP2 SWAP1 POP JUMP JUMPDEST PUSH1 0x0 PUSH1 0x20 DUP3 ADD SWAP1 POP DUP2 DUP2 SUB PUSH1 0x0 DUP4 ADD MSTORE PUSH2 0x44BD DUP2 PUSH2 0x4481 JUMP JUMPDEST SWAP1 POP SWAP2 SWAP1 POP JUMP JUMPDEST PUSH32 0x746F3A205452414E534645525F52455155495245445F4D554C54495F5349474E PUSH1 0x0 DUP3 ADD MSTORE PUSH32 0x4154555245000000000000000000000000000000000000000000000000000000 PUSH1 0x20 DUP3 ADD MSTORE POP JUMP JUMPDEST PUSH1 0x0 PUSH2 0x4520 PUSH1 0x25 DUP4 PUSH2 0x3756 JUMP JUMPDEST SWAP2 POP PUSH2 0x452B DUP3 PUSH2 0x44C4 JUMP JUMPDEST PUSH1 0x40 DUP3 ADD SWAP1 POP SWAP2 SWAP1 POP JUMP JUMPDEST PUSH1 0x0 PUSH1 0x20 DUP3 ADD SWAP1 POP DUP2 DUP2 SUB PUSH1 0x0 DUP4 ADD MSTORE PUSH2 0x454F DUP2 PUSH2 0x4513 JUMP JUMPDEST SWAP1 POP SWAP2 SWAP1 POP JUMP JUMPDEST PUSH32 0x45524332305065726D69743A206578706972656420646561646C696E65000000 PUSH1 0x0 DUP3 ADD MSTORE POP JUMP JUMPDEST PUSH1 0x0 PUSH2 0x458C PUSH1 0x1D DUP4 PUSH2 0x3756 JUMP JUMPDEST SWAP2 POP PUSH2 0x4597 DUP3 PUSH2 0x4556 JUMP JUMPDEST PUSH1 0x20 DUP3 ADD SWAP1 POP SWAP2 SWAP1 POP JUMP JUMPDEST PUSH1 0x0 PUSH1 0x20 DUP3 ADD SWAP1 POP DUP2 DUP2 SUB PUSH1 0x0 DUP4 ADD MSTORE PUSH2 0x45BB DUP2 PUSH2 0x457F JUMP JUMPDEST SWAP1 POP SWAP2 SWAP1 POP JUMP JUMPDEST PUSH1 0x0 PUSH1 0xC0 DUP3 ADD SWAP1 POP PUSH2 0x45D7 PUSH1 0x0 DUP4 ADD DUP10 PUSH2 0x39D8 JUMP JUMPDEST PUSH2 0x45E4 PUSH1 0x20 DUP4 ADD DUP9 PUSH2 0x39A4 JUMP JUMPDEST PUSH2 0x45F1 PUSH1 0x40 DUP4 ADD DUP8 PUSH2 0x39A4 JUMP JUMPDEST PUSH2 0x45FE PUSH1 0x60 DUP4 ADD DUP7 PUSH2 0x3721 JUMP JUMPDEST PUSH2 0x460B PUSH1 0x80 DUP4 ADD DUP6 PUSH2 0x3721 JUMP JUMPDEST PUSH2 0x4618 PUSH1 0xA0 DUP4 ADD DUP5 PUSH2 0x3721 JUMP JUMPDEST SWAP8 SWAP7 POP POP POP POP POP POP POP JUMP JUMPDEST PUSH32 0x45524332305065726D69743A20696E76616C6964207369676E61747572650000 PUSH1 0x0 DUP3 ADD MSTORE POP JUMP JUMPDEST PUSH1 0x0 PUSH2 0x4659 PUSH1 0x1E DUP4 PUSH2 0x3756 JUMP JUMPDEST SWAP2 POP PUSH2 0x4664 DUP3 PUSH2 0x4623 JUMP JUMPDEST PUSH1 0x20 DUP3 ADD SWAP1 POP SWAP2 SWAP1 POP JUMP JUMPDEST PUSH1 0x0 PUSH1 0x20 DUP3 ADD SWAP1 POP DUP2 DUP2 SUB PUSH1 0x0 DUP4 ADD MSTORE PUSH2 0x4688 DUP2 PUSH2 0x464C JUMP JUMPDEST SWAP1 POP SWAP2 SWAP1 POP JUMP JUMPDEST PUSH32 0x4F776E61626C653A206E6577206F776E657220697320746865207A65726F2061 PUSH1 0x0 DUP3 ADD MSTORE PUSH32 0x6464726573730000000000000000000000000000000000000000000000000000 PUSH1 0x20 DUP3 ADD MSTORE POP JUMP JUMPDEST PUSH1 0x0 PUSH2 0x46EB PUSH1 0x26 DUP4 PUSH2 0x3756 JUMP JUMPDEST SWAP2 POP PUSH2 0x46F6 DUP3 PUSH2 0x468F JUMP JUMPDEST PUSH1 0x40 DUP3 ADD SWAP1 POP SWAP2 SWAP1 POP JUMP JUMPDEST PUSH1 0x0 PUSH1 0x20 DUP3 ADD SWAP1 POP DUP2 DUP2 SUB PUSH1 0x0 DUP4 ADD MSTORE PUSH2 0x471A DUP2 PUSH2 0x46DE JUMP JUMPDEST SWAP1 POP SWAP2 SWAP1 POP JUMP JUMPDEST PUSH32 0x5061757361626C653A2070617573656400000000000000000000000000000000 PUSH1 0x0 DUP3 ADD MSTORE POP JUMP JUMPDEST PUSH1 0x0 PUSH2 0x4757 PUSH1 0x10 DUP4 PUSH2 0x3756 JUMP JUMPDEST SWAP2 POP PUSH2 0x4762 DUP3 PUSH2 0x4721 JUMP JUMPDEST PUSH1 0x20 DUP3 ADD SWAP1 POP SWAP2 SWAP1 POP JUMP JUMPDEST PUSH1 0x0 PUSH1 0x20 DUP3 ADD SWAP1 POP DUP2 DUP2 SUB PUSH1 0x0 DUP4 ADD MSTORE PUSH2 0x4786 DUP2 PUSH2 0x474A JUMP JUMPDEST SWAP1 POP SWAP2 SWAP1 POP JUMP JUMPDEST PUSH32 0x4F776E61626C653A2063616C6C6572206973206E6F7420746865206F776E6572 PUSH1 0x0 DUP3 ADD MSTORE POP JUMP JUMPDEST PUSH1 0x0 PUSH2 0x47C3 PUSH1 0x20 DUP4 PUSH2 0x3756 JUMP JUMPDEST SWAP2 POP PUSH2 0x47CE DUP3 PUSH2 0x478D JUMP JUMPDEST PUSH1 0x20 DUP3 ADD SWAP1 POP SWAP2 SWAP1 POP JUMP JUMPDEST PUSH1 0x0 PUSH1 0x20 DUP3 ADD SWAP1 POP DUP2 DUP2 SUB PUSH1 0x0 DUP4 ADD MSTORE PUSH2 0x47F2 DUP2 PUSH2 0x47B6 JUMP JUMPDEST SWAP1 POP SWAP2 SWAP1 POP JUMP JUMPDEST PUSH2 0x4802 DUP2 PUSH2 0x38E4 JUMP JUMPDEST DUP2 EQ PUSH2 0x480D JUMPI PUSH1 0x0 DUP1 REVERT JUMPDEST POP JUMP JUMPDEST PUSH1 0x0 DUP2 MLOAD SWAP1 POP PUSH2 0x481F DUP2 PUSH2 0x47F9 JUMP JUMPDEST SWAP3 SWAP2 POP POP JUMP JUMPDEST PUSH1 0x0 PUSH1 0x20 DUP3 DUP5 SUB SLT ISZERO PUSH2 0x483B JUMPI PUSH2 0x483A PUSH2 0x3810 JUMP JUMPDEST JUMPDEST PUSH1 0x0 PUSH2 0x4849 DUP5 DUP3 DUP6 ADD PUSH2 0x4810 JUMP JUMPDEST SWAP2 POP POP SWAP3 SWAP2 POP POP JUMP JUMPDEST PUSH1 0x0 DUP2 MLOAD SWAP1 POP PUSH2 0x4861 DUP2 PUSH2 0x3C84 JUMP JUMPDEST SWAP3 SWAP2 POP POP JUMP JUMPDEST PUSH1 0x0 PUSH1 0x20 DUP3 DUP5 SUB SLT ISZERO PUSH2 0x487D JUMPI PUSH2 0x487C PUSH2 0x3810 JUMP JUMPDEST JUMPDEST PUSH1 0x0 PUSH2 0x488B DUP5 DUP3 DUP6 ADD PUSH2 0x4852 JUMP JUMPDEST SWAP2 POP POP SWAP3 SWAP2 POP POP JUMP JUMPDEST PUSH32 0x45524331393637557067726164653A206E657720696D706C656D656E74617469 PUSH1 0x0 DUP3 ADD MSTORE PUSH32 0x6F6E206973206E6F742055555053000000000000000000000000000000000000 PUSH1 0x20 DUP3 ADD MSTORE POP JUMP JUMPDEST PUSH1 0x0 PUSH2 0x48F0 PUSH1 0x2E DUP4 PUSH2 0x3756 JUMP JUMPDEST SWAP2 POP PUSH2 0x48FB DUP3 PUSH2 0x4894 JUMP JUMPDEST PUSH1 0x40 DUP3 ADD SWAP1 POP SWAP2 SWAP1 POP JUMP JUMPDEST PUSH1 0x0 PUSH1 0x20 DUP3 ADD SWAP1 POP DUP2 DUP2 SUB PUSH1 0x0 DUP4 ADD MSTORE PUSH2 0x491F DUP2 PUSH2 0x48E3 JUMP JUMPDEST SWAP1 POP SWAP2 SWAP1 POP JUMP JUMPDEST PUSH32 0x45524331393637557067726164653A20756E737570706F727465642070726F78 PUSH1 0x0 DUP3 ADD MSTORE PUSH32 0x6961626C65555549440000000000000000000000000000000000000000000000 PUSH1 0x20 DUP3 ADD MSTORE POP JUMP JUMPDEST PUSH1 0x0 PUSH2 0x4982 PUSH1 0x29 DUP4 PUSH2 0x3756 JUMP JUMPDEST SWAP2 POP PUSH2 0x498D DUP3 PUSH2 0x4926 JUMP JUMPDEST PUSH1 0x40 DUP3 ADD SWAP1 POP SWAP2 SWAP1 POP JUMP JUMPDEST PUSH1 0x0 PUSH1 0x20 DUP3 ADD SWAP1 POP DUP2 DUP2 SUB PUSH1 0x0 DUP4 ADD MSTORE PUSH2 0x49B1 DUP2 PUSH2 0x4975 JUMP JUMPDEST SWAP1 POP SWAP2 SWAP1 POP JUMP JUMPDEST PUSH1 0x0 PUSH2 0x49C3 DUP3 PUSH2 0x3717 JUMP JUMPDEST SWAP2 POP PUSH2 0x49CE DUP4 PUSH2 0x3717 JUMP JUMPDEST SWAP3 POP DUP3 PUSH32 0xFFFFFFFFFFFFFFFFFFFFFFFFFFFFFFFFFFFFFFFFFFFFFFFFFFFFFFFFFFFFFFFF SUB DUP3 GT ISZERO PUSH2 0x4A03 JUMPI PUSH2 0x4A02 PUSH2 0x3E5F JUMP JUMPDEST JUMPDEST DUP3 DUP3 ADD SWAP1 POP SWAP3 SWAP2 POP POP JUMP JUMPDEST PUSH32 0x45524332303A206D696E7420746F20746865207A65726F206164647265737300 PUSH1 0x0 DUP3 ADD MSTORE POP JUMP JUMPDEST PUSH1 0x0 PUSH2 0x4A44 PUSH1 0x1F DUP4 PUSH2 0x3756 JUMP JUMPDEST SWAP2 POP PUSH2 0x4A4F DUP3 PUSH2 0x4A0E JUMP JUMPDEST PUSH1 0x20 DUP3 ADD SWAP1 POP SWAP2 SWAP1 POP JUMP JUMPDEST PUSH1 0x0 PUSH1 0x20 DUP3 ADD SWAP1 POP DUP2 DUP2 SUB PUSH1 0x0 DUP4 ADD MSTORE PUSH2 0x4A73 DUP2 PUSH2 0x4A37 JUMP JUMPDEST SWAP1 POP SWAP2 SWAP1 POP JUMP JUMPDEST PUSH32 0x4552433230536E617073686F743A206964206973203000000000000000000000 PUSH1 0x0 DUP3 ADD MSTORE POP JUMP JUMPDEST PUSH1 0x0 PUSH2 0x4AB0 PUSH1 0x16 DUP4 PUSH2 0x3756 JUMP JUMPDEST SWAP2 POP PUSH2 0x4ABB DUP3 PUSH2 0x4A7A JUMP JUMPDEST PUSH1 0x20 DUP3 ADD SWAP1 POP SWAP2 SWAP1 POP JUMP JUMPDEST PUSH1 0x0 PUSH1 0x20 DUP3 ADD SWAP1 POP DUP2 DUP2 SUB PUSH1 0x0 DUP4 ADD MSTORE PUSH2 0x4ADF DUP2 PUSH2 0x4AA3 JUMP JUMPDEST SWAP1 POP SWAP2 SWAP1 POP JUMP JUMPDEST PUSH32 0x4552433230536E617073686F743A206E6F6E6578697374656E74206964000000 PUSH1 0x0 DUP3 ADD MSTORE POP JUMP JUMPDEST PUSH1 0x0 PUSH2 0x4B1C PUSH1 0x1D DUP4 PUSH2 0x3756 JUMP JUMPDEST SWAP2 POP PUSH2 0x4B27 DUP3 PUSH2 0x4AE6 JUMP JUMPDEST PUSH1 0x20 DUP3 ADD SWAP1 POP SWAP2 SWAP1 POP JUMP JUMPDEST PUSH1 0x0 PUSH1 0x20 DUP3 ADD SWAP1 POP DUP2 DUP2 SUB PUSH1 0x0 DUP4 ADD MSTORE PUSH2 0x4B4B DUP2 PUSH2 0x4B0F JUMP JUMPDEST SWAP1 POP SWAP2 SWAP1 POP JUMP JUMPDEST PUSH32 0x4E487B7100000000000000000000000000000000000000000000000000000000 PUSH1 0x0 MSTORE PUSH1 0x32 PUSH1 0x4 MSTORE PUSH1 0x24 PUSH1 0x0 REVERT JUMPDEST PUSH32 0x496E697469616C697A61626C653A20636F6E7472616374206973206E6F742069 PUSH1 0x0 DUP3 ADD MSTORE PUSH32 0x6E697469616C697A696E67000000000000000000000000000000000000000000 PUSH1 0x20 DUP3 ADD MSTORE POP JUMP JUMPDEST PUSH1 0x0 PUSH2 0x4BDD PUSH1 0x2B DUP4 PUSH2 0x3756 JUMP JUMPDEST SWAP2 POP PUSH2 0x4BE8 DUP3 PUSH2 0x4B81 JUMP JUMPDEST PUSH1 0x40 DUP3 ADD SWAP1 POP SWAP2 SWAP1 POP JUMP JUMPDEST PUSH1 0x0 PUSH1 0x20 DUP3 ADD SWAP1 POP DUP2 DUP2 SUB PUSH1 0x0 DUP4 ADD MSTORE PUSH2 0x4C0C DUP2 PUSH2 0x4BD0 JUMP JUMPDEST SWAP1 POP SWAP2 SWAP1 POP JUMP JUMPDEST PUSH32 0x45524332303A2064656372656173656420616C6C6F77616E63652062656C6F77 PUSH1 0x0 DUP3 ADD MSTORE PUSH32 0x207A65726F000000000000000000000000000000000000000000000000000000 PUSH1 0x20 DUP3 ADD MSTORE POP JUMP JUMPDEST PUSH1 0x0 PUSH2 0x4C6F PUSH1 0x25 DUP4 PUSH2 0x3756 JUMP JUMPDEST SWAP2 POP PUSH2 0x4C7A DUP3 PUSH2 0x4C13 JUMP JUMPDEST PUSH1 0x40 DUP3 ADD SWAP1 POP SWAP2 SWAP1 POP JUMP JUMPDEST PUSH1 0x0 PUSH1 0x20 DUP3 ADD SWAP1 POP DUP2 DUP2 SUB PUSH1 0x0 DUP4 ADD MSTORE PUSH2 0x4C9E DUP2 PUSH2 0x4C62 JUMP JUMPDEST SWAP1 POP SWAP2 SWAP1 POP JUMP JUMPDEST PUSH32 0x45524332303A20617070726F76652066726F6D20746865207A65726F20616464 PUSH1 0x0 DUP3 ADD MSTORE PUSH32 0x7265737300000000000000000000000000000000000000000000000000000000 PUSH1 0x20 DUP3 ADD MSTORE POP JUMP JUMPDEST PUSH1 0x0 PUSH2 0x4D01 PUSH1 0x24 DUP4 PUSH2 0x3756 JUMP JUMPDEST SWAP2 POP PUSH2 0x4D0C DUP3 PUSH2 0x4CA5 JUMP JUMPDEST PUSH1 0x40 DUP3 ADD SWAP1 POP SWAP2 SWAP1 POP JUMP JUMPDEST PUSH1 0x0 PUSH1 0x20 DUP3 ADD SWAP1 POP DUP2 DUP2 SUB PUSH1 0x0 DUP4 ADD MSTORE PUSH2 0x4D30 DUP2 PUSH2 0x4CF4 JUMP JUMPDEST SWAP1 POP SWAP2 SWAP1 POP JUMP JUMPDEST PUSH32 0x45524332303A20617070726F766520746F20746865207A65726F206164647265 PUSH1 0x0 DUP3 ADD MSTORE PUSH32 0x7373000000000000000000000000000000000000000000000000000000000000 PUSH1 0x20 DUP3 ADD MSTORE POP JUMP JUMPDEST PUSH1 0x0 PUSH2 0x4D93 PUSH1 0x22 DUP4 PUSH2 0x3756 JUMP JUMPDEST SWAP2 POP PUSH2 0x4D9E DUP3 PUSH2 0x4D37 JUMP JUMPDEST PUSH1 0x40 DUP3 ADD SWAP1 POP SWAP2 SWAP1 POP JUMP JUMPDEST PUSH1 0x0 PUSH1 0x20 DUP3 ADD SWAP1 POP DUP2 DUP2 SUB PUSH1 0x0 DUP4 ADD MSTORE PUSH2 0x4DC2 DUP2 PUSH2 0x4D86 JUMP JUMPDEST SWAP1 POP SWAP2 SWAP1 POP JUMP JUMPDEST PUSH32 0x45524332303A20696E73756666696369656E7420616C6C6F77616E6365000000 PUSH1 0x0 DUP3 ADD MSTORE POP JUMP JUMPDEST PUSH1 0x0 PUSH2 0x4DFF PUSH1 0x1D DUP4 PUSH2 0x3756 JUMP JUMPDEST SWAP2 POP PUSH2 0x4E0A DUP3 PUSH2 0x4DC9 JUMP JUMPDEST PUSH1 0x20 DUP3 ADD SWAP1 POP SWAP2 SWAP1 POP JUMP JUMPDEST PUSH1 0x0 PUSH1 0x20 DUP3 ADD SWAP1 POP DUP2 DUP2 SUB PUSH1 0x0 DUP4 ADD MSTORE PUSH2 0x4E2E DUP2 PUSH2 0x4DF2 JUMP JUMPDEST SWAP1 POP SWAP2 SWAP1 POP JUMP JUMPDEST PUSH32 0x45524332303A207472616E736665722066726F6D20746865207A65726F206164 PUSH1 0x0 DUP3 ADD MSTORE PUSH32 0x6472657373000000000000000000000000000000000000000000000000000000 PUSH1 0x20 DUP3 ADD MSTORE POP JUMP JUMPDEST PUSH1 0x0 PUSH2 0x4E91 PUSH1 0x25 DUP4 PUSH2 0x3756 JUMP JUMPDEST SWAP2 POP PUSH2 0x4E9C DUP3 PUSH2 0x4E35 JUMP JUMPDEST PUSH1 0x40 DUP3 ADD SWAP1 POP SWAP2 SWAP1 POP JUMP JUMPDEST PUSH1 0x0 PUSH1 0x20 DUP3 ADD SWAP1 POP DUP2 DUP2 SUB PUSH1 0x0 DUP4 ADD MSTORE PUSH2 0x4EC0 DUP2 PUSH2 0x4E84 JUMP JUMPDEST SWAP1 POP SWAP2 SWAP1 POP JUMP JUMPDEST PUSH32 0x45524332303A207472616E7366657220746F20746865207A65726F2061646472 PUSH1 0x0 DUP3 ADD MSTORE PUSH32 0x6573730000000000000000000000000000000000000000000000000000000000 PUSH1 0x20 DUP3 ADD MSTORE POP JUMP JUMPDEST PUSH1 0x0 PUSH2 0x4F23 PUSH1 0x23 DUP4 PUSH2 0x3756 JUMP JUMPDEST SWAP2 POP PUSH2 0x4F2E DUP3 PUSH2 0x4EC7 JUMP JUMPDEST PUSH1 0x40 DUP3 ADD SWAP1 POP SWAP2 SWAP1 POP JUMP JUMPDEST PUSH1 0x0 PUSH1 0x20 DUP3 ADD SWAP1 POP DUP2 DUP2 SUB PUSH1 0x0 DUP4 ADD MSTORE PUSH2 0x4F52 DUP2 PUSH2 0x4F16 JUMP JUMPDEST SWAP1 POP SWAP2 SWAP1 POP JUMP JUMPDEST PUSH32 0x45524332303A207472616E7366657220616D6F756E7420657863656564732062 PUSH1 0x0 DUP3 ADD MSTORE PUSH32 0x616C616E63650000000000000000000000000000000000000000000000000000 PUSH1 0x20 DUP3 ADD MSTORE POP JUMP JUMPDEST PUSH1 0x0 PUSH2 0x4FB5 PUSH1 0x26 DUP4 PUSH2 0x3756 JUMP JUMPDEST SWAP2 POP PUSH2 0x4FC0 DUP3 PUSH2 0x4F59 JUMP JUMPDEST PUSH1 0x40 DUP3 ADD SWAP1 POP SWAP2 SWAP1 POP JUMP JUMPDEST PUSH1 0x0 PUSH1 0x20 DUP3 ADD SWAP1 POP DUP2 DUP2 SUB PUSH1 0x0 DUP4 ADD MSTORE PUSH2 0x4FE4 DUP2 PUSH2 0x4FA8 JUMP JUMPDEST SWAP1 POP SWAP2 SWAP1 POP JUMP JUMPDEST PUSH1 0x0 PUSH1 0xA0 DUP3 ADD SWAP1 POP PUSH2 0x5000 PUSH1 0x0 DUP4 ADD DUP9 PUSH2 0x39D8 JUMP JUMPDEST PUSH2 0x500D PUSH1 0x20 DUP4 ADD DUP8 PUSH2 0x39D8 JUMP JUMPDEST PUSH2 0x501A PUSH1 0x40 DUP4 ADD DUP7 PUSH2 0x39D8 JUMP JUMPDEST PUSH2 0x5027 PUSH1 0x60 DUP4 ADD DUP6 PUSH2 0x3721 JUMP JUMPDEST PUSH2 0x5034 PUSH1 0x80 DUP4 ADD DUP5 PUSH2 0x39A4 JUMP JUMPDEST SWAP7 SWAP6 POP POP POP POP POP POP JUMP JUMPDEST PUSH32 0x455243313936373A206E657720696D706C656D656E746174696F6E206973206E PUSH1 0x0 DUP3 ADD MSTORE PUSH32 0x6F74206120636F6E747261637400000000000000000000000000000000000000 PUSH1 0x20 DUP3 ADD MSTORE POP JUMP JUMPDEST PUSH1 0x0 PUSH2 0x509A PUSH1 0x2D DUP4 PUSH2 0x3756 JUMP JUMPDEST SWAP2 POP PUSH2 0x50A5 DUP3 PUSH2 0x503E JUMP JUMPDEST PUSH1 0x40 DUP3 ADD SWAP1 POP SWAP2 SWAP1 POP JUMP JUMPDEST PUSH1 0x0 PUSH1 0x20 DUP3 ADD SWAP1 POP DUP2 DUP2 SUB PUSH1 0x0 DUP4 ADD MSTORE PUSH2 0x50C9 DUP2 PUSH2 0x508D JUMP JUMPDEST SWAP1 POP SWAP2 SWAP1 POP JUMP JUMPDEST PUSH32 0x5061757361626C653A206E6F7420706175736564000000000000000000000000 PUSH1 0x0 DUP3 ADD MSTORE POP JUMP JUMPDEST PUSH1 0x0 PUSH2 0x5106 PUSH1 0x14 DUP4 PUSH2 0x3756 JUMP JUMPDEST SWAP2 POP PUSH2 0x5111 DUP3 PUSH2 0x50D0 JUMP JUMPDEST PUSH1 0x20 DUP3 ADD SWAP1 POP SWAP2 SWAP1 POP JUMP JUMPDEST PUSH1 0x0 PUSH1 0x20 DUP3 ADD SWAP1 POP DUP2 DUP2 SUB PUSH1 0x0 DUP4 ADD MSTORE PUSH2 0x5135 DUP2 PUSH2 0x50F9 JUMP JUMPDEST SWAP1 POP SWAP2 SWAP1 POP JUMP JUMPDEST PUSH32 0x45524332303A206275726E2066726F6D20746865207A65726F20616464726573 PUSH1 0x0 DUP3 ADD MSTORE PUSH32 0x7300000000000000000000000000000000000000000000000000000000000000 PUSH1 0x20 DUP3 ADD MSTORE POP JUMP JUMPDEST PUSH1 0x0 PUSH2 0x5198 PUSH1 0x21 DUP4 PUSH2 0x3756 JUMP JUMPDEST SWAP2 POP PUSH2 0x51A3 DUP3 PUSH2 0x513C JUMP JUMPDEST PUSH1 0x40 DUP3 ADD SWAP1 POP SWAP2 SWAP1 POP JUMP JUMPDEST PUSH1 0x0 PUSH1 0x20 DUP3 ADD SWAP1 POP DUP2 DUP2 SUB PUSH1 0x0 DUP4 ADD MSTORE PUSH2 0x51C7 DUP2 PUSH2 0x518B JUMP JUMPDEST SWAP1 POP SWAP2 SWAP1 POP JUMP JUMPDEST PUSH32 0x45524332303A206275726E20616D6F756E7420657863656564732062616C616E PUSH1 0x0 DUP3 ADD MSTORE PUSH32 0x6365000000000000000000000000000000000000000000000000000000000000 PUSH1 0x20 DUP3 ADD MSTORE POP JUMP JUMPDEST PUSH1 0x0 PUSH2 0x522A PUSH1 0x22 DUP4 PUSH2 0x3756 JUMP JUMPDEST SWAP2 POP PUSH2 0x5235 DUP3 PUSH2 0x51CE JUMP JUMPDEST PUSH1 0x40 DUP3 ADD SWAP1 POP SWAP2 SWAP1 POP JUMP JUMPDEST PUSH1 0x0 PUSH1 0x20 DUP3 ADD SWAP1 POP DUP2 DUP2 SUB PUSH1 0x0 DUP4 ADD MSTORE PUSH2 0x5259 DUP2 PUSH2 0x521D JUMP JUMPDEST SWAP1 POP SWAP2 SWAP1 POP JUMP JUMPDEST PUSH1 0x0 PUSH2 0x526B DUP3 PUSH2 0x3717 JUMP JUMPDEST SWAP2 POP PUSH2 0x5276 DUP4 PUSH2 0x3717 JUMP JUMPDEST SWAP3 POP DUP3 DUP3 LT ISZERO PUSH2 0x5289 JUMPI PUSH2 0x5288 PUSH2 0x3E5F JUMP JUMPDEST JUMPDEST DUP3 DUP3 SUB SWAP1 POP SWAP3 SWAP2 POP POP JUMP JUMPDEST PUSH1 0x0 DUP2 SWAP1 POP SWAP3 SWAP2 POP POP JUMP JUMPDEST PUSH32 0x1901000000000000000000000000000000000000000000000000000000000000 PUSH1 0x0 DUP3 ADD MSTORE POP JUMP JUMPDEST PUSH1 0x0 PUSH2 0x52D5 PUSH1 0x2 DUP4 PUSH2 0x5294 JUMP JUMPDEST SWAP2 POP PUSH2 0x52E0 DUP3 PUSH2 0x529F JUMP JUMPDEST PUSH1 0x2 DUP3 ADD SWAP1 POP SWAP2 SWAP1 POP JUMP JUMPDEST PUSH1 0x0 DUP2 SWAP1 POP SWAP2 SWAP1 POP JUMP JUMPDEST PUSH2 0x5306 PUSH2 0x5301 DUP3 PUSH2 0x39CE JUMP JUMPDEST PUSH2 0x52EB JUMP JUMPDEST DUP3 MSTORE POP POP JUMP JUMPDEST PUSH1 0x0 PUSH2 0x5317 DUP3 PUSH2 0x52C8 JUMP JUMPDEST SWAP2 POP PUSH2 0x5323 DUP3 DUP6 PUSH2 0x52F5 JUMP JUMPDEST PUSH1 0x20 DUP3 ADD SWAP2 POP PUSH2 0x5333 DUP3 DUP5 PUSH2 0x52F5 JUMP JUMPDEST PUSH1 0x20 DUP3 ADD SWAP2 POP DUP2 SWAP1 POP SWAP4 SWAP3 POP POP POP JUMP JUMPDEST PUSH1 0x0 PUSH1 0x80 DUP3 ADD SWAP1 POP PUSH2 0x5358 PUSH1 0x0 DUP4 ADD DUP8 PUSH2 0x39D8 JUMP JUMPDEST PUSH2 0x5365 PUSH1 0x20 DUP4 ADD DUP7 PUSH2 0x397A JUMP JUMPDEST PUSH2 0x5372 PUSH1 0x40 DUP4 ADD DUP6 PUSH2 0x39D8 JUMP JUMPDEST PUSH2 0x537F PUSH1 0x60 DUP4 ADD DUP5 PUSH2 0x39D8 JUMP JUMPDEST SWAP6 SWAP5 POP POP POP POP POP JUMP JUMPDEST PUSH32 0x4E487B7100000000000000000000000000000000000000000000000000000000 PUSH1 0x0 MSTORE PUSH1 0x21 PUSH1 0x4 MSTORE PUSH1 0x24 PUSH1 0x0 REVERT JUMPDEST PUSH32 0x45434453413A20696E76616C6964207369676E61747572650000000000000000 PUSH1 0x0 DUP3 ADD MSTORE POP JUMP JUMPDEST PUSH1 0x0 PUSH2 0x53ED PUSH1 0x18 DUP4 PUSH2 0x3756 JUMP JUMPDEST SWAP2 POP PUSH2 0x53F8 DUP3 PUSH2 0x53B7 JUMP JUMPDEST PUSH1 0x20 DUP3 ADD SWAP1 POP SWAP2 SWAP1 POP JUMP JUMPDEST PUSH1 0x0 PUSH1 0x20 DUP3 ADD SWAP1 POP DUP2 DUP2 SUB PUSH1 0x0 DUP4 ADD MSTORE PUSH2 0x541C DUP2 PUSH2 0x53E0 JUMP JUMPDEST SWAP1 POP SWAP2 SWAP1 POP JUMP JUMPDEST PUSH32 0x45434453413A20696E76616C6964207369676E6174757265206C656E67746800 PUSH1 0x0 DUP3 ADD MSTORE POP JUMP JUMPDEST PUSH1 0x0 PUSH2 0x5459 PUSH1 0x1F DUP4 PUSH2 0x3756 JUMP JUMPDEST SWAP2 POP PUSH2 0x5464 DUP3 PUSH2 0x5423 JUMP JUMPDEST PUSH1 0x20 DUP3 ADD SWAP1 POP SWAP2 SWAP1 POP JUMP JUMPDEST PUSH1 0x0 PUSH1 0x20 DUP3 ADD SWAP1 POP DUP2 DUP2 SUB PUSH1 0x0 DUP4 ADD MSTORE PUSH2 0x5488 DUP2 PUSH2 0x544C JUMP JUMPDEST SWAP1 POP SWAP2 SWAP1 POP JUMP JUMPDEST PUSH32 0x45434453413A20696E76616C6964207369676E6174757265202773272076616C PUSH1 0x0 DUP3 ADD MSTORE PUSH32 0x7565000000000000000000000000000000000000000000000000000000000000 PUSH1 0x20 DUP3 ADD MSTORE POP JUMP JUMPDEST PUSH1 0x0 PUSH2 0x54EB PUSH1 0x22 DUP4 PUSH2 0x3756 JUMP JUMPDEST SWAP2 POP PUSH2 0x54F6 DUP3 PUSH2 0x548F JUMP JUMPDEST PUSH1 0x40 DUP3 ADD SWAP1 POP SWAP2 SWAP1 POP JUMP JUMPDEST PUSH1 0x0 PUSH1 0x20 DUP3 ADD SWAP1 POP DUP2 DUP2 SUB PUSH1 0x0 DUP4 ADD MSTORE PUSH2 0x551A DUP2 PUSH2 0x54DE JUMP JUMPDEST SWAP1 POP SWAP2 SWAP1 POP JUMP JUMPDEST PUSH32 0x416464726573733A2064656C65676174652063616C6C20746F206E6F6E2D636F PUSH1 0x0 DUP3 ADD MSTORE PUSH32 0x6E74726163740000000000000000000000000000000000000000000000000000 PUSH1 0x20 DUP3 ADD MSTORE POP JUMP JUMPDEST PUSH1 0x0 PUSH2 0x557D PUSH1 0x26 DUP4 PUSH2 0x3756 JUMP JUMPDEST SWAP2 POP PUSH2 0x5588 DUP3 PUSH2 0x5521 JUMP JUMPDEST PUSH1 0x40 DUP3 ADD SWAP1 POP SWAP2 SWAP1 POP JUMP JUMPDEST PUSH1 0x0 PUSH1 0x20 DUP3 ADD SWAP1 POP DUP2 DUP2 SUB PUSH1 0x0 DUP4 ADD MSTORE PUSH2 0x55AC DUP2 PUSH2 0x5570 JUMP JUMPDEST SWAP1 POP SWAP2 SWAP1 POP JUMP JUMPDEST PUSH1 0x0 DUP2 MLOAD SWAP1 POP SWAP2 SWAP1 POP JUMP JUMPDEST PUSH1 0x0 DUP2 SWAP1 POP SWAP3 SWAP2 POP POP JUMP JUMPDEST PUSH1 0x0 PUSH2 0x55D4 DUP3 PUSH2 0x55B3 JUMP JUMPDEST PUSH2 0x55DE DUP2 DUP6 PUSH2 0x55BE JUMP JUMPDEST SWAP4 POP PUSH2 0x55EE DUP2 DUP6 PUSH1 0x20 DUP7 ADD PUSH2 0x3767 JUMP JUMPDEST DUP1 DUP5 ADD SWAP2 POP POP SWAP3 SWAP2 POP POP JUMP JUMPDEST PUSH1 0x0 PUSH2 0x5606 DUP3 DUP5 PUSH2 0x55C9 JUMP JUMPDEST SWAP2 POP DUP2 SWAP1 POP SWAP3 SWAP2 POP POP JUMP JUMPDEST PUSH32 0x4E487B7100000000000000000000000000000000000000000000000000000000 PUSH1 0x0 MSTORE PUSH1 0x12 PUSH1 0x4 MSTORE PUSH1 0x24 PUSH1 0x0 REVERT JUMPDEST PUSH1 0x0 PUSH2 0x564B DUP3 PUSH2 0x3717 JUMP JUMPDEST SWAP2 POP PUSH2 0x5656 DUP4 PUSH2 0x3717 JUMP JUMPDEST SWAP3 POP DUP3 PUSH2 0x5666 JUMPI PUSH2 0x5665 PUSH2 0x5611 JUMP JUMPDEST JUMPDEST DUP3 DUP3 DIV SWAP1 POP SWAP3 SWAP2 POP POP JUMP INVALID COINBASE PUSH5 0x6472657373 GASPRICE KECCAK256 PUSH13 0x6F772D6C6576656C2064656C65 PUSH8 0x6174652063616C6C KECCAK256 PUSH7 0x61696C6564A264 PUSH10 0x706673582212206C08E3 STOP 0xB8 0xF8 PUSH24 0x5EF4066CEA57F13A3C3DFEA61C559F8102CED032A62A979F MULMOD PUSH5 0x736F6C6343 STOP ADDMOD MULMOD STOP CALLER "},"gasEstimates":{"creation":{"codeDepositCost":"4444400","executionCost":"infinite","totalCost":"infinite"},"external":{"":"1410","DOMAIN_SEPARATOR()":"infinite","allowance(address,address)":"infinite","approve(address,uint256)":"infinite","balanceOf(address)":"2931","balanceOfAt(address,uint256)":"infinite","burn(uint256)":"infinite","burnFrom(address,uint256)":"infinite","decimals()":"389","decreaseAllowance(address,uint256)":"infinite","getContractBalance()":"2794","getProfileAddress()":"4889","increaseAllowance(address,uint256)":"infinite","initialize()":"infinite","mint(address,uint256)":"infinite","name()":"infinite","nonces(address)":"2957","owner()":"2602","pause()":"infinite","paused()":"2525","permit(address,address,uint256,uint256,uint8,bytes32,bytes32)":"infinite","proxiableUUID()":"infinite","renounceOwnership()":"30545","setProfileAddress(address)":"27132","symbol()":"infinite","totalSupply()":"2528","totalSupplyAt(uint256)":"infinite","transfer(address,uint256)":"infinite","transferFrom(address,address,uint256)":"infinite","transferOwnership(address)":"30892","unpause()":"infinite","upgradeTo(address)":"infinite","upgradeToAndCall(address,bytes)":"infinite"},"internal":{"_authorizeUpgrade(address)":"infinite","_beforeTokenTransfer(address,address,uint256)":"infinite","_getMultiSig(address)":"infinite","_isVerified(address)":"infinite","snapshot()":"infinite"}},"methodIdentifiers":{"DOMAIN_SEPARATOR()":"3644e515","allowance(address,address)":"dd62ed3e","approve(address,uint256)":"095ea7b3","balanceOf(address)":"70a08231","balanceOfAt(address,uint256)":"4ee2cd7e","burn(uint256)":"42966c68","burnFrom(address,uint256)":"79cc6790","decimals()":"313ce567","decreaseAllowance(address,uint256)":"a457c2d7","getContractBalance()":"6f9fb98a","getProfileAddress()":"345a903f","increaseAllowance(address,uint256)":"39509351","initialize()":"8129fc1c","mint(address,uint256)":"40c10f19","name()":"06fdde03","nonces(address)":"7ecebe00","owner()":"8da5cb5b","pause()":"8456cb59","paused()":"5c975abb","permit(address,address,uint256,uint256,uint8,bytes32,bytes32)":"d505accf","proxiableUUID()":"52d1902d","renounceOwnership()":"715018a6","setProfileAddress(address)":"59e78460","symbol()":"95d89b41","totalSupply()":"18160ddd","totalSupplyAt(uint256)":"981b24d0","transfer(address,uint256)":"a9059cbb","transferFrom(address,address,uint256)":"23b872dd","transferOwnership(address)":"f2fde38b","unpause()":"3f4ba83a","upgradeTo(address)":"3659cfe6","upgradeToAndCall(address,bytes)":"4f1ef286"}},"storageLayout":{"storage":[{"astId":527,"contract":"contracts/PKDR.sol:PKDR","label":"_initialized","offset":0,"slot":"0","type":"t_uint8"},{"astId":530,"contract":"contracts/PKDR.sol:PKDR","label":"_initializing","offset":1,"slot":"0","type":"t_bool"},{"astId":2787,"contract":"contracts/PKDR.sol:PKDR","label":"__gap","offset":0,"slot":"1","type":"t_array(t_uint256)50_storage"},{"astId":971,"contract":"contracts/PKDR.sol:PKDR","label":"_balances","offset":0,"slot":"51","type":"t_mapping(t_address,t_uint256)"},{"astId":977,"contract":"contracts/PKDR.sol:PKDR","label":"_allowances","offset":0,"slot":"52","type":"t_mapping(t_address,t_mapping(t_address,t_uint256))"},{"astId":979,"contract":"contracts/PKDR.sol:PKDR","label":"_totalSupply","offset":0,"slot":"53","type":"t_uint256"},{"astId":981,"contract":"contracts/PKDR.sol:PKDR","label":"_name","offset":0,"slot":"54","type":"t_string_storage"},{"astId":983,"contract":"contracts/PKDR.sol:PKDR","label":"_symbol","offset":0,"slot":"55","type":"t_string_storage"},{"astId":1563,"contract":"contracts/PKDR.sol:PKDR","label":"__gap","offset":0,"slot":"56","type":"t_array(t_uint256)45_storage"},{"astId":1705,"contract":"contracts/PKDR.sol:PKDR","label":"__gap","offset":0,"slot":"101","type":"t_array(t_uint256)50_storage"},{"astId":1749,"contract":"contracts/PKDR.sol:PKDR","label":"_accountBalanceSnapshots","offset":0,"slot":"151","type":"t_mapping(t_address,t_struct(Snapshots)1744_storage)"},{"astId":1752,"contract":"contracts/PKDR.sol:PKDR","label":"_totalSupplySnapshots","offset":0,"slot":"152","type":"t_struct(Snapshots)1744_storage"},{"astId":1755,"contract":"contracts/PKDR.sol:PKDR","label":"_currentSnapshotId","offset":0,"slot":"154","type":"t_struct(Counter)2794_storage"},{"astId":2053,"contract":"contracts/PKDR.sol:PKDR","label":"__gap","offset":0,"slot":"155","type":"t_array(t_uint256)46_storage"},{"astId":10,"contract":"contracts/PKDR.sol:PKDR","label":"_owner","offset":0,"slot":"201","type":"t_address"},{"astId":130,"contract":"contracts/PKDR.sol:PKDR","label":"__gap","offset":0,"slot":"202","type":"t_array(t_uint256)49_storage"},{"astId":846,"contract":"contracts/PKDR.sol:PKDR","label":"_paused","offset":0,"slot":"251","type":"t_bool"},{"astId":951,"contract":"contracts/PKDR.sol:PKDR","label":"__gap","offset":0,"slot":"252","type":"t_array(t_uint256)49_storage"},{"astId":3467,"contract":"contracts/PKDR.sol:PKDR","label":"_HASHED_NAME","offset":0,"slot":"301","type":"t_bytes32"},{"astId":3469,"contract":"contracts/PKDR.sol:PKDR","label":"_HASHED_VERSION","offset":0,"slot":"302","type":"t_bytes32"},{"astId":3607,"contract":"contracts/PKDR.sol:PKDR","label":"__gap","offset":0,"slot":"303","type":"t_array(t_uint256)50_storage"},{"astId":2105,"contract":"contracts/PKDR.sol:PKDR","label":"_nonces","offset":0,"slot":"353","type":"t_mapping(t_address,t_struct(Counter)2794_storage)"},{"astId":2113,"contract":"contracts/PKDR.sol:PKDR","label":"_PERMIT_TYPEHASH_DEPRECATED_SLOT","offset":0,"slot":"354","type":"t_bytes32"},{"astId":2269,"contract":"contracts/PKDR.sol:PKDR","label":"__gap","offset":0,"slot":"355","type":"t_array(t_uint256)49_storage"},{"astId":509,"contract":"contracts/PKDR.sol:PKDR","label":"__gap","offset":0,"slot":"404","type":"t_array(t_uint256)50_storage"},{"astId":824,"contract":"contracts/PKDR.sol:PKDR","label":"__gap","offset":0,"slot":"454","type":"t_array(t_uint256)50_storage"},{"astId":4527,"contract":"contracts/PKDR.sol:PKDR","label":"profiles","offset":0,"slot":"504","type":"t_contract(Profiles)5538"}],"types":{"t_address":{"encoding":"inplace","label":"address","numberOfBytes":"20"},"t_array(t_uint256)45_storage":{"base":"t_uint256","encoding":"inplace","label":"uint256[45]","numberOfBytes":"1440"},"t_array(t_uint256)46_storage":{"base":"t_uint256","encoding":"inplace","label":"uint256[46]","numberOfBytes":"1472"},"t_array(t_uint256)49_storage":{"base":"t_uint256","encoding":"inplace","label":"uint256[49]","numberOfBytes":"1568"},"t_array(t_uint256)50_storage":{"base":"t_uint256","encoding":"inplace","label":"uint256[50]","numberOfBytes":"1600"},"t_array(t_uint256)dyn_storage":{"base":"t_uint256","encoding":"dynamic_array","label":"uint256[]","numberOfBytes":"32"},"t_bool":{"encoding":"inplace","label":"bool","numberOfBytes":"1"},"t_bytes32":{"encoding":"inplace","label":"bytes32","numberOfBytes":"32"},"t_contract(Profiles)5538":{"encoding":"inplace","label":"contract Profiles","numberOfBytes":"20"},"t_mapping(t_address,t_mapping(t_address,t_uint256))":{"encoding":"mapping","key":"t_address","label":"mapping(address => mapping(address => uint256))","numberOfBytes":"32","value":"t_mapping(t_address,t_uint256)"},"t_mapping(t_address,t_struct(Counter)2794_storage)":{"encoding":"mapping","key":"t_address","label":"mapping(address => struct CountersUpgradeable.Counter)","numberOfBytes":"32","value":"t_struct(Counter)2794_storage"},"t_mapping(t_address,t_struct(Snapshots)1744_storage)":{"encoding":"mapping","key":"t_address","label":"mapping(address => struct ERC20SnapshotUpgradeable.Snapshots)","numberOfBytes":"32","value":"t_struct(Snapshots)1744_storage"},"t_mapping(t_address,t_uint256)":{"encoding":"mapping","key":"t_address","label":"mapping(address => uint256)","numberOfBytes":"32","value":"t_uint256"},"t_string_storage":{"encoding":"bytes","label":"string","numberOfBytes":"32"},"t_struct(Counter)2794_storage":{"encoding":"inplace","label":"struct CountersUpgradeable.Counter","members":[{"astId":2793,"contract":"contracts/PKDR.sol:PKDR","label":"_value","offset":0,"slot":"0","type":"t_uint256"}],"numberOfBytes":"32"},"t_struct(Snapshots)1744_storage":{"encoding":"inplace","label":"struct ERC20SnapshotUpgradeable.Snapshots","members":[{"astId":1740,"contract":"contracts/PKDR.sol:PKDR","label":"ids","offset":0,"slot":"0","type":"t_array(t_uint256)dyn_storage"},{"astId":1743,"contract":"contracts/PKDR.sol:PKDR","label":"values","offset":0,"slot":"1","type":"t_array(t_uint256)dyn_storage"}],"numberOfBytes":"64"},"t_uint256":{"encoding":"inplace","label":"uint256","numberOfBytes":"32"},"t_uint8":{"encoding":"inplace","label":"uint8","numberOfBytes":"1"}}},"userdoc":{"kind":"user","methods":{},"version":1}}}}