{
  "address": "0x9fE46736679d2D9a65F0992F2272dE9f3c7fa6e0",
  "abi": [
    {
      "inputs": [],
      "stateMutability": "nonpayable",
      "type": "constructor"
    },
    {
      "inputs": [
        {
          "internalType": "address",
          "name": "",
          "type": "address"
        }
      ],
      "name": "MULTISIG_REQUIRED",
      "type": "error"
    },
    {
      "inputs": [
        {
          "internalType": "address",
          "name": "",
          "type": "address"
        }
      ],
      "name": "USER_NOT_VERIFIED",
      "type": "error"
    },
    {
      "anonymous": false,
      "inputs": [
        {
          "indexed": false,
          "internalType": "uint256",
          "name": "fallbackAmount",
          "type": "uint256"
        }
      ],
      "name": "AMOUNT_RECEIVED_THROUGH_FALLBACK",
      "type": "event"
    },
    {
      "anonymous": false,
      "inputs": [
        {
          "indexed": false,
          "internalType": "uint256",
          "name": "receiveAmount",
          "type": "uint256"
        }
      ],
      "name": "AMOUNT_RECEIVED_THROUGH_RECEIVE",
      "type": "event"
    },
    {
      "anonymous": false,
      "inputs": [
        {
          "indexed": false,
          "internalType": "address",
          "name": "previousAdmin",
          "type": "address"
        },
        {
          "indexed": false,
          "internalType": "address",
          "name": "newAdmin",
          "type": "address"
        }
      ],
      "name": "AdminChanged",
      "type": "event"
    },
    {
      "anonymous": false,
      "inputs": [
        {
          "indexed": true,
          "internalType": "address",
          "name": "owner",
          "type": "address"
        },
        {
          "indexed": true,
          "internalType": "address",
          "name": "spender",
          "type": "address"
        },
        {
          "indexed": false,
          "internalType": "uint256",
          "name": "value",
          "type": "uint256"
        }
      ],
      "name": "Approval",
      "type": "event"
    },
    {
      "anonymous": false,
      "inputs": [
        {
          "indexed": true,
          "internalType": "address",
          "name": "beacon",
          "type": "address"
        }
      ],
      "name": "BeaconUpgraded",
      "type": "event"
    },
    {
      "anonymous": false,
      "inputs": [
        {
          "indexed": false,
          "internalType": "uint8",
          "name": "version",
          "type": "uint8"
        }
      ],
      "name": "Initialized",
      "type": "event"
    },
    {
      "anonymous": false,
      "inputs": [
        {
          "indexed": true,
          "internalType": "address",
          "name": "previousOwner",
          "type": "address"
        },
        {
          "indexed": true,
          "internalType": "address",
          "name": "newOwner",
          "type": "address"
        }
      ],
      "name": "OwnershipTransferred",
      "type": "event"
    },
    {
      "anonymous": false,
      "inputs": [
        {
          "indexed": false,
          "internalType": "address",
          "name": "account",
          "type": "address"
        }
      ],
      "name": "Paused",
      "type": "event"
    },
    {
      "anonymous": false,
      "inputs": [
        {
          "indexed": false,
          "internalType": "uint256",
          "name": "id",
          "type": "uint256"
        }
      ],
      "name": "Snapshot",
      "type": "event"
    },
    {
      "anonymous": false,
      "inputs": [
        {
          "indexed": false,
          "internalType": "address",
          "name": "",
          "type": "address"
        }
      ],
      "name": "TRANSFER_REQUIRED_MULTI_SIGNATURE",
      "type": "event"
    },
    {
      "anonymous": false,
      "inputs": [
        {
          "indexed": false,
          "internalType": "address",
          "name": "",
          "type": "address"
        }
      ],
      "name": "TRANSFER_REQUIRED_VERIFICATION_I",
      "type": "event"
    },
    {
      "anonymous": false,
      "inputs": [
        {
          "indexed": true,
          "internalType": "address",
          "name": "from",
          "type": "address"
        },
        {
          "indexed": true,
          "internalType": "address",
          "name": "to",
          "type": "address"
        },
        {
          "indexed": false,
          "internalType": "uint256",
          "name": "value",
          "type": "uint256"
        }
      ],
      "name": "Transfer",
      "type": "event"
    },
    {
      "anonymous": false,
      "inputs": [
        {
          "indexed": false,
          "internalType": "address",
          "name": "account",
          "type": "address"
        }
      ],
      "name": "Unpaused",
      "type": "event"
    },
    {
      "anonymous": false,
      "inputs": [
        {
          "indexed": true,
          "internalType": "address",
          "name": "implementation",
          "type": "address"
        }
      ],
      "name": "Upgraded",
      "type": "event"
    },
    {
      "stateMutability": "payable",
      "type": "fallback"
    },
    {
      "inputs": [],
      "name": "DOMAIN_SEPARATOR",
      "outputs": [
        {
          "internalType": "bytes32",
          "name": "",
          "type": "bytes32"
        }
      ],
      "stateMutability": "view",
      "type": "function"
    },
    {
      "inputs": [
        {
          "internalType": "address",
          "name": "_owner",
          "type": "address"
        },
        {
          "internalType": "address",
          "name": "_spender",
          "type": "address"
        }
      ],
      "name": "allowance",
      "outputs": [
        {
          "internalType": "uint256",
          "name": "",
          "type": "uint256"
        }
      ],
      "stateMutability": "view",
      "type": "function"
    },
    {
      "inputs": [
        {
          "internalType": "address",
          "name": "spender",
          "type": "address"
        },
        {
          "internalType": "uint256",
          "name": "amount",
          "type": "uint256"
        }
      ],
      "name": "approve",
      "outputs": [
        {
          "internalType": "bool",
          "name": "",
          "type": "bool"
        }
      ],
      "stateMutability": "nonpayable",
      "type": "function"
    },
    {
      "inputs": [
        {
          "internalType": "address",
          "name": "account",
          "type": "address"
        }
      ],
      "name": "balanceOf",
      "outputs": [
        {
          "internalType": "uint256",
          "name": "",
          "type": "uint256"
        }
      ],
      "stateMutability": "view",
      "type": "function"
    },
    {
      "inputs": [
        {
          "internalType": "address",
          "name": "account",
          "type": "address"
        },
        {
          "internalType": "uint256",
          "name": "snapshotId",
          "type": "uint256"
        }
      ],
      "name": "balanceOfAt",
      "outputs": [
        {
          "internalType": "uint256",
          "name": "",
          "type": "uint256"
        }
      ],
      "stateMutability": "view",
      "type": "function"
    },
    {
      "inputs": [
        {
          "internalType": "uint256",
          "name": "amount",
          "type": "uint256"
        }
      ],
      "name": "burn",
      "outputs": [],
      "stateMutability": "nonpayable",
      "type": "function"
    },
    {
      "inputs": [
        {
          "internalType": "address",
          "name": "account",
          "type": "address"
        },
        {
          "internalType": "uint256",
          "name": "amount",
          "type": "uint256"
        }
      ],
      "name": "burnFrom",
      "outputs": [],
      "stateMutability": "nonpayable",
      "type": "function"
    },
    {
      "inputs": [],
      "name": "decimals",
      "outputs": [
        {
          "internalType": "uint8",
          "name": "",
          "type": "uint8"
        }
      ],
      "stateMutability": "view",
      "type": "function"
    },
    {
      "inputs": [
        {
          "internalType": "address",
          "name": "spender",
          "type": "address"
        },
        {
          "internalType": "uint256",
          "name": "subtractedValue",
          "type": "uint256"
        }
      ],
      "name": "decreaseAllowance",
      "outputs": [
        {
          "internalType": "bool",
          "name": "",
          "type": "bool"
        }
      ],
      "stateMutability": "nonpayable",
      "type": "function"
    },
    {
      "inputs": [],
      "name": "getContractBalance",
      "outputs": [
        {
          "internalType": "uint256",
          "name": "",
          "type": "uint256"
        }
      ],
      "stateMutability": "view",
      "type": "function"
    },
    {
      "inputs": [],
      "name": "getProfileAddress",
      "outputs": [
        {
          "internalType": "address",
          "name": "",
          "type": "address"
        }
      ],
      "stateMutability": "view",
      "type": "function"
    },
    {
      "inputs": [
        {
          "internalType": "address",
          "name": "spender",
          "type": "address"
        },
        {
          "internalType": "uint256",
          "name": "addedValue",
          "type": "uint256"
        }
      ],
      "name": "increaseAllowance",
      "outputs": [
        {
          "internalType": "bool",
          "name": "",
          "type": "bool"
        }
      ],
      "stateMutability": "nonpayable",
      "type": "function"
    },
    {
      "inputs": [],
      "name": "initialize",
      "outputs": [],
      "stateMutability": "nonpayable",
      "type": "function"
    },
    {
      "inputs": [
        {
          "internalType": "address",
          "name": "to",
          "type": "address"
        },
        {
          "internalType": "uint256",
          "name": "amount",
          "type": "uint256"
        }
      ],
      "name": "mint",
      "outputs": [],
      "stateMutability": "nonpayable",
      "type": "function"
    },
    {
      "inputs": [],
      "name": "name",
      "outputs": [
        {
          "internalType": "string",
          "name": "",
          "type": "string"
        }
      ],
      "stateMutability": "view",
      "type": "function"
    },
    {
      "inputs": [
        {
          "internalType": "address",
          "name": "owner",
          "type": "address"
        }
      ],
      "name": "nonces",
      "outputs": [
        {
          "internalType": "uint256",
          "name": "",
          "type": "uint256"
        }
      ],
      "stateMutability": "view",
      "type": "function"
    },
    {
      "inputs": [],
      "name": "owner",
      "outputs": [
        {
          "internalType": "address",
          "name": "",
          "type": "address"
        }
      ],
      "stateMutability": "view",
      "type": "function"
    },
    {
      "inputs": [],
      "name": "pause",
      "outputs": [],
      "stateMutability": "nonpayable",
      "type": "function"
    },
    {
      "inputs": [],
      "name": "paused",
      "outputs": [
        {
          "internalType": "bool",
          "name": "",
          "type": "bool"
        }
      ],
      "stateMutability": "view",
      "type": "function"
    },
    {
      "inputs": [
        {
          "internalType": "address",
          "name": "owner",
          "type": "address"
        },
        {
          "internalType": "address",
          "name": "spender",
          "type": "address"
        },
        {
          "internalType": "uint256",
          "name": "value",
          "type": "uint256"
        },
        {
          "internalType": "uint256",
          "name": "deadline",
          "type": "uint256"
        },
        {
          "internalType": "uint8",
          "name": "v",
          "type": "uint8"
        },
        {
          "internalType": "bytes32",
          "name": "r",
          "type": "bytes32"
        },
        {
          "internalType": "bytes32",
          "name": "s",
          "type": "bytes32"
        }
      ],
      "name": "permit",
      "outputs": [],
      "stateMutability": "nonpayable",
      "type": "function"
    },
    {
      "inputs": [],
      "name": "proxiableUUID",
      "outputs": [
        {
          "internalType": "bytes32",
          "name": "",
          "type": "bytes32"
        }
      ],
      "stateMutability": "view",
      "type": "function"
    },
    {
      "inputs": [],
      "name": "renounceOwnership",
      "outputs": [],
      "stateMutability": "nonpayable",
      "type": "function"
    },
    {
      "inputs": [
        {
          "internalType": "address payable",
          "name": "_profiles",
          "type": "address"
        }
      ],
      "name": "setProfileAddress",
      "outputs": [],
      "stateMutability": "nonpayable",
      "type": "function"
    },
    {
      "inputs": [],
      "name": "symbol",
      "outputs": [
        {
          "internalType": "string",
          "name": "",
          "type": "string"
        }
      ],
      "stateMutability": "view",
      "type": "function"
    },
    {
      "inputs": [],
      "name": "totalSupply",
      "outputs": [
        {
          "internalType": "uint256",
          "name": "",
          "type": "uint256"
        }
      ],
      "stateMutability": "view",
      "type": "function"
    },
    {
      "inputs": [
        {
          "internalType": "uint256",
          "name": "snapshotId",
          "type": "uint256"
        }
      ],
      "name": "totalSupplyAt",
      "outputs": [
        {
          "internalType": "uint256",
          "name": "",
          "type": "uint256"
        }
      ],
      "stateMutability": "view",
      "type": "function"
    },
    {
      "inputs": [
        {
          "internalType": "address",
          "name": "to",
          "type": "address"
        },
        {
          "internalType": "uint256",
          "name": "amount",
          "type": "uint256"
        }
      ],
      "name": "transfer",
      "outputs": [
        {
          "internalType": "bool",
          "name": "",
          "type": "bool"
        }
      ],
      "stateMutability": "nonpayable",
      "type": "function"
    },
    {
      "inputs": [
        {
          "internalType": "address",
          "name": "from",
          "type": "address"
        },
        {
          "internalType": "address",
          "name": "to",
          "type": "address"
        },
        {
          "internalType": "uint256",
          "name": "amount",
          "type": "uint256"
        }
      ],
      "name": "transferFrom",
      "outputs": [
        {
          "internalType": "bool",
          "name": "",
          "type": "bool"
        }
      ],
      "stateMutability": "nonpayable",
      "type": "function"
    },
    {
      "inputs": [
        {
          "internalType": "address",
          "name": "newOwner",
          "type": "address"
        }
      ],
      "name": "transferOwnership",
      "outputs": [],
      "stateMutability": "nonpayable",
      "type": "function"
    },
    {
      "inputs": [],
      "name": "unpause",
      "outputs": [],
      "stateMutability": "nonpayable",
      "type": "function"
    },
    {
      "inputs": [
        {
          "internalType": "address",
          "name": "newImplementation",
          "type": "address"
        }
      ],
      "name": "upgradeTo",
      "outputs": [],
      "stateMutability": "nonpayable",
      "type": "function"
    },
    {
      "inputs": [
        {
          "internalType": "address",
          "name": "newImplementation",
          "type": "address"
        },
        {
          "internalType": "bytes",
          "name": "data",
          "type": "bytes"
        }
      ],
      "name": "upgradeToAndCall",
      "outputs": [],
      "stateMutability": "payable",
      "type": "function"
    },
    {
      "stateMutability": "payable",
      "type": "receive"
    }
  ],
  "transactionHash": "0x5d077bffb2ec54c213d3ae0117df097db6957e1241b2de55387f0d10ad797357",
  "args": [],
  "numDeployments": 1,
  "solcInputHash": "97d796f648a7e1fa8b389caf1011ab47",
  "bytecode": "0x60e06040523073ffffffffffffffffffffffffffffffffffffffff1660809073ffffffffffffffffffffffffffffffffffffffff168152506040516020016200004890620001d7565b6040516020818303038152906040528051906020012060a09081525060405160200162000075906200023e565b6040516020818303038152906040528051906020012060c0908152503480156200009e57600080fd5b50620000af620000b560201b60201c565b62000339565b600060019054906101000a900460ff161562000108576040517f08c379a0000000000000000000000000000000000000000000000000000000008152600401620000ff90620002dc565b60405180910390fd5b60ff801660008054906101000a900460ff1660ff1610156200017a5760ff6000806101000a81548160ff021916908360ff1602179055507f7f26b83ff96e1f2b6a682f133852f6798a09c465da95921460cefb384740249860ff6040516200017191906200031c565b60405180910390a15b565b600081905092915050565b7f415050524f564544000000000000000000000000000000000000000000000000600082015250565b6000620001bf6008836200017c565b9150620001cc8262000187565b600882019050919050565b6000620001e482620001b0565b9150819050919050565b7f4e554c4c00000000000000000000000000000000000000000000000000000000600082015250565b6000620002266004836200017c565b91506200023382620001ee565b600482019050919050565b60006200024b8262000217565b9150819050919050565b600082825260208201905092915050565b7f496e697469616c697a61626c653a20636f6e747261637420697320696e69746960008201527f616c697a696e6700000000000000000000000000000000000000000000000000602082015250565b6000620002c460278362000255565b9150620002d18262000266565b604082019050919050565b60006020820190508181036000830152620002f781620002b5565b9050919050565b600060ff82169050919050565b6200031681620002fe565b82525050565b60006020820190506200033360008301846200030b565b92915050565b60805160a05160c05161549662000393600039600081816109b10152610a1f01526000818161144001526114aa015260008181610aef01528181610b7e01528181610d5201528181610de10152610e9101526154966000f3fe6080604052600436106101e75760003560e01c80635c975abb116101025780638da5cb5b11610095578063a9059cbb11610064578063a9059cbb14610739578063d505accf14610776578063dd62ed3e1461079f578063f2fde38b146107dc57610225565b80638da5cb5b1461066957806395d89b4114610694578063981b24d0146106bf578063a457c2d7146106fc57610225565b806379cc6790116100d157806379cc6790146105d55780637ecebe00146105fe5780638129fc1c1461063b5780638456cb591461065257610225565b80635c975abb1461052b5780636f9fb98a1461055657806370a0823114610581578063715018a6146105be57610225565b8063395093511161017a5780634ee2cd7e116101495780634ee2cd7e1461047e5780634f1ef286146104bb57806352d1902d146104d757806359e784601461050257610225565b806339509351146103d85780633f4ba83a1461041557806340c10f191461042c57806342966c681461045557610225565b8063313ce567116101b6578063313ce5671461032e578063345a903f146103595780633644e515146103845780633659cfe6146103af57610225565b806306fdde031461025e578063095ea7b31461028957806318160ddd146102c657806323b872dd146102f157610225565b36610225577f42100f075a78c1dac886a43652b5c7c76cca3718758e13e7b726063cd20fe02c3460405161021b91906136d0565b60405180910390a1005b7f6cb8a67804b99a2876f9d2f903120d1607df4c6bb33315433f4f5b9284ba15883460405161025491906136d0565b60405180910390a1005b34801561026a57600080fd5b50610273610805565b6040516102809190613784565b60405180910390f35b34801561029557600080fd5b506102b060048036038101906102ab9190613844565b610897565b6040516102bd919061389f565b60405180910390f35b3480156102d257600080fd5b506102db610900565b6040516102e891906136d0565b60405180910390f35b3480156102fd57600080fd5b50610318600480360381019061031391906138ba565b61090a565b604051610325919061389f565b60405180910390f35b34801561033a57600080fd5b50610343610aa2565b6040516103509190613929565b60405180910390f35b34801561036557600080fd5b5061036e610aab565b60405161037b9190613953565b60405180910390f35b34801561039057600080fd5b50610399610ade565b6040516103a69190613987565b60405180910390f35b3480156103bb57600080fd5b506103d660048036038101906103d191906139a2565b610aed565b005b3480156103e457600080fd5b506103ff60048036038101906103fa9190613844565b610c76565b60405161040c919061389f565b60405180910390f35b34801561042157600080fd5b5061042a610c9c565b005b34801561043857600080fd5b50610453600480360381019061044e9190613844565b610cae565b005b34801561046157600080fd5b5061047c600480360381019061047791906139cf565b610ccc565b005b34801561048a57600080fd5b506104a560048036038101906104a09190613844565b610ce0565b6040516104b291906136d0565b60405180910390f35b6104d560048036038101906104d09190613b31565b610d50565b005b3480156104e357600080fd5b506104ec610e8d565b6040516104f99190613987565b60405180910390f35b34801561050e57600080fd5b5061052960048036038101906105249190613bcb565b610f46565b005b34801561053757600080fd5b50610540610f93565b60405161054d919061389f565b60405180910390f35b34801561056257600080fd5b5061056b610faa565b60405161057891906136d0565b60405180910390f35b34801561058d57600080fd5b506105a860048036038101906105a391906139a2565b610fba565b6040516105b591906136d0565b60405180910390f35b3480156105ca57600080fd5b506105d3611003565b005b3480156105e157600080fd5b506105fc60048036038101906105f79190613844565b611017565b005b34801561060a57600080fd5b50610625600480360381019061062091906139a2565b61102d565b60405161063291906136d0565b60405180910390f35b34801561064757600080fd5b5061065061107e565b005b34801561065e57600080fd5b5061066761128e565b005b34801561067557600080fd5b5061067e6112a0565b60405161068b9190613953565b60405180910390f35b3480156106a057600080fd5b506106a96112af565b6040516106b69190613784565b60405180910390f35b3480156106cb57600080fd5b506106e660048036038101906106e191906139cf565b611341565b6040516106f391906136d0565b60405180910390f35b34801561070857600080fd5b50610723600480360381019061071e9190613844565b611372565b604051610730919061389f565b60405180910390f35b34801561074557600080fd5b50610760600480360381019061075b9190613844565b61139c565b60405161076d919061389f565b60405180910390f35b34801561078257600080fd5b5061079d60048036038101906107989190613c50565b611524565b005b3480156107ab57600080fd5b506107c660048036038101906107c19190613cf2565b611666565b6040516107d391906136d0565b60405180910390f35b3480156107e857600080fd5b5061080360048036038101906107fe91906139a2565b611682565b005b60606036805461081490613d61565b80601f016020809104026020016040519081016040528092919081815260200182805461084090613d61565b801561088d5780601f106108625761010080835404028352916020019161088d565b820191906000526020600020905b81548152906001019060200180831161087057829003601f168201915b5050505050905090565b60006108a1611706565b6108a96112a0565b92507fffffffffffffffffffffffffffffffffffffffffffffffffffffffffffffffff91506108f8837fffffffffffffffffffffffffffffffffffffffffffffffffffffffffffffffff611750565b905092915050565b6000603554905090565b6000610914611706565b61091c611773565b83610926816117f1565b610965576040517f08c379a000000000000000000000000000000000000000000000000000000000815260040161095c90613ddf565b60405180910390fd5b8361096f816117f1565b6109ae576040517f08c379a00000000000000000000000000000000000000000000000000000000081526004016109a590613ddf565b60405180910390fd5b857f00000000000000000000000000000000000000000000000000000000000000006109d9826118ab565b1415610a1c57806040517f80b9ec45000000000000000000000000000000000000000000000000000000008152600401610a139190613953565b60405180910390fd5b857f0000000000000000000000000000000000000000000000000000000000000000610a47826118ab565b1415610a8a57806040517f80b9ec45000000000000000000000000000000000000000000000000000000008152600401610a819190613953565b60405180910390fd5b610a95888888611960565b9450505050509392505050565b60006012905090565b6000610ab5611773565b6101f860009054906101000a900473ffffffffffffffffffffffffffffffffffffffff16905090565b6000610ae861198f565b905090565b7f000000000000000000000000000000000000000000000000000000000000000073ffffffffffffffffffffffffffffffffffffffff163073ffffffffffffffffffffffffffffffffffffffff161415610b7c576040517f08c379a0000000000000000000000000000000000000000000000000000000008152600401610b7390613e71565b60405180910390fd5b7f000000000000000000000000000000000000000000000000000000000000000073ffffffffffffffffffffffffffffffffffffffff16610bbb6119cf565b73ffffffffffffffffffffffffffffffffffffffff1614610c11576040517f08c379a0000000000000000000000000000000000000000000000000000000008152600401610c0890613f03565b60405180910390fd5b610c1a81611a26565b610c7381600067ffffffffffffffff811115610c3957610c38613a06565b5b6040519080825280601f01601f191660200182016040528015610c6b5781602001600182028036833780820191505090505b506000611a31565b50565b6000610c80611706565b610c886112a0565b9250610c948383611bae565b905092915050565b610ca4611773565b610cac611be5565b565b610cb6611706565b610cbe611773565b610cc88282611c48565b5050565b610cd4611773565b610cdd81611da0565b50565b6000806000610d2d84609760008873ffffffffffffffffffffffffffffffffffffffff1673ffffffffffffffffffffffffffffffffffffffff168152602001908152602001600020611db4565b9150915081610d4457610d3f85610fba565b610d46565b805b9250505092915050565b7f000000000000000000000000000000000000000000000000000000000000000073ffffffffffffffffffffffffffffffffffffffff163073ffffffffffffffffffffffffffffffffffffffff161415610ddf576040517f08c379a0000000000000000000000000000000000000000000000000000000008152600401610dd690613e71565b60405180910390fd5b7f000000000000000000000000000000000000000000000000000000000000000073ffffffffffffffffffffffffffffffffffffffff16610e1e6119cf565b73ffffffffffffffffffffffffffffffffffffffff1614610e74576040517f08c379a0000000000000000000000000000000000000000000000000000000008152600401610e6b90613f03565b60405180910390fd5b610e7d82611a26565b610e8982826001611a31565b5050565b60007f000000000000000000000000000000000000000000000000000000000000000073ffffffffffffffffffffffffffffffffffffffff163073ffffffffffffffffffffffffffffffffffffffff1614610f1d576040517f08c379a0000000000000000000000000000000000000000000000000000000008152600401610f1490613f95565b60405180910390fd5b7f360894a13ba1a3210667c828492db98dca3e2076cc3735a920a3ca505d382bbc60001b905090565b610f4e611773565b806101f860006101000a81548173ffffffffffffffffffffffffffffffffffffffff021916908373ffffffffffffffffffffffffffffffffffffffff16021790555050565b600060fb60009054906101000a900460ff16905090565b6000610fb4611773565b47905090565b6000603360008373ffffffffffffffffffffffffffffffffffffffff1673ffffffffffffffffffffffffffffffffffffffff168152602001908152602001600020549050919050565b61100b611773565b6110156000611eaa565b565b61101f611773565b6110298282611f70565b5050565b600061107761016160008473ffffffffffffffffffffffffffffffffffffffff1673ffffffffffffffffffffffffffffffffffffffff168152602001908152602001600020611f90565b9050919050565b60008060019054906101000a900460ff161590508080156110af5750600160008054906101000a900460ff1660ff16105b806110dc57506110be30611f9e565b1580156110db5750600160008054906101000a900460ff1660ff16145b5b61111b576040517f08c379a000000000000000000000000000000000000000000000000000000000815260040161111290614027565b60405180910390fd5b60016000806101000a81548160ff021916908360ff1602179055508015611158576001600060016101000a81548160ff0219169083151502179055505b6111cc6040518060400160405280600481526020017f504b4452000000000000000000000000000000000000000000000000000000008152506040518060400160405280600481526020017f504b445200000000000000000000000000000000000000000000000000000000815250611fc1565b6111d461201e565b6111dc61206f565b6111e46120c0565b6111ec612119565b61122a6040518060400160405280600481526020017f504b445200000000000000000000000000000000000000000000000000000000815250612172565b611232612203565b801561128b5760008060016101000a81548160ff0219169083151502179055507f7f26b83ff96e1f2b6a682f133852f6798a09c465da95921460cefb38474024986001604051611282919061408c565b60405180910390a15b50565b611296611773565b61129e612254565b565b60006112aa6122b7565b905090565b6060603780546112be90613d61565b80601f01602080910402602001604051908101604052809291908181526020018280546112ea90613d61565b80156113375780601f1061130c57610100808354040283529160200191611337565b820191906000526020600020905b81548152906001019060200180831161131a57829003601f168201915b5050505050905090565b6000806000611351846098611db4565b915091508161136757611362610900565b611369565b805b92505050919050565b600061137c611706565b6113846112a0565b92506000915061139483836122e1565b905092915050565b60006113a6611706565b6113ae611773565b6113b7336117f1565b6113f6576040517f08c379a00000000000000000000000000000000000000000000000000000000081526004016113ed90614119565b60405180910390fd5b6113ff836117f1565b61143e576040517f08c379a0000000000000000000000000000000000000000000000000000000008152600401611435906141ab565b60405180910390fd5b7f0000000000000000000000000000000000000000000000000000000000000000611468336118ab565b146114a8576040517f08c379a000000000000000000000000000000000000000000000000000000000815260040161149f9061423d565b60405180910390fd5b7f00000000000000000000000000000000000000000000000000000000000000006114d2846118ab565b14611512576040517f08c379a0000000000000000000000000000000000000000000000000000000008152600401611509906142cf565b60405180910390fd5b61151c8383612358565b905092915050565b83421115611567576040517f08c379a000000000000000000000000000000000000000000000000000000000815260040161155e9061433b565b60405180910390fd5b60007f6e71edae12b1b97f4d1f60370fef10105fa2faae0126114a169c64845d6126c98888886115968c61237b565b896040516020016115ac9695949392919061435b565b60405160208183030381529060405280519060200120905060006115cf826123da565b905060006115df828787876123f4565b90508973ffffffffffffffffffffffffffffffffffffffff168173ffffffffffffffffffffffffffffffffffffffff161461164f576040517f08c379a000000000000000000000000000000000000000000000000000000000815260040161164690614408565b60405180910390fd5b61165a8a8a8a61241f565b50505050505050505050565b6000611670611773565b61167a83836125ea565b905092915050565b61168a611773565b600073ffffffffffffffffffffffffffffffffffffffff168173ffffffffffffffffffffffffffffffffffffffff1614156116fa576040517f08c379a00000000000000000000000000000000000000000000000000000000081526004016116f19061449a565b60405180910390fd5b61170381611eaa565b50565b61170e610f93565b1561174e576040517f08c379a000000000000000000000000000000000000000000000000000000000815260040161174590614506565b60405180910390fd5b565b60008061175b612671565b905061176881858561241f565b600191505092915050565b61177b612671565b73ffffffffffffffffffffffffffffffffffffffff166117996112a0565b73ffffffffffffffffffffffffffffffffffffffff16146117ef576040517f08c379a00000000000000000000000000000000000000000000000000000000081526004016117e690614572565b60405180910390fd5b565b6000806101f860009054906101000a900473ffffffffffffffffffffffffffffffffffffffff1673ffffffffffffffffffffffffffffffffffffffff1663d117fc99846040518263ffffffff1660e01b81526004016118509190613953565b60206040518083038186803b15801561186857600080fd5b505afa15801561187c573d6000803e3d6000fd5b505050506040513d601f19601f820116820180604052508101906118a091906145be565b905080915050919050565b60006101f860009054906101000a900473ffffffffffffffffffffffffffffffffffffffff1673ffffffffffffffffffffffffffffffffffffffff16631e9f3d5e836040518263ffffffff1660e01b81526004016119099190613953565b60206040518083038186803b15801561192157600080fd5b505afa158015611935573d6000803e3d6000fd5b505050506040513d601f19601f820116820180604052508101906119599190614600565b9050919050565b60008061196b612671565b9050611978858285612679565b611983858585612705565b60019150509392505050565b60006119ca7f8b73c3c69bb8fe3d512ecc4cf759cc79239f7b179b0ffacaa9a75d522b39400f6119bd612980565b6119c561298b565b612996565b905090565b60006119fd7f360894a13ba1a3210667c828492db98dca3e2076cc3735a920a3ca505d382bbc60001b6129d0565b60000160009054906101000a900473ffffffffffffffffffffffffffffffffffffffff16905090565b611a2e611773565b50565b611a5d7f4910fdfa16fed3260ed0e7147f7cc6da11a60208b5b9406d12a635614ffd914360001b6129da565b60000160009054906101000a900460ff1615611a8157611a7c836129e4565b611ba9565b8273ffffffffffffffffffffffffffffffffffffffff166352d1902d6040518163ffffffff1660e01b815260040160206040518083038186803b158015611ac757600080fd5b505afa925050508015611af857506040513d601f19601f82011682018060405250810190611af59190614600565b60015b611b37576040517f08c379a0000000000000000000000000000000000000000000000000000000008152600401611b2e9061469f565b60405180910390fd5b7f360894a13ba1a3210667c828492db98dca3e2076cc3735a920a3ca505d382bbc60001b8114611b9c576040517f08c379a0000000000000000000000000000000000000000000000000000000008152600401611b9390614731565b60405180910390fd5b50611ba8838383612a9d565b5b505050565b600080611bb9612671565b9050611bda818585611bcb8589611666565b611bd59190614780565b61241f565b600191505092915050565b611bed612ac9565b600060fb60006101000a81548160ff0219169083151502179055507f5db9ee0a495bf2e6ff9c91a7834c1ba4fdd244a5e8aa4e537bd38aeae4b073aa611c31612671565b604051611c3e9190613953565b60405180910390a1565b600073ffffffffffffffffffffffffffffffffffffffff168273ffffffffffffffffffffffffffffffffffffffff161415611cb8576040517f08c379a0000000000000000000000000000000000000000000000000000000008152600401611caf90614822565b60405180910390fd5b611cc460008383612b12565b8060356000828254611cd69190614780565b9250508190555080603360008473ffffffffffffffffffffffffffffffffffffffff1673ffffffffffffffffffffffffffffffffffffffff168152602001908152602001600020600082825401925050819055508173ffffffffffffffffffffffffffffffffffffffff16600073ffffffffffffffffffffffffffffffffffffffff167fddf252ad1be2c89b69c2b068fc378daa952ba7f163c4a11628f55a4df523b3ef83604051611d8891906136d0565b60405180910390a3611d9c60008383612b2a565b5050565b611db1611dab612671565b82612b2f565b50565b60008060008411611dfa576040517f08c379a0000000000000000000000000000000000000000000000000000000008152600401611df19061488e565b60405180910390fd5b611e02612cff565b841115611e44576040517f08c379a0000000000000000000000000000000000000000000000000000000008152600401611e3b906148fa565b60405180910390fd5b6000611e5c8585600001612d1090919063ffffffff16565b90508360000180549050811415611e7a576000809250925050611ea3565b6001846001018281548110611e9257611e9161491a565b5b906000526020600020015492509250505b9250929050565b600060c960009054906101000a900473ffffffffffffffffffffffffffffffffffffffff1690508160c960006101000a81548173ffffffffffffffffffffffffffffffffffffffff021916908373ffffffffffffffffffffffffffffffffffffffff1602179055508173ffffffffffffffffffffffffffffffffffffffff168173ffffffffffffffffffffffffffffffffffffffff167f8be0079c531659141344cd1fd0a4f28419497f9722a3daafe3b4186f6b6457e060405160405180910390a35050565b611f8282611f7c612671565b83612679565b611f8c8282612b2f565b5050565b600081600001549050919050565b6000808273ffffffffffffffffffffffffffffffffffffffff163b119050919050565b600060019054906101000a900460ff16612010576040517f08c379a0000000000000000000000000000000000000000000000000000000008152600401612007906149bb565b60405180910390fd5b61201a8282612dca565b5050565b600060019054906101000a900460ff1661206d576040517f08c379a0000000000000000000000000000000000000000000000000000000008152600401612064906149bb565b60405180910390fd5b565b600060019054906101000a900460ff166120be576040517f08c379a00000000000000000000000000000000000000000000000000000000081526004016120b5906149bb565b60405180910390fd5b565b600060019054906101000a900460ff1661210f576040517f08c379a0000000000000000000000000000000000000000000000000000000008152600401612106906149bb565b60405180910390fd5b612117612e4b565b565b600060019054906101000a900460ff16612168576040517f08c379a000000000000000000000000000000000000000000000000000000000815260040161215f906149bb565b60405180910390fd5b612170612eac565b565b600060019054906101000a900460ff166121c1576040517f08c379a00000000000000000000000000000000000000000000000000000000081526004016121b8906149bb565b60405180910390fd5b612200816040518060400160405280600181526020017f3100000000000000000000000000000000000000000000000000000000000000815250612f18565b50565b600060019054906101000a900460ff16612252576040517f08c379a0000000000000000000000000000000000000000000000000000000008152600401612249906149bb565b60405180910390fd5b565b61225c611706565b600160fb60006101000a81548160ff0219169083151502179055507f62e78cea01bee320cd4e420270b5ea74000d11b0c9f74754ebdbfc544b05a2586122a0612671565b6040516122ad9190613953565b60405180910390a1565b600060c960009054906101000a900473ffffffffffffffffffffffffffffffffffffffff16905090565b6000806122ec612671565b905060006122fa8286611666565b90508381101561233f576040517f08c379a000000000000000000000000000000000000000000000000000000000815260040161233690614a4d565b60405180910390fd5b61234c828686840361241f565b60019250505092915050565b600080612363612671565b9050612370818585612705565b600191505092915050565b60008061016160008473ffffffffffffffffffffffffffffffffffffffff1673ffffffffffffffffffffffffffffffffffffffff16815260200190815260200160002090506123c981611f90565b91506123d481612f95565b50919050565b60006123ed6123e761198f565b83612fab565b9050919050565b600080600061240587878787612fde565b91509150612412816130c1565b8192505050949350505050565b600073ffffffffffffffffffffffffffffffffffffffff168373ffffffffffffffffffffffffffffffffffffffff16141561248f576040517f08c379a000000000000000000000000000000000000000000000000000000000815260040161248690614adf565b60405180910390fd5b600073ffffffffffffffffffffffffffffffffffffffff168273ffffffffffffffffffffffffffffffffffffffff1614156124ff576040517f08c379a00000000000000000000000000000000000000000000000000000000081526004016124f690614b71565b60405180910390fd5b80603460008573ffffffffffffffffffffffffffffffffffffffff1673ffffffffffffffffffffffffffffffffffffffff16815260200190815260200160002060008473ffffffffffffffffffffffffffffffffffffffff1673ffffffffffffffffffffffffffffffffffffffff168152602001908152602001600020819055508173ffffffffffffffffffffffffffffffffffffffff168373ffffffffffffffffffffffffffffffffffffffff167f8c5be1e5ebec7d5bd14f71427d1e84f3dd0314c0f7b2291e5b200ac8c7c3b925836040516125dd91906136d0565b60405180910390a3505050565b6000603460008473ffffffffffffffffffffffffffffffffffffffff1673ffffffffffffffffffffffffffffffffffffffff16815260200190815260200160002060008373ffffffffffffffffffffffffffffffffffffffff1673ffffffffffffffffffffffffffffffffffffffff16815260200190815260200160002054905092915050565b600033905090565b60006126858484611666565b90507fffffffffffffffffffffffffffffffffffffffffffffffffffffffffffffffff81146126ff57818110156126f1576040517f08c379a00000000000000000000000000000000000000000000000000000000081526004016126e890614bdd565b60405180910390fd5b6126fe848484840361241f565b5b50505050565b600073ffffffffffffffffffffffffffffffffffffffff168373ffffffffffffffffffffffffffffffffffffffff161415612775576040517f08c379a000000000000000000000000000000000000000000000000000000000815260040161276c90614c6f565b60405180910390fd5b600073ffffffffffffffffffffffffffffffffffffffff168273ffffffffffffffffffffffffffffffffffffffff1614156127e5576040517f08c379a00000000000000000000000000000000000000000000000000000000081526004016127dc90614d01565b60405180910390fd5b6127f0838383612b12565b6000603360008573ffffffffffffffffffffffffffffffffffffffff1673ffffffffffffffffffffffffffffffffffffffff16815260200190815260200160002054905081811015612877576040517f08c379a000000000000000000000000000000000000000000000000000000000815260040161286e90614d93565b60405180910390fd5b818103603360008673ffffffffffffffffffffffffffffffffffffffff1673ffffffffffffffffffffffffffffffffffffffff1681526020019081526020016000208190555081603360008573ffffffffffffffffffffffffffffffffffffffff1673ffffffffffffffffffffffffffffffffffffffff168152602001908152602001600020600082825401925050819055508273ffffffffffffffffffffffffffffffffffffffff168473ffffffffffffffffffffffffffffffffffffffff167fddf252ad1be2c89b69c2b068fc378daa952ba7f163c4a11628f55a4df523b3ef8460405161296791906136d0565b60405180910390a361297a848484612b2a565b50505050565b600061012d54905090565b600061012e54905090565b600083838346306040516020016129b1959493929190614db3565b6040516020818303038152906040528051906020012090509392505050565b6000819050919050565b6000819050919050565b6129ed81611f9e565b612a2c576040517f08c379a0000000000000000000000000000000000000000000000000000000008152600401612a2390614e78565b60405180910390fd5b80612a597f360894a13ba1a3210667c828492db98dca3e2076cc3735a920a3ca505d382bbc60001b6129d0565b60000160006101000a81548173ffffffffffffffffffffffffffffffffffffffff021916908373ffffffffffffffffffffffffffffffffffffffff16021790555050565b612aa68361322f565b600082511180612ab35750805b15612ac457612ac2838361327e565b505b505050565b612ad1610f93565b612b10576040517f08c379a0000000000000000000000000000000000000000000000000000000008152600401612b0790614ee4565b60405180910390fd5b565b612b1a611706565b612b25838383613362565b505050565b505050565b600073ffffffffffffffffffffffffffffffffffffffff168273ffffffffffffffffffffffffffffffffffffffff161415612b9f576040517f08c379a0000000000000000000000000000000000000000000000000000000008152600401612b9690614f76565b60405180910390fd5b612bab82600083612b12565b6000603360008473ffffffffffffffffffffffffffffffffffffffff1673ffffffffffffffffffffffffffffffffffffffff16815260200190815260200160002054905081811015612c32576040517f08c379a0000000000000000000000000000000000000000000000000000000008152600401612c2990615008565b60405180910390fd5b818103603360008573ffffffffffffffffffffffffffffffffffffffff1673ffffffffffffffffffffffffffffffffffffffff1681526020019081526020016000208190555081603560008282540392505081905550600073ffffffffffffffffffffffffffffffffffffffff168373ffffffffffffffffffffffffffffffffffffffff167fddf252ad1be2c89b69c2b068fc378daa952ba7f163c4a11628f55a4df523b3ef84604051612ce691906136d0565b60405180910390a3612cfa83600084612b2a565b505050565b6000612d0b609a611f90565b905090565b60008083805490501415612d275760009050612dc4565b600080848054905090505b80821015612d7b576000612d46838361341c565b905084612d538783613442565b600001541115612d6557809150612d75565b600181612d729190614780565b92505b50612d32565b600082118015612da3575083612d9d86600185612d989190615028565b613442565b60000154145b15612dbe57600182612db59190615028565b92505050612dc4565b81925050505b92915050565b600060019054906101000a900460ff16612e19576040517f08c379a0000000000000000000000000000000000000000000000000000000008152600401612e10906149bb565b60405180910390fd5b8160369080519060200190612e2f929190613614565b508060379080519060200190612e46929190613614565b505050565b600060019054906101000a900460ff16612e9a576040517f08c379a0000000000000000000000000000000000000000000000000000000008152600401612e91906149bb565b60405180910390fd5b612eaa612ea5612671565b611eaa565b565b600060019054906101000a900460ff16612efb576040517f08c379a0000000000000000000000000000000000000000000000000000000008152600401612ef2906149bb565b60405180910390fd5b600060fb60006101000a81548160ff021916908315150217905550565b600060019054906101000a900460ff16612f67576040517f08c379a0000000000000000000000000000000000000000000000000000000008152600401612f5e906149bb565b60405180910390fd5b6000828051906020012090506000828051906020012090508161012d819055508061012e8190555050505050565b6001816000016000828254019250508190555050565b60008282604051602001612fc09291906150d4565b60405160208183030381529060405280519060200120905092915050565b6000807f7fffffffffffffffffffffffffffffff5d576e7357a4501ddfe92f46681b20a08360001c11156130195760006003915091506130b8565b60006001878787876040516000815260200160405260405161303e949392919061510b565b6020604051602081039080840390855afa158015613060573d6000803e3d6000fd5b505050602060405103519050600073ffffffffffffffffffffffffffffffffffffffff168173ffffffffffffffffffffffffffffffffffffffff1614156130af576000600192509250506130b8565b80600092509250505b94509492505050565b600060048111156130d5576130d4615150565b5b8160048111156130e8576130e7615150565b5b14156130f35761322c565b6001600481111561310757613106615150565b5b81600481111561311a57613119615150565b5b141561315b576040517f08c379a0000000000000000000000000000000000000000000000000000000008152600401613152906151cb565b60405180910390fd5b6002600481111561316f5761316e615150565b5b81600481111561318257613181615150565b5b14156131c3576040517f08c379a00000000000000000000000000000000000000000000000000000000081526004016131ba90615237565b60405180910390fd5b600360048111156131d7576131d6615150565b5b8160048111156131ea576131e9615150565b5b141561322b576040517f08c379a0000000000000000000000000000000000000000000000000000000008152600401613222906152c9565b60405180910390fd5b5b50565b613238816129e4565b8073ffffffffffffffffffffffffffffffffffffffff167fbc7cd75a20ee27fd9adebab32041f755214dbc6bffa90cc0225b39da2e5c2d3b60405160405180910390a250565b606061328983611f9e565b6132c8576040517f08c379a00000000000000000000000000000000000000000000000000000000081526004016132bf9061535b565b60405180910390fd5b6000808473ffffffffffffffffffffffffffffffffffffffff16846040516132f091906153c2565b600060405180830381855af49150503d806000811461332b576040519150601f19603f3d011682016040523d82523d6000602084013e613330565b606091505b5091509150613358828260405180606001604052806027815260200161543a60279139613464565b9250505092915050565b61336d838383613486565b600073ffffffffffffffffffffffffffffffffffffffff168373ffffffffffffffffffffffffffffffffffffffff1614156133b8576133ab8261348b565b6133b36134de565b613417565b600073ffffffffffffffffffffffffffffffffffffffff168273ffffffffffffffffffffffffffffffffffffffff161415613403576133f68361348b565b6133fe6134de565b613416565b61340c8361348b565b6134158261348b565b5b5b505050565b6000600282841861342d9190615408565b82841661343a9190614780565b905092915050565b6000808360005282602060002001905061345b816134f2565b91505092915050565b606083156134745782905061347f565b61347e83836134fc565b5b9392505050565b505050565b6134db609760008373ffffffffffffffffffffffffffffffffffffffff1673ffffffffffffffffffffffffffffffffffffffff1681526020019081526020016000206134d683610fba565b61354c565b50565b6134f060986134eb610900565b61354c565b565b6000819050919050565b60008251111561350f5781518083602001fd5b806040517f08c379a00000000000000000000000000000000000000000000000000000000081526004016135439190613784565b60405180910390fd5b6000613556612cff565b905080613565846000016135c7565b10156135c25782600001819080600181540180825580915050600190039060005260206000200160009091909190915055826001018290806001815401808255809150506001900390600052602060002001600090919091909150555b505050565b600080828054905014156135de576000905061360f565b81600183805490506135f09190615028565b815481106136015761360061491a565b5b906000526020600020015490505b919050565b82805461362090613d61565b90600052602060002090601f0160209004810192826136425760008555613689565b82601f1061365b57805160ff1916838001178555613689565b82800160010185558215613689579182015b8281111561368857825182559160200191906001019061366d565b5b509050613696919061369a565b5090565b5b808211156136b357600081600090555060010161369b565b5090565b6000819050919050565b6136ca816136b7565b82525050565b60006020820190506136e560008301846136c1565b92915050565b600081519050919050565b600082825260208201905092915050565b60005b8381101561372557808201518184015260208101905061370a565b83811115613734576000848401525b50505050565b6000601f19601f8301169050919050565b6000613756826136eb565b61376081856136f6565b9350613770818560208601613707565b6137798161373a565b840191505092915050565b6000602082019050818103600083015261379e818461374b565b905092915050565b6000604051905090565b600080fd5b600080fd5b600073ffffffffffffffffffffffffffffffffffffffff82169050919050565b60006137e5826137ba565b9050919050565b6137f5816137da565b811461380057600080fd5b50565b600081359050613812816137ec565b92915050565b613821816136b7565b811461382c57600080fd5b50565b60008135905061383e81613818565b92915050565b6000806040838503121561385b5761385a6137b0565b5b600061386985828601613803565b925050602061387a8582860161382f565b9150509250929050565b60008115159050919050565b61389981613884565b82525050565b60006020820190506138b46000830184613890565b92915050565b6000806000606084860312156138d3576138d26137b0565b5b60006138e186828701613803565b93505060206138f286828701613803565b92505060406139038682870161382f565b9150509250925092565b600060ff82169050919050565b6139238161390d565b82525050565b600060208201905061393e600083018461391a565b92915050565b61394d816137da565b82525050565b60006020820190506139686000830184613944565b92915050565b6000819050919050565b6139818161396e565b82525050565b600060208201905061399c6000830184613978565b92915050565b6000602082840312156139b8576139b76137b0565b5b60006139c684828501613803565b91505092915050565b6000602082840312156139e5576139e46137b0565b5b60006139f38482850161382f565b91505092915050565b600080fd5b600080fd5b7f4e487b7100000000000000000000000000000000000000000000000000000000600052604160045260246000fd5b613a3e8261373a565b810181811067ffffffffffffffff82111715613a5d57613a5c613a06565b5b80604052505050565b6000613a706137a6565b9050613a7c8282613a35565b919050565b600067ffffffffffffffff821115613a9c57613a9b613a06565b5b613aa58261373a565b9050602081019050919050565b82818337600083830152505050565b6000613ad4613acf84613a81565b613a66565b905082815260208101848484011115613af057613aef613a01565b5b613afb848285613ab2565b509392505050565b600082601f830112613b1857613b176139fc565b5b8135613b28848260208601613ac1565b91505092915050565b60008060408385031215613b4857613b476137b0565b5b6000613b5685828601613803565b925050602083013567ffffffffffffffff811115613b7757613b766137b5565b5b613b8385828601613b03565b9150509250929050565b6000613b98826137ba565b9050919050565b613ba881613b8d565b8114613bb357600080fd5b50565b600081359050613bc581613b9f565b92915050565b600060208284031215613be157613be06137b0565b5b6000613bef84828501613bb6565b91505092915050565b613c018161390d565b8114613c0c57600080fd5b50565b600081359050613c1e81613bf8565b92915050565b613c2d8161396e565b8114613c3857600080fd5b50565b600081359050613c4a81613c24565b92915050565b600080600080600080600060e0888a031215613c6f57613c6e6137b0565b5b6000613c7d8a828b01613803565b9750506020613c8e8a828b01613803565b9650506040613c9f8a828b0161382f565b9550506060613cb08a828b0161382f565b9450506080613cc18a828b01613c0f565b93505060a0613cd28a828b01613c3b565b92505060c0613ce38a828b01613c3b565b91505092959891949750929550565b60008060408385031215613d0957613d086137b0565b5b6000613d1785828601613803565b9250506020613d2885828601613803565b9150509250929050565b7f4e487b7100000000000000000000000000000000000000000000000000000000600052602260045260246000fd5b60006002820490506001821680613d7957607f821691505b60208210811415613d8d57613d8c613d32565b5b50919050565b7f555345525f4e4f545f5645524946494544000000000000000000000000000000600082015250565b6000613dc96011836136f6565b9150613dd482613d93565b602082019050919050565b60006020820190508181036000830152613df881613dbc565b9050919050565b7f46756e6374696f6e206d7573742062652063616c6c6564207468726f7567682060008201527f64656c656761746563616c6c0000000000000000000000000000000000000000602082015250565b6000613e5b602c836136f6565b9150613e6682613dff565b604082019050919050565b60006020820190508181036000830152613e8a81613e4e565b9050919050565b7f46756e6374696f6e206d7573742062652063616c6c6564207468726f7567682060008201527f6163746976652070726f78790000000000000000000000000000000000000000602082015250565b6000613eed602c836136f6565b9150613ef882613e91565b604082019050919050565b60006020820190508181036000830152613f1c81613ee0565b9050919050565b7f555550535570677261646561626c653a206d757374206e6f742062652063616c60008201527f6c6564207468726f7567682064656c656761746563616c6c0000000000000000602082015250565b6000613f7f6038836136f6565b9150613f8a82613f23565b604082019050919050565b60006020820190508181036000830152613fae81613f72565b9050919050565b7f496e697469616c697a61626c653a20636f6e747261637420697320616c72656160008201527f647920696e697469616c697a6564000000000000000000000000000000000000602082015250565b6000614011602e836136f6565b915061401c82613fb5565b604082019050919050565b6000602082019050818103600083015261404081614004565b9050919050565b6000819050919050565b6000819050919050565b600061407661407161406c84614047565b614051565b61390d565b9050919050565b6140868161405b565b82525050565b60006020820190506140a1600083018461407d565b92915050565b7f66726f6d3a205452414e534645525f52455155495245445f564552494649434160008201527f54494f4e5f490000000000000000000000000000000000000000000000000000602082015250565b60006141036026836136f6565b915061410e826140a7565b604082019050919050565b60006020820190508181036000830152614132816140f6565b9050919050565b7f746f203a205452414e534645525f52455155495245445f56455249464943415460008201527f494f4e5f49000000000000000000000000000000000000000000000000000000602082015250565b60006141956025836136f6565b91506141a082614139565b604082019050919050565b600060208201905081810360008301526141c481614188565b9050919050565b7f66726f6d3a205452414e534645525f52455155495245445f4d554c54495f534960008201527f474e415455524500000000000000000000000000000000000000000000000000602082015250565b60006142276027836136f6565b9150614232826141cb565b604082019050919050565b600060208201905081810360008301526142568161421a565b9050919050565b7f746f3a205452414e534645525f52455155495245445f4d554c54495f5349474e60008201527f4154555245000000000000000000000000000000000000000000000000000000602082015250565b60006142b96025836136f6565b91506142c48261425d565b604082019050919050565b600060208201905081810360008301526142e8816142ac565b9050919050565b7f45524332305065726d69743a206578706972656420646561646c696e65000000600082015250565b6000614325601d836136f6565b9150614330826142ef565b602082019050919050565b6000602082019050818103600083015261435481614318565b9050919050565b600060c0820190506143706000830189613978565b61437d6020830188613944565b61438a6040830187613944565b61439760608301866136c1565b6143a460808301856136c1565b6143b160a08301846136c1565b979650505050505050565b7f45524332305065726d69743a20696e76616c6964207369676e61747572650000600082015250565b60006143f2601e836136f6565b91506143fd826143bc565b602082019050919050565b60006020820190508181036000830152614421816143e5565b9050919050565b7f4f776e61626c653a206e6577206f776e657220697320746865207a65726f206160008201527f6464726573730000000000000000000000000000000000000000000000000000602082015250565b60006144846026836136f6565b915061448f82614428565b604082019050919050565b600060208201905081810360008301526144b381614477565b9050919050565b7f5061757361626c653a2070617573656400000000000000000000000000000000600082015250565b60006144f06010836136f6565b91506144fb826144ba565b602082019050919050565b6000602082019050818103600083015261451f816144e3565b9050919050565b7f4f776e61626c653a2063616c6c6572206973206e6f7420746865206f776e6572600082015250565b600061455c6020836136f6565b915061456782614526565b602082019050919050565b6000602082019050818103600083015261458b8161454f565b9050919050565b61459b81613884565b81146145a657600080fd5b50565b6000815190506145b881614592565b92915050565b6000602082840312156145d4576145d36137b0565b5b60006145e2848285016145a9565b91505092915050565b6000815190506145fa81613c24565b92915050565b600060208284031215614616576146156137b0565b5b6000614624848285016145eb565b91505092915050565b7f45524331393637557067726164653a206e657720696d706c656d656e7461746960008201527f6f6e206973206e6f742055555053000000000000000000000000000000000000602082015250565b6000614689602e836136f6565b91506146948261462d565b604082019050919050565b600060208201905081810360008301526146b88161467c565b9050919050565b7f45524331393637557067726164653a20756e737570706f727465642070726f7860008201527f6961626c65555549440000000000000000000000000000000000000000000000602082015250565b600061471b6029836136f6565b9150614726826146bf565b604082019050919050565b6000602082019050818103600083015261474a8161470e565b9050919050565b7f4e487b7100000000000000000000000000000000000000000000000000000000600052601160045260246000fd5b600061478b826136b7565b9150614796836136b7565b9250827fffffffffffffffffffffffffffffffffffffffffffffffffffffffffffffffff038211156147cb576147ca614751565b5b828201905092915050565b7f45524332303a206d696e7420746f20746865207a65726f206164647265737300600082015250565b600061480c601f836136f6565b9150614817826147d6565b602082019050919050565b6000602082019050818103600083015261483b816147ff565b9050919050565b7f4552433230536e617073686f743a206964206973203000000000000000000000600082015250565b60006148786016836136f6565b915061488382614842565b602082019050919050565b600060208201905081810360008301526148a78161486b565b9050919050565b7f4552433230536e617073686f743a206e6f6e6578697374656e74206964000000600082015250565b60006148e4601d836136f6565b91506148ef826148ae565b602082019050919050565b60006020820190508181036000830152614913816148d7565b9050919050565b7f4e487b7100000000000000000000000000000000000000000000000000000000600052603260045260246000fd5b7f496e697469616c697a61626c653a20636f6e7472616374206973206e6f74206960008201527f6e697469616c697a696e67000000000000000000000000000000000000000000602082015250565b60006149a5602b836136f6565b91506149b082614949565b604082019050919050565b600060208201905081810360008301526149d481614998565b9050919050565b7f45524332303a2064656372656173656420616c6c6f77616e63652062656c6f7760008201527f207a65726f000000000000000000000000000000000000000000000000000000602082015250565b6000614a376025836136f6565b9150614a42826149db565b604082019050919050565b60006020820190508181036000830152614a6681614a2a565b9050919050565b7f45524332303a20617070726f76652066726f6d20746865207a65726f2061646460008201527f7265737300000000000000000000000000000000000000000000000000000000602082015250565b6000614ac96024836136f6565b9150614ad482614a6d565b604082019050919050565b60006020820190508181036000830152614af881614abc565b9050919050565b7f45524332303a20617070726f766520746f20746865207a65726f20616464726560008201527f7373000000000000000000000000000000000000000000000000000000000000602082015250565b6000614b5b6022836136f6565b9150614b6682614aff565b604082019050919050565b60006020820190508181036000830152614b8a81614b4e565b9050919050565b7f45524332303a20696e73756666696369656e7420616c6c6f77616e6365000000600082015250565b6000614bc7601d836136f6565b9150614bd282614b91565b602082019050919050565b60006020820190508181036000830152614bf681614bba565b9050919050565b7f45524332303a207472616e736665722066726f6d20746865207a65726f20616460008201527f6472657373000000000000000000000000000000000000000000000000000000602082015250565b6000614c596025836136f6565b9150614c6482614bfd565b604082019050919050565b60006020820190508181036000830152614c8881614c4c565b9050919050565b7f45524332303a207472616e7366657220746f20746865207a65726f206164647260008201527f6573730000000000000000000000000000000000000000000000000000000000602082015250565b6000614ceb6023836136f6565b9150614cf682614c8f565b604082019050919050565b60006020820190508181036000830152614d1a81614cde565b9050919050565b7f45524332303a207472616e7366657220616d6f756e742065786365656473206260008201527f616c616e63650000000000000000000000000000000000000000000000000000602082015250565b6000614d7d6026836136f6565b9150614d8882614d21565b604082019050919050565b60006020820190508181036000830152614dac81614d70565b9050919050565b600060a082019050614dc86000830188613978565b614dd56020830187613978565b614de26040830186613978565b614def60608301856136c1565b614dfc6080830184613944565b9695505050505050565b7f455243313936373a206e657720696d706c656d656e746174696f6e206973206e60008201527f6f74206120636f6e747261637400000000000000000000000000000000000000602082015250565b6000614e62602d836136f6565b9150614e6d82614e06565b604082019050919050565b60006020820190508181036000830152614e9181614e55565b9050919050565b7f5061757361626c653a206e6f7420706175736564000000000000000000000000600082015250565b6000614ece6014836136f6565b9150614ed982614e98565b602082019050919050565b60006020820190508181036000830152614efd81614ec1565b9050919050565b7f45524332303a206275726e2066726f6d20746865207a65726f2061646472657360008201527f7300000000000000000000000000000000000000000000000000000000000000602082015250565b6000614f606021836136f6565b9150614f6b82614f04565b604082019050919050565b60006020820190508181036000830152614f8f81614f53565b9050919050565b7f45524332303a206275726e20616d6f756e7420657863656564732062616c616e60008201527f6365000000000000000000000000000000000000000000000000000000000000602082015250565b6000614ff26022836136f6565b9150614ffd82614f96565b604082019050919050565b6000602082019050818103600083015261502181614fe5565b9050919050565b6000615033826136b7565b915061503e836136b7565b92508282101561505157615050614751565b5b828203905092915050565b600081905092915050565b7f1901000000000000000000000000000000000000000000000000000000000000600082015250565b600061509d60028361505c565b91506150a882615067565b600282019050919050565b6000819050919050565b6150ce6150c98261396e565b6150b3565b82525050565b60006150df82615090565b91506150eb82856150bd565b6020820191506150fb82846150bd565b6020820191508190509392505050565b60006080820190506151206000830187613978565b61512d602083018661391a565b61513a6040830185613978565b6151476060830184613978565b95945050505050565b7f4e487b7100000000000000000000000000000000000000000000000000000000600052602160045260246000fd5b7f45434453413a20696e76616c6964207369676e61747572650000000000000000600082015250565b60006151b56018836136f6565b91506151c08261517f565b602082019050919050565b600060208201905081810360008301526151e4816151a8565b9050919050565b7f45434453413a20696e76616c6964207369676e6174757265206c656e67746800600082015250565b6000615221601f836136f6565b915061522c826151eb565b602082019050919050565b6000602082019050818103600083015261525081615214565b9050919050565b7f45434453413a20696e76616c6964207369676e6174757265202773272076616c60008201527f7565000000000000000000000000000000000000000000000000000000000000602082015250565b60006152b36022836136f6565b91506152be82615257565b604082019050919050565b600060208201905081810360008301526152e2816152a6565b9050919050565b7f416464726573733a2064656c65676174652063616c6c20746f206e6f6e2d636f60008201527f6e74726163740000000000000000000000000000000000000000000000000000602082015250565b60006153456026836136f6565b9150615350826152e9565b604082019050919050565b6000602082019050818103600083015261537481615338565b9050919050565b600081519050919050565b600081905092915050565b600061539c8261537b565b6153a68185615386565b93506153b6818560208601613707565b80840191505092915050565b60006153ce8284615391565b915081905092915050565b7f4e487b7100000000000000000000000000000000000000000000000000000000600052601260045260246000fd5b6000615413826136b7565b915061541e836136b7565b92508261542e5761542d6153d9565b5b82820490509291505056fe416464726573733a206c6f772d6c6576656c2064656c65676174652063616c6c206661696c6564a2646970667358221220afa91094ffe3dc96c5a68743b6ec299a58921ca602cbe190e70a8c9732242aec64736f6c63430008090033",
  "devdoc": {
    "custom:security-contact": "zohaib10092001@gmail.com",
    "kind": "dev",
    "methods": {
      "DOMAIN_SEPARATOR()": {
        "details": "See {IERC20Permit-DOMAIN_SEPARATOR}."
      },
      "approve(address,uint256)": {
        "details": "See {IERC20-approve}. NOTE: If `amount` is the maximum `uint256`, the allowance is not updated on `transferFrom`. This is semantically equivalent to an infinite approval. Requirements: - `spender` cannot be the zero address."
      },
      "balanceOf(address)": {
        "details": "See {IERC20-balanceOf}."
      },
      "balanceOfAt(address,uint256)": {
        "details": "Retrieves the balance of `account` at the time `snapshotId` was created."
      },
      "burn(uint256)": {
        "details": "Destroys `amount` tokens from the caller. See {ERC20-_burn}."
      },
      "burnFrom(address,uint256)": {
        "details": "Destroys `amount` tokens from `account`, deducting from the caller's allowance. See {ERC20-_burn} and {ERC20-allowance}. Requirements: - the caller must have allowance for ``accounts``'s tokens of at least `amount`."
      },
      "constructor": {
        "custom:oz-upgrades-unsafe-allow": "constructor"
      },
      "decimals()": {
        "details": "Returns the number of decimals used to get its user representation. For example, if `decimals` equals `2`, a balance of `505` tokens should be displayed to a user as `5.05` (`505 / 10 ** 2`). Tokens usually opt for a value of 18, imitating the relationship between Ether and Wei. This is the value {ERC20} uses, unless this function is overridden; NOTE: This information is only used for _display_ purposes: it in no way affects any of the arithmetic of the contract, including {IERC20-balanceOf} and {IERC20-transfer}."
      },
      "decreaseAllowance(address,uint256)": {
        "details": "Atomically decreases the allowance granted to `spender` by the caller. This is an alternative to {approve} that can be used as a mitigation for problems described in {IERC20-approve}. Emits an {Approval} event indicating the updated allowance. Requirements: - `spender` cannot be the zero address. - `spender` must have allowance for the caller of at least `subtractedValue`."
      },
      "increaseAllowance(address,uint256)": {
        "details": "Atomically increases the allowance granted to `spender` by the caller. This is an alternative to {approve} that can be used as a mitigation for problems described in {IERC20-approve}. Emits an {Approval} event indicating the updated allowance. Requirements: - `spender` cannot be the zero address."
      },
      "name()": {
        "details": "Returns the name of the token."
      },
      "nonces(address)": {
        "details": "See {IERC20Permit-nonces}."
      },
      "owner()": {
        "details": "Returns the address of the current owner."
      },
      "paused()": {
        "details": "Returns true if the contract is paused, and false otherwise."
      },
      "permit(address,address,uint256,uint256,uint8,bytes32,bytes32)": {
        "details": "See {IERC20Permit-permit}."
      },
      "proxiableUUID()": {
        "details": "Implementation of the ERC1822 {proxiableUUID} function. This returns the storage slot used by the implementation. It is used to validate the implementation's compatibility when performing an upgrade. IMPORTANT: A proxy pointing at a proxiable contract should not be considered proxiable itself, because this risks bricking a proxy that upgrades to it, by delegating to itself until out of gas. Thus it is critical that this function revert if invoked through a proxy. This is guaranteed by the `notDelegated` modifier."
      },
      "renounceOwnership()": {
        "details": "Leaves the contract without owner. It will not be possible to call `onlyOwner` functions anymore. Can only be called by the current owner. NOTE: Renouncing ownership will leave the contract without an owner, thereby removing any functionality that is only available to the owner."
      },
      "symbol()": {
        "details": "Returns the symbol of the token, usually a shorter version of the name."
      },
      "totalSupply()": {
        "details": "See {IERC20-totalSupply}."
      },
      "totalSupplyAt(uint256)": {
        "details": "Retrieves the total supply at the time `snapshotId` was created."
      },
      "transfer(address,uint256)": {
        "details": "See {IERC20-transfer}. Requirements: - `to` cannot be the zero address. - the caller must have a balance of at least `amount`."
      },
      "transferFrom(address,address,uint256)": {
        "details": "See {IERC20-transferFrom}. Emits an {Approval} event indicating the updated allowance. This is not required by the EIP. See the note at the beginning of {ERC20}. NOTE: Does not update the allowance if the current allowance is the maximum `uint256`. Requirements: - `from` and `to` cannot be the zero address. - `from` must have a balance of at least `amount`. - the caller must have allowance for ``from``'s tokens of at least `amount`."
      },
      "transferOwnership(address)": {
        "details": "Transfers ownership of the contract to a new account (`newOwner`). Can only be called by the current owner."
      },
      "upgradeTo(address)": {
        "details": "Upgrade the implementation of the proxy to `newImplementation`. Calls {_authorizeUpgrade}. Emits an {Upgraded} event."
      },
      "upgradeToAndCall(address,bytes)": {
        "details": "Upgrade the implementation of the proxy to `newImplementation`, and subsequently execute the function call encoded in `data`. Calls {_authorizeUpgrade}. Emits an {Upgraded} event."
      }
    },
    "version": 1
  },
  "userdoc": {
    "kind": "user",
    "methods": {},
    "version": 1
  },
  "storageLayout": {
    "storage": [
      {
        "astId": 527,
        "contract": "contracts/PKDR.sol:PKDR",
        "label": "_initialized",
        "offset": 0,
        "slot": "0",
        "type": "t_uint8"
      },
      {
        "astId": 530,
        "contract": "contracts/PKDR.sol:PKDR",
        "label": "_initializing",
        "offset": 1,
        "slot": "0",
        "type": "t_bool"
      },
      {
        "astId": 2787,
        "contract": "contracts/PKDR.sol:PKDR",
        "label": "__gap",
        "offset": 0,
        "slot": "1",
        "type": "t_array(t_uint256)50_storage"
      },
      {
        "astId": 971,
        "contract": "contracts/PKDR.sol:PKDR",
        "label": "_balances",
        "offset": 0,
        "slot": "51",
        "type": "t_mapping(t_address,t_uint256)"
      },
      {
        "astId": 977,
        "contract": "contracts/PKDR.sol:PKDR",
        "label": "_allowances",
        "offset": 0,
        "slot": "52",
        "type": "t_mapping(t_address,t_mapping(t_address,t_uint256))"
      },
      {
        "astId": 979,
        "contract": "contracts/PKDR.sol:PKDR",
        "label": "_totalSupply",
        "offset": 0,
        "slot": "53",
        "type": "t_uint256"
      },
      {
        "astId": 981,
        "contract": "contracts/PKDR.sol:PKDR",
        "label": "_name",
        "offset": 0,
        "slot": "54",
        "type": "t_string_storage"
      },
      {
        "astId": 983,
        "contract": "contracts/PKDR.sol:PKDR",
        "label": "_symbol",
        "offset": 0,
        "slot": "55",
        "type": "t_string_storage"
      },
      {
        "astId": 1563,
        "contract": "contracts/PKDR.sol:PKDR",
        "label": "__gap",
        "offset": 0,
        "slot": "56",
        "type": "t_array(t_uint256)45_storage"
      },
      {
        "astId": 1705,
        "contract": "contracts/PKDR.sol:PKDR",
        "label": "__gap",
        "offset": 0,
        "slot": "101",
        "type": "t_array(t_uint256)50_storage"
      },
      {
        "astId": 1749,
        "contract": "contracts/PKDR.sol:PKDR",
        "label": "_accountBalanceSnapshots",
        "offset": 0,
        "slot": "151",
        "type": "t_mapping(t_address,t_struct(Snapshots)1744_storage)"
      },
      {
        "astId": 1752,
        "contract": "contracts/PKDR.sol:PKDR",
        "label": "_totalSupplySnapshots",
        "offset": 0,
        "slot": "152",
        "type": "t_struct(Snapshots)1744_storage"
      },
      {
        "astId": 1755,
        "contract": "contracts/PKDR.sol:PKDR",
        "label": "_currentSnapshotId",
        "offset": 0,
        "slot": "154",
        "type": "t_struct(Counter)2794_storage"
      },
      {
        "astId": 2053,
        "contract": "contracts/PKDR.sol:PKDR",
        "label": "__gap",
        "offset": 0,
        "slot": "155",
        "type": "t_array(t_uint256)46_storage"
      },
      {
        "astId": 10,
        "contract": "contracts/PKDR.sol:PKDR",
        "label": "_owner",
        "offset": 0,
        "slot": "201",
        "type": "t_address"
      },
      {
        "astId": 130,
        "contract": "contracts/PKDR.sol:PKDR",
        "label": "__gap",
        "offset": 0,
        "slot": "202",
        "type": "t_array(t_uint256)49_storage"
      },
      {
        "astId": 846,
        "contract": "contracts/PKDR.sol:PKDR",
        "label": "_paused",
        "offset": 0,
        "slot": "251",
        "type": "t_bool"
      },
      {
        "astId": 951,
        "contract": "contracts/PKDR.sol:PKDR",
        "label": "__gap",
        "offset": 0,
        "slot": "252",
        "type": "t_array(t_uint256)49_storage"
      },
      {
        "astId": 3467,
        "contract": "contracts/PKDR.sol:PKDR",
        "label": "_HASHED_NAME",
        "offset": 0,
        "slot": "301",
        "type": "t_bytes32"
      },
      {
        "astId": 3469,
        "contract": "contracts/PKDR.sol:PKDR",
        "label": "_HASHED_VERSION",
        "offset": 0,
        "slot": "302",
        "type": "t_bytes32"
      },
      {
        "astId": 3607,
        "contract": "contracts/PKDR.sol:PKDR",
        "label": "__gap",
        "offset": 0,
        "slot": "303",
        "type": "t_array(t_uint256)50_storage"
      },
      {
        "astId": 2105,
        "contract": "contracts/PKDR.sol:PKDR",
        "label": "_nonces",
        "offset": 0,
        "slot": "353",
        "type": "t_mapping(t_address,t_struct(Counter)2794_storage)"
      },
      {
        "astId": 2113,
        "contract": "contracts/PKDR.sol:PKDR",
        "label": "_PERMIT_TYPEHASH_DEPRECATED_SLOT",
        "offset": 0,
        "slot": "354",
        "type": "t_bytes32"
      },
      {
        "astId": 2269,
        "contract": "contracts/PKDR.sol:PKDR",
        "label": "__gap",
        "offset": 0,
        "slot": "355",
        "type": "t_array(t_uint256)49_storage"
      },
      {
        "astId": 509,
        "contract": "contracts/PKDR.sol:PKDR",
        "label": "__gap",
        "offset": 0,
        "slot": "404",
        "type": "t_array(t_uint256)50_storage"
      },
      {
        "astId": 824,
        "contract": "contracts/PKDR.sol:PKDR",
        "label": "__gap",
        "offset": 0,
        "slot": "454",
        "type": "t_array(t_uint256)50_storage"
      },
      {
        "astId": 5344,
        "contract": "contracts/PKDR.sol:PKDR",
        "label": "profiles",
        "offset": 0,
        "slot": "504",
        "type": "t_contract(Profiles)6341"
      }
    ],
    "types": {
      "t_address": {
        "encoding": "inplace",
        "label": "address",
        "numberOfBytes": "20"
      },
      "t_array(t_uint256)45_storage": {
        "base": "t_uint256",
        "encoding": "inplace",
        "label": "uint256[45]",
        "numberOfBytes": "1440"
      },
      "t_array(t_uint256)46_storage": {
        "base": "t_uint256",
        "encoding": "inplace",
        "label": "uint256[46]",
        "numberOfBytes": "1472"
      },
      "t_array(t_uint256)49_storage": {
        "base": "t_uint256",
        "encoding": "inplace",
        "label": "uint256[49]",
        "numberOfBytes": "1568"
      },
      "t_array(t_uint256)50_storage": {
        "base": "t_uint256",
        "encoding": "inplace",
        "label": "uint256[50]",
        "numberOfBytes": "1600"
      },
      "t_array(t_uint256)dyn_storage": {
        "base": "t_uint256",
        "encoding": "dynamic_array",
        "label": "uint256[]",
        "numberOfBytes": "32"
      },
      "t_bool": {
        "encoding": "inplace",
        "label": "bool",
        "numberOfBytes": "1"
      },
      "t_bytes32": {
        "encoding": "inplace",
        "label": "bytes32",
        "numberOfBytes": "32"
      },
      "t_contract(Profiles)6341": {
        "encoding": "inplace",
        "label": "contract Profiles",
        "numberOfBytes": "20"
      },
      "t_mapping(t_address,t_mapping(t_address,t_uint256))": {
        "encoding": "mapping",
        "key": "t_address",
        "label": "mapping(address => mapping(address => uint256))",
        "numberOfBytes": "32",
        "value": "t_mapping(t_address,t_uint256)"
      },
      "t_mapping(t_address,t_struct(Counter)2794_storage)": {
        "encoding": "mapping",
        "key": "t_address",
        "label": "mapping(address => struct CountersUpgradeable.Counter)",
        "numberOfBytes": "32",
        "value": "t_struct(Counter)2794_storage"
      },
      "t_mapping(t_address,t_struct(Snapshots)1744_storage)": {
        "encoding": "mapping",
        "key": "t_address",
        "label": "mapping(address => struct ERC20SnapshotUpgradeable.Snapshots)",
        "numberOfBytes": "32",
        "value": "t_struct(Snapshots)1744_storage"
      },
      "t_mapping(t_address,t_uint256)": {
        "encoding": "mapping",
        "key": "t_address",
        "label": "mapping(address => uint256)",
        "numberOfBytes": "32",
        "value": "t_uint256"
      },
      "t_string_storage": {
        "encoding": "bytes",
        "label": "string",
        "numberOfBytes": "32"
      },
      "t_struct(Counter)2794_storage": {
        "encoding": "inplace",
        "label": "struct CountersUpgradeable.Counter",
        "members": [
          {
            "astId": 2793,
            "contract": "contracts/PKDR.sol:PKDR",
            "label": "_value",
            "offset": 0,
            "slot": "0",
            "type": "t_uint256"
          }
        ],
        "numberOfBytes": "32"
      },
      "t_struct(Snapshots)1744_storage": {
        "encoding": "inplace",
        "label": "struct ERC20SnapshotUpgradeable.Snapshots",
        "members": [
          {
            "astId": 1740,
            "contract": "contracts/PKDR.sol:PKDR",
            "label": "ids",
            "offset": 0,
            "slot": "0",
            "type": "t_array(t_uint256)dyn_storage"
          },
          {
            "astId": 1743,
            "contract": "contracts/PKDR.sol:PKDR",
            "label": "values",
            "offset": 0,
            "slot": "1",
            "type": "t_array(t_uint256)dyn_storage"
          }
        ],
        "numberOfBytes": "64"
      },
      "t_uint256": {
        "encoding": "inplace",
        "label": "uint256",
        "numberOfBytes": "32"
      },
      "t_uint8": {
        "encoding": "inplace",
        "label": "uint8",
        "numberOfBytes": "1"
      }
    }
  }
}