{
  "address": "0x5FbDB2315678afecb367f032d93F642f64180aa3",
  "abi": [
    {
      "inputs": [],
      "stateMutability": "nonpayable",
      "type": "constructor"
    },
    {
      "inputs": [],
      "name": "USER_EXISTS_AND_VERIFIED",
      "type": "error"
    },
    {
      "inputs": [],
      "name": "USER_NOT_EXISTS",
      "type": "error"
    },
    {
      "inputs": [],
      "name": "USER_STATUS_ALREADY_REVOKED",
      "type": "error"
    },
    {
      "inputs": [],
      "name": "USER_STATUS_NOT_REVOKED",
      "type": "error"
    },
    {
      "anonymous": false,
      "inputs": [
        {
          "indexed": false,
          "internalType": "uint256",
          "name": "fallbackAmount",
          "type": "uint256"
        }
      ],
      "name": "AMOUNT_RECEIVED_THROUGH_FALLBACK",
      "type": "event"
    },
    {
      "anonymous": false,
      "inputs": [
        {
          "indexed": false,
          "internalType": "uint256",
          "name": "receiveAmount",
          "type": "uint256"
        }
      ],
      "name": "AMOUNT_RECEIVED_THROUGH_RECEIVE",
      "type": "event"
    },
    {
      "anonymous": false,
      "inputs": [
        {
          "indexed": false,
          "internalType": "address",
          "name": "previousAdmin",
          "type": "address"
        },
        {
          "indexed": false,
          "internalType": "address",
          "name": "newAdmin",
          "type": "address"
        }
      ],
      "name": "AdminChanged",
      "type": "event"
    },
    {
      "anonymous": false,
      "inputs": [
        {
          "indexed": true,
          "internalType": "address",
          "name": "beacon",
          "type": "address"
        }
      ],
      "name": "BeaconUpgraded",
      "type": "event"
    },
    {
      "anonymous": false,
      "inputs": [
        {
          "indexed": false,
          "internalType": "uint8",
          "name": "version",
          "type": "uint8"
        }
      ],
      "name": "Initialized",
      "type": "event"
    },
    {
      "anonymous": false,
      "inputs": [
        {
          "indexed": false,
          "internalType": "address",
          "name": "user",
          "type": "address"
        }
      ],
      "name": "MULTISIG_RETAINED",
      "type": "event"
    },
    {
      "anonymous": false,
      "inputs": [
        {
          "indexed": false,
          "internalType": "address",
          "name": "user",
          "type": "address"
        }
      ],
      "name": "MULTISIG_REVOKED",
      "type": "event"
    },
    {
      "anonymous": false,
      "inputs": [
        {
          "indexed": true,
          "internalType": "address",
          "name": "previousOwner",
          "type": "address"
        },
        {
          "indexed": true,
          "internalType": "address",
          "name": "newOwner",
          "type": "address"
        }
      ],
      "name": "OwnershipTransferred",
      "type": "event"
    },
    {
      "anonymous": false,
      "inputs": [
        {
          "indexed": true,
          "internalType": "address",
          "name": "user",
          "type": "address"
        }
      ],
      "name": "PROFILE_CREATED",
      "type": "event"
    },
    {
      "anonymous": false,
      "inputs": [
        {
          "indexed": false,
          "internalType": "address",
          "name": "user",
          "type": "address"
        }
      ],
      "name": "PROFILE_RETAINED",
      "type": "event"
    },
    {
      "anonymous": false,
      "inputs": [
        {
          "indexed": false,
          "internalType": "address",
          "name": "user",
          "type": "address"
        }
      ],
      "name": "PROFILE_REVOKED",
      "type": "event"
    },
    {
      "anonymous": false,
      "inputs": [
        {
          "indexed": true,
          "internalType": "address",
          "name": "implementation",
          "type": "address"
        }
      ],
      "name": "Upgraded",
      "type": "event"
    },
    {
      "anonymous": false,
      "inputs": [
        {
          "indexed": false,
          "internalType": "address",
          "name": "_user",
          "type": "address"
        }
      ],
      "name": "ZK_VERIFICATION_RETAINED",
      "type": "event"
    },
    {
      "anonymous": false,
      "inputs": [
        {
          "indexed": false,
          "internalType": "address",
          "name": "_user",
          "type": "address"
        }
      ],
      "name": "ZK_VERIFICATION_REVOKED",
      "type": "event"
    },
    {
      "stateMutability": "payable",
      "type": "fallback"
    },
    {
      "inputs": [
        {
          "internalType": "address",
          "name": "_user",
          "type": "address"
        }
      ],
      "name": "createProfile",
      "outputs": [],
      "stateMutability": "nonpayable",
      "type": "function"
    },
    {
      "inputs": [],
      "name": "getAdminAddress",
      "outputs": [
        {
          "internalType": "address",
          "name": "",
          "type": "address"
        }
      ],
      "stateMutability": "view",
      "type": "function"
    },
    {
      "inputs": [
        {
          "internalType": "address",
          "name": "_user",
          "type": "address"
        }
      ],
      "name": "getMultiSig",
      "outputs": [
        {
          "internalType": "bytes32",
          "name": "",
          "type": "bytes32"
        }
      ],
      "stateMutability": "view",
      "type": "function"
    },
    {
      "inputs": [
        {
          "internalType": "address",
          "name": "_user",
          "type": "address"
        }
      ],
      "name": "getUser",
      "outputs": [
        {
          "components": [
            {
              "internalType": "address",
              "name": "userPubAddress",
              "type": "address"
            },
            {
              "internalType": "bytes32",
              "name": "multiSig",
              "type": "bytes32"
            },
            {
              "internalType": "bool",
              "name": "verificationStatus_I",
              "type": "bool"
            },
            {
              "internalType": "bool",
              "name": "verificationStatus_II",
              "type": "bool"
            },
            {
              "internalType": "bool",
              "name": "isStatusRevoked",
              "type": "bool"
            }
          ],
          "internalType": "struct IProfiles.User",
          "name": "",
          "type": "tuple"
        }
      ],
      "stateMutability": "view",
      "type": "function"
    },
    {
      "inputs": [],
      "name": "getUsers",
      "outputs": [
        {
          "internalType": "address[]",
          "name": "",
          "type": "address[]"
        }
      ],
      "stateMutability": "view",
      "type": "function"
    },
    {
      "inputs": [
        {
          "internalType": "address",
          "name": "_user",
          "type": "address"
        }
      ],
      "name": "getVerifiedUser",
      "outputs": [
        {
          "internalType": "bool",
          "name": "",
          "type": "bool"
        }
      ],
      "stateMutability": "view",
      "type": "function"
    },
    {
      "inputs": [],
      "name": "initialize",
      "outputs": [],
      "stateMutability": "nonpayable",
      "type": "function"
    },
    {
      "inputs": [],
      "name": "owner",
      "outputs": [
        {
          "internalType": "address",
          "name": "",
          "type": "address"
        }
      ],
      "stateMutability": "view",
      "type": "function"
    },
    {
      "inputs": [],
      "name": "proxiableUUID",
      "outputs": [
        {
          "internalType": "bytes32",
          "name": "",
          "type": "bytes32"
        }
      ],
      "stateMutability": "view",
      "type": "function"
    },
    {
      "inputs": [],
      "name": "renounceOwnership",
      "outputs": [],
      "stateMutability": "nonpayable",
      "type": "function"
    },
    {
      "inputs": [
        {
          "internalType": "address",
          "name": "_user",
          "type": "address"
        }
      ],
      "name": "retainMultiSignature",
      "outputs": [],
      "stateMutability": "nonpayable",
      "type": "function"
    },
    {
      "inputs": [
        {
          "internalType": "address",
          "name": "_user",
          "type": "address"
        }
      ],
      "name": "retainVerification",
      "outputs": [],
      "stateMutability": "nonpayable",
      "type": "function"
    },
    {
      "inputs": [
        {
          "internalType": "address",
          "name": "_user",
          "type": "address"
        }
      ],
      "name": "retainZkVerification",
      "outputs": [],
      "stateMutability": "nonpayable",
      "type": "function"
    },
    {
      "inputs": [
        {
          "internalType": "address",
          "name": "_user",
          "type": "address"
        }
      ],
      "name": "revokeMultiSignature",
      "outputs": [],
      "stateMutability": "nonpayable",
      "type": "function"
    },
    {
      "inputs": [
        {
          "internalType": "address",
          "name": "_user",
          "type": "address"
        }
      ],
      "name": "revokeVerifiedUser",
      "outputs": [],
      "stateMutability": "nonpayable",
      "type": "function"
    },
    {
      "inputs": [
        {
          "internalType": "address",
          "name": "_user",
          "type": "address"
        }
      ],
      "name": "revokeZkVerification",
      "outputs": [],
      "stateMutability": "nonpayable",
      "type": "function"
    },
    {
      "inputs": [
        {
          "internalType": "address",
          "name": "newOwner",
          "type": "address"
        }
      ],
      "name": "transferOwnership",
      "outputs": [],
      "stateMutability": "nonpayable",
      "type": "function"
    },
    {
      "inputs": [
        {
          "internalType": "address",
          "name": "newImplementation",
          "type": "address"
        }
      ],
      "name": "upgradeTo",
      "outputs": [],
      "stateMutability": "nonpayable",
      "type": "function"
    },
    {
      "inputs": [
        {
          "internalType": "address",
          "name": "newImplementation",
          "type": "address"
        },
        {
          "internalType": "bytes",
          "name": "data",
          "type": "bytes"
        }
      ],
      "name": "upgradeToAndCall",
      "outputs": [],
      "stateMutability": "payable",
      "type": "function"
    },
    {
      "stateMutability": "payable",
      "type": "receive"
    }
  ],
  "transactionHash": "0x3e01510ad75e0d1099deab2d53c2b883d5b66b514993f7606251ee08a1a74a8d",
  "args": [],
  "numDeployments": 1,
  "solcInputHash": "52c8aa5a9f483965bc916a1d2f8a344e",
  "bytecode": "0x60e06040523073ffffffffffffffffffffffffffffffffffffffff1660809073ffffffffffffffffffffffffffffffffffffffff16815250600060c9556040516020016200004d90620001dc565b6040516020818303038152906040528051906020012060a0908152506040516020016200007a9062000243565b6040516020818303038152906040528051906020012060c090815250348015620000a357600080fd5b50620000b4620000ba60201b60201c565b6200033e565b600060019054906101000a900460ff16156200010d576040517f08c379a00000000000000000000000000000000000000000000000000000000081526004016200010490620002e1565b60405180910390fd5b60ff801660008054906101000a900460ff1660ff1610156200017f5760ff6000806101000a81548160ff021916908360ff1602179055507f7f26b83ff96e1f2b6a682f133852f6798a09c465da95921460cefb384740249860ff60405162000176919062000321565b60405180910390a15b565b600081905092915050565b7f415050524f564544000000000000000000000000000000000000000000000000600082015250565b6000620001c460088362000181565b9150620001d1826200018c565b600882019050919050565b6000620001e982620001b5565b9150819050919050565b7f4e554c4c00000000000000000000000000000000000000000000000000000000600082015250565b60006200022b60048362000181565b91506200023882620001f3565b600482019050919050565b600062000250826200021c565b9150819050919050565b600082825260208201905092915050565b7f496e697469616c697a61626c653a20636f6e747261637420697320696e69746960008201527f616c697a696e6700000000000000000000000000000000000000000000000000602082015250565b6000620002c96027836200025a565b9150620002d6826200026b565b604082019050919050565b60006020820190508181036000830152620002fc81620002ba565b9050919050565b600060ff82169050919050565b6200031b8162000303565b82525050565b600060208201905062000338600083018462000310565b92915050565b60805160a05160c0516131fd6200039f600039600081816113270152611624015260008181611283015281816116c801526119ae015260008181610650015281816106df0152818161098601528181610a150152610ac501526131fd6000f3fe6080604052600436106101175760003560e01c80638129fc1c116100a0578063b2e6b91211610064578063b2e6b912146103fb578063cde5535314610426578063d117fc991461044f578063f2fde38b1461048c578063f536c520146104b55761016e565b80638129fc1c1461033e57806387d55ff3146103555780638da5cb5b1461037e578063acfb7980146103a9578063b2b35eb4146103d25761016e565b80634f1ef286116100e75780634f1ef2861461027a57806352d1902d1461029657806354ef5c52146102c15780636f77926b146102ea578063715018a6146103275761016e565b8062ce8e3e146101c05780631e9f3d5e146101eb5780633659cfe614610228578063391a5bf0146102515761016e565b3661016e573460c9600082825461012e9190612306565b925050819055507f42100f075a78c1dac886a43652b5c7c76cca3718758e13e7b726063cd20fe02c34604051610164919061236b565b60405180910390a1005b3460c960008282546101809190612306565b925050819055507f6cb8a67804b99a2876f9d2f903120d1607df4c6bb33315433f4f5b9284ba1588346040516101b6919061236b565b60405180910390a1005b3480156101cc57600080fd5b506101d56104de565b6040516101e29190612476565b60405180910390f35b3480156101f757600080fd5b50610212600480360381019061020d91906124d8565b61057a565b60405161021f919061251e565b60405180910390f35b34801561023457600080fd5b5061024f600480360381019061024a91906124d8565b61064e565b005b34801561025d57600080fd5b50610278600480360381019061027391906124d8565b6107d7565b005b610294600480360381019061028f919061267f565b610984565b005b3480156102a257600080fd5b506102ab610ac1565b6040516102b8919061251e565b60405180910390f35b3480156102cd57600080fd5b506102e860048036038101906102e391906124d8565b610b7a565b005b3480156102f657600080fd5b50610311600480360381019061030c91906124d8565b610d2e565b60405161031e919061276d565b60405180910390f35b34801561033357600080fd5b5061033c610ec0565b005b34801561034a57600080fd5b50610353610ed4565b005b34801561036157600080fd5b5061037c600480360381019061037791906124d8565b61101a565b005b34801561038a57600080fd5b506103936111c8565b6040516103a09190612797565b60405180910390f35b3480156103b557600080fd5b506103d060048036038101906103cb91906124d8565b6111f2565b005b3480156103de57600080fd5b506103f960048036038101906103f491906124d8565b6113c7565b005b34801561040757600080fd5b5061041061157c565b60405161041d9190612797565b60405180910390f35b34801561043257600080fd5b5061044d600480360381019061044891906124d8565b611593565b005b34801561045b57600080fd5b50610476600480360381019061047191906124d8565b611731565b60405161048391906127c1565b60405180910390f35b34801561049857600080fd5b506104b360048036038101906104ae91906124d8565b611871565b005b3480156104c157600080fd5b506104dc60048036038101906104d791906124d8565b6118f5565b005b60606104e8611b88565b600060cb80548060200260200160405190810160405280929190818152602001828054801561056c57602002820191906000526020600020905b8160009054906101000a900473ffffffffffffffffffffffffffffffffffffffff1673ffffffffffffffffffffffffffffffffffffffff1681526020019060010190808311610522575b505050505090508091505090565b60008160cc60008273ffffffffffffffffffffffffffffffffffffffff1673ffffffffffffffffffffffffffffffffffffffff16815260200190815260200160002060020160009054906101000a900460ff16610603576040517f551b5fec00000000000000000000000000000000000000000000000000000000815260040160405180910390fd5b60cc60008473ffffffffffffffffffffffffffffffffffffffff1673ffffffffffffffffffffffffffffffffffffffff16815260200190815260200160002060010154915050919050565b7f000000000000000000000000000000000000000000000000000000000000000073ffffffffffffffffffffffffffffffffffffffff163073ffffffffffffffffffffffffffffffffffffffff1614156106dd576040517f08c379a00000000000000000000000000000000000000000000000000000000081526004016106d49061285f565b60405180910390fd5b7f000000000000000000000000000000000000000000000000000000000000000073ffffffffffffffffffffffffffffffffffffffff1661071c611c06565b73ffffffffffffffffffffffffffffffffffffffff1614610772576040517f08c379a0000000000000000000000000000000000000000000000000000000008152600401610769906128f1565b60405180910390fd5b61077b81611c5d565b6107d481600067ffffffffffffffff81111561079a57610799612554565b5b6040519080825280601f01601f1916602001820160405280156107cc5781602001600182028036833780820191505090505b506000611c68565b50565b6107df611b88565b8060cc60008273ffffffffffffffffffffffffffffffffffffffff1673ffffffffffffffffffffffffffffffffffffffff16815260200190815260200160002060020160009054906101000a900460ff16610866576040517f551b5fec00000000000000000000000000000000000000000000000000000000815260040160405180910390fd5b8160cc60008273ffffffffffffffffffffffffffffffffffffffff1673ffffffffffffffffffffffffffffffffffffffff16815260200190815260200160002060020160029054906101000a900460ff166108ed576040517ffbc601ed00000000000000000000000000000000000000000000000000000000815260040160405180910390fd5b600060cc60008573ffffffffffffffffffffffffffffffffffffffff1673ffffffffffffffffffffffffffffffffffffffff16815260200190815260200160002060020160026101000a81548160ff0219169083151502179055507fdd8163d7c65d364e6e39c7e0fc2c8812d436ff8b4bc35e2f8db2b39c0662e2a4836040516109779190612797565b60405180910390a1505050565b7f000000000000000000000000000000000000000000000000000000000000000073ffffffffffffffffffffffffffffffffffffffff163073ffffffffffffffffffffffffffffffffffffffff161415610a13576040517f08c379a0000000000000000000000000000000000000000000000000000000008152600401610a0a9061285f565b60405180910390fd5b7f000000000000000000000000000000000000000000000000000000000000000073ffffffffffffffffffffffffffffffffffffffff16610a52611c06565b73ffffffffffffffffffffffffffffffffffffffff1614610aa8576040517f08c379a0000000000000000000000000000000000000000000000000000000008152600401610a9f906128f1565b60405180910390fd5b610ab182611c5d565b610abd82826001611c68565b5050565b60007f000000000000000000000000000000000000000000000000000000000000000073ffffffffffffffffffffffffffffffffffffffff163073ffffffffffffffffffffffffffffffffffffffff1614610b51576040517f08c379a0000000000000000000000000000000000000000000000000000000008152600401610b4890612983565b60405180910390fd5b7f360894a13ba1a3210667c828492db98dca3e2076cc3735a920a3ca505d382bbc60001b905090565b610b82611b88565b8060cc60008273ffffffffffffffffffffffffffffffffffffffff1673ffffffffffffffffffffffffffffffffffffffff16815260200190815260200160002060020160009054906101000a900460ff16610c09576040517f551b5fec00000000000000000000000000000000000000000000000000000000815260040160405180910390fd5b60cc60008373ffffffffffffffffffffffffffffffffffffffff1673ffffffffffffffffffffffffffffffffffffffff16815260200190815260200160002060020160019054906101000a900460ff16610c98576040517f08c379a0000000000000000000000000000000000000000000000000000000008152600401610c8f906129ef565b60405180910390fd5b600060cc60008473ffffffffffffffffffffffffffffffffffffffff1673ffffffffffffffffffffffffffffffffffffffff16815260200190815260200160002060020160016101000a81548160ff0219169083151502179055507f7665796ea03d3ff112c33b16cef72d11283b08518156fd5545a4511e6832e37282604051610d229190612797565b60405180910390a15050565b610d3661227f565b8160cc60008273ffffffffffffffffffffffffffffffffffffffff1673ffffffffffffffffffffffffffffffffffffffff16815260200190815260200160002060020160009054906101000a900460ff16610dbd576040517f551b5fec00000000000000000000000000000000000000000000000000000000815260040160405180910390fd5b60cc60008473ffffffffffffffffffffffffffffffffffffffff1673ffffffffffffffffffffffffffffffffffffffff1681526020019081526020016000206040518060a00160405290816000820160009054906101000a900473ffffffffffffffffffffffffffffffffffffffff1673ffffffffffffffffffffffffffffffffffffffff1673ffffffffffffffffffffffffffffffffffffffff168152602001600182015481526020016002820160009054906101000a900460ff161515151581526020016002820160019054906101000a900460ff161515151581526020016002820160029054906101000a900460ff161515151581525050915050919050565b610ec8611b88565b610ed26000611de5565b565b60008060019054906101000a900460ff16159050808015610f055750600160008054906101000a900460ff1660ff16105b80610f325750610f1430611eab565b158015610f315750600160008054906101000a900460ff1660ff16145b5b610f71576040517f08c379a0000000000000000000000000000000000000000000000000000000008152600401610f6890612a81565b60405180910390fd5b60016000806101000a81548160ff021916908360ff1602179055508015610fae576001600060016101000a81548160ff0219169083151502179055505b610fb6611ece565b610fbe611f27565b80156110175760008060016101000a81548160ff0219169083151502179055507f7f26b83ff96e1f2b6a682f133852f6798a09c465da95921460cefb3847402498600160405161100e9190612af3565b60405180910390a15b50565b611022611b88565b8060cc60008273ffffffffffffffffffffffffffffffffffffffff1673ffffffffffffffffffffffffffffffffffffffff16815260200190815260200160002060020160009054906101000a900460ff166110a9576040517f551b5fec00000000000000000000000000000000000000000000000000000000815260040160405180910390fd5b8160cc60008273ffffffffffffffffffffffffffffffffffffffff1673ffffffffffffffffffffffffffffffffffffffff16815260200190815260200160002060020160029054906101000a900460ff1615611131576040517fe174c66c00000000000000000000000000000000000000000000000000000000815260040160405180910390fd5b600160cc60008573ffffffffffffffffffffffffffffffffffffffff1673ffffffffffffffffffffffffffffffffffffffff16815260200190815260200160002060020160026101000a81548160ff0219169083151502179055507f511d3bd421d86e995c1e2e4b179b681f67697e06c363a32945f11569520da052836040516111bb9190612797565b60405180910390a1505050565b6000603360009054906101000a900473ffffffffffffffffffffffffffffffffffffffff16905090565b6111fa611b88565b8060cc60008273ffffffffffffffffffffffffffffffffffffffff1673ffffffffffffffffffffffffffffffffffffffff16815260200190815260200160002060020160009054906101000a900460ff16611281576040517f551b5fec00000000000000000000000000000000000000000000000000000000815260040160405180910390fd5b7f000000000000000000000000000000000000000000000000000000000000000060cc60008473ffffffffffffffffffffffffffffffffffffffff1673ffffffffffffffffffffffffffffffffffffffff1681526020019081526020016000206001015414611325576040517f08c379a000000000000000000000000000000000000000000000000000000000815260040161131c90612b5a565b60405180910390fd5b7f000000000000000000000000000000000000000000000000000000000000000060cc60008473ffffffffffffffffffffffffffffffffffffffff1673ffffffffffffffffffffffffffffffffffffffff168152602001908152602001600020600101819055507fc75dbd8ce00e37df747f1fe930658f85d9d198d29ccc1497d5bd5803915f1063826040516113bb9190612797565b60405180910390a15050565b6113cf611b88565b8060cc60008273ffffffffffffffffffffffffffffffffffffffff1673ffffffffffffffffffffffffffffffffffffffff16815260200190815260200160002060020160009054906101000a900460ff16611456576040517f551b5fec00000000000000000000000000000000000000000000000000000000815260040160405180910390fd5b60cc60008373ffffffffffffffffffffffffffffffffffffffff1673ffffffffffffffffffffffffffffffffffffffff16815260200190815260200160002060020160019054906101000a900460ff16156114e6576040517f08c379a00000000000000000000000000000000000000000000000000000000081526004016114dd90612bc6565b60405180910390fd5b600160cc60008473ffffffffffffffffffffffffffffffffffffffff1673ffffffffffffffffffffffffffffffffffffffff16815260200190815260200160002060020160016101000a81548160ff0219169083151502179055507ff8ae011d8a06a2397c554ef5e6bb3790b25410a7926f10e37f4306aaa20ad7e5826040516115709190612797565b60405180910390a15050565b6000611586611b88565b61158e6111c8565b905090565b61159b611b88565b8060cc60008273ffffffffffffffffffffffffffffffffffffffff1673ffffffffffffffffffffffffffffffffffffffff16815260200190815260200160002060020160009054906101000a900460ff16611622576040517f551b5fec00000000000000000000000000000000000000000000000000000000815260040160405180910390fd5b7f000000000000000000000000000000000000000000000000000000000000000060cc60008473ffffffffffffffffffffffffffffffffffffffff1673ffffffffffffffffffffffffffffffffffffffff16815260200190815260200160002060010154146116c6576040517f08c379a00000000000000000000000000000000000000000000000000000000081526004016116bd90612c58565b60405180910390fd5b7f000000000000000000000000000000000000000000000000000000000000000060cc60008473ffffffffffffffffffffffffffffffffffffffff1673ffffffffffffffffffffffffffffffffffffffff168152602001908152602001600020600101819055505050565b60008160cc60008273ffffffffffffffffffffffffffffffffffffffff1673ffffffffffffffffffffffffffffffffffffffff16815260200190815260200160002060020160009054906101000a900460ff166117ba576040517f551b5fec00000000000000000000000000000000000000000000000000000000815260040160405180910390fd5b60cc60008473ffffffffffffffffffffffffffffffffffffffff1673ffffffffffffffffffffffffffffffffffffffff16815260200190815260200160002060020160029054906101000a900460ff1615611818576000915061186b565b60cc60008473ffffffffffffffffffffffffffffffffffffffff1673ffffffffffffffffffffffffffffffffffffffff16815260200190815260200160002060020160009054906101000a900460ff1691505b50919050565b611879611b88565b600073ffffffffffffffffffffffffffffffffffffffff168173ffffffffffffffffffffffffffffffffffffffff1614156118e9576040517f08c379a00000000000000000000000000000000000000000000000000000000081526004016118e090612cea565b60405180910390fd5b6118f281611de5565b50565b6118fd611b88565b8060cc60008273ffffffffffffffffffffffffffffffffffffffff1673ffffffffffffffffffffffffffffffffffffffff16815260200190815260200160002060020160009054906101000a900460ff1615611985576040517f845f7cbb00000000000000000000000000000000000000000000000000000000815260040160405180910390fd5b6040518060a001604052808373ffffffffffffffffffffffffffffffffffffffff1681526020017f000000000000000000000000000000000000000000000000000000000000000081526020016001151581526020016000151581526020016000151581525060cc60008473ffffffffffffffffffffffffffffffffffffffff1673ffffffffffffffffffffffffffffffffffffffff16815260200190815260200160002060008201518160000160006101000a81548173ffffffffffffffffffffffffffffffffffffffff021916908373ffffffffffffffffffffffffffffffffffffffff1602179055506020820151816001015560408201518160020160006101000a81548160ff02191690831515021790555060608201518160020160016101000a81548160ff02191690831515021790555060808201518160020160026101000a81548160ff02191690831515021790555090505060cb829080600181540180825580915050600190039060005260206000200160009091909190916101000a81548173ffffffffffffffffffffffffffffffffffffffff021916908373ffffffffffffffffffffffffffffffffffffffff1602179055508173ffffffffffffffffffffffffffffffffffffffff167fafa89aec2d2fd28210e1b3f83a2862febdac7db6e14888b9913882a46fef18a560405160405180910390a25050565b611b90611f78565b73ffffffffffffffffffffffffffffffffffffffff16611bae6111c8565b73ffffffffffffffffffffffffffffffffffffffff1614611c04576040517f08c379a0000000000000000000000000000000000000000000000000000000008152600401611bfb90612d56565b60405180910390fd5b565b6000611c347f360894a13ba1a3210667c828492db98dca3e2076cc3735a920a3ca505d382bbc60001b611f80565b60000160009054906101000a900473ffffffffffffffffffffffffffffffffffffffff16905090565b611c65611b88565b50565b611c947f4910fdfa16fed3260ed0e7147f7cc6da11a60208b5b9406d12a635614ffd914360001b611f8a565b60000160009054906101000a900460ff1615611cb857611cb383611f94565b611de0565b8273ffffffffffffffffffffffffffffffffffffffff166352d1902d6040518163ffffffff1660e01b815260040160206040518083038186803b158015611cfe57600080fd5b505afa925050508015611d2f57506040513d601f19601f82011682018060405250810190611d2c9190612da2565b60015b611d6e576040517f08c379a0000000000000000000000000000000000000000000000000000000008152600401611d6590612e41565b60405180910390fd5b7f360894a13ba1a3210667c828492db98dca3e2076cc3735a920a3ca505d382bbc60001b8114611dd3576040517f08c379a0000000000000000000000000000000000000000000000000000000008152600401611dca90612ed3565b60405180910390fd5b50611ddf83838361204d565b5b505050565b6000603360009054906101000a900473ffffffffffffffffffffffffffffffffffffffff16905081603360006101000a81548173ffffffffffffffffffffffffffffffffffffffff021916908373ffffffffffffffffffffffffffffffffffffffff1602179055508173ffffffffffffffffffffffffffffffffffffffff168173ffffffffffffffffffffffffffffffffffffffff167f8be0079c531659141344cd1fd0a4f28419497f9722a3daafe3b4186f6b6457e060405160405180910390a35050565b6000808273ffffffffffffffffffffffffffffffffffffffff163b119050919050565b600060019054906101000a900460ff16611f1d576040517f08c379a0000000000000000000000000000000000000000000000000000000008152600401611f1490612f65565b60405180910390fd5b611f25612079565b565b600060019054906101000a900460ff16611f76576040517f08c379a0000000000000000000000000000000000000000000000000000000008152600401611f6d90612f65565b60405180910390fd5b565b600033905090565b6000819050919050565b6000819050919050565b611f9d81611eab565b611fdc576040517f08c379a0000000000000000000000000000000000000000000000000000000008152600401611fd390612ff7565b60405180910390fd5b806120097f360894a13ba1a3210667c828492db98dca3e2076cc3735a920a3ca505d382bbc60001b611f80565b60000160006101000a81548173ffffffffffffffffffffffffffffffffffffffff021916908373ffffffffffffffffffffffffffffffffffffffff16021790555050565b612056836120da565b6000825111806120635750805b15612074576120728383612129565b505b505050565b600060019054906101000a900460ff166120c8576040517f08c379a00000000000000000000000000000000000000000000000000000000081526004016120bf90612f65565b60405180910390fd5b6120d86120d3611f78565b611de5565b565b6120e381611f94565b8073ffffffffffffffffffffffffffffffffffffffff167fbc7cd75a20ee27fd9adebab32041f755214dbc6bffa90cc0225b39da2e5c2d3b60405160405180910390a250565b606061213483611eab565b612173576040517f08c379a000000000000000000000000000000000000000000000000000000000815260040161216a90613089565b60405180910390fd5b6000808473ffffffffffffffffffffffffffffffffffffffff168460405161219b9190613123565b600060405180830381855af49150503d80600081146121d6576040519150601f19603f3d011682016040523d82523d6000602084013e6121db565b606091505b509150915061220382826040518060600160405280602781526020016131a16027913961220d565b9250505092915050565b6060831561221d57829050612228565b612227838361222f565b5b9392505050565b6000825111156122425781518083602001fd5b806040517f08c379a0000000000000000000000000000000000000000000000000000000008152600401612276919061317e565b60405180910390fd5b6040518060a00160405280600073ffffffffffffffffffffffffffffffffffffffff168152602001600080191681526020016000151581526020016000151581526020016000151581525090565b6000819050919050565b7f4e487b7100000000000000000000000000000000000000000000000000000000600052601160045260246000fd5b6000612311826122cd565b915061231c836122cd565b9250827fffffffffffffffffffffffffffffffffffffffffffffffffffffffffffffffff03821115612351576123506122d7565b5b828201905092915050565b612365816122cd565b82525050565b6000602082019050612380600083018461235c565b92915050565b600081519050919050565b600082825260208201905092915050565b6000819050602082019050919050565b600073ffffffffffffffffffffffffffffffffffffffff82169050919050565b60006123dd826123b2565b9050919050565b6123ed816123d2565b82525050565b60006123ff83836123e4565b60208301905092915050565b6000602082019050919050565b600061242382612386565b61242d8185612391565b9350612438836123a2565b8060005b8381101561246957815161245088826123f3565b975061245b8361240b565b92505060018101905061243c565b5085935050505092915050565b600060208201905081810360008301526124908184612418565b905092915050565b6000604051905090565b600080fd5b600080fd5b6124b5816123d2565b81146124c057600080fd5b50565b6000813590506124d2816124ac565b92915050565b6000602082840312156124ee576124ed6124a2565b5b60006124fc848285016124c3565b91505092915050565b6000819050919050565b61251881612505565b82525050565b6000602082019050612533600083018461250f565b92915050565b600080fd5b600080fd5b6000601f19601f8301169050919050565b7f4e487b7100000000000000000000000000000000000000000000000000000000600052604160045260246000fd5b61258c82612543565b810181811067ffffffffffffffff821117156125ab576125aa612554565b5b80604052505050565b60006125be612498565b90506125ca8282612583565b919050565b600067ffffffffffffffff8211156125ea576125e9612554565b5b6125f382612543565b9050602081019050919050565b82818337600083830152505050565b600061262261261d846125cf565b6125b4565b90508281526020810184848401111561263e5761263d61253e565b5b612649848285612600565b509392505050565b600082601f83011261266657612665612539565b5b813561267684826020860161260f565b91505092915050565b60008060408385031215612696576126956124a2565b5b60006126a4858286016124c3565b925050602083013567ffffffffffffffff8111156126c5576126c46124a7565b5b6126d185828601612651565b9150509250929050565b6126e481612505565b82525050565b60008115159050919050565b6126ff816126ea565b82525050565b60a08201600082015161271b60008501826123e4565b50602082015161272e60208501826126db565b50604082015161274160408501826126f6565b50606082015161275460608501826126f6565b50608082015161276760808501826126f6565b50505050565b600060a0820190506127826000830184612705565b92915050565b612791816123d2565b82525050565b60006020820190506127ac6000830184612788565b92915050565b6127bb816126ea565b82525050565b60006020820190506127d660008301846127b2565b92915050565b600082825260208201905092915050565b7f46756e6374696f6e206d7573742062652063616c6c6564207468726f7567682060008201527f64656c656761746563616c6c0000000000000000000000000000000000000000602082015250565b6000612849602c836127dc565b9150612854826127ed565b604082019050919050565b600060208201905081810360008301526128788161283c565b9050919050565b7f46756e6374696f6e206d7573742062652063616c6c6564207468726f7567682060008201527f6163746976652070726f78790000000000000000000000000000000000000000602082015250565b60006128db602c836127dc565b91506128e68261287f565b604082019050919050565b6000602082019050818103600083015261290a816128ce565b9050919050565b7f555550535570677261646561626c653a206d757374206e6f742062652063616c60008201527f6c6564207468726f7567682064656c656761746563616c6c0000000000000000602082015250565b600061296d6038836127dc565b915061297882612911565b604082019050919050565b6000602082019050818103600083015261299c81612960565b9050919050565b7f5a4b5f564552494649434154494f4e20414c5245414459205245564f4b454420600082015250565b60006129d96020836127dc565b91506129e4826129a3565b602082019050919050565b60006020820190508181036000830152612a08816129cc565b9050919050565b7f496e697469616c697a61626c653a20636f6e747261637420697320616c72656160008201527f647920696e697469616c697a6564000000000000000000000000000000000000602082015250565b6000612a6b602e836127dc565b9150612a7682612a0f565b604082019050919050565b60006020820190508181036000830152612a9a81612a5e565b9050919050565b6000819050919050565b600060ff82169050919050565b6000819050919050565b6000612add612ad8612ad384612aa1565b612ab8565b612aab565b9050919050565b612aed81612ac2565b82525050565b6000602082019050612b086000830184612ae4565b92915050565b7f4d554c54495f5349474e415455524520414c5245414459205245564f4b454420600082015250565b6000612b446020836127dc565b9150612b4f82612b0e565b602082019050919050565b60006020820190508181036000830152612b7381612b37565b9050919050565b7f5a4b5f564552494649434154494f4e20414c52454144592052455441494e4544600082015250565b6000612bb06020836127dc565b9150612bbb82612b7a565b602082019050919050565b60006020820190508181036000830152612bdf81612ba3565b9050919050565b7f4d554c54495f5349474e415455524520414c52454144592052455441494e454460008201527f2000000000000000000000000000000000000000000000000000000000000000602082015250565b6000612c426021836127dc565b9150612c4d82612be6565b604082019050919050565b60006020820190508181036000830152612c7181612c35565b9050919050565b7f4f776e61626c653a206e6577206f776e657220697320746865207a65726f206160008201527f6464726573730000000000000000000000000000000000000000000000000000602082015250565b6000612cd46026836127dc565b9150612cdf82612c78565b604082019050919050565b60006020820190508181036000830152612d0381612cc7565b9050919050565b7f4f776e61626c653a2063616c6c6572206973206e6f7420746865206f776e6572600082015250565b6000612d406020836127dc565b9150612d4b82612d0a565b602082019050919050565b60006020820190508181036000830152612d6f81612d33565b9050919050565b612d7f81612505565b8114612d8a57600080fd5b50565b600081519050612d9c81612d76565b92915050565b600060208284031215612db857612db76124a2565b5b6000612dc684828501612d8d565b91505092915050565b7f45524331393637557067726164653a206e657720696d706c656d656e7461746960008201527f6f6e206973206e6f742055555053000000000000000000000000000000000000602082015250565b6000612e2b602e836127dc565b9150612e3682612dcf565b604082019050919050565b60006020820190508181036000830152612e5a81612e1e565b9050919050565b7f45524331393637557067726164653a20756e737570706f727465642070726f7860008201527f6961626c65555549440000000000000000000000000000000000000000000000602082015250565b6000612ebd6029836127dc565b9150612ec882612e61565b604082019050919050565b60006020820190508181036000830152612eec81612eb0565b9050919050565b7f496e697469616c697a61626c653a20636f6e7472616374206973206e6f74206960008201527f6e697469616c697a696e67000000000000000000000000000000000000000000602082015250565b6000612f4f602b836127dc565b9150612f5a82612ef3565b604082019050919050565b60006020820190508181036000830152612f7e81612f42565b9050919050565b7f455243313936373a206e657720696d706c656d656e746174696f6e206973206e60008201527f6f74206120636f6e747261637400000000000000000000000000000000000000602082015250565b6000612fe1602d836127dc565b9150612fec82612f85565b604082019050919050565b6000602082019050818103600083015261301081612fd4565b9050919050565b7f416464726573733a2064656c65676174652063616c6c20746f206e6f6e2d636f60008201527f6e74726163740000000000000000000000000000000000000000000000000000602082015250565b60006130736026836127dc565b915061307e82613017565b604082019050919050565b600060208201905081810360008301526130a281613066565b9050919050565b600081519050919050565b600081905092915050565b60005b838110156130dd5780820151818401526020810190506130c2565b838111156130ec576000848401525b50505050565b60006130fd826130a9565b61310781856130b4565b93506131178185602086016130bf565b80840191505092915050565b600061312f82846130f2565b915081905092915050565b600081519050919050565b60006131508261313a565b61315a81856127dc565b935061316a8185602086016130bf565b61317381612543565b840191505092915050565b600060208201905081810360008301526131988184613145565b90509291505056fe416464726573733a206c6f772d6c6576656c2064656c65676174652063616c6c206661696c6564a264697066735822122037461330d726054539cbc6e271740af8b6416e64e2e05ae28d7f7d90764f356464736f6c63430008090033",
  "devdoc": {
    "kind": "dev",
    "methods": {
      "owner()": {
        "details": "Returns the address of the current owner."
      },
      "proxiableUUID()": {
        "details": "Implementation of the ERC1822 {proxiableUUID} function. This returns the storage slot used by the implementation. It is used to validate the implementation's compatibility when performing an upgrade. IMPORTANT: A proxy pointing at a proxiable contract should not be considered proxiable itself, because this risks bricking a proxy that upgrades to it, by delegating to itself until out of gas. Thus it is critical that this function revert if invoked through a proxy. This is guaranteed by the `notDelegated` modifier."
      },
      "renounceOwnership()": {
        "details": "Leaves the contract without owner. It will not be possible to call `onlyOwner` functions anymore. Can only be called by the current owner. NOTE: Renouncing ownership will leave the contract without an owner, thereby removing any functionality that is only available to the owner."
      },
      "transferOwnership(address)": {
        "details": "Transfers ownership of the contract to a new account (`newOwner`). Can only be called by the current owner."
      },
      "upgradeTo(address)": {
        "details": "Upgrade the implementation of the proxy to `newImplementation`. Calls {_authorizeUpgrade}. Emits an {Upgraded} event."
      },
      "upgradeToAndCall(address,bytes)": {
        "details": "Upgrade the implementation of the proxy to `newImplementation`, and subsequently execute the function call encoded in `data`. Calls {_authorizeUpgrade}. Emits an {Upgraded} event."
      }
    },
    "version": 1
  },
  "userdoc": {
    "kind": "user",
    "methods": {},
    "version": 1
  },
  "storageLayout": {
    "storage": [
      {
        "astId": 527,
        "contract": "contracts/Profiles.sol:Profiles",
        "label": "_initialized",
        "offset": 0,
        "slot": "0",
        "type": "t_uint8"
      },
      {
        "astId": 530,
        "contract": "contracts/Profiles.sol:Profiles",
        "label": "_initializing",
        "offset": 1,
        "slot": "0",
        "type": "t_bool"
      },
      {
        "astId": 2787,
        "contract": "contracts/Profiles.sol:Profiles",
        "label": "__gap",
        "offset": 0,
        "slot": "1",
        "type": "t_array(t_uint256)50_storage"
      },
      {
        "astId": 10,
        "contract": "contracts/Profiles.sol:Profiles",
        "label": "_owner",
        "offset": 0,
        "slot": "51",
        "type": "t_address"
      },
      {
        "astId": 130,
        "contract": "contracts/Profiles.sol:Profiles",
        "label": "__gap",
        "offset": 0,
        "slot": "52",
        "type": "t_array(t_uint256)49_storage"
      },
      {
        "astId": 509,
        "contract": "contracts/Profiles.sol:Profiles",
        "label": "__gap",
        "offset": 0,
        "slot": "101",
        "type": "t_array(t_uint256)50_storage"
      },
      {
        "astId": 824,
        "contract": "contracts/Profiles.sol:Profiles",
        "label": "__gap",
        "offset": 0,
        "slot": "151",
        "type": "t_array(t_uint256)50_storage"
      },
      {
        "astId": 5869,
        "contract": "contracts/Profiles.sol:Profiles",
        "label": "_contractValue",
        "offset": 0,
        "slot": "201",
        "type": "t_uint256"
      },
      {
        "astId": 5871,
        "contract": "contracts/Profiles.sol:Profiles",
        "label": "_iPkdrOrgAddresses",
        "offset": 0,
        "slot": "202",
        "type": "t_address"
      },
      {
        "astId": 5874,
        "contract": "contracts/Profiles.sol:Profiles",
        "label": "_userAddresses",
        "offset": 0,
        "slot": "203",
        "type": "t_array(t_address)dyn_storage"
      },
      {
        "astId": 5895,
        "contract": "contracts/Profiles.sol:Profiles",
        "label": "users",
        "offset": 0,
        "slot": "204",
        "type": "t_mapping(t_address,t_struct(User)6369_storage)"
      }
    ],
    "types": {
      "t_address": {
        "encoding": "inplace",
        "label": "address",
        "numberOfBytes": "20"
      },
      "t_array(t_address)dyn_storage": {
        "base": "t_address",
        "encoding": "dynamic_array",
        "label": "address[]",
        "numberOfBytes": "32"
      },
      "t_array(t_uint256)49_storage": {
        "base": "t_uint256",
        "encoding": "inplace",
        "label": "uint256[49]",
        "numberOfBytes": "1568"
      },
      "t_array(t_uint256)50_storage": {
        "base": "t_uint256",
        "encoding": "inplace",
        "label": "uint256[50]",
        "numberOfBytes": "1600"
      },
      "t_bool": {
        "encoding": "inplace",
        "label": "bool",
        "numberOfBytes": "1"
      },
      "t_bytes32": {
        "encoding": "inplace",
        "label": "bytes32",
        "numberOfBytes": "32"
      },
      "t_mapping(t_address,t_struct(User)6369_storage)": {
        "encoding": "mapping",
        "key": "t_address",
        "label": "mapping(address => struct IProfiles.User)",
        "numberOfBytes": "32",
        "value": "t_struct(User)6369_storage"
      },
      "t_struct(User)6369_storage": {
        "encoding": "inplace",
        "label": "struct IProfiles.User",
        "members": [
          {
            "astId": 6360,
            "contract": "contracts/Profiles.sol:Profiles",
            "label": "userPubAddress",
            "offset": 0,
            "slot": "0",
            "type": "t_address"
          },
          {
            "astId": 6362,
            "contract": "contracts/Profiles.sol:Profiles",
            "label": "multiSig",
            "offset": 0,
            "slot": "1",
            "type": "t_bytes32"
          },
          {
            "astId": 6364,
            "contract": "contracts/Profiles.sol:Profiles",
            "label": "verificationStatus_I",
            "offset": 0,
            "slot": "2",
            "type": "t_bool"
          },
          {
            "astId": 6366,
            "contract": "contracts/Profiles.sol:Profiles",
            "label": "verificationStatus_II",
            "offset": 1,
            "slot": "2",
            "type": "t_bool"
          },
          {
            "astId": 6368,
            "contract": "contracts/Profiles.sol:Profiles",
            "label": "isStatusRevoked",
            "offset": 2,
            "slot": "2",
            "type": "t_bool"
          }
        ],
        "numberOfBytes": "96"
      },
      "t_uint256": {
        "encoding": "inplace",
        "label": "uint256",
        "numberOfBytes": "32"
      },
      "t_uint8": {
        "encoding": "inplace",
        "label": "uint8",
        "numberOfBytes": "1"
      }
    }
  }
}