{
  "address": "0x92ce9d0F650153BB8C7E7EC39268E0B6724e4471",
  "abi": [
    {
      "inputs": [
        {
          "components": [
            {
              "components": [
                {
                  "internalType": "uint256",
                  "name": "X",
                  "type": "uint256"
                },
                {
                  "internalType": "uint256",
                  "name": "Y",
                  "type": "uint256"
                }
              ],
              "internalType": "struct Pairing.G1Point",
              "name": "a",
              "type": "tuple"
            },
            {
              "components": [
                {
                  "internalType": "uint256[2]",
                  "name": "X",
                  "type": "uint256[2]"
                },
                {
                  "internalType": "uint256[2]",
                  "name": "Y",
                  "type": "uint256[2]"
                }
              ],
              "internalType": "struct Pairing.G2Point",
              "name": "b",
              "type": "tuple"
            },
            {
              "components": [
                {
                  "internalType": "uint256",
                  "name": "X",
                  "type": "uint256"
                },
                {
                  "internalType": "uint256",
                  "name": "Y",
                  "type": "uint256"
                }
              ],
              "internalType": "struct Pairing.G1Point",
              "name": "c",
              "type": "tuple"
            }
          ],
          "internalType": "struct Verifier.Proof",
          "name": "proof",
          "type": "tuple"
        },
        {
          "internalType": "uint256[5]",
          "name": "input",
          "type": "uint256[5]"
        }
      ],
      "name": "verifyTx",
      "outputs": [
        {
          "internalType": "bool",
          "name": "r",
          "type": "bool"
        }
      ],
      "stateMutability": "view",
      "type": "function"
    }
  ],
  "transactionHash": "0xff8f238894eef0a7bc7c05e860ae17750caab01508ee97f6589f4798570517a3",
  "args": [],
  "numDeployments": 4,
  "solcInputHash": "fbeef72b23dd78301a22bd5dedc7de63",
  "bytecode": "0x608060405234801561001057600080fd5b506116d8806100206000396000f3fe608060405234801561001057600080fd5b506004361061002b5760003560e01c8063bcb9988614610030575b600080fd5b61004a6004803603810190610045919061143f565b610060565b604051610057919061149c565b60405180910390f35b600080600567ffffffffffffffff81111561007e5761007d61111d565b5b6040519080825280602002602001820160405280156100ac5781602001602082028036833780820191505090505b50905060005b6005811015610105578381600581106100ce576100cd6114b7565b5b60200201518282815181106100e6576100e56114b7565b5b60200260200101818152505080806100fd90611515565b9150506100b2565b506000610112828661012e565b1415610122576001915050610128565b60009150505b92915050565b6000807f30644e72e131a029b85045b68181585d2833e84879b9709143e1f593f00000019050600061015e6102c5565b905080608001515160018651610174919061155e565b1461017e57600080fd5b60006040518060400160405280600081526020016000815250905060005b865181101561023757838782815181106101b9576101b86114b7565b5b6020026020010151106101cb57600080fd5b6102228261021d85608001516001856101e4919061155e565b815181106101f5576101f46114b7565b5b60200260200101518a85815181106102105761020f6114b7565b5b60200260200101516108a8565b61094f565b9150808061022f90611515565b91505061019c565b50610261818360800151600081518110610254576102536114b7565b5b602002602001015161094f565b90506102a78560000151866020015161027984610a1c565b856040015161028b8a60400151610a1c565b876060015161029d8960000151610a1c565b8960200151610ac1565b6102b757600193505050506102bf565b600093505050505b92915050565b6102cd610fe9565b60405180604001604052807f1894a787a0425adbc1440900bfa86218af33737bba15827787d4c547f627ed1081526020017f1f8d467772bf7b62024d229580816fbcb06a9c81c61a520d4d5b0be3c1723ee28152508160000181905250604051806040016040528060405180604001604052807f05dc1c6a403b7ffee1aa11e59ab42347ed9f8e1a40eb9178ee4d78d72f10488d81526020017f27c71c7d9d26466f4153925a2abdb627363153b25d5d96dacf03953a784638fb815250815260200160405180604001604052807f01450eca8a3620d967d7c94637a6ebc2aec8aeef378293e11faf065b61c873a281526020017f257139ec15848622e9f0cb14eec77511134521953a68f617ab2d73d8d5aae97f8152508152508160200181905250604051806040016040528060405180604001604052807f1a38fb4881d8cc4418268bc11f8c5fc135913ef39842ef08c392be209517a79181526020017f2e3cb69f8838467305e1fca87620fb8823bf313506c75d596156b23144dbc14c815250815260200160405180604001604052807f0b7042e179b9c3480d3d1b3943dfa8c52d7772c4e78a8309ffa17654096a1ede81526020017f1518ca812dd3271af364702058684a9b813e1d6997b9289e704a42f583d41dd88152508152508160400181905250604051806040016040528060405180604001604052807f1bffc435d5f2f9e6158a1d25b50e5f4eb95d577dfe2903247077f61d86d3cd3381526020017f0178ac9cc19c71bf4f83aa5a5ba587a69f69c95f9f3f42cedb44e8c1f7bdbd55815250815260200160405180604001604052807f2dff978ac491b93ce2b6f54a59635c6fca965e5c7a5d3f4c9e520b1ff39c4ead81526020017f06eefc3476e83fe48fb0cfde45a3ca506264c9035e0fa666878aa7c94256fd858152508152508160600181905250600667ffffffffffffffff8111156105945761059361111d565b5b6040519080825280602002602001820160405280156105cd57816020015b6105ba611030565b8152602001906001900390816105b25790505b50816080018190525060405180604001604052807f0eca42b0c8272f45d6ab63f7deca3deb7d3eb1e448ab25e33b1ec1dd9b57ca1081526020017f01bce39223b35cea9b2e8d72c2f813e4a685c493e163cbf13813ab2fa0a744078152508160800151600081518110610643576106426114b7565b5b602002602001018190525060405180604001604052807f24f9e28bf35f08604f89fb31a41a362dfefb75f04650ea7b374c107b3558784281526020017f28e3b3f5f5187ce9a32be7cdab0e44df853d637ec109ac8dedd4b7a791fc71c981525081608001516001815181106106bb576106ba6114b7565b5b602002602001018190525060405180604001604052807f21176b544ec529c19c1fc0c9ea3e3b371c842f847a5505b8e4c560ed66434bad81526020017f031ca82fbfcec91f05bcf1df960cb82406eda295cf367d5a7c7790d2a5205c438152508160800151600281518110610733576107326114b7565b5b602002602001018190525060405180604001604052807f081063ec8febce4d939bf2e1aef74adcb52692767f4d2c14f1f45f39eb5c216781526020017f1d917eb7a18f0d255b6529ce017f680c8f64a1a8bba6e13b470105a730b2488f81525081608001516003815181106107ab576107aa6114b7565b5b602002602001018190525060405180604001604052807f2054116ef2e24c529f541716d77bc8284e89f3ed11d236510a95db494adab92f81526020017f20d50c38fe796f58c190e36beb4a3d28387b4f58365e59a8ff1078df4e4aabf48152508160800151600481518110610823576108226114b7565b5b602002602001018190525060405180604001604052807f158c22af73369f627ff8e1a95c187b55355daa05a33dedd9940b400a981aeb8381526020017edaeeecd30974f8325bcf49ce96b2f2eb82a523536a4db838b413a90c622f30815250816080015160058151811061089a576108996114b7565b5b602002602001018190525090565b6108b0611030565b6108b861104a565b8360000151816000600381106108d1576108d06114b7565b5b6020020181815250508360200151816001600381106108f3576108f26114b7565b5b6020020181815250508281600260038110610911576109106114b7565b5b602002018181525050600060608360808460076107d05a03fa9050806000811461093a5761093c565bfe5b508061094757600080fd5b505092915050565b610957611030565b61095f61106c565b836000015181600060048110610978576109776114b7565b5b60200201818152505083602001518160016004811061099a576109996114b7565b5b6020020181815250508260000151816002600481106109bc576109bb6114b7565b5b6020020181815250508260200151816003600481106109de576109dd6114b7565b5b602002018181525050600060608360c08460066107d05a03fa90508060008114610a0757610a09565bfe5b5080610a1457600080fd5b505092915050565b610a24611030565b60007f30644e72e131a029b85045b68181585d97816a916871ca8d3c208c16d87cfd47905060008360000151148015610a61575060008360200151145b15610a85576040518060400160405280600081526020016000815250915050610abc565b604051806040016040528084600001518152602001828560200151610aaa91906115e3565b83610ab59190611614565b8152509150505b919050565b600080600467ffffffffffffffff811115610adf57610ade61111d565b5b604051908082528060200260200182016040528015610b1857816020015b610b05611030565b815260200190600190039081610afd5790505b5090506000600467ffffffffffffffff811115610b3857610b3761111d565b5b604051908082528060200260200182016040528015610b7157816020015b610b5e61108e565b815260200190600190039081610b565790505b5090508a82600081518110610b8957610b886114b7565b5b60200260200101819052508882600181518110610ba957610ba86114b7565b5b60200260200101819052508682600281518110610bc957610bc86114b7565b5b60200260200101819052508482600381518110610be957610be86114b7565b5b60200260200101819052508981600081518110610c0957610c086114b7565b5b60200260200101819052508781600181518110610c2957610c286114b7565b5b60200260200101819052508581600281518110610c4957610c486114b7565b5b60200260200101819052508381600381518110610c6957610c686114b7565b5b6020026020010181905250610c7e8282610c8e565b9250505098975050505050505050565b60008151835114610c9e57600080fd5b6000835190506000600682610cb39190611648565b905060008167ffffffffffffffff811115610cd157610cd061111d565b5b604051908082528060200260200182016040528015610cff5781602001602082028036833780820191505090505b50905060005b83811015610f8457868181518110610d2057610d1f6114b7565b5b602002602001015160000151826000600684610d3c9190611648565b610d46919061155e565b81518110610d5757610d566114b7565b5b602002602001018181525050868181518110610d7657610d756114b7565b5b602002602001015160200151826001600684610d929190611648565b610d9c919061155e565b81518110610dad57610dac6114b7565b5b602002602001018181525050858181518110610dcc57610dcb6114b7565b5b602002602001015160000151600160028110610deb57610dea6114b7565b5b6020020151826002600684610e009190611648565b610e0a919061155e565b81518110610e1b57610e1a6114b7565b5b602002602001018181525050858181518110610e3a57610e396114b7565b5b602002602001015160000151600060028110610e5957610e586114b7565b5b6020020151826003600684610e6e9190611648565b610e78919061155e565b81518110610e8957610e886114b7565b5b602002602001018181525050858181518110610ea857610ea76114b7565b5b602002602001015160200151600160028110610ec757610ec66114b7565b5b6020020151826004600684610edc9190611648565b610ee6919061155e565b81518110610ef757610ef66114b7565b5b602002602001018181525050858181518110610f1657610f156114b7565b5b602002602001015160200151600060028110610f3557610f346114b7565b5b6020020151826005600684610f4a9190611648565b610f54919061155e565b81518110610f6557610f646114b7565b5b6020026020010181815250508080610f7c90611515565b915050610d05565b50610f8d6110b4565b6000602082602086026020860160086107d05a03fa90508060008114610fb257610fb4565bfe5b5080610fbf57600080fd5b600082600060018110610fd557610fd46114b7565b5b602002015114159550505050505092915050565b6040518060a00160405280610ffc611030565b815260200161100961108e565b815260200161101661108e565b815260200161102361108e565b8152602001606081525090565b604051806040016040528060008152602001600081525090565b6040518060600160405280600390602082028036833780820191505090505090565b6040518060800160405280600490602082028036833780820191505090505090565b60405180604001604052806110a16110d6565b81526020016110ae6110d6565b81525090565b6040518060200160405280600190602082028036833780820191505090505090565b6040518060400160405280600290602082028036833780820191505090505090565b6000604051905090565b600080fd5b600080fd5b6000601f19601f8301169050919050565b7f4e487b7100000000000000000000000000000000000000000000000000000000600052604160045260246000fd5b6111558261110c565b810181811067ffffffffffffffff821117156111745761117361111d565b5b80604052505050565b60006111876110f8565b9050611193828261114c565b919050565b6000819050919050565b6111ab81611198565b81146111b657600080fd5b50565b6000813590506111c8816111a2565b92915050565b6000604082840312156111e4576111e3611107565b5b6111ee604061117d565b905060006111fe848285016111b9565b6000830152506020611212848285016111b9565b60208301525092915050565b600080fd5b600067ffffffffffffffff82111561123e5761123d61111d565b5b602082029050919050565b600080fd5b600061126161125c84611223565b61117d565b9050806020840283018581111561127b5761127a611249565b5b835b818110156112a4578061129088826111b9565b84526020840193505060208101905061127d565b5050509392505050565b600082601f8301126112c3576112c261121e565b5b60026112d084828561124e565b91505092915050565b6000608082840312156112ef576112ee611107565b5b6112f9604061117d565b90506000611309848285016112ae565b600083015250604061131d848285016112ae565b60208301525092915050565b600061010082840312156113405761133f611107565b5b61134a606061117d565b9050600061135a848285016111ce565b600083015250604061136e848285016112d9565b60208301525060c0611382848285016111ce565b60408301525092915050565b600067ffffffffffffffff8211156113a9576113a861111d565b5b602082029050919050565b60006113c76113c28461138e565b61117d565b905080602084028301858111156113e1576113e0611249565b5b835b8181101561140a57806113f688826111b9565b8452602084019350506020810190506113e3565b5050509392505050565b600082601f8301126114295761142861121e565b5b60056114368482856113b4565b91505092915050565b6000806101a0838503121561145757611456611102565b5b600061146585828601611329565b92505061010061147785828601611414565b9150509250929050565b60008115159050919050565b61149681611481565b82525050565b60006020820190506114b1600083018461148d565b92915050565b7f4e487b7100000000000000000000000000000000000000000000000000000000600052603260045260246000fd5b7f4e487b7100000000000000000000000000000000000000000000000000000000600052601160045260246000fd5b600061152082611198565b91507fffffffffffffffffffffffffffffffffffffffffffffffffffffffffffffffff821415611553576115526114e6565b5b600182019050919050565b600061156982611198565b915061157483611198565b9250827fffffffffffffffffffffffffffffffffffffffffffffffffffffffffffffffff038211156115a9576115a86114e6565b5b828201905092915050565b7f4e487b7100000000000000000000000000000000000000000000000000000000600052601260045260246000fd5b60006115ee82611198565b91506115f983611198565b925082611609576116086115b4565b5b828206905092915050565b600061161f82611198565b915061162a83611198565b92508282101561163d5761163c6114e6565b5b828203905092915050565b600061165382611198565b915061165e83611198565b9250817fffffffffffffffffffffffffffffffffffffffffffffffffffffffffffffffff0483118215151615611697576116966114e6565b5b82820290509291505056fea264697066735822122064e200be1b123065bdb05e39b59fce5bc590d3267a7e19cf0545e44d13f8816e64736f6c63430008090033",
  "devdoc": {
    "kind": "dev",
    "methods": {},
    "version": 1
  },
  "userdoc": {
    "kind": "user",
    "methods": {},
    "version": 1
  },
  "storageLayout": {
    "storage": [],
    "types": null
  }
}