{
  "address": "0x0B6642Ef7FAE69e5ae4C4e1b335FCD556f72D6cD",
  "abi": [
    {
      "inputs": [
        {
          "internalType": "address",
          "name": "priceFeed",
          "type": "address"
        }
      ],
      "stateMutability": "nonpayable",
      "type": "constructor"
    },
    {
      "inputs": [],
      "name": "ONLY_OWNER_CAN_CALL",
      "type": "error"
    },
    {
      "inputs": [],
      "name": "TOPUP_FAILED",
      "type": "error"
    },
    {
      "anonymous": false,
      "inputs": [
        {
          "indexed": false,
          "internalType": "address",
          "name": "from",
          "type": "address"
        },
        {
          "indexed": false,
          "internalType": "uint256",
          "name": "amount",
          "type": "uint256"
        }
      ],
      "name": "amountDeposited",
      "type": "event"
    },
    {
      "anonymous": false,
      "inputs": [
        {
          "indexed": false,
          "internalType": "address",
          "name": "to",
          "type": "address"
        },
        {
          "indexed": false,
          "internalType": "uint256",
          "name": "amount",
          "type": "uint256"
        }
      ],
      "name": "topUpCompleted",
      "type": "event"
    },
    {
      "stateMutability": "payable",
      "type": "fallback"
    },
    {
      "inputs": [],
      "name": "getContractBalance",
      "outputs": [
        {
          "internalType": "uint256",
          "name": "",
          "type": "uint256"
        }
      ],
      "stateMutability": "view",
      "type": "function"
    },
    {
      "inputs": [],
      "name": "getPkdrAddress",
      "outputs": [
        {
          "internalType": "address",
          "name": "",
          "type": "address"
        }
      ],
      "stateMutability": "view",
      "type": "function"
    },
    {
      "inputs": [],
      "name": "getPrice",
      "outputs": [
        {
          "internalType": "uint256",
          "name": "",
          "type": "uint256"
        }
      ],
      "stateMutability": "view",
      "type": "function"
    },
    {
      "inputs": [
        {
          "internalType": "address payable",
          "name": "_to",
          "type": "address"
        },
        {
          "internalType": "uint256",
          "name": "amount",
          "type": "uint256"
        }
      ],
      "name": "topUpAddress",
      "outputs": [
        {
          "internalType": "uint256",
          "name": "",
          "type": "uint256"
        }
      ],
      "stateMutability": "nonpayable",
      "type": "function"
    },
    {
      "inputs": [],
      "name": "topUpContract",
      "outputs": [],
      "stateMutability": "payable",
      "type": "function"
    },
    {
      "stateMutability": "payable",
      "type": "receive"
    }
  ],
  "transactionHash": "0xa856e63f7dd2da79409d84cf4dee7f71726fd0592fd69b42ca416ec319cd5ef4",
  "args": [
    "0xd0D5e3DB44DE05E9F294BB0a3bEEaF030DE24Ada"
  ],
  "numDeployments": 8,
  "solcInputHash": "278fbb9511ede1ae0ca0f30bafbdbb07",
  "bytecode": "0x60a0604052601460005534801561001557600080fd5b50604051610bbe380380610bbe83398181016040528101906100379190610115565b80600160006101000a81548173ffffffffffffffffffffffffffffffffffffffff021916908373ffffffffffffffffffffffffffffffffffffffff1602179055503373ffffffffffffffffffffffffffffffffffffffff1660808173ffffffffffffffffffffffffffffffffffffffff168152505050610142565b600080fd5b600073ffffffffffffffffffffffffffffffffffffffff82169050919050565b60006100e2826100b7565b9050919050565b6100f2816100d7565b81146100fd57600080fd5b50565b60008151905061010f816100e9565b92915050565b60006020828403121561012b5761012a6100b2565b5b600061013984828501610100565b91505092915050565b608051610a4561017960003960008181610195015281816102e0015281816103a201528181610427015261044f0152610a456000f3fe60806040526004361061004e5760003560e01c80636f9fb98a146100c957806398d5fdca146100f45780639b3b20d11461011f578063d01ca48614610129578063d5800262146101545761008e565b3661008e577f8056ca2d1e1630c684dc5a25a5f93f98726e05fa1c27e19e3bfd282c8e9a082233346040516100849291906105e5565b60405180910390a1005b7f8056ca2d1e1630c684dc5a25a5f93f98726e05fa1c27e19e3bfd282c8e9a082233346040516100bf9291906105e5565b60405180910390a1005b3480156100d557600080fd5b506100de610191565b6040516100eb919061060e565b60405180910390f35b34801561010057600080fd5b5061010961021e565b604051610116919061060e565b60405180910390f35b6101276102de565b005b34801561013557600080fd5b5061013e61039e565b60405161014b9190610629565b60405180910390f35b34801561016057600080fd5b5061017b600480360381019061017691906106b3565b61044b565b604051610188919061060e565b60405180910390f35b60007f000000000000000000000000000000000000000000000000000000000000000073ffffffffffffffffffffffffffffffffffffffff163373ffffffffffffffffffffffffffffffffffffffff1614610218576040517ffc7a106c00000000000000000000000000000000000000000000000000000000815260040160405180910390fd5b47905090565b600080600160009054906101000a900473ffffffffffffffffffffffffffffffffffffffff1673ffffffffffffffffffffffffffffffffffffffff1663feaf968c6040518163ffffffff1660e01b815260040160a06040518083038186803b15801561028957600080fd5b505afa15801561029d573d6000803e3d6000fd5b505050506040513d601f19601f820116820180604052508101906102c19190610780565b5050509150506402540be400816102d8919061082a565b91505090565b7f000000000000000000000000000000000000000000000000000000000000000073ffffffffffffffffffffffffffffffffffffffff163373ffffffffffffffffffffffffffffffffffffffff1614610363576040517ffc7a106c00000000000000000000000000000000000000000000000000000000815260040160405180910390fd5b7f8056ca2d1e1630c684dc5a25a5f93f98726e05fa1c27e19e3bfd282c8e9a082233346040516103949291906105e5565b60405180910390a1565b60007f000000000000000000000000000000000000000000000000000000000000000073ffffffffffffffffffffffffffffffffffffffff163373ffffffffffffffffffffffffffffffffffffffff1614610425576040517ffc7a106c00000000000000000000000000000000000000000000000000000000815260040160405180910390fd5b7f0000000000000000000000000000000000000000000000000000000000000000905090565b60007f000000000000000000000000000000000000000000000000000000000000000073ffffffffffffffffffffffffffffffffffffffff163373ffffffffffffffffffffffffffffffffffffffff16146104d2576040517ffc7a106c00000000000000000000000000000000000000000000000000000000815260040160405180910390fd5b60008373ffffffffffffffffffffffffffffffffffffffff16836040516104f890610972565b60006040518083038185875af1925050503d8060008114610535576040519150601f19603f3d011682016040523d82523d6000602084013e61053a565b606091505b505090508061054857600080fd5b7fce0ecadd083947356b2a399af2c8268bd0db00376ef30844503edf57c1d11ade84846040516105799291906109e6565b60405180910390a18291505092915050565b600073ffffffffffffffffffffffffffffffffffffffff82169050919050565b60006105b68261058b565b9050919050565b6105c6816105ab565b82525050565b6000819050919050565b6105df816105cc565b82525050565b60006040820190506105fa60008301856105bd565b61060760208301846105d6565b9392505050565b600060208201905061062360008301846105d6565b92915050565b600060208201905061063e60008301846105bd565b92915050565b600080fd5b60006106548261058b565b9050919050565b61066481610649565b811461066f57600080fd5b50565b6000813590506106818161065b565b92915050565b610690816105cc565b811461069b57600080fd5b50565b6000813590506106ad81610687565b92915050565b600080604083850312156106ca576106c9610644565b5b60006106d885828601610672565b92505060206106e98582860161069e565b9150509250929050565b600069ffffffffffffffffffff82169050919050565b610712816106f3565b811461071d57600080fd5b50565b60008151905061072f81610709565b92915050565b6000819050919050565b61074881610735565b811461075357600080fd5b50565b6000815190506107658161073f565b92915050565b60008151905061077a81610687565b92915050565b600080600080600060a0868803121561079c5761079b610644565b5b60006107aa88828901610720565b95505060206107bb88828901610756565b94505060406107cc8882890161076b565b93505060606107dd8882890161076b565b92505060806107ee88828901610720565b9150509295509295909350565b7f4e487b7100000000000000000000000000000000000000000000000000000000600052601160045260246000fd5b600061083582610735565b915061084083610735565b9250827f7fffffffffffffffffffffffffffffffffffffffffffffffffffffffffffffff048211600084136000841316161561087f5761087e6107fb565b5b817f800000000000000000000000000000000000000000000000000000000000000005831260008412600084131616156108bc576108bb6107fb565b5b827f800000000000000000000000000000000000000000000000000000000000000005821260008413600084121616156108f9576108f86107fb565b5b827f7fffffffffffffffffffffffffffffffffffffffffffffffffffffffffffffff0582126000841260008412161615610936576109356107fb565b5b828202905092915050565b600081905092915050565b50565b600061095c600083610941565b91506109678261094c565b600082019050919050565b600061097d8261094f565b9150819050919050565b6000819050919050565b60006109ac6109a76109a28461058b565b610987565b61058b565b9050919050565b60006109be82610991565b9050919050565b60006109d0826109b3565b9050919050565b6109e0816109c5565b82525050565b60006040820190506109fb60008301856109d7565b610a0860208301846105d6565b939250505056fea264697066735822122050e09eab4b2e945bfe051fe7a7bec2e0a1940c7e588373b5519a699ec683ce6e64736f6c63430008090033",
  "devdoc": {
    "kind": "dev",
    "methods": {},
    "version": 1
  },
  "userdoc": {
    "kind": "user",
    "methods": {},
    "version": 1
  },
  "storageLayout": {
    "storage": [
      {
        "astId": 51,
        "contract": "contracts/topUp.sol:topUp",
        "label": "TOPUP_AMOUNT_IN_PKR",
        "offset": 0,
        "slot": "0",
        "type": "t_uint256"
      },
      {
        "astId": 56,
        "contract": "contracts/topUp.sol:topUp",
        "label": "s_priceFeed",
        "offset": 0,
        "slot": "1",
        "type": "t_contract(AggregatorV3Interface)45"
      }
    ],
    "types": {
      "t_contract(AggregatorV3Interface)45": {
        "encoding": "inplace",
        "label": "contract AggregatorV3Interface",
        "numberOfBytes": "20"
      },
      "t_uint256": {
        "encoding": "inplace",
        "label": "uint256",
        "numberOfBytes": "32"
      }
    }
  }
}