{
  "address": "0x578DDb353B597Bc8f1AE10818FAAEDF4c1f6e681",
  "abi": [
    {
      "inputs": [],
      "stateMutability": "nonpayable",
      "type": "constructor"
    },
    {
      "inputs": [
        {
          "internalType": "address",
          "name": "",
          "type": "address"
        }
      ],
      "name": "MULTISIG_REQUIRED",
      "type": "error"
    },
    {
      "inputs": [
        {
          "internalType": "address",
          "name": "",
          "type": "address"
        }
      ],
      "name": "USER_NOT_VERIFIED",
      "type": "error"
    },
    {
      "anonymous": false,
      "inputs": [
        {
          "indexed": false,
          "internalType": "uint256",
          "name": "fallbackAmount",
          "type": "uint256"
        }
      ],
      "name": "AMOUNT_RECEIVED_THROUGH_FALLBACK",
      "type": "event"
    },
    {
      "anonymous": false,
      "inputs": [
        {
          "indexed": false,
          "internalType": "uint256",
          "name": "receiveAmount",
          "type": "uint256"
        }
      ],
      "name": "AMOUNT_RECEIVED_THROUGH_RECEIVE",
      "type": "event"
    },
    {
      "anonymous": false,
      "inputs": [
        {
          "indexed": false,
          "internalType": "address",
          "name": "previousAdmin",
          "type": "address"
        },
        {
          "indexed": false,
          "internalType": "address",
          "name": "newAdmin",
          "type": "address"
        }
      ],
      "name": "AdminChanged",
      "type": "event"
    },
    {
      "anonymous": false,
      "inputs": [
        {
          "indexed": true,
          "internalType": "address",
          "name": "owner",
          "type": "address"
        },
        {
          "indexed": true,
          "internalType": "address",
          "name": "spender",
          "type": "address"
        },
        {
          "indexed": false,
          "internalType": "uint256",
          "name": "value",
          "type": "uint256"
        }
      ],
      "name": "Approval",
      "type": "event"
    },
    {
      "anonymous": false,
      "inputs": [
        {
          "indexed": true,
          "internalType": "address",
          "name": "beacon",
          "type": "address"
        }
      ],
      "name": "BeaconUpgraded",
      "type": "event"
    },
    {
      "anonymous": false,
      "inputs": [
        {
          "indexed": false,
          "internalType": "uint8",
          "name": "version",
          "type": "uint8"
        }
      ],
      "name": "Initialized",
      "type": "event"
    },
    {
      "anonymous": false,
      "inputs": [
        {
          "indexed": true,
          "internalType": "address",
          "name": "previousOwner",
          "type": "address"
        },
        {
          "indexed": true,
          "internalType": "address",
          "name": "newOwner",
          "type": "address"
        }
      ],
      "name": "OwnershipTransferred",
      "type": "event"
    },
    {
      "anonymous": false,
      "inputs": [
        {
          "indexed": false,
          "internalType": "address",
          "name": "account",
          "type": "address"
        }
      ],
      "name": "Paused",
      "type": "event"
    },
    {
      "anonymous": false,
      "inputs": [
        {
          "indexed": false,
          "internalType": "uint256",
          "name": "id",
          "type": "uint256"
        }
      ],
      "name": "Snapshot",
      "type": "event"
    },
    {
      "anonymous": false,
      "inputs": [
        {
          "indexed": false,
          "internalType": "address",
          "name": "",
          "type": "address"
        }
      ],
      "name": "TRANSFER_REQUIRED_MULTI_SIGNATURE",
      "type": "event"
    },
    {
      "anonymous": false,
      "inputs": [
        {
          "indexed": false,
          "internalType": "address",
          "name": "",
          "type": "address"
        }
      ],
      "name": "TRANSFER_REQUIRED_VERIFICATION_I",
      "type": "event"
    },
    {
      "anonymous": false,
      "inputs": [
        {
          "indexed": true,
          "internalType": "address",
          "name": "from",
          "type": "address"
        },
        {
          "indexed": true,
          "internalType": "address",
          "name": "to",
          "type": "address"
        },
        {
          "indexed": false,
          "internalType": "uint256",
          "name": "value",
          "type": "uint256"
        }
      ],
      "name": "Transfer",
      "type": "event"
    },
    {
      "anonymous": false,
      "inputs": [
        {
          "indexed": false,
          "internalType": "address",
          "name": "account",
          "type": "address"
        }
      ],
      "name": "Unpaused",
      "type": "event"
    },
    {
      "anonymous": false,
      "inputs": [
        {
          "indexed": true,
          "internalType": "address",
          "name": "implementation",
          "type": "address"
        }
      ],
      "name": "Upgraded",
      "type": "event"
    },
    {
      "stateMutability": "payable",
      "type": "fallback"
    },
    {
      "inputs": [],
      "name": "DOMAIN_SEPARATOR",
      "outputs": [
        {
          "internalType": "bytes32",
          "name": "",
          "type": "bytes32"
        }
      ],
      "stateMutability": "view",
      "type": "function"
    },
    {
      "inputs": [
        {
          "internalType": "address",
          "name": "_owner",
          "type": "address"
        },
        {
          "internalType": "address",
          "name": "_spender",
          "type": "address"
        }
      ],
      "name": "allowance",
      "outputs": [
        {
          "internalType": "uint256",
          "name": "",
          "type": "uint256"
        }
      ],
      "stateMutability": "view",
      "type": "function"
    },
    {
      "inputs": [
        {
          "internalType": "address",
          "name": "spender",
          "type": "address"
        },
        {
          "internalType": "uint256",
          "name": "amount",
          "type": "uint256"
        }
      ],
      "name": "approve",
      "outputs": [
        {
          "internalType": "bool",
          "name": "",
          "type": "bool"
        }
      ],
      "stateMutability": "nonpayable",
      "type": "function"
    },
    {
      "inputs": [
        {
          "internalType": "address",
          "name": "account",
          "type": "address"
        }
      ],
      "name": "balanceOf",
      "outputs": [
        {
          "internalType": "uint256",
          "name": "",
          "type": "uint256"
        }
      ],
      "stateMutability": "view",
      "type": "function"
    },
    {
      "inputs": [
        {
          "internalType": "address",
          "name": "account",
          "type": "address"
        },
        {
          "internalType": "uint256",
          "name": "snapshotId",
          "type": "uint256"
        }
      ],
      "name": "balanceOfAt",
      "outputs": [
        {
          "internalType": "uint256",
          "name": "",
          "type": "uint256"
        }
      ],
      "stateMutability": "view",
      "type": "function"
    },
    {
      "inputs": [
        {
          "internalType": "uint256",
          "name": "amount",
          "type": "uint256"
        }
      ],
      "name": "burn",
      "outputs": [],
      "stateMutability": "nonpayable",
      "type": "function"
    },
    {
      "inputs": [
        {
          "internalType": "address",
          "name": "account",
          "type": "address"
        },
        {
          "internalType": "uint256",
          "name": "amount",
          "type": "uint256"
        }
      ],
      "name": "burnFrom",
      "outputs": [],
      "stateMutability": "nonpayable",
      "type": "function"
    },
    {
      "inputs": [],
      "name": "decimals",
      "outputs": [
        {
          "internalType": "uint8",
          "name": "",
          "type": "uint8"
        }
      ],
      "stateMutability": "view",
      "type": "function"
    },
    {
      "inputs": [
        {
          "internalType": "address",
          "name": "spender",
          "type": "address"
        },
        {
          "internalType": "uint256",
          "name": "subtractedValue",
          "type": "uint256"
        }
      ],
      "name": "decreaseAllowance",
      "outputs": [
        {
          "internalType": "bool",
          "name": "",
          "type": "bool"
        }
      ],
      "stateMutability": "nonpayable",
      "type": "function"
    },
    {
      "inputs": [],
      "name": "getContractBalance",
      "outputs": [
        {
          "internalType": "uint256",
          "name": "",
          "type": "uint256"
        }
      ],
      "stateMutability": "view",
      "type": "function"
    },
    {
      "inputs": [],
      "name": "getPlatFormFee",
      "outputs": [
        {
          "internalType": "uint256",
          "name": "",
          "type": "uint256"
        }
      ],
      "stateMutability": "view",
      "type": "function"
    },
    {
      "inputs": [],
      "name": "getProfileAddress",
      "outputs": [
        {
          "internalType": "address",
          "name": "",
          "type": "address"
        }
      ],
      "stateMutability": "view",
      "type": "function"
    },
    {
      "inputs": [
        {
          "internalType": "address",
          "name": "spender",
          "type": "address"
        },
        {
          "internalType": "uint256",
          "name": "addedValue",
          "type": "uint256"
        }
      ],
      "name": "increaseAllowance",
      "outputs": [
        {
          "internalType": "bool",
          "name": "",
          "type": "bool"
        }
      ],
      "stateMutability": "nonpayable",
      "type": "function"
    },
    {
      "inputs": [],
      "name": "initialize",
      "outputs": [],
      "stateMutability": "nonpayable",
      "type": "function"
    },
    {
      "inputs": [
        {
          "internalType": "address",
          "name": "to",
          "type": "address"
        },
        {
          "internalType": "uint256",
          "name": "amount",
          "type": "uint256"
        }
      ],
      "name": "mint",
      "outputs": [],
      "stateMutability": "nonpayable",
      "type": "function"
    },
    {
      "inputs": [],
      "name": "name",
      "outputs": [
        {
          "internalType": "string",
          "name": "",
          "type": "string"
        }
      ],
      "stateMutability": "view",
      "type": "function"
    },
    {
      "inputs": [
        {
          "internalType": "address",
          "name": "owner",
          "type": "address"
        }
      ],
      "name": "nonces",
      "outputs": [
        {
          "internalType": "uint256",
          "name": "",
          "type": "uint256"
        }
      ],
      "stateMutability": "view",
      "type": "function"
    },
    {
      "inputs": [],
      "name": "owner",
      "outputs": [
        {
          "internalType": "address",
          "name": "",
          "type": "address"
        }
      ],
      "stateMutability": "view",
      "type": "function"
    },
    {
      "inputs": [],
      "name": "pause",
      "outputs": [],
      "stateMutability": "nonpayable",
      "type": "function"
    },
    {
      "inputs": [],
      "name": "paused",
      "outputs": [
        {
          "internalType": "bool",
          "name": "",
          "type": "bool"
        }
      ],
      "stateMutability": "view",
      "type": "function"
    },
    {
      "inputs": [
        {
          "internalType": "address",
          "name": "owner",
          "type": "address"
        },
        {
          "internalType": "address",
          "name": "spender",
          "type": "address"
        },
        {
          "internalType": "uint256",
          "name": "value",
          "type": "uint256"
        },
        {
          "internalType": "uint256",
          "name": "deadline",
          "type": "uint256"
        },
        {
          "internalType": "uint8",
          "name": "v",
          "type": "uint8"
        },
        {
          "internalType": "bytes32",
          "name": "r",
          "type": "bytes32"
        },
        {
          "internalType": "bytes32",
          "name": "s",
          "type": "bytes32"
        }
      ],
      "name": "permit",
      "outputs": [],
      "stateMutability": "nonpayable",
      "type": "function"
    },
    {
      "inputs": [],
      "name": "proxiableUUID",
      "outputs": [
        {
          "internalType": "bytes32",
          "name": "",
          "type": "bytes32"
        }
      ],
      "stateMutability": "view",
      "type": "function"
    },
    {
      "inputs": [],
      "name": "renounceOwnership",
      "outputs": [],
      "stateMutability": "nonpayable",
      "type": "function"
    },
    {
      "inputs": [
        {
          "internalType": "uint256",
          "name": "_fee",
          "type": "uint256"
        }
      ],
      "name": "setPlatFormFee",
      "outputs": [],
      "stateMutability": "nonpayable",
      "type": "function"
    },
    {
      "inputs": [
        {
          "internalType": "address payable",
          "name": "_profiles",
          "type": "address"
        }
      ],
      "name": "setProfileAddress",
      "outputs": [],
      "stateMutability": "nonpayable",
      "type": "function"
    },
    {
      "inputs": [],
      "name": "symbol",
      "outputs": [
        {
          "internalType": "string",
          "name": "",
          "type": "string"
        }
      ],
      "stateMutability": "view",
      "type": "function"
    },
    {
      "inputs": [],
      "name": "totalSupply",
      "outputs": [
        {
          "internalType": "uint256",
          "name": "",
          "type": "uint256"
        }
      ],
      "stateMutability": "view",
      "type": "function"
    },
    {
      "inputs": [
        {
          "internalType": "uint256",
          "name": "snapshotId",
          "type": "uint256"
        }
      ],
      "name": "totalSupplyAt",
      "outputs": [
        {
          "internalType": "uint256",
          "name": "",
          "type": "uint256"
        }
      ],
      "stateMutability": "view",
      "type": "function"
    },
    {
      "inputs": [
        {
          "internalType": "address",
          "name": "to",
          "type": "address"
        },
        {
          "internalType": "uint256",
          "name": "amount",
          "type": "uint256"
        }
      ],
      "name": "transfer",
      "outputs": [
        {
          "internalType": "bool",
          "name": "",
          "type": "bool"
        }
      ],
      "stateMutability": "nonpayable",
      "type": "function"
    },
    {
      "inputs": [
        {
          "internalType": "address",
          "name": "from",
          "type": "address"
        },
        {
          "internalType": "address",
          "name": "to",
          "type": "address"
        },
        {
          "internalType": "uint256",
          "name": "amount",
          "type": "uint256"
        }
      ],
      "name": "transferFrom",
      "outputs": [
        {
          "internalType": "bool",
          "name": "",
          "type": "bool"
        }
      ],
      "stateMutability": "nonpayable",
      "type": "function"
    },
    {
      "inputs": [
        {
          "internalType": "address",
          "name": "newOwner",
          "type": "address"
        }
      ],
      "name": "transferOwnership",
      "outputs": [],
      "stateMutability": "nonpayable",
      "type": "function"
    },
    {
      "inputs": [],
      "name": "unpause",
      "outputs": [],
      "stateMutability": "nonpayable",
      "type": "function"
    },
    {
      "inputs": [
        {
          "internalType": "address",
          "name": "newImplementation",
          "type": "address"
        }
      ],
      "name": "upgradeTo",
      "outputs": [],
      "stateMutability": "nonpayable",
      "type": "function"
    },
    {
      "inputs": [
        {
          "internalType": "address",
          "name": "newImplementation",
          "type": "address"
        },
        {
          "internalType": "bytes",
          "name": "data",
          "type": "bytes"
        }
      ],
      "name": "upgradeToAndCall",
      "outputs": [],
      "stateMutability": "payable",
      "type": "function"
    },
    {
      "stateMutability": "payable",
      "type": "receive"
    }
  ],
  "transactionHash": "0xf5992f9057741fd356398197009d591ec489bee998df2e20d218c556ba4a6713",
  "args": [],
  "numDeployments": 1,
  "solcInputHash": "1c5a9834e9b932d301a1621bab6df54a",
  "bytecode": "0x60e06040523073ffffffffffffffffffffffffffffffffffffffff1660809073ffffffffffffffffffffffffffffffffffffffff168152506040516020016200004890620001e4565b6040516020818303038152906040528051906020012060a09081525060405160200162000075906200024b565b6040516020818303038152906040528051906020012060c090815250670de0b6b3a76400006101f855348015620000ab57600080fd5b50620000bc620000c260201b60201c565b62000346565b600060019054906101000a900460ff161562000115576040517f08c379a00000000000000000000000000000000000000000000000000000000081526004016200010c90620002e9565b60405180910390fd5b60ff801660008054906101000a900460ff1660ff161015620001875760ff6000806101000a81548160ff021916908360ff1602179055507f7f26b83ff96e1f2b6a682f133852f6798a09c465da95921460cefb384740249860ff6040516200017e919062000329565b60405180910390a15b565b600081905092915050565b7f415050524f564544000000000000000000000000000000000000000000000000600082015250565b6000620001cc60088362000189565b9150620001d98262000194565b600882019050919050565b6000620001f182620001bd565b9150819050919050565b7f4e554c4c00000000000000000000000000000000000000000000000000000000600082015250565b60006200023360048362000189565b91506200024082620001fb565b600482019050919050565b6000620002588262000224565b9150819050919050565b600082825260208201905092915050565b7f496e697469616c697a61626c653a20636f6e747261637420697320696e69746960008201527f616c697a696e6700000000000000000000000000000000000000000000000000602082015250565b6000620002d160278362000262565b9150620002de8262000273565b604082019050919050565b600060208201905081810360008301526200030481620002c2565b9050919050565b600060ff82169050919050565b62000323816200030b565b82525050565b600060208201905062000340600083018462000318565b92915050565b60805160a05160c05161564a620003a060003960008181610a1b0152610a8901526000818161152c0152611596015260008181610bc801528181610c5701528181610e2b01528181610eba0152610f6a015261564a6000f3fe6080604052600436106101fd5760003560e01c80636f9fb98a1161010d5780638da5cb5b116100a0578063a9059cbb1161006f578063a9059cbb1461077a578063d505accf146107b7578063da323c07146107e0578063dd62ed3e14610809578063f2fde38b146108465761023b565b80638da5cb5b146106aa57806395d89b41146106d5578063981b24d014610700578063a457c2d71461073d5761023b565b80637ecebe00116100dc5780637ecebe00146106145780638129fc1c146106515780638300b3df146106685780638456cb59146106935761023b565b80636f9fb98a1461056c57806370a0823114610597578063715018a6146105d457806379cc6790146105eb5761023b565b806339509351116101905780634ee2cd7e1161015f5780634ee2cd7e146104945780634f1ef286146104d157806352d1902d146104ed57806359e78460146105185780635c975abb146105415761023b565b806339509351146103ee5780633f4ba83a1461042b57806340c10f191461044257806342966c681461046b5761023b565b8063313ce567116101cc578063313ce56714610344578063345a903f1461036f5780633644e5151461039a5780633659cfe6146103c55761023b565b806306fdde0314610274578063095ea7b31461029f57806318160ddd146102dc57806323b872dd146103075761023b565b3661023b577f42100f075a78c1dac886a43652b5c7c76cca3718758e13e7b726063cd20fe02c3460405161023191906137f2565b60405180910390a1005b7f6cb8a67804b99a2876f9d2f903120d1607df4c6bb33315433f4f5b9284ba15883460405161026a91906137f2565b60405180910390a1005b34801561028057600080fd5b5061028961086f565b60405161029691906138a6565b60405180910390f35b3480156102ab57600080fd5b506102c660048036038101906102c19190613966565b610901565b6040516102d391906139c1565b60405180910390f35b3480156102e857600080fd5b506102f161096a565b6040516102fe91906137f2565b60405180910390f35b34801561031357600080fd5b5061032e600480360381019061032991906139dc565b610974565b60405161033b91906139c1565b60405180910390f35b34801561035057600080fd5b50610359610b7b565b6040516103669190613a4b565b60405180910390f35b34801561037b57600080fd5b50610384610b84565b6040516103919190613a75565b60405180910390f35b3480156103a657600080fd5b506103af610bb7565b6040516103bc9190613aa9565b60405180910390f35b3480156103d157600080fd5b506103ec60048036038101906103e79190613ac4565b610bc6565b005b3480156103fa57600080fd5b5061041560048036038101906104109190613966565b610d4f565b60405161042291906139c1565b60405180910390f35b34801561043757600080fd5b50610440610d75565b005b34801561044e57600080fd5b5061046960048036038101906104649190613966565b610d87565b005b34801561047757600080fd5b50610492600480360381019061048d9190613af1565b610da5565b005b3480156104a057600080fd5b506104bb60048036038101906104b69190613966565b610db9565b6040516104c891906137f2565b60405180910390f35b6104eb60048036038101906104e69190613c53565b610e29565b005b3480156104f957600080fd5b50610502610f66565b60405161050f9190613aa9565b60405180910390f35b34801561052457600080fd5b5061053f600480360381019061053a9190613ced565b61101f565b005b34801561054d57600080fd5b5061055661106c565b60405161056391906139c1565b60405180910390f35b34801561057857600080fd5b50610581611083565b60405161058e91906137f2565b60405180910390f35b3480156105a357600080fd5b506105be60048036038101906105b99190613ac4565b611093565b6040516105cb91906137f2565b60405180910390f35b3480156105e057600080fd5b506105e96110dc565b005b3480156105f757600080fd5b50610612600480360381019061060d9190613966565b6110f0565b005b34801561062057600080fd5b5061063b60048036038101906106369190613ac4565b611106565b60405161064891906137f2565b60405180910390f35b34801561065d57600080fd5b50610666611157565b005b34801561067457600080fd5b5061067d611367565b60405161068a91906137f2565b60405180910390f35b34801561069f57600080fd5b506106a861137a565b005b3480156106b657600080fd5b506106bf61138c565b6040516106cc9190613a75565b60405180910390f35b3480156106e157600080fd5b506106ea61139b565b6040516106f791906138a6565b60405180910390f35b34801561070c57600080fd5b5061072760048036038101906107229190613af1565b61142d565b60405161073491906137f2565b60405180910390f35b34801561074957600080fd5b50610764600480360381019061075f9190613966565b61145e565b60405161077191906139c1565b60405180910390f35b34801561078657600080fd5b506107a1600480360381019061079c9190613966565b611488565b6040516107ae91906139c1565b60405180910390f35b3480156107c357600080fd5b506107de60048036038101906107d99190613d72565b611633565b005b3480156107ec57600080fd5b5061080760048036038101906108029190613af1565b611775565b005b34801561081557600080fd5b50610830600480360381019061082b9190613e14565b611788565b60405161083d91906137f2565b60405180910390f35b34801561085257600080fd5b5061086d60048036038101906108689190613ac4565b6117a4565b005b60606036805461087e90613e83565b80601f01602080910402602001604051908101604052809291908181526020018280546108aa90613e83565b80156108f75780601f106108cc576101008083540402835291602001916108f7565b820191906000526020600020905b8154815290600101906020018083116108da57829003601f168201915b5050505050905090565b600061090b611828565b61091361138c565b92507fffffffffffffffffffffffffffffffffffffffffffffffffffffffffffffffff9150610962837fffffffffffffffffffffffffffffffffffffffffffffffffffffffffffffffff611872565b905092915050565b6000603554905090565b600061097e611828565b610986611895565b8361099081611913565b6109cf576040517f08c379a00000000000000000000000000000000000000000000000000000000081526004016109c690613f01565b60405180910390fd5b836109d981611913565b610a18576040517f08c379a0000000000000000000000000000000000000000000000000000000008152600401610a0f90613f01565b60405180910390fd5b857f0000000000000000000000000000000000000000000000000000000000000000610a43826119cd565b1415610a8657806040517f80b9ec45000000000000000000000000000000000000000000000000000000008152600401610a7d9190613a75565b60405180910390fd5b857f0000000000000000000000000000000000000000000000000000000000000000610ab1826119cd565b1415610af457806040517f80b9ec45000000000000000000000000000000000000000000000000000000008152600401610aeb9190613a75565b60405180910390fd5b671bc16d674ec80000861015610b3f576040517f08c379a0000000000000000000000000000000000000000000000000000000008152600401610b3690613f93565b60405180910390fd5b610b5488610b4b61138c565b6101f854611a82565b50610b6e88886101f85489610b699190613fe2565b611a82565b9450505050509392505050565b60006012905090565b6000610b8e611895565b6101f960009054906101000a900473ffffffffffffffffffffffffffffffffffffffff16905090565b6000610bc1611ab1565b905090565b7f000000000000000000000000000000000000000000000000000000000000000073ffffffffffffffffffffffffffffffffffffffff163073ffffffffffffffffffffffffffffffffffffffff161415610c55576040517f08c379a0000000000000000000000000000000000000000000000000000000008152600401610c4c90614088565b60405180910390fd5b7f000000000000000000000000000000000000000000000000000000000000000073ffffffffffffffffffffffffffffffffffffffff16610c94611af1565b73ffffffffffffffffffffffffffffffffffffffff1614610cea576040517f08c379a0000000000000000000000000000000000000000000000000000000008152600401610ce19061411a565b60405180910390fd5b610cf381611b48565b610d4c81600067ffffffffffffffff811115610d1257610d11613b28565b5b6040519080825280601f01601f191660200182016040528015610d445781602001600182028036833780820191505090505b506000611b53565b50565b6000610d59611828565b610d6161138c565b9250610d6d8383611cd0565b905092915050565b610d7d611895565b610d85611d07565b565b610d8f611828565b610d97611895565b610da18282611d6a565b5050565b610dad611895565b610db681611ec2565b50565b6000806000610e0684609760008873ffffffffffffffffffffffffffffffffffffffff1673ffffffffffffffffffffffffffffffffffffffff168152602001908152602001600020611ed6565b9150915081610e1d57610e1885611093565b610e1f565b805b9250505092915050565b7f000000000000000000000000000000000000000000000000000000000000000073ffffffffffffffffffffffffffffffffffffffff163073ffffffffffffffffffffffffffffffffffffffff161415610eb8576040517f08c379a0000000000000000000000000000000000000000000000000000000008152600401610eaf90614088565b60405180910390fd5b7f000000000000000000000000000000000000000000000000000000000000000073ffffffffffffffffffffffffffffffffffffffff16610ef7611af1565b73ffffffffffffffffffffffffffffffffffffffff1614610f4d576040517f08c379a0000000000000000000000000000000000000000000000000000000008152600401610f449061411a565b60405180910390fd5b610f5682611b48565b610f6282826001611b53565b5050565b60007f000000000000000000000000000000000000000000000000000000000000000073ffffffffffffffffffffffffffffffffffffffff163073ffffffffffffffffffffffffffffffffffffffff1614610ff6576040517f08c379a0000000000000000000000000000000000000000000000000000000008152600401610fed906141ac565b60405180910390fd5b7f360894a13ba1a3210667c828492db98dca3e2076cc3735a920a3ca505d382bbc60001b905090565b611027611895565b806101f960006101000a81548173ffffffffffffffffffffffffffffffffffffffff021916908373ffffffffffffffffffffffffffffffffffffffff16021790555050565b600060fb60009054906101000a900460ff16905090565b600061108d611895565b47905090565b6000603360008373ffffffffffffffffffffffffffffffffffffffff1673ffffffffffffffffffffffffffffffffffffffff168152602001908152602001600020549050919050565b6110e4611895565b6110ee6000611fcc565b565b6110f8611895565b6111028282612092565b5050565b600061115061016160008473ffffffffffffffffffffffffffffffffffffffff1673ffffffffffffffffffffffffffffffffffffffff1681526020019081526020016000206120b2565b9050919050565b60008060019054906101000a900460ff161590508080156111885750600160008054906101000a900460ff1660ff16105b806111b55750611197306120c0565b1580156111b45750600160008054906101000a900460ff1660ff16145b5b6111f4576040517f08c379a00000000000000000000000000000000000000000000000000000000081526004016111eb9061423e565b60405180910390fd5b60016000806101000a81548160ff021916908360ff1602179055508015611231576001600060016101000a81548160ff0219169083151502179055505b6112a56040518060400160405280600481526020017f504b4452000000000000000000000000000000000000000000000000000000008152506040518060400160405280600481526020017f504b4452000000000000000000000000000000000000000000000000000000008152506120e3565b6112ad612140565b6112b5612191565b6112bd6121e2565b6112c561223b565b6113036040518060400160405280600481526020017f504b445200000000000000000000000000000000000000000000000000000000815250612294565b61130b612325565b80156113645760008060016101000a81548160ff0219169083151502179055507f7f26b83ff96e1f2b6a682f133852f6798a09c465da95921460cefb3847402498600160405161135b91906142a3565b60405180910390a15b50565b6000611371611895565b6101f854905090565b611382611895565b61138a612376565b565b60006113966123d9565b905090565b6060603780546113aa90613e83565b80601f01602080910402602001604051908101604052809291908181526020018280546113d690613e83565b80156114235780601f106113f857610100808354040283529160200191611423565b820191906000526020600020905b81548152906001019060200180831161140657829003601f168201915b5050505050905090565b600080600061143d846098611ed6565b91509150816114535761144e61096a565b611455565b805b92505050919050565b6000611468611828565b61147061138c565b9250600091506114808383612403565b905092915050565b6000611492611828565b61149a611895565b6114a333611913565b6114e2576040517f08c379a00000000000000000000000000000000000000000000000000000000081526004016114d990614330565b60405180910390fd5b6114eb83611913565b61152a576040517f08c379a0000000000000000000000000000000000000000000000000000000008152600401611521906143c2565b60405180910390fd5b7f0000000000000000000000000000000000000000000000000000000000000000611554336119cd565b14611594576040517f08c379a000000000000000000000000000000000000000000000000000000000815260040161158b90614454565b60405180910390fd5b7f00000000000000000000000000000000000000000000000000000000000000006115be846119cd565b146115fe576040517f08c379a00000000000000000000000000000000000000000000000000000000081526004016115f5906144e6565b60405180910390fd5b61161261160961138c565b6101f85461247a565b5061162b836101f854846116269190613fe2565b61247a565b905092915050565b83421115611676576040517f08c379a000000000000000000000000000000000000000000000000000000000815260040161166d90614552565b60405180910390fd5b60007f6e71edae12b1b97f4d1f60370fef10105fa2faae0126114a169c64845d6126c98888886116a58c61249d565b896040516020016116bb96959493929190614572565b60405160208183030381529060405280519060200120905060006116de826124fc565b905060006116ee82878787612516565b90508973ffffffffffffffffffffffffffffffffffffffff168173ffffffffffffffffffffffffffffffffffffffff161461175e576040517f08c379a00000000000000000000000000000000000000000000000000000000081526004016117559061461f565b60405180910390fd5b6117698a8a8a612541565b50505050505050505050565b61177d611895565b806101f88190555050565b6000611792611895565b61179c838361270c565b905092915050565b6117ac611895565b600073ffffffffffffffffffffffffffffffffffffffff168173ffffffffffffffffffffffffffffffffffffffff16141561181c576040517f08c379a0000000000000000000000000000000000000000000000000000000008152600401611813906146b1565b60405180910390fd5b61182581611fcc565b50565b61183061106c565b15611870576040517f08c379a00000000000000000000000000000000000000000000000000000000081526004016118679061471d565b60405180910390fd5b565b60008061187d612793565b905061188a818585612541565b600191505092915050565b61189d612793565b73ffffffffffffffffffffffffffffffffffffffff166118bb61138c565b73ffffffffffffffffffffffffffffffffffffffff1614611911576040517f08c379a000000000000000000000000000000000000000000000000000000000815260040161190890614789565b60405180910390fd5b565b6000806101f960009054906101000a900473ffffffffffffffffffffffffffffffffffffffff1673ffffffffffffffffffffffffffffffffffffffff1663d117fc99846040518263ffffffff1660e01b81526004016119729190613a75565b60206040518083038186803b15801561198a57600080fd5b505afa15801561199e573d6000803e3d6000fd5b505050506040513d601f19601f820116820180604052508101906119c291906147d5565b905080915050919050565b60006101f960009054906101000a900473ffffffffffffffffffffffffffffffffffffffff1673ffffffffffffffffffffffffffffffffffffffff16631e9f3d5e836040518263ffffffff1660e01b8152600401611a2b9190613a75565b60206040518083038186803b158015611a4357600080fd5b505afa158015611a57573d6000803e3d6000fd5b505050506040513d601f19601f82011682018060405250810190611a7b9190614817565b9050919050565b600080611a8d612793565b9050611a9a85828561279b565b611aa5858585612827565b60019150509392505050565b6000611aec7f8b73c3c69bb8fe3d512ecc4cf759cc79239f7b179b0ffacaa9a75d522b39400f611adf612aa2565b611ae7612aad565b612ab8565b905090565b6000611b1f7f360894a13ba1a3210667c828492db98dca3e2076cc3735a920a3ca505d382bbc60001b612af2565b60000160009054906101000a900473ffffffffffffffffffffffffffffffffffffffff16905090565b611b50611895565b50565b611b7f7f4910fdfa16fed3260ed0e7147f7cc6da11a60208b5b9406d12a635614ffd914360001b612afc565b60000160009054906101000a900460ff1615611ba357611b9e83612b06565b611ccb565b8273ffffffffffffffffffffffffffffffffffffffff166352d1902d6040518163ffffffff1660e01b815260040160206040518083038186803b158015611be957600080fd5b505afa925050508015611c1a57506040513d601f19601f82011682018060405250810190611c179190614817565b60015b611c59576040517f08c379a0000000000000000000000000000000000000000000000000000000008152600401611c50906148b6565b60405180910390fd5b7f360894a13ba1a3210667c828492db98dca3e2076cc3735a920a3ca505d382bbc60001b8114611cbe576040517f08c379a0000000000000000000000000000000000000000000000000000000008152600401611cb590614948565b60405180910390fd5b50611cca838383612bbf565b5b505050565b600080611cdb612793565b9050611cfc818585611ced8589611788565b611cf79190614968565b612541565b600191505092915050565b611d0f612beb565b600060fb60006101000a81548160ff0219169083151502179055507f5db9ee0a495bf2e6ff9c91a7834c1ba4fdd244a5e8aa4e537bd38aeae4b073aa611d53612793565b604051611d609190613a75565b60405180910390a1565b600073ffffffffffffffffffffffffffffffffffffffff168273ffffffffffffffffffffffffffffffffffffffff161415611dda576040517f08c379a0000000000000000000000000000000000000000000000000000000008152600401611dd190614a0a565b60405180910390fd5b611de660008383612c34565b8060356000828254611df89190614968565b9250508190555080603360008473ffffffffffffffffffffffffffffffffffffffff1673ffffffffffffffffffffffffffffffffffffffff168152602001908152602001600020600082825401925050819055508173ffffffffffffffffffffffffffffffffffffffff16600073ffffffffffffffffffffffffffffffffffffffff167fddf252ad1be2c89b69c2b068fc378daa952ba7f163c4a11628f55a4df523b3ef83604051611eaa91906137f2565b60405180910390a3611ebe60008383612c4c565b5050565b611ed3611ecd612793565b82612c51565b50565b60008060008411611f1c576040517f08c379a0000000000000000000000000000000000000000000000000000000008152600401611f1390614a76565b60405180910390fd5b611f24612e21565b841115611f66576040517f08c379a0000000000000000000000000000000000000000000000000000000008152600401611f5d90614ae2565b60405180910390fd5b6000611f7e8585600001612e3290919063ffffffff16565b90508360000180549050811415611f9c576000809250925050611fc5565b6001846001018281548110611fb457611fb3614b02565b5b906000526020600020015492509250505b9250929050565b600060c960009054906101000a900473ffffffffffffffffffffffffffffffffffffffff1690508160c960006101000a81548173ffffffffffffffffffffffffffffffffffffffff021916908373ffffffffffffffffffffffffffffffffffffffff1602179055508173ffffffffffffffffffffffffffffffffffffffff168173ffffffffffffffffffffffffffffffffffffffff167f8be0079c531659141344cd1fd0a4f28419497f9722a3daafe3b4186f6b6457e060405160405180910390a35050565b6120a48261209e612793565b8361279b565b6120ae8282612c51565b5050565b600081600001549050919050565b6000808273ffffffffffffffffffffffffffffffffffffffff163b119050919050565b600060019054906101000a900460ff16612132576040517f08c379a000000000000000000000000000000000000000000000000000000000815260040161212990614ba3565b60405180910390fd5b61213c8282612eec565b5050565b600060019054906101000a900460ff1661218f576040517f08c379a000000000000000000000000000000000000000000000000000000000815260040161218690614ba3565b60405180910390fd5b565b600060019054906101000a900460ff166121e0576040517f08c379a00000000000000000000000000000000000000000000000000000000081526004016121d790614ba3565b60405180910390fd5b565b600060019054906101000a900460ff16612231576040517f08c379a000000000000000000000000000000000000000000000000000000000815260040161222890614ba3565b60405180910390fd5b612239612f6d565b565b600060019054906101000a900460ff1661228a576040517f08c379a000000000000000000000000000000000000000000000000000000000815260040161228190614ba3565b60405180910390fd5b612292612fce565b565b600060019054906101000a900460ff166122e3576040517f08c379a00000000000000000000000000000000000000000000000000000000081526004016122da90614ba3565b60405180910390fd5b612322816040518060400160405280600181526020017f310000000000000000000000000000000000000000000000000000000000000081525061303a565b50565b600060019054906101000a900460ff16612374576040517f08c379a000000000000000000000000000000000000000000000000000000000815260040161236b90614ba3565b60405180910390fd5b565b61237e611828565b600160fb60006101000a81548160ff0219169083151502179055507f62e78cea01bee320cd4e420270b5ea74000d11b0c9f74754ebdbfc544b05a2586123c2612793565b6040516123cf9190613a75565b60405180910390a1565b600060c960009054906101000a900473ffffffffffffffffffffffffffffffffffffffff16905090565b60008061240e612793565b9050600061241c8286611788565b905083811015612461576040517f08c379a000000000000000000000000000000000000000000000000000000000815260040161245890614c35565b60405180910390fd5b61246e8286868403612541565b60019250505092915050565b600080612485612793565b9050612492818585612827565b600191505092915050565b60008061016160008473ffffffffffffffffffffffffffffffffffffffff1673ffffffffffffffffffffffffffffffffffffffff16815260200190815260200160002090506124eb816120b2565b91506124f6816130b7565b50919050565b600061250f612509611ab1565b836130cd565b9050919050565b600080600061252787878787613100565b91509150612534816131e3565b8192505050949350505050565b600073ffffffffffffffffffffffffffffffffffffffff168373ffffffffffffffffffffffffffffffffffffffff1614156125b1576040517f08c379a00000000000000000000000000000000000000000000000000000000081526004016125a890614cc7565b60405180910390fd5b600073ffffffffffffffffffffffffffffffffffffffff168273ffffffffffffffffffffffffffffffffffffffff161415612621576040517f08c379a000000000000000000000000000000000000000000000000000000000815260040161261890614d59565b60405180910390fd5b80603460008573ffffffffffffffffffffffffffffffffffffffff1673ffffffffffffffffffffffffffffffffffffffff16815260200190815260200160002060008473ffffffffffffffffffffffffffffffffffffffff1673ffffffffffffffffffffffffffffffffffffffff168152602001908152602001600020819055508173ffffffffffffffffffffffffffffffffffffffff168373ffffffffffffffffffffffffffffffffffffffff167f8c5be1e5ebec7d5bd14f71427d1e84f3dd0314c0f7b2291e5b200ac8c7c3b925836040516126ff91906137f2565b60405180910390a3505050565b6000603460008473ffffffffffffffffffffffffffffffffffffffff1673ffffffffffffffffffffffffffffffffffffffff16815260200190815260200160002060008373ffffffffffffffffffffffffffffffffffffffff1673ffffffffffffffffffffffffffffffffffffffff16815260200190815260200160002054905092915050565b600033905090565b60006127a78484611788565b90507fffffffffffffffffffffffffffffffffffffffffffffffffffffffffffffffff81146128215781811015612813576040517f08c379a000000000000000000000000000000000000000000000000000000000815260040161280a90614dc5565b60405180910390fd5b6128208484848403612541565b5b50505050565b600073ffffffffffffffffffffffffffffffffffffffff168373ffffffffffffffffffffffffffffffffffffffff161415612897576040517f08c379a000000000000000000000000000000000000000000000000000000000815260040161288e90614e57565b60405180910390fd5b600073ffffffffffffffffffffffffffffffffffffffff168273ffffffffffffffffffffffffffffffffffffffff161415612907576040517f08c379a00000000000000000000000000000000000000000000000000000000081526004016128fe90614ee9565b60405180910390fd5b612912838383612c34565b6000603360008573ffffffffffffffffffffffffffffffffffffffff1673ffffffffffffffffffffffffffffffffffffffff16815260200190815260200160002054905081811015612999576040517f08c379a000000000000000000000000000000000000000000000000000000000815260040161299090614f7b565b60405180910390fd5b818103603360008673ffffffffffffffffffffffffffffffffffffffff1673ffffffffffffffffffffffffffffffffffffffff1681526020019081526020016000208190555081603360008573ffffffffffffffffffffffffffffffffffffffff1673ffffffffffffffffffffffffffffffffffffffff168152602001908152602001600020600082825401925050819055508273ffffffffffffffffffffffffffffffffffffffff168473ffffffffffffffffffffffffffffffffffffffff167fddf252ad1be2c89b69c2b068fc378daa952ba7f163c4a11628f55a4df523b3ef84604051612a8991906137f2565b60405180910390a3612a9c848484612c4c565b50505050565b600061012d54905090565b600061012e54905090565b60008383834630604051602001612ad3959493929190614f9b565b6040516020818303038152906040528051906020012090509392505050565b6000819050919050565b6000819050919050565b612b0f816120c0565b612b4e576040517f08c379a0000000000000000000000000000000000000000000000000000000008152600401612b4590615060565b60405180910390fd5b80612b7b7f360894a13ba1a3210667c828492db98dca3e2076cc3735a920a3ca505d382bbc60001b612af2565b60000160006101000a81548173ffffffffffffffffffffffffffffffffffffffff021916908373ffffffffffffffffffffffffffffffffffffffff16021790555050565b612bc883613351565b600082511180612bd55750805b15612be657612be483836133a0565b505b505050565b612bf361106c565b612c32576040517f08c379a0000000000000000000000000000000000000000000000000000000008152600401612c29906150cc565b60405180910390fd5b565b612c3c611828565b612c47838383613484565b505050565b505050565b600073ffffffffffffffffffffffffffffffffffffffff168273ffffffffffffffffffffffffffffffffffffffff161415612cc1576040517f08c379a0000000000000000000000000000000000000000000000000000000008152600401612cb89061515e565b60405180910390fd5b612ccd82600083612c34565b6000603360008473ffffffffffffffffffffffffffffffffffffffff1673ffffffffffffffffffffffffffffffffffffffff16815260200190815260200160002054905081811015612d54576040517f08c379a0000000000000000000000000000000000000000000000000000000008152600401612d4b906151f0565b60405180910390fd5b818103603360008573ffffffffffffffffffffffffffffffffffffffff1673ffffffffffffffffffffffffffffffffffffffff1681526020019081526020016000208190555081603560008282540392505081905550600073ffffffffffffffffffffffffffffffffffffffff168373ffffffffffffffffffffffffffffffffffffffff167fddf252ad1be2c89b69c2b068fc378daa952ba7f163c4a11628f55a4df523b3ef84604051612e0891906137f2565b60405180910390a3612e1c83600084612c4c565b505050565b6000612e2d609a6120b2565b905090565b60008083805490501415612e495760009050612ee6565b600080848054905090505b80821015612e9d576000612e68838361353e565b905084612e758783613564565b600001541115612e8757809150612e97565b600181612e949190614968565b92505b50612e54565b600082118015612ec5575083612ebf86600185612eba9190613fe2565b613564565b60000154145b15612ee057600182612ed79190613fe2565b92505050612ee6565b81925050505b92915050565b600060019054906101000a900460ff16612f3b576040517f08c379a0000000000000000000000000000000000000000000000000000000008152600401612f3290614ba3565b60405180910390fd5b8160369080519060200190612f51929190613736565b508060379080519060200190612f68929190613736565b505050565b600060019054906101000a900460ff16612fbc576040517f08c379a0000000000000000000000000000000000000000000000000000000008152600401612fb390614ba3565b60405180910390fd5b612fcc612fc7612793565b611fcc565b565b600060019054906101000a900460ff1661301d576040517f08c379a000000000000000000000000000000000000000000000000000000000815260040161301490614ba3565b60405180910390fd5b600060fb60006101000a81548160ff021916908315150217905550565b600060019054906101000a900460ff16613089576040517f08c379a000000000000000000000000000000000000000000000000000000000815260040161308090614ba3565b60405180910390fd5b6000828051906020012090506000828051906020012090508161012d819055508061012e8190555050505050565b6001816000016000828254019250508190555050565b600082826040516020016130e2929190615288565b60405160208183030381529060405280519060200120905092915050565b6000807f7fffffffffffffffffffffffffffffff5d576e7357a4501ddfe92f46681b20a08360001c111561313b5760006003915091506131da565b60006001878787876040516000815260200160405260405161316094939291906152bf565b6020604051602081039080840390855afa158015613182573d6000803e3d6000fd5b505050602060405103519050600073ffffffffffffffffffffffffffffffffffffffff168173ffffffffffffffffffffffffffffffffffffffff1614156131d1576000600192509250506131da565b80600092509250505b94509492505050565b600060048111156131f7576131f6615304565b5b81600481111561320a57613209615304565b5b14156132155761334e565b6001600481111561322957613228615304565b5b81600481111561323c5761323b615304565b5b141561327d576040517f08c379a00000000000000000000000000000000000000000000000000000000081526004016132749061537f565b60405180910390fd5b6002600481111561329157613290615304565b5b8160048111156132a4576132a3615304565b5b14156132e5576040517f08c379a00000000000000000000000000000000000000000000000000000000081526004016132dc906153eb565b60405180910390fd5b600360048111156132f9576132f8615304565b5b81600481111561330c5761330b615304565b5b141561334d576040517f08c379a00000000000000000000000000000000000000000000000000000000081526004016133449061547d565b60405180910390fd5b5b50565b61335a81612b06565b8073ffffffffffffffffffffffffffffffffffffffff167fbc7cd75a20ee27fd9adebab32041f755214dbc6bffa90cc0225b39da2e5c2d3b60405160405180910390a250565b60606133ab836120c0565b6133ea576040517f08c379a00000000000000000000000000000000000000000000000000000000081526004016133e19061550f565b60405180910390fd5b6000808473ffffffffffffffffffffffffffffffffffffffff16846040516134129190615576565b600060405180830381855af49150503d806000811461344d576040519150601f19603f3d011682016040523d82523d6000602084013e613452565b606091505b509150915061347a82826040518060600160405280602781526020016155ee60279139613586565b9250505092915050565b61348f8383836135a8565b600073ffffffffffffffffffffffffffffffffffffffff168373ffffffffffffffffffffffffffffffffffffffff1614156134da576134cd826135ad565b6134d5613600565b613539565b600073ffffffffffffffffffffffffffffffffffffffff168273ffffffffffffffffffffffffffffffffffffffff16141561352557613518836135ad565b613520613600565b613538565b61352e836135ad565b613537826135ad565b5b5b505050565b6000600282841861354f91906155bc565b82841661355c9190614968565b905092915050565b6000808360005282602060002001905061357d81613614565b91505092915050565b60608315613596578290506135a1565b6135a0838361361e565b5b9392505050565b505050565b6135fd609760008373ffffffffffffffffffffffffffffffffffffffff1673ffffffffffffffffffffffffffffffffffffffff1681526020019081526020016000206135f883611093565b61366e565b50565b613612609861360d61096a565b61366e565b565b6000819050919050565b6000825111156136315781518083602001fd5b806040517f08c379a000000000000000000000000000000000000000000000000000000000815260040161366591906138a6565b60405180910390fd5b6000613678612e21565b905080613687846000016136e9565b10156136e45782600001819080600181540180825580915050600190039060005260206000200160009091909190915055826001018290806001815401808255809150506001900390600052602060002001600090919091909150555b505050565b600080828054905014156137005760009050613731565b81600183805490506137129190613fe2565b8154811061372357613722614b02565b5b906000526020600020015490505b919050565b82805461374290613e83565b90600052602060002090601f01602090048101928261376457600085556137ab565b82601f1061377d57805160ff19168380011785556137ab565b828001600101855582156137ab579182015b828111156137aa57825182559160200191906001019061378f565b5b5090506137b891906137bc565b5090565b5b808211156137d55760008160009055506001016137bd565b5090565b6000819050919050565b6137ec816137d9565b82525050565b600060208201905061380760008301846137e3565b92915050565b600081519050919050565b600082825260208201905092915050565b60005b8381101561384757808201518184015260208101905061382c565b83811115613856576000848401525b50505050565b6000601f19601f8301169050919050565b60006138788261380d565b6138828185613818565b9350613892818560208601613829565b61389b8161385c565b840191505092915050565b600060208201905081810360008301526138c0818461386d565b905092915050565b6000604051905090565b600080fd5b600080fd5b600073ffffffffffffffffffffffffffffffffffffffff82169050919050565b6000613907826138dc565b9050919050565b613917816138fc565b811461392257600080fd5b50565b6000813590506139348161390e565b92915050565b613943816137d9565b811461394e57600080fd5b50565b6000813590506139608161393a565b92915050565b6000806040838503121561397d5761397c6138d2565b5b600061398b85828601613925565b925050602061399c85828601613951565b9150509250929050565b60008115159050919050565b6139bb816139a6565b82525050565b60006020820190506139d660008301846139b2565b92915050565b6000806000606084860312156139f5576139f46138d2565b5b6000613a0386828701613925565b9350506020613a1486828701613925565b9250506040613a2586828701613951565b9150509250925092565b600060ff82169050919050565b613a4581613a2f565b82525050565b6000602082019050613a606000830184613a3c565b92915050565b613a6f816138fc565b82525050565b6000602082019050613a8a6000830184613a66565b92915050565b6000819050919050565b613aa381613a90565b82525050565b6000602082019050613abe6000830184613a9a565b92915050565b600060208284031215613ada57613ad96138d2565b5b6000613ae884828501613925565b91505092915050565b600060208284031215613b0757613b066138d2565b5b6000613b1584828501613951565b91505092915050565b600080fd5b600080fd5b7f4e487b7100000000000000000000000000000000000000000000000000000000600052604160045260246000fd5b613b608261385c565b810181811067ffffffffffffffff82111715613b7f57613b7e613b28565b5b80604052505050565b6000613b926138c8565b9050613b9e8282613b57565b919050565b600067ffffffffffffffff821115613bbe57613bbd613b28565b5b613bc78261385c565b9050602081019050919050565b82818337600083830152505050565b6000613bf6613bf184613ba3565b613b88565b905082815260208101848484011115613c1257613c11613b23565b5b613c1d848285613bd4565b509392505050565b600082601f830112613c3a57613c39613b1e565b5b8135613c4a848260208601613be3565b91505092915050565b60008060408385031215613c6a57613c696138d2565b5b6000613c7885828601613925565b925050602083013567ffffffffffffffff811115613c9957613c986138d7565b5b613ca585828601613c25565b9150509250929050565b6000613cba826138dc565b9050919050565b613cca81613caf565b8114613cd557600080fd5b50565b600081359050613ce781613cc1565b92915050565b600060208284031215613d0357613d026138d2565b5b6000613d1184828501613cd8565b91505092915050565b613d2381613a2f565b8114613d2e57600080fd5b50565b600081359050613d4081613d1a565b92915050565b613d4f81613a90565b8114613d5a57600080fd5b50565b600081359050613d6c81613d46565b92915050565b600080600080600080600060e0888a031215613d9157613d906138d2565b5b6000613d9f8a828b01613925565b9750506020613db08a828b01613925565b9650506040613dc18a828b01613951565b9550506060613dd28a828b01613951565b9450506080613de38a828b01613d31565b93505060a0613df48a828b01613d5d565b92505060c0613e058a828b01613d5d565b91505092959891949750929550565b60008060408385031215613e2b57613e2a6138d2565b5b6000613e3985828601613925565b9250506020613e4a85828601613925565b9150509250929050565b7f4e487b7100000000000000000000000000000000000000000000000000000000600052602260045260246000fd5b60006002820490506001821680613e9b57607f821691505b60208210811415613eaf57613eae613e54565b5b50919050565b7f555345525f4e4f545f5645524946494544000000000000000000000000000000600082015250565b6000613eeb601183613818565b9150613ef682613eb5565b602082019050919050565b60006020820190508181036000830152613f1a81613ede565b9050919050565b7f494e53554646494349454e545f414d4f554e5420544f205452414e534645525f60008201527f52455155495245445f414d4f554e540000000000000000000000000000000000602082015250565b6000613f7d602f83613818565b9150613f8882613f21565b604082019050919050565b60006020820190508181036000830152613fac81613f70565b9050919050565b7f4e487b7100000000000000000000000000000000000000000000000000000000600052601160045260246000fd5b6000613fed826137d9565b9150613ff8836137d9565b92508282101561400b5761400a613fb3565b5b828203905092915050565b7f46756e6374696f6e206d7573742062652063616c6c6564207468726f7567682060008201527f64656c656761746563616c6c0000000000000000000000000000000000000000602082015250565b6000614072602c83613818565b915061407d82614016565b604082019050919050565b600060208201905081810360008301526140a181614065565b9050919050565b7f46756e6374696f6e206d7573742062652063616c6c6564207468726f7567682060008201527f6163746976652070726f78790000000000000000000000000000000000000000602082015250565b6000614104602c83613818565b915061410f826140a8565b604082019050919050565b60006020820190508181036000830152614133816140f7565b9050919050565b7f555550535570677261646561626c653a206d757374206e6f742062652063616c60008201527f6c6564207468726f7567682064656c656761746563616c6c0000000000000000602082015250565b6000614196603883613818565b91506141a18261413a565b604082019050919050565b600060208201905081810360008301526141c581614189565b9050919050565b7f496e697469616c697a61626c653a20636f6e747261637420697320616c72656160008201527f647920696e697469616c697a6564000000000000000000000000000000000000602082015250565b6000614228602e83613818565b9150614233826141cc565b604082019050919050565b600060208201905081810360008301526142578161421b565b9050919050565b6000819050919050565b6000819050919050565b600061428d6142886142838461425e565b614268565b613a2f565b9050919050565b61429d81614272565b82525050565b60006020820190506142b86000830184614294565b92915050565b7f66726f6d3a205452414e534645525f52455155495245445f564552494649434160008201527f54494f4e5f490000000000000000000000000000000000000000000000000000602082015250565b600061431a602683613818565b9150614325826142be565b604082019050919050565b600060208201905081810360008301526143498161430d565b9050919050565b7f746f203a205452414e534645525f52455155495245445f56455249464943415460008201527f494f4e5f49000000000000000000000000000000000000000000000000000000602082015250565b60006143ac602583613818565b91506143b782614350565b604082019050919050565b600060208201905081810360008301526143db8161439f565b9050919050565b7f66726f6d3a205452414e534645525f52455155495245445f4d554c54495f534960008201527f474e415455524500000000000000000000000000000000000000000000000000602082015250565b600061443e602783613818565b9150614449826143e2565b604082019050919050565b6000602082019050818103600083015261446d81614431565b9050919050565b7f746f3a205452414e534645525f52455155495245445f4d554c54495f5349474e60008201527f4154555245000000000000000000000000000000000000000000000000000000602082015250565b60006144d0602583613818565b91506144db82614474565b604082019050919050565b600060208201905081810360008301526144ff816144c3565b9050919050565b7f45524332305065726d69743a206578706972656420646561646c696e65000000600082015250565b600061453c601d83613818565b915061454782614506565b602082019050919050565b6000602082019050818103600083015261456b8161452f565b9050919050565b600060c0820190506145876000830189613a9a565b6145946020830188613a66565b6145a16040830187613a66565b6145ae60608301866137e3565b6145bb60808301856137e3565b6145c860a08301846137e3565b979650505050505050565b7f45524332305065726d69743a20696e76616c6964207369676e61747572650000600082015250565b6000614609601e83613818565b9150614614826145d3565b602082019050919050565b60006020820190508181036000830152614638816145fc565b9050919050565b7f4f776e61626c653a206e6577206f776e657220697320746865207a65726f206160008201527f6464726573730000000000000000000000000000000000000000000000000000602082015250565b600061469b602683613818565b91506146a68261463f565b604082019050919050565b600060208201905081810360008301526146ca8161468e565b9050919050565b7f5061757361626c653a2070617573656400000000000000000000000000000000600082015250565b6000614707601083613818565b9150614712826146d1565b602082019050919050565b60006020820190508181036000830152614736816146fa565b9050919050565b7f4f776e61626c653a2063616c6c6572206973206e6f7420746865206f776e6572600082015250565b6000614773602083613818565b915061477e8261473d565b602082019050919050565b600060208201905081810360008301526147a281614766565b9050919050565b6147b2816139a6565b81146147bd57600080fd5b50565b6000815190506147cf816147a9565b92915050565b6000602082840312156147eb576147ea6138d2565b5b60006147f9848285016147c0565b91505092915050565b60008151905061481181613d46565b92915050565b60006020828403121561482d5761482c6138d2565b5b600061483b84828501614802565b91505092915050565b7f45524331393637557067726164653a206e657720696d706c656d656e7461746960008201527f6f6e206973206e6f742055555053000000000000000000000000000000000000602082015250565b60006148a0602e83613818565b91506148ab82614844565b604082019050919050565b600060208201905081810360008301526148cf81614893565b9050919050565b7f45524331393637557067726164653a20756e737570706f727465642070726f7860008201527f6961626c65555549440000000000000000000000000000000000000000000000602082015250565b6000614932602983613818565b915061493d826148d6565b604082019050919050565b6000602082019050818103600083015261496181614925565b9050919050565b6000614973826137d9565b915061497e836137d9565b9250827fffffffffffffffffffffffffffffffffffffffffffffffffffffffffffffffff038211156149b3576149b2613fb3565b5b828201905092915050565b7f45524332303a206d696e7420746f20746865207a65726f206164647265737300600082015250565b60006149f4601f83613818565b91506149ff826149be565b602082019050919050565b60006020820190508181036000830152614a23816149e7565b9050919050565b7f4552433230536e617073686f743a206964206973203000000000000000000000600082015250565b6000614a60601683613818565b9150614a6b82614a2a565b602082019050919050565b60006020820190508181036000830152614a8f81614a53565b9050919050565b7f4552433230536e617073686f743a206e6f6e6578697374656e74206964000000600082015250565b6000614acc601d83613818565b9150614ad782614a96565b602082019050919050565b60006020820190508181036000830152614afb81614abf565b9050919050565b7f4e487b7100000000000000000000000000000000000000000000000000000000600052603260045260246000fd5b7f496e697469616c697a61626c653a20636f6e7472616374206973206e6f74206960008201527f6e697469616c697a696e67000000000000000000000000000000000000000000602082015250565b6000614b8d602b83613818565b9150614b9882614b31565b604082019050919050565b60006020820190508181036000830152614bbc81614b80565b9050919050565b7f45524332303a2064656372656173656420616c6c6f77616e63652062656c6f7760008201527f207a65726f000000000000000000000000000000000000000000000000000000602082015250565b6000614c1f602583613818565b9150614c2a82614bc3565b604082019050919050565b60006020820190508181036000830152614c4e81614c12565b9050919050565b7f45524332303a20617070726f76652066726f6d20746865207a65726f2061646460008201527f7265737300000000000000000000000000000000000000000000000000000000602082015250565b6000614cb1602483613818565b9150614cbc82614c55565b604082019050919050565b60006020820190508181036000830152614ce081614ca4565b9050919050565b7f45524332303a20617070726f766520746f20746865207a65726f20616464726560008201527f7373000000000000000000000000000000000000000000000000000000000000602082015250565b6000614d43602283613818565b9150614d4e82614ce7565b604082019050919050565b60006020820190508181036000830152614d7281614d36565b9050919050565b7f45524332303a20696e73756666696369656e7420616c6c6f77616e6365000000600082015250565b6000614daf601d83613818565b9150614dba82614d79565b602082019050919050565b60006020820190508181036000830152614dde81614da2565b9050919050565b7f45524332303a207472616e736665722066726f6d20746865207a65726f20616460008201527f6472657373000000000000000000000000000000000000000000000000000000602082015250565b6000614e41602583613818565b9150614e4c82614de5565b604082019050919050565b60006020820190508181036000830152614e7081614e34565b9050919050565b7f45524332303a207472616e7366657220746f20746865207a65726f206164647260008201527f6573730000000000000000000000000000000000000000000000000000000000602082015250565b6000614ed3602383613818565b9150614ede82614e77565b604082019050919050565b60006020820190508181036000830152614f0281614ec6565b9050919050565b7f45524332303a207472616e7366657220616d6f756e742065786365656473206260008201527f616c616e63650000000000000000000000000000000000000000000000000000602082015250565b6000614f65602683613818565b9150614f7082614f09565b604082019050919050565b60006020820190508181036000830152614f9481614f58565b9050919050565b600060a082019050614fb06000830188613a9a565b614fbd6020830187613a9a565b614fca6040830186613a9a565b614fd760608301856137e3565b614fe46080830184613a66565b9695505050505050565b7f455243313936373a206e657720696d706c656d656e746174696f6e206973206e60008201527f6f74206120636f6e747261637400000000000000000000000000000000000000602082015250565b600061504a602d83613818565b915061505582614fee565b604082019050919050565b600060208201905081810360008301526150798161503d565b9050919050565b7f5061757361626c653a206e6f7420706175736564000000000000000000000000600082015250565b60006150b6601483613818565b91506150c182615080565b602082019050919050565b600060208201905081810360008301526150e5816150a9565b9050919050565b7f45524332303a206275726e2066726f6d20746865207a65726f2061646472657360008201527f7300000000000000000000000000000000000000000000000000000000000000602082015250565b6000615148602183613818565b9150615153826150ec565b604082019050919050565b600060208201905081810360008301526151778161513b565b9050919050565b7f45524332303a206275726e20616d6f756e7420657863656564732062616c616e60008201527f6365000000000000000000000000000000000000000000000000000000000000602082015250565b60006151da602283613818565b91506151e58261517e565b604082019050919050565b60006020820190508181036000830152615209816151cd565b9050919050565b600081905092915050565b7f1901000000000000000000000000000000000000000000000000000000000000600082015250565b6000615251600283615210565b915061525c8261521b565b600282019050919050565b6000819050919050565b61528261527d82613a90565b615267565b82525050565b600061529382615244565b915061529f8285615271565b6020820191506152af8284615271565b6020820191508190509392505050565b60006080820190506152d46000830187613a9a565b6152e16020830186613a3c565b6152ee6040830185613a9a565b6152fb6060830184613a9a565b95945050505050565b7f4e487b7100000000000000000000000000000000000000000000000000000000600052602160045260246000fd5b7f45434453413a20696e76616c6964207369676e61747572650000000000000000600082015250565b6000615369601883613818565b915061537482615333565b602082019050919050565b600060208201905081810360008301526153988161535c565b9050919050565b7f45434453413a20696e76616c6964207369676e6174757265206c656e67746800600082015250565b60006153d5601f83613818565b91506153e08261539f565b602082019050919050565b60006020820190508181036000830152615404816153c8565b9050919050565b7f45434453413a20696e76616c6964207369676e6174757265202773272076616c60008201527f7565000000000000000000000000000000000000000000000000000000000000602082015250565b6000615467602283613818565b91506154728261540b565b604082019050919050565b600060208201905081810360008301526154968161545a565b9050919050565b7f416464726573733a2064656c65676174652063616c6c20746f206e6f6e2d636f60008201527f6e74726163740000000000000000000000000000000000000000000000000000602082015250565b60006154f9602683613818565b91506155048261549d565b604082019050919050565b60006020820190508181036000830152615528816154ec565b9050919050565b600081519050919050565b600081905092915050565b60006155508261552f565b61555a818561553a565b935061556a818560208601613829565b80840191505092915050565b60006155828284615545565b915081905092915050565b7f4e487b7100000000000000000000000000000000000000000000000000000000600052601260045260246000fd5b60006155c7826137d9565b91506155d2836137d9565b9250826155e2576155e161558d565b5b82820490509291505056fe416464726573733a206c6f772d6c6576656c2064656c65676174652063616c6c206661696c6564a2646970667358221220d69590b5016584d962dbdf4a1bd9448da0f7c63c5ca7b5d1134f8265b273de5d64736f6c63430008090033",
  "devdoc": {
    "custom:security-contact": "zohaib10092001@gmail.com",
    "kind": "dev",
    "methods": {
      "DOMAIN_SEPARATOR()": {
        "details": "See {IERC20Permit-DOMAIN_SEPARATOR}."
      },
      "approve(address,uint256)": {
        "details": "See {IERC20-approve}. NOTE: If `amount` is the maximum `uint256`, the allowance is not updated on `transferFrom`. This is semantically equivalent to an infinite approval. Requirements: - `spender` cannot be the zero address."
      },
      "balanceOf(address)": {
        "details": "See {IERC20-balanceOf}."
      },
      "balanceOfAt(address,uint256)": {
        "details": "Retrieves the balance of `account` at the time `snapshotId` was created."
      },
      "burn(uint256)": {
        "details": "Destroys `amount` tokens from the caller. See {ERC20-_burn}."
      },
      "burnFrom(address,uint256)": {
        "details": "Destroys `amount` tokens from `account`, deducting from the caller's allowance. See {ERC20-_burn} and {ERC20-allowance}. Requirements: - the caller must have allowance for ``accounts``'s tokens of at least `amount`."
      },
      "constructor": {
        "custom:oz-upgrades-unsafe-allow": "constructor"
      },
      "decimals()": {
        "details": "Returns the number of decimals used to get its user representation. For example, if `decimals` equals `2`, a balance of `505` tokens should be displayed to a user as `5.05` (`505 / 10 ** 2`). Tokens usually opt for a value of 18, imitating the relationship between Ether and Wei. This is the value {ERC20} uses, unless this function is overridden; NOTE: This information is only used for _display_ purposes: it in no way affects any of the arithmetic of the contract, including {IERC20-balanceOf} and {IERC20-transfer}."
      },
      "decreaseAllowance(address,uint256)": {
        "details": "Atomically decreases the allowance granted to `spender` by the caller. This is an alternative to {approve} that can be used as a mitigation for problems described in {IERC20-approve}. Emits an {Approval} event indicating the updated allowance. Requirements: - `spender` cannot be the zero address. - `spender` must have allowance for the caller of at least `subtractedValue`."
      },
      "increaseAllowance(address,uint256)": {
        "details": "Atomically increases the allowance granted to `spender` by the caller. This is an alternative to {approve} that can be used as a mitigation for problems described in {IERC20-approve}. Emits an {Approval} event indicating the updated allowance. Requirements: - `spender` cannot be the zero address."
      },
      "name()": {
        "details": "Returns the name of the token."
      },
      "nonces(address)": {
        "details": "See {IERC20Permit-nonces}."
      },
      "owner()": {
        "details": "Returns the address of the current owner."
      },
      "paused()": {
        "details": "Returns true if the contract is paused, and false otherwise."
      },
      "permit(address,address,uint256,uint256,uint8,bytes32,bytes32)": {
        "details": "See {IERC20Permit-permit}."
      },
      "proxiableUUID()": {
        "details": "Implementation of the ERC1822 {proxiableUUID} function. This returns the storage slot used by the implementation. It is used to validate the implementation's compatibility when performing an upgrade. IMPORTANT: A proxy pointing at a proxiable contract should not be considered proxiable itself, because this risks bricking a proxy that upgrades to it, by delegating to itself until out of gas. Thus it is critical that this function revert if invoked through a proxy. This is guaranteed by the `notDelegated` modifier."
      },
      "renounceOwnership()": {
        "details": "Leaves the contract without owner. It will not be possible to call `onlyOwner` functions anymore. Can only be called by the current owner. NOTE: Renouncing ownership will leave the contract without an owner, thereby removing any functionality that is only available to the owner."
      },
      "symbol()": {
        "details": "Returns the symbol of the token, usually a shorter version of the name."
      },
      "totalSupply()": {
        "details": "See {IERC20-totalSupply}."
      },
      "totalSupplyAt(uint256)": {
        "details": "Retrieves the total supply at the time `snapshotId` was created."
      },
      "transfer(address,uint256)": {
        "details": "See {IERC20-transfer}. Requirements: - `to` cannot be the zero address. - the caller must have a balance of at least `amount`."
      },
      "transferFrom(address,address,uint256)": {
        "details": "See {IERC20-transferFrom}. Emits an {Approval} event indicating the updated allowance. This is not required by the EIP. See the note at the beginning of {ERC20}. NOTE: Does not update the allowance if the current allowance is the maximum `uint256`. Requirements: - `from` and `to` cannot be the zero address. - `from` must have a balance of at least `amount`. - the caller must have allowance for ``from``'s tokens of at least `amount`."
      },
      "transferOwnership(address)": {
        "details": "Transfers ownership of the contract to a new account (`newOwner`). Can only be called by the current owner."
      },
      "upgradeTo(address)": {
        "details": "Upgrade the implementation of the proxy to `newImplementation`. Calls {_authorizeUpgrade}. Emits an {Upgraded} event."
      },
      "upgradeToAndCall(address,bytes)": {
        "details": "Upgrade the implementation of the proxy to `newImplementation`, and subsequently execute the function call encoded in `data`. Calls {_authorizeUpgrade}. Emits an {Upgraded} event."
      }
    },
    "version": 1
  },
  "userdoc": {
    "kind": "user",
    "methods": {},
    "version": 1
  },
  "storageLayout": {
    "storage": [
      {
        "astId": 527,
        "contract": "contracts/PKDR.sol:PKDR",
        "label": "_initialized",
        "offset": 0,
        "slot": "0",
        "type": "t_uint8"
      },
      {
        "astId": 530,
        "contract": "contracts/PKDR.sol:PKDR",
        "label": "_initializing",
        "offset": 1,
        "slot": "0",
        "type": "t_bool"
      },
      {
        "astId": 2787,
        "contract": "contracts/PKDR.sol:PKDR",
        "label": "__gap",
        "offset": 0,
        "slot": "1",
        "type": "t_array(t_uint256)50_storage"
      },
      {
        "astId": 971,
        "contract": "contracts/PKDR.sol:PKDR",
        "label": "_balances",
        "offset": 0,
        "slot": "51",
        "type": "t_mapping(t_address,t_uint256)"
      },
      {
        "astId": 977,
        "contract": "contracts/PKDR.sol:PKDR",
        "label": "_allowances",
        "offset": 0,
        "slot": "52",
        "type": "t_mapping(t_address,t_mapping(t_address,t_uint256))"
      },
      {
        "astId": 979,
        "contract": "contracts/PKDR.sol:PKDR",
        "label": "_totalSupply",
        "offset": 0,
        "slot": "53",
        "type": "t_uint256"
      },
      {
        "astId": 981,
        "contract": "contracts/PKDR.sol:PKDR",
        "label": "_name",
        "offset": 0,
        "slot": "54",
        "type": "t_string_storage"
      },
      {
        "astId": 983,
        "contract": "contracts/PKDR.sol:PKDR",
        "label": "_symbol",
        "offset": 0,
        "slot": "55",
        "type": "t_string_storage"
      },
      {
        "astId": 1563,
        "contract": "contracts/PKDR.sol:PKDR",
        "label": "__gap",
        "offset": 0,
        "slot": "56",
        "type": "t_array(t_uint256)45_storage"
      },
      {
        "astId": 1705,
        "contract": "contracts/PKDR.sol:PKDR",
        "label": "__gap",
        "offset": 0,
        "slot": "101",
        "type": "t_array(t_uint256)50_storage"
      },
      {
        "astId": 1749,
        "contract": "contracts/PKDR.sol:PKDR",
        "label": "_accountBalanceSnapshots",
        "offset": 0,
        "slot": "151",
        "type": "t_mapping(t_address,t_struct(Snapshots)1744_storage)"
      },
      {
        "astId": 1752,
        "contract": "contracts/PKDR.sol:PKDR",
        "label": "_totalSupplySnapshots",
        "offset": 0,
        "slot": "152",
        "type": "t_struct(Snapshots)1744_storage"
      },
      {
        "astId": 1755,
        "contract": "contracts/PKDR.sol:PKDR",
        "label": "_currentSnapshotId",
        "offset": 0,
        "slot": "154",
        "type": "t_struct(Counter)2794_storage"
      },
      {
        "astId": 2053,
        "contract": "contracts/PKDR.sol:PKDR",
        "label": "__gap",
        "offset": 0,
        "slot": "155",
        "type": "t_array(t_uint256)46_storage"
      },
      {
        "astId": 10,
        "contract": "contracts/PKDR.sol:PKDR",
        "label": "_owner",
        "offset": 0,
        "slot": "201",
        "type": "t_address"
      },
      {
        "astId": 130,
        "contract": "contracts/PKDR.sol:PKDR",
        "label": "__gap",
        "offset": 0,
        "slot": "202",
        "type": "t_array(t_uint256)49_storage"
      },
      {
        "astId": 846,
        "contract": "contracts/PKDR.sol:PKDR",
        "label": "_paused",
        "offset": 0,
        "slot": "251",
        "type": "t_bool"
      },
      {
        "astId": 951,
        "contract": "contracts/PKDR.sol:PKDR",
        "label": "__gap",
        "offset": 0,
        "slot": "252",
        "type": "t_array(t_uint256)49_storage"
      },
      {
        "astId": 3467,
        "contract": "contracts/PKDR.sol:PKDR",
        "label": "_HASHED_NAME",
        "offset": 0,
        "slot": "301",
        "type": "t_bytes32"
      },
      {
        "astId": 3469,
        "contract": "contracts/PKDR.sol:PKDR",
        "label": "_HASHED_VERSION",
        "offset": 0,
        "slot": "302",
        "type": "t_bytes32"
      },
      {
        "astId": 3607,
        "contract": "contracts/PKDR.sol:PKDR",
        "label": "__gap",
        "offset": 0,
        "slot": "303",
        "type": "t_array(t_uint256)50_storage"
      },
      {
        "astId": 2105,
        "contract": "contracts/PKDR.sol:PKDR",
        "label": "_nonces",
        "offset": 0,
        "slot": "353",
        "type": "t_mapping(t_address,t_struct(Counter)2794_storage)"
      },
      {
        "astId": 2113,
        "contract": "contracts/PKDR.sol:PKDR",
        "label": "_PERMIT_TYPEHASH_DEPRECATED_SLOT",
        "offset": 0,
        "slot": "354",
        "type": "t_bytes32"
      },
      {
        "astId": 2269,
        "contract": "contracts/PKDR.sol:PKDR",
        "label": "__gap",
        "offset": 0,
        "slot": "355",
        "type": "t_array(t_uint256)49_storage"
      },
      {
        "astId": 509,
        "contract": "contracts/PKDR.sol:PKDR",
        "label": "__gap",
        "offset": 0,
        "slot": "404",
        "type": "t_array(t_uint256)50_storage"
      },
      {
        "astId": 824,
        "contract": "contracts/PKDR.sol:PKDR",
        "label": "__gap",
        "offset": 0,
        "slot": "454",
        "type": "t_array(t_uint256)50_storage"
      },
      {
        "astId": 5344,
        "contract": "contracts/PKDR.sol:PKDR",
        "label": "PLATFORM_FEE",
        "offset": 0,
        "slot": "504",
        "type": "t_uint256"
      },
      {
        "astId": 5347,
        "contract": "contracts/PKDR.sol:PKDR",
        "label": "profiles",
        "offset": 0,
        "slot": "505",
        "type": "t_contract(Profiles)6412"
      }
    ],
    "types": {
      "t_address": {
        "encoding": "inplace",
        "label": "address",
        "numberOfBytes": "20"
      },
      "t_array(t_uint256)45_storage": {
        "base": "t_uint256",
        "encoding": "inplace",
        "label": "uint256[45]",
        "numberOfBytes": "1440"
      },
      "t_array(t_uint256)46_storage": {
        "base": "t_uint256",
        "encoding": "inplace",
        "label": "uint256[46]",
        "numberOfBytes": "1472"
      },
      "t_array(t_uint256)49_storage": {
        "base": "t_uint256",
        "encoding": "inplace",
        "label": "uint256[49]",
        "numberOfBytes": "1568"
      },
      "t_array(t_uint256)50_storage": {
        "base": "t_uint256",
        "encoding": "inplace",
        "label": "uint256[50]",
        "numberOfBytes": "1600"
      },
      "t_array(t_uint256)dyn_storage": {
        "base": "t_uint256",
        "encoding": "dynamic_array",
        "label": "uint256[]",
        "numberOfBytes": "32"
      },
      "t_bool": {
        "encoding": "inplace",
        "label": "bool",
        "numberOfBytes": "1"
      },
      "t_bytes32": {
        "encoding": "inplace",
        "label": "bytes32",
        "numberOfBytes": "32"
      },
      "t_contract(Profiles)6412": {
        "encoding": "inplace",
        "label": "contract Profiles",
        "numberOfBytes": "20"
      },
      "t_mapping(t_address,t_mapping(t_address,t_uint256))": {
        "encoding": "mapping",
        "key": "t_address",
        "label": "mapping(address => mapping(address => uint256))",
        "numberOfBytes": "32",
        "value": "t_mapping(t_address,t_uint256)"
      },
      "t_mapping(t_address,t_struct(Counter)2794_storage)": {
        "encoding": "mapping",
        "key": "t_address",
        "label": "mapping(address => struct CountersUpgradeable.Counter)",
        "numberOfBytes": "32",
        "value": "t_struct(Counter)2794_storage"
      },
      "t_mapping(t_address,t_struct(Snapshots)1744_storage)": {
        "encoding": "mapping",
        "key": "t_address",
        "label": "mapping(address => struct ERC20SnapshotUpgradeable.Snapshots)",
        "numberOfBytes": "32",
        "value": "t_struct(Snapshots)1744_storage"
      },
      "t_mapping(t_address,t_uint256)": {
        "encoding": "mapping",
        "key": "t_address",
        "label": "mapping(address => uint256)",
        "numberOfBytes": "32",
        "value": "t_uint256"
      },
      "t_string_storage": {
        "encoding": "bytes",
        "label": "string",
        "numberOfBytes": "32"
      },
      "t_struct(Counter)2794_storage": {
        "encoding": "inplace",
        "label": "struct CountersUpgradeable.Counter",
        "members": [
          {
            "astId": 2793,
            "contract": "contracts/PKDR.sol:PKDR",
            "label": "_value",
            "offset": 0,
            "slot": "0",
            "type": "t_uint256"
          }
        ],
        "numberOfBytes": "32"
      },
      "t_struct(Snapshots)1744_storage": {
        "encoding": "inplace",
        "label": "struct ERC20SnapshotUpgradeable.Snapshots",
        "members": [
          {
            "astId": 1740,
            "contract": "contracts/PKDR.sol:PKDR",
            "label": "ids",
            "offset": 0,
            "slot": "0",
            "type": "t_array(t_uint256)dyn_storage"
          },
          {
            "astId": 1743,
            "contract": "contracts/PKDR.sol:PKDR",
            "label": "values",
            "offset": 0,
            "slot": "1",
            "type": "t_array(t_uint256)dyn_storage"
          }
        ],
        "numberOfBytes": "64"
      },
      "t_uint256": {
        "encoding": "inplace",
        "label": "uint256",
        "numberOfBytes": "32"
      },
      "t_uint8": {
        "encoding": "inplace",
        "label": "uint8",
        "numberOfBytes": "1"
      }
    }
  }
}