{
  "_format": "hh-sol-artifact-1",
  "contractName": "Profiles",
  "sourceName": "contracts/Profiles.sol",
  "abi": [
    {
      "inputs": [],
      "stateMutability": "nonpayable",
      "type": "constructor"
    },
    {
      "inputs": [
        {
          "internalType": "address",
          "name": "newAdmin",
          "type": "address"
        }
      ],
      "name": "addAdmin",
      "outputs": [
        {
          "internalType": "bool",
          "name": "",
          "type": "bool"
        }
      ],
      "stateMutability": "nonpayable",
      "type": "function"
    },
    {
      "inputs": [],
      "name": "getAdminAddresses",
      "outputs": [
        {
          "internalType": "address[]",
          "name": "",
          "type": "address[]"
        }
      ],
      "stateMutability": "view",
      "type": "function"
    }
  ],
  "bytecode": "0x608060405234801561001057600080fd5b506000339080600181540180825580915050600190039060005260206000200160009091909190916101000a81548173ffffffffffffffffffffffffffffffffffffffff021916908373ffffffffffffffffffffffffffffffffffffffff1602179055506000339080600181540180825580915050600190039060005260206000200160009091909190916101000a81548173ffffffffffffffffffffffffffffffffffffffff021916908373ffffffffffffffffffffffffffffffffffffffff1602179055506000339080600181540180825580915050600190039060005260206000200160009091909190916101000a81548173ffffffffffffffffffffffffffffffffffffffff021916908373ffffffffffffffffffffffffffffffffffffffff1602179055506102fa806101496000396000f3fe608060405234801561001057600080fd5b50600436106100365760003560e01c806364ddfa291461003b5780637048027514610059575b600080fd5b610043610089565b604051610050919061020e565b60405180910390f35b610073600480360381019061006e9190610261565b610117565b60405161008091906102a9565b60405180910390f35b6060600080548060200260200160405190810160405280929190818152602001828054801561010d57602002820191906000526020600020905b8160009054906101000a900473ffffffffffffffffffffffffffffffffffffffff1673ffffffffffffffffffffffffffffffffffffffff16815260200190600101908083116100c3575b5050505050905090565b6000919050565b600081519050919050565b600082825260208201905092915050565b6000819050602082019050919050565b600073ffffffffffffffffffffffffffffffffffffffff82169050919050565b60006101758261014a565b9050919050565b6101858161016a565b82525050565b6000610197838361017c565b60208301905092915050565b6000602082019050919050565b60006101bb8261011e565b6101c58185610129565b93506101d08361013a565b8060005b838110156102015781516101e8888261018b565b97506101f3836101a3565b9250506001810190506101d4565b5085935050505092915050565b6000602082019050818103600083015261022881846101b0565b905092915050565b600080fd5b61023e8161016a565b811461024957600080fd5b50565b60008135905061025b81610235565b92915050565b60006020828403121561027757610276610230565b5b60006102858482850161024c565b91505092915050565b60008115159050919050565b6102a38161028e565b82525050565b60006020820190506102be600083018461029a565b9291505056fea2646970667358221220bb653c6d18d7393069bcae468d6511e405f71c02aa9fc4b9e8f896d28628966d64736f6c63430008090033",
  "linkReferences": {},
  "deployedLinkReferences": {}
}